{
  "contractName": "AtomicSwapERC20",
  "abi": [
    {
      "anonymous": false,
      "inputs": [
        {
          "indexed": false,
          "name": "_swapID",
          "type": "bytes32"
        },
        {
          "indexed": false,
          "name": "_withdrawTrader",
          "type": "address"
        },
        {
          "indexed": false,
          "name": "_secretLock",
          "type": "bytes32"
        }
      ],
      "name": "Open",
      "type": "event"
    },
    {
      "anonymous": false,
      "inputs": [
        {
          "indexed": false,
          "name": "_swapID",
          "type": "bytes32"
        }
      ],
      "name": "Expire",
      "type": "event"
    },
    {
      "anonymous": false,
      "inputs": [
        {
          "indexed": false,
          "name": "_swapID",
          "type": "bytes32"
        },
        {
          "indexed": false,
          "name": "_secretKey",
          "type": "bytes"
        }
      ],
      "name": "Close",
      "type": "event"
    },
    {
      "constant": false,
      "inputs": [
        {
          "name": "_swapID",
          "type": "bytes32"
        },
        {
          "name": "_erc20Value",
          "type": "uint256"
        },
        {
          "name": "_erc20ContractAddress",
          "type": "address"
        },
        {
          "name": "_withdrawTrader",
          "type": "address"
        },
        {
          "name": "_secretLock",
          "type": "bytes32"
        },
        {
          "name": "_timelock",
          "type": "uint256"
        }
      ],
      "name": "open",
      "outputs": [],
      "payable": false,
      "stateMutability": "nonpayable",
      "type": "function"
    },
    {
      "constant": false,
      "inputs": [
        {
          "name": "_swapID",
          "type": "bytes32"
        },
        {
          "name": "_secretKey",
          "type": "bytes"
        }
      ],
      "name": "close",
      "outputs": [],
      "payable": false,
      "stateMutability": "nonpayable",
      "type": "function"
    },
    {
      "constant": false,
      "inputs": [
        {
          "name": "_swapID",
          "type": "bytes32"
        }
      ],
      "name": "expire",
      "outputs": [],
      "payable": false,
      "stateMutability": "nonpayable",
      "type": "function"
    },
    {
      "constant": true,
      "inputs": [
        {
          "name": "_swapID",
          "type": "bytes32"
        }
      ],
      "name": "check",
      "outputs": [
        {
          "name": "timelock",
          "type": "uint256"
        },
        {
          "name": "erc20Value",
          "type": "uint256"
        },
        {
          "name": "erc20ContractAddress",
          "type": "address"
        },
        {
          "name": "withdrawTrader",
          "type": "address"
        },
        {
          "name": "secretLock",
          "type": "bytes32"
        }
      ],
      "payable": false,
      "stateMutability": "view",
      "type": "function"
    },
    {
      "constant": true,
      "inputs": [
        {
          "name": "_swapID",
          "type": "bytes32"
        }
      ],
      "name": "checkSecretKey",
      "outputs": [
        {
          "name": "secretKey",
          "type": "bytes"
        }
      ],
      "payable": false,
      "stateMutability": "view",
      "type": "function"
    },
    {
      "constant": false,
      "inputs": [
        {
          "name": "",
          "type": "address"
        },
        {
          "name": "",
          "type": "uint256"
        },
        {
          "name": "",
          "type": "bytes"
        }
      ],
      "name": "tokenFallback",
      "outputs": [],
      "payable": false,
      "stateMutability": "nonpayable",
      "type": "function"
    }
  ],
  "bytecode": "0x608060405234801561001057600080fd5b50610e50806100206000396000f3006080604052600436106100775763ffffffff7c01000000000000000000000000000000000000000000000000000000006000350416631a26720c811461007c578063399e0792146100dc5780635d44011e14610129578063c0ee0b8a1461015c578063c64417981461018d578063f200e404146101a5575b600080fd5b34801561008857600080fd5b5060408051602060046024803582810135601f81018590048502860185019096528585526100da9583359536956044949193909101919081908401838280828437509497506102329650505050505050565b005b3480156100e857600080fd5b506100f460043561059e565b604080519586526020860194909452600160a060020a0392831685850152911660608401526080830152519081900360a00190f35b34801561013557600080fd5b506100da600435602435600160a060020a036044358116906064351660843560a4356106c9565b34801561016857600080fd5b506100da60048035600160a060020a03169060248035916044359182019101356109cd565b34801561019957600080fd5b506100da6004356109d3565b3480156101b157600080fd5b506101bd600435610c1a565b6040805160208082528351818301528351919283929083019185019080838360005b838110156101f75781810151838201526020016101df565b50505050905090810190601f1680156102245780820380516001836020036101000a031916815260200191505b509250505060405180910390f35b61023a610d4b565b600083600160008281526001602052604090205460ff16600381111561025c57fe5b1461026657600080fd5b84846002816040518082805190602001908083835b6020831061029a5780518252601f19909201916020918201910161027b565b51815160209384036101000a600019018019909216911617905260405191909301945091925050808303816000865af11580156102db573d6000803e3d6000fd5b5050506040513d60208110156102f057600080fd5b50516000838152602081905260409020600501541461030e57600080fd5b60008781526020818152604091829020825160e0810184528154815260018083015482850152600280840154600160a060020a03908116848801526003850154811660608501526004850154166080840152600584015460a08401526006840180548751601f948216156101000260001901909116929092049283018690048602820186019096528181529194929360c086019391908301828280156103f55780601f106103ca576101008083540402835291602001916103f5565b820191906000526020600020905b8154815290600101906020018083116103d857829003601f168201915b50505091909252505050600088815260208181526040909120885192975061042592600690910191890190610d89565b506000878152600160209081526040808320805460ff19166002179055606088015160808901518984015183517fa9059cbb000000000000000000000000000000000000000000000000000000008152600160a060020a0392831660048201526024810191909152925191985088169363a9059cbb93604480850194919392918390030190829087803b1580156104bb57600080fd5b505af11580156104cf573d6000803e3d6000fd5b505050506040513d60208110156104e557600080fd5b505115156104f257600080fd5b60408051888152602080820183815289519383019390935288517f692fd10a275135b9a2a2f5819db3d9965a5129ea2ad3640a0156dbce2fc81bdd938b938b939092606084019185019080838360005b8381101561055a578181015183820152602001610542565b50505050905090810190601f1680156105875780820380516001836020036101000a031916815260200191505b50935050505060405180910390a150505050505050565b60008060008060006105ae610d4b565b60008781526020818152604091829020825160e0810184528154815260018083015482850152600280840154600160a060020a03908116848801526003850154811660608501526004850154166080840152600584015460a08401526006840180548751601f948216156101000260001901909116929092049283018690048602820186019096528181529194929360c086019391908301828280156106955780601f1061066a57610100808354040283529160200191610695565b820191906000526020600020905b81548152906001019060200180831161067857829003601f168201915b505050919092525050815160208301516060840151608085015160a090950151929c919b5099509297509550909350505050565b60006106d3610d4b565b876000808281526001602052604090205460ff1660038111156106f257fe5b146106fc57600080fd5b60008981526001602052604081205460ff16600381111561071957fe5b1461072357600080fd5b604080517fdd62ed3e0000000000000000000000000000000000000000000000000000000081523360048201523060248201529051889450600160a060020a0385169163dd62ed3e9160448083019260209291908290030181600087803b15801561078d57600080fd5b505af11580156107a1573d6000803e3d6000fd5b505050506040513d60208110156107b757600080fd5b50518811156107c557600080fd5b604080517f23b872dd000000000000000000000000000000000000000000000000000000008152336004820152306024820152604481018a90529051600160a060020a038516916323b872dd9160648083019260209291908290030181600087803b15801561083357600080fd5b505af1158015610847573d6000803e3d6000fd5b505050506040513d602081101561085d57600080fd5b5051151561086a57600080fd5b6040805160e08101825285815260208082018b90523382840152600160a060020a038a811660608401528916608083015260a0820188905282516000808252918101909352909160c083019150905260008a815260208181526040918290208351815581840151600182015591830151600283018054600160a060020a0392831673ffffffffffffffffffffffffffffffffffffffff19918216179091556060850151600385018054918416918316919091179055608085015160048501805491909316911617905560a0830151600583015560c0830151805193955085936109599260068501920190610d89565b5050506000898152600160208190526040909120805460ff191682800217905550604080518a8152600160a060020a038816602082015280820187905290517f6ed79a08bf5c8a7d4a330df315e4ac386627ecafbe5d2bfd6654237d967b24f39181900360600190a1505050505050505050565b50505050565b6109db610d4b565b600082600160008281526001602052604090205460ff1660038111156109fd57fe5b14610a0757600080fd5b6000848152602081905260409020548490421015610a2457600080fd5b60008581526020818152604091829020825160e0810184528154815260018083015482850152600280840154600160a060020a03908116848801526003850154811660608501526004850154166080840152600584015460a08401526006840180548751601f948216156101000260001901909116929092049283018690048602820186019096528181529194929360c08601939190830182828015610b0b5780601f10610ae057610100808354040283529160200191610b0b565b820191906000526020600020905b815481529060010190602001808311610aee57829003601f168201915b505050919092525050506000868152600160209081526040808320805460ff191660031790556060840151848201518584015183517fa9059cbb000000000000000000000000000000000000000000000000000000008152600160a060020a0392831660048201526024810191909152925195995090975087169363a9059cbb93604480840194938390030190829087803b158015610ba957600080fd5b505af1158015610bbd573d6000803e3d6000fd5b505050506040513d6020811015610bd357600080fd5b50511515610be057600080fd5b6040805186815290517fbddd9b693ea862fad6ecf78fd51c065be26fda94d1f3cad3a7d691453a38a7359181900360200190a15050505050565b6060610c24610d4b565b82600260008281526001602052604090205460ff166003811115610c4457fe5b14610c4e57600080fd5b60008481526020818152604091829020825160e0810184528154815260018083015482850152600280840154600160a060020a03908116848801526003850154811660608501526004850154166080840152600584015460a08401526006840180548751601f948216156101000260001901909116929092049283018690048602820186019096528181529194929360c08601939190830182828015610d355780601f10610d0a57610100808354040283529160200191610d35565b820191906000526020600020905b815481529060010190602001808311610d1857829003601f168201915b5050509190925250505060c00151949350505050565b6040805160e08101825260008082526020820181905291810182905260608082018390526080820183905260a082019290925260c081019190915290565b828054600181600116156101000203166002900490600052602060002090601f016020900481019282601f10610dca57805160ff1916838001178555610df7565b82800160010185558215610df7579182015b82811115610df7578251825591602001919060010190610ddc565b50610e03929150610e07565b5090565b610e2191905b80821115610e035760008155600101610e0d565b905600a165627a7a72305820b5bc6778ee045a8e7c4f267e586cb6bb6f7f78ab5ce5ebf6da97432e2c5e2af80029",
  "source": "pragma solidity ^0.4.21;\n\nimport { ERC20Interface as ERC20 } from \"solidity-shared-lib/contracts/ERC20Interface.sol\";\nimport \"../common/ERC223ReceivingContract.sol\";\n\ncontract AtomicSwapERC20 is ERC223ReceivingContract {\n\n  struct Swap {\n    uint256 timelock;\n    uint256 erc20Value;\n    address erc20Trader;\n    address erc20ContractAddress;\n    address withdrawTrader;\n    bytes32 secretLock;\n    bytes secretKey;\n  }\n\n  enum States {\n    INVALID,\n    OPEN,\n    CLOSED,\n    EXPIRED\n  }\n\n  mapping (bytes32 => Swap) private swaps;\n  mapping (bytes32 => States) private swapStates;\n\n  event Open(bytes32 _swapID, address _withdrawTrader,bytes32 _secretLock);\n  event Expire(bytes32 _swapID);\n  event Close(bytes32 _swapID, bytes _secretKey);\n\n  modifier onlyInvalidSwaps(bytes32 _swapID) {\n    require (swapStates[_swapID] == States.INVALID);\n    _;\n  }\n\n  modifier onlyOpenSwaps(bytes32 _swapID) {\n    require (swapStates[_swapID] == States.OPEN);\n    _;\n  }\n\n  modifier onlyClosedSwaps(bytes32 _swapID) {\n    require (swapStates[_swapID] == States.CLOSED);\n    _;\n  }\n\n  modifier onlyExpirableSwaps(bytes32 _swapID) {\n    require (swaps[_swapID].timelock <= now);\n    _;\n  }\n\n  modifier onlyWithSecretKey(bytes32 _swapID, bytes _secretKey) {\n    // TODO: Require _secretKey length to conform to the spec\n    require (swaps[_swapID].secretLock == sha256(_secretKey));\n    _;\n  }\n\n  function open(bytes32 _swapID, uint256 _erc20Value, address _erc20ContractAddress, address _withdrawTrader, bytes32 _secretLock, uint256 _timelock) public onlyInvalidSwaps(_swapID) {\n    require(swapStates[_swapID] == States.INVALID);\n    // Transfer value from the ERC20 trader to this contract.\n    ERC20 erc20Contract = ERC20(_erc20ContractAddress);\n    require(_erc20Value <= erc20Contract.allowance(msg.sender, address(this)));\n    require(erc20Contract.transferFrom(msg.sender, address(this), _erc20Value));\n\n    // Store the details of the swap.\n    Swap memory swap = Swap({\n      timelock: _timelock,\n      erc20Value: _erc20Value,\n      erc20Trader: msg.sender,\n      erc20ContractAddress: _erc20ContractAddress,\n      withdrawTrader: _withdrawTrader,\n      secretLock: _secretLock,\n      secretKey: new bytes(0)\n    });\n    swaps[_swapID] = swap;\n    swapStates[_swapID] = States.OPEN;\n    emit Open(_swapID, _withdrawTrader, _secretLock);\n  }\n\n  function close(bytes32 _swapID, bytes _secretKey) public onlyOpenSwaps(_swapID) onlyWithSecretKey(_swapID, _secretKey) {\n    // Close the swap.\n    Swap memory swap = swaps[_swapID];\n    swaps[_swapID].secretKey = _secretKey;\n    swapStates[_swapID] = States.CLOSED;\n\n    // Transfer the ERC20 funds from this contract to the withdrawing trader.\n    ERC20 erc20Contract = ERC20(swap.erc20ContractAddress);\n    require(erc20Contract.transfer(swap.withdrawTrader, swap.erc20Value));\n\n    emit Close(_swapID, _secretKey);\n  }\n\n  function expire(bytes32 _swapID) public onlyOpenSwaps(_swapID) onlyExpirableSwaps(_swapID) {\n    // Expire the swap.\n    Swap memory swap = swaps[_swapID];\n    swapStates[_swapID] = States.EXPIRED;\n\n    // Transfer the ERC20 value from this contract back to the ERC20 trader.\n    ERC20 erc20Contract = ERC20(swap.erc20ContractAddress);\n    require(erc20Contract.transfer(swap.erc20Trader, swap.erc20Value));\n\n    emit Expire(_swapID);\n  }\n\n  function check(bytes32 _swapID) public view returns (uint256 timelock, uint256 erc20Value, address erc20ContractAddress, address withdrawTrader, bytes32 secretLock) {\n    Swap memory swap = swaps[_swapID];\n    return (swap.timelock, swap.erc20Value, swap.erc20ContractAddress, swap.withdrawTrader, swap.secretLock);\n  }\n\n  function checkSecretKey(bytes32 _swapID) public view onlyClosedSwaps(_swapID) returns (bytes secretKey) {\n    Swap memory swap = swaps[_swapID];\n    return swap.secretKey;\n  }\n\n  function tokenFallback(address, uint, bytes) external {\n    // do nothing but we know that we support all ERC20 and ERC223 tokens\n  }\n}\n",
  "sourcePath": "/Users/alesanro/Documents/Projects/ChronoBank/LXsidechain-sc/contracts/atomicswap/AtomicSwapERC20.sol",
  "compiler": {
    "name": "solc",
    "version": "0.4.24+commit.e67f0147.Emscripten.clang"
  },
  "schemaVersion": "2.0.1",
  "updatedAt": "2018-07-27T20:19:11.682Z"
}