{
  "contractName": "AtomicSwapERC20ToERC20",
  "abi": [
    {
      "anonymous": false,
      "inputs": [
        {
          "indexed": false,
          "name": "_swapID",
          "type": "bytes32"
        },
        {
          "indexed": false,
          "name": "_closeTrader",
          "type": "address"
        }
      ],
      "name": "Open",
      "type": "event"
    },
    {
      "anonymous": false,
      "inputs": [
        {
          "indexed": false,
          "name": "_swapID",
          "type": "bytes32"
        }
      ],
      "name": "Expire",
      "type": "event"
    },
    {
      "anonymous": false,
      "inputs": [
        {
          "indexed": false,
          "name": "_swapID",
          "type": "bytes32"
        }
      ],
      "name": "Close",
      "type": "event"
    },
    {
      "constant": false,
      "inputs": [
        {
          "name": "_swapID",
          "type": "bytes32"
        },
        {
          "name": "_openValue",
          "type": "uint256"
        },
        {
          "name": "_openContractAddress",
          "type": "address"
        },
        {
          "name": "_closeValue",
          "type": "uint256"
        },
        {
          "name": "_closeTrader",
          "type": "address"
        },
        {
          "name": "_closeContractAddress",
          "type": "address"
        }
      ],
      "name": "open",
      "outputs": [],
      "payable": false,
      "stateMutability": "nonpayable",
      "type": "function"
    },
    {
      "constant": false,
      "inputs": [
        {
          "name": "_swapID",
          "type": "bytes32"
        }
      ],
      "name": "close",
      "outputs": [],
      "payable": false,
      "stateMutability": "nonpayable",
      "type": "function"
    },
    {
      "constant": false,
      "inputs": [
        {
          "name": "_swapID",
          "type": "bytes32"
        }
      ],
      "name": "expire",
      "outputs": [],
      "payable": false,
      "stateMutability": "nonpayable",
      "type": "function"
    },
    {
      "constant": true,
      "inputs": [
        {
          "name": "_swapID",
          "type": "bytes32"
        }
      ],
      "name": "check",
      "outputs": [
        {
          "name": "openValue",
          "type": "uint256"
        },
        {
          "name": "openContractAddress",
          "type": "address"
        },
        {
          "name": "closeValue",
          "type": "uint256"
        },
        {
          "name": "closeTrader",
          "type": "address"
        },
        {
          "name": "closeContractAddress",
          "type": "address"
        }
      ],
      "payable": false,
      "stateMutability": "view",
      "type": "function"
    }
  ],
  "bytecode": "0x608060405234801561001057600080fd5b506109f2806100206000396000f3006080604052600436106100615763ffffffff7c0100000000000000000000000000000000000000000000000000000000600035041663399e0792811461006657806339c79e0c146100b75780635454a438146100d1578063c644179814610108575b600080fd5b34801561007257600080fd5b5061007e600435610120565b60408051958652600160a060020a0394851660208701528581019390935290831660608501529091166080830152519081900360a00190f35b3480156100c357600080fd5b506100cf6004356101a5565b005b3480156100dd57600080fd5b506100cf600435602435600160a060020a036044358116906064359060843581169060a435166104b1565b34801561011457600080fd5b506100cf6004356107fb565b6000806000806000610130610991565b50505060009384525050506020818152604091829020825160c08101845281548082526001830154600160a060020a039081169483019490945260028301548416948201859052600383015460608301819052600484015485166080840181905260059094015490941660a090920182905294565b6101ad610991565b60008083600160008281526001602052604090205460ff1660038111156101d057fe5b146101da57600080fd5b600085815260208181526040808320815160c08101835281548152600180830154600160a060020a039081168387015260028085015482168487015260038501546060850152600480860154831660808601908152600590960154831660a086019081528e8a52938852868920805460ff19169092179091559151935185517fdd62ed3e00000000000000000000000000000000000000000000000000000000815290821692810192909252308116602483015293519199509197509187169363dd62ed3e9360448084019491939192918390030190829087803b1580156102c157600080fd5b505af11580156102d5573d6000803e3d6000fd5b505050506040513d60208110156102eb57600080fd5b5051606085015111156102fd57600080fd5b60808401516020808601516060870151604080517f23b872dd000000000000000000000000000000000000000000000000000000008152600160a060020a0395861660048201529285166024840152604483019190915251928616926323b872dd926064808401939192918290030181600087803b15801561037e57600080fd5b505af1158015610392573d6000803e3d6000fd5b505050506040513d60208110156103a857600080fd5b505115156103b557600080fd5b8360400151915081600160a060020a031663a9059cbb856080015186600001516040518363ffffffff167c01000000000000000000000000000000000000000000000000000000000281526004018083600160a060020a0316600160a060020a0316815260200182815260200192505050602060405180830381600087803b15801561044057600080fd5b505af1158015610454573d6000803e3d6000fd5b505050506040513d602081101561046a57600080fd5b5051151561047757600080fd5b6040805186815290517fc9d8209586aca26a4f59cc70108e4cf2f637da8cb4133c78a3946bc50581ea289181900360200190a15050505050565b60006104bb610991565b876000808281526001602052604090205460ff1660038111156104da57fe5b146104e457600080fd5b604080517fdd62ed3e000000000000000000000000000000000000000000000000000000008152600160a060020a033381166004830152308116602483015291518995509185169163dd62ed3e916044808201926020929091908290030181600087803b15801561055457600080fd5b505af1158015610568573d6000803e3d6000fd5b505050506040513d602081101561057e57600080fd5b505188111561058c57600080fd5b604080517f23b872dd000000000000000000000000000000000000000000000000000000008152600160a060020a0333811660048301523081166024830152604482018b90529151918516916323b872dd916064808201926020929091908290030181600087803b15801561060057600080fd5b505af1158015610614573d6000803e3d6000fd5b505050506040513d602081101561062a57600080fd5b5051151561063757600080fd5b60c06040519081016040528089815260200133600160a060020a0316815260200188600160a060020a0316815260200187815260200186600160a060020a0316815260200185600160a060020a03168152509150816000808b600019166000191681526020019081526020016000206000820151816000015560208201518160010160006101000a815481600160a060020a030219169083600160a060020a0316021790555060408201518160020160006101000a815481600160a060020a030219169083600160a060020a031602179055506060820151816003015560808201518160040160006101000a815481600160a060020a030219169083600160a060020a0316021790555060a08201518160050160006101000a815481600160a060020a030219169083600160a060020a0316021790555090505060018060008b6000191660001916815260200190815260200160002060006101000a81548160ff021916908360038111156107a857fe5b0217905550604080518a8152600160a060020a038716602082015281517fb5894ff5a344c5160302de0b2027c5b55f4914e9d8e8c11b377b559e5ec789eb929181900390910190a1505050505050505050565b610803610991565b600082600160008281526001602052604090205460ff16600381111561082557fe5b1461082f57600080fd5b600084815260208181526040808320815160c08101835281548152600180830154600160a060020a0390811683870152600284015481168386015260038085015460608501526004850154821660808501526005909401541660a0830152898652938490529190932080549196509160ff1990911690830217905550604080840151602080860151865184517fa9059cbb000000000000000000000000000000000000000000000000000000008152600160a060020a0392831660048201526024810191909152935192955085169263a9059cbb92604480830193928290030181600087803b15801561092157600080fd5b505af1158015610935573d6000803e3d6000fd5b505050506040513d602081101561094b57600080fd5b5051151561095857600080fd5b6040805185815290517fbddd9b693ea862fad6ecf78fd51c065be26fda94d1f3cad3a7d691453a38a7359181900360200190a150505050565b6040805160c081018252600080825260208201819052918101829052606081018290526080810182905260a0810191909152905600a165627a7a72305820dfadaac101fb3b213235e24249baf50425d207d88281f7f5dac4fcc8c58e5e360029",
  "source": "pragma solidity ^0.4.21;\n\nimport \"../common/ERC20.sol\";\n\ncontract AtomicSwapERC20ToERC20 {\n\n  struct Swap {\n    uint256 openValue;\n    address openTrader;\n    address openContractAddress;\n    uint256 closeValue;\n    address closeTrader;\n    address closeContractAddress;\n  }\n\n  enum States {\n    INVALID,\n    OPEN,\n    CLOSED,\n    EXPIRED\n  }\n\n  mapping (bytes32 => Swap) private swaps;\n  mapping (bytes32 => States) private swapStates;\n\n  event Open(bytes32 _swapID, address _closeTrader);\n  event Expire(bytes32 _swapID);\n  event Close(bytes32 _swapID);\n\n  modifier onlyInvalidSwaps(bytes32 _swapID) {\n    require (swapStates[_swapID] == States.INVALID);\n    _;\n  }\n\n  modifier onlyOpenSwaps(bytes32 _swapID) {\n    require (swapStates[_swapID] == States.OPEN);\n    _;\n  }\n\n  function open(bytes32 _swapID, uint256 _openValue, address _openContractAddress, uint256 _closeValue, address _closeTrader, address _closeContractAddress) public onlyInvalidSwaps(_swapID) {\n    // Transfer value from the opening trader to this contract.\n    ERC20 openERC20Contract = ERC20(_openContractAddress);\n    require(_openValue <= openERC20Contract.allowance(msg.sender, address(this)));\n    require(openERC20Contract.transferFrom(msg.sender, address(this), _openValue));\n\n    // Store the details of the swap.\n    Swap memory swap = Swap({\n      openValue: _openValue,\n      openTrader: msg.sender,\n      openContractAddress: _openContractAddress,\n      closeValue: _closeValue,\n      closeTrader: _closeTrader,\n      closeContractAddress: _closeContractAddress\n    });\n    swaps[_swapID] = swap;\n    swapStates[_swapID] = States.OPEN;\n\n    emit Open(_swapID, _closeTrader);\n  }\n\n  function close(bytes32 _swapID) public onlyOpenSwaps(_swapID) {\n    // Close the swap.\n    Swap memory swap = swaps[_swapID];\n    swapStates[_swapID] = States.CLOSED;\n\n    // Transfer the closing funds from the closing trader to the opening trader.\n    ERC20 closeERC20Contract = ERC20(swap.closeContractAddress);\n    require(swap.closeValue <= closeERC20Contract.allowance(swap.closeTrader, address(this)));\n    require(closeERC20Contract.transferFrom(swap.closeTrader, swap.openTrader, swap.closeValue));\n\n    // Transfer the opening funds from this contract to the closing trader.\n    ERC20 openERC20Contract = ERC20(swap.openContractAddress);\n    require(openERC20Contract.transfer(swap.closeTrader, swap.openValue));\n\n    emit Close(_swapID);\n  }\n\n  function expire(bytes32 _swapID) public onlyOpenSwaps(_swapID) {\n    // Expire the swap.\n    Swap memory swap = swaps[_swapID];\n    swapStates[_swapID] = States.EXPIRED;\n\n    // Transfer opening value from this contract back to the opening trader.\n    ERC20 openERC20Contract = ERC20(swap.openContractAddress);\n    require(openERC20Contract.transfer(swap.openTrader, swap.openValue));\n\n    emit Expire(_swapID);\n  }\n\n  function check(bytes32 _swapID) public view returns (uint256 openValue, address openContractAddress, uint256 closeValue, address closeTrader, address closeContractAddress) {\n    Swap memory swap = swaps[_swapID];\n    return (swap.openValue, swap.openContractAddress, swap.closeValue, swap.closeTrader, swap.closeContractAddress);\n  }\n}\n",
  "sourcePath": "/Users/ahiatsevich/Development/chronobank/LXsidechain-sc/contracts/atomicswap/AtomicSwapERC20ToERC20.sol",
  "compiler": {
    "name": "solc",
    "version": "0.4.23+commit.124ca40d.Emscripten.clang"
  },
  "schemaVersion": "2.0.0",
  "updatedAt": "2018-05-29T13:51:53.219Z"
}