{
  "contractName": "AtomicSwapERC20",
  "abi": [
    {
      "anonymous": false,
      "inputs": [
        {
          "indexed": false,
          "name": "_swapID",
          "type": "bytes32"
        },
        {
          "indexed": false,
          "name": "_withdrawTrader",
          "type": "address"
        },
        {
          "indexed": false,
          "name": "_secretLock",
          "type": "bytes32"
        }
      ],
      "name": "Open",
      "type": "event"
    },
    {
      "anonymous": false,
      "inputs": [
        {
          "indexed": false,
          "name": "_swapID",
          "type": "bytes32"
        }
      ],
      "name": "Expire",
      "type": "event"
    },
    {
      "anonymous": false,
      "inputs": [
        {
          "indexed": false,
          "name": "_swapID",
          "type": "bytes32"
        },
        {
          "indexed": false,
          "name": "_secretKey",
          "type": "bytes"
        }
      ],
      "name": "Close",
      "type": "event"
    },
    {
      "constant": false,
      "inputs": [
        {
          "name": "_swapID",
          "type": "bytes32"
        },
        {
          "name": "_erc20Value",
          "type": "uint256"
        },
        {
          "name": "_erc20ContractAddress",
          "type": "address"
        },
        {
          "name": "_withdrawTrader",
          "type": "address"
        },
        {
          "name": "_secretLock",
          "type": "bytes32"
        },
        {
          "name": "_timelock",
          "type": "uint256"
        }
      ],
      "name": "open",
      "outputs": [],
      "payable": false,
      "stateMutability": "nonpayable",
      "type": "function"
    },
    {
      "constant": false,
      "inputs": [
        {
          "name": "_swapID",
          "type": "bytes32"
        },
        {
          "name": "_secretKey",
          "type": "bytes"
        }
      ],
      "name": "close",
      "outputs": [],
      "payable": false,
      "stateMutability": "nonpayable",
      "type": "function"
    },
    {
      "constant": false,
      "inputs": [
        {
          "name": "_swapID",
          "type": "bytes32"
        }
      ],
      "name": "expire",
      "outputs": [],
      "payable": false,
      "stateMutability": "nonpayable",
      "type": "function"
    },
    {
      "constant": true,
      "inputs": [
        {
          "name": "_swapID",
          "type": "bytes32"
        }
      ],
      "name": "check",
      "outputs": [
        {
          "name": "timelock",
          "type": "uint256"
        },
        {
          "name": "erc20Value",
          "type": "uint256"
        },
        {
          "name": "erc20ContractAddress",
          "type": "address"
        },
        {
          "name": "withdrawTrader",
          "type": "address"
        },
        {
          "name": "secretLock",
          "type": "bytes32"
        }
      ],
      "payable": false,
      "stateMutability": "view",
      "type": "function"
    },
    {
      "constant": true,
      "inputs": [
        {
          "name": "_swapID",
          "type": "bytes32"
        }
      ],
      "name": "checkSecretKey",
      "outputs": [
        {
          "name": "secretKey",
          "type": "bytes"
        }
      ],
      "payable": false,
      "stateMutability": "view",
      "type": "function"
    }
  ],
  "bytecode": "0x608060405234801561001057600080fd5b50610e1c806100206000396000f30060806040526004361061006c5763ffffffff7c01000000000000000000000000000000000000000000000000000000006000350416631a26720c8114610071578063399e0792146100d15780635d44011e1461011e578063c644179814610151578063f200e40414610169575b600080fd5b34801561007d57600080fd5b5060408051602060046024803582810135601f81018590048502860185019096528585526100cf9583359536956044949193909101919081908401838280828437509497506101f69650505050505050565b005b3480156100dd57600080fd5b506100e9600435610562565b604080519586526020860194909452600160a060020a0392831685850152911660608401526080830152519081900360a00190f35b34801561012a57600080fd5b506100cf600435602435600160a060020a036044358116906064351660843560a43561068d565b34801561015d57600080fd5b506100cf60043561099f565b34801561017557600080fd5b50610181600435610be6565b6040805160208082528351818301528351919283929083019185019080838360005b838110156101bb5781810151838201526020016101a3565b50505050905090810190601f1680156101e85780820380516001836020036101000a031916815260200191505b509250505060405180910390f35b6101fe610d17565b600083600160008281526001602052604090205460ff16600381111561022057fe5b1461022a57600080fd5b84846002816040518082805190602001908083835b6020831061025e5780518252601f19909201916020918201910161023f565b51815160209384036101000a600019018019909216911617905260405191909301945091925050808303816000865af115801561029f573d6000803e3d6000fd5b5050506040513d60208110156102b457600080fd5b5051600083815260208190526040902060050154146102d257600080fd5b60008781526020818152604091829020825160e0810184528154815260018083015482850152600280840154600160a060020a03908116848801526003850154811660608501526004850154166080840152600584015460a08401526006840180548751601f948216156101000260001901909116929092049283018690048602820186019096528181529194929360c086019391908301828280156103b95780601f1061038e576101008083540402835291602001916103b9565b820191906000526020600020905b81548152906001019060200180831161039c57829003601f168201915b5050509190925250505060008881526020818152604090912088519297506103e992600690910191890190610d55565b506000878152600160209081526040808320805460ff19166002179055606088015160808901518984015183517fa9059cbb000000000000000000000000000000000000000000000000000000008152600160a060020a0392831660048201526024810191909152925191985088169363a9059cbb93604480850194919392918390030190829087803b15801561047f57600080fd5b505af1158015610493573d6000803e3d6000fd5b505050506040513d60208110156104a957600080fd5b505115156104b657600080fd5b60408051888152602080820183815289519383019390935288517f692fd10a275135b9a2a2f5819db3d9965a5129ea2ad3640a0156dbce2fc81bdd938b938b939092606084019185019080838360005b8381101561051e578181015183820152602001610506565b50505050905090810190601f16801561054b5780820380516001836020036101000a031916815260200191505b50935050505060405180910390a150505050505050565b6000806000806000610572610d17565b60008781526020818152604091829020825160e0810184528154815260018083015482850152600280840154600160a060020a03908116848801526003850154811660608501526004850154166080840152600584015460a08401526006840180548751601f948216156101000260001901909116929092049283018690048602820186019096528181529194929360c086019391908301828280156106595780601f1061062e57610100808354040283529160200191610659565b820191906000526020600020905b81548152906001019060200180831161063c57829003601f168201915b505050919092525050815160208301516060840151608085015160a090950151929c919b5099509297509550909350505050565b6000610697610d17565b876000808281526001602052604090205460ff1660038111156106b657fe5b146106c057600080fd5b60008981526001602052604081205460ff1660038111156106dd57fe5b146106e757600080fd5b604080517fdd62ed3e000000000000000000000000000000000000000000000000000000008152600160a060020a033381166004830152308116602483015291518995509185169163dd62ed3e916044808201926020929091908290030181600087803b15801561075757600080fd5b505af115801561076b573d6000803e3d6000fd5b505050506040513d602081101561078157600080fd5b505188111561078f57600080fd5b604080517f23b872dd000000000000000000000000000000000000000000000000000000008152600160a060020a0333811660048301523081166024830152604482018b90529151918516916323b872dd916064808201926020929091908290030181600087803b15801561080357600080fd5b505af1158015610817573d6000803e3d6000fd5b505050506040513d602081101561082d57600080fd5b5051151561083a57600080fd5b6040805160e08101825285815260208082018b9052600160a060020a03338116838501528a811660608401528916608083015260a0820188905282516000808252918101909352909160c083019150905260008a815260208181526040918290208351815581840151600182015591830151600283018054600160a060020a0392831673ffffffffffffffffffffffffffffffffffffffff19918216179091556060850151600385018054918416918316919091179055608085015160048501805491909316911617905560a0830151600583015560c08301518051939550859361092b9260068501920190610d55565b5050506000898152600160208190526040909120805460ff191682800217905550604080518a8152600160a060020a038816602082015280820187905290517f6ed79a08bf5c8a7d4a330df315e4ac386627ecafbe5d2bfd6654237d967b24f39181900360600190a1505050505050505050565b6109a7610d17565b600082600160008281526001602052604090205460ff1660038111156109c957fe5b146109d357600080fd5b60008481526020819052604090205484904210156109f057600080fd5b60008581526020818152604091829020825160e0810184528154815260018083015482850152600280840154600160a060020a03908116848801526003850154811660608501526004850154166080840152600584015460a08401526006840180548751601f948216156101000260001901909116929092049283018690048602820186019096528181529194929360c08601939190830182828015610ad75780601f10610aac57610100808354040283529160200191610ad7565b820191906000526020600020905b815481529060010190602001808311610aba57829003601f168201915b505050919092525050506000868152600160209081526040808320805460ff191660031790556060840151848201518584015183517fa9059cbb000000000000000000000000000000000000000000000000000000008152600160a060020a0392831660048201526024810191909152925195995090975087169363a9059cbb93604480840194938390030190829087803b158015610b7557600080fd5b505af1158015610b89573d6000803e3d6000fd5b505050506040513d6020811015610b9f57600080fd5b50511515610bac57600080fd5b6040805186815290517fbddd9b693ea862fad6ecf78fd51c065be26fda94d1f3cad3a7d691453a38a7359181900360200190a15050505050565b6060610bf0610d17565b82600260008281526001602052604090205460ff166003811115610c1057fe5b14610c1a57600080fd5b60008481526020818152604091829020825160e0810184528154815260018083015482850152600280840154600160a060020a03908116848801526003850154811660608501526004850154166080840152600584015460a08401526006840180548751601f948216156101000260001901909116929092049283018690048602820186019096528181529194929360c08601939190830182828015610d015780601f10610cd657610100808354040283529160200191610d01565b820191906000526020600020905b815481529060010190602001808311610ce457829003601f168201915b5050509190925250505060c00151949350505050565b6040805160e08101825260008082526020820181905291810182905260608082018390526080820183905260a082019290925260c081019190915290565b828054600181600116156101000203166002900490600052602060002090601f016020900481019282601f10610d9657805160ff1916838001178555610dc3565b82800160010185558215610dc3579182015b82811115610dc3578251825591602001919060010190610da8565b50610dcf929150610dd3565b5090565b610ded91905b80821115610dcf5760008155600101610dd9565b905600a165627a7a723058202b1151d47184759099d16c48ad71a502494962e81cde9845f40c5e957cdbf06d0029",
  "source": "pragma solidity ^0.4.21;\n\nimport \"../common/ERC20.sol\";\n\ncontract AtomicSwapERC20 {\n\n  struct Swap {\n    uint256 timelock;\n    uint256 erc20Value;\n    address erc20Trader;\n    address erc20ContractAddress;\n    address withdrawTrader;\n    bytes32 secretLock;\n    bytes secretKey;\n  }\n\n  enum States {\n    INVALID,\n    OPEN,\n    CLOSED,\n    EXPIRED\n  }\n\n  mapping (bytes32 => Swap) private swaps;\n  mapping (bytes32 => States) private swapStates;\n\n  event Open(bytes32 _swapID, address _withdrawTrader,bytes32 _secretLock);\n  event Expire(bytes32 _swapID);\n  event Close(bytes32 _swapID, bytes _secretKey);\n\n  modifier onlyInvalidSwaps(bytes32 _swapID) {\n    require (swapStates[_swapID] == States.INVALID);\n    _;\n  }\n\n  modifier onlyOpenSwaps(bytes32 _swapID) {\n    require (swapStates[_swapID] == States.OPEN);\n    _;\n  }\n\n  modifier onlyClosedSwaps(bytes32 _swapID) {\n    require (swapStates[_swapID] == States.CLOSED);\n    _;\n  }\n\n  modifier onlyExpirableSwaps(bytes32 _swapID) {\n    require (swaps[_swapID].timelock <= now);\n    _;\n  }\n\n  modifier onlyWithSecretKey(bytes32 _swapID, bytes _secretKey) {\n    // TODO: Require _secretKey length to conform to the spec\n    require (swaps[_swapID].secretLock == sha256(_secretKey));\n    _;\n  }\n\n  function open(bytes32 _swapID, uint256 _erc20Value, address _erc20ContractAddress, address _withdrawTrader, bytes32 _secretLock, uint256 _timelock) public onlyInvalidSwaps(_swapID) {\n    require(swapStates[_swapID] == States.INVALID);\n    // Transfer value from the ERC20 trader to this contract.\n    ERC20 erc20Contract = ERC20(_erc20ContractAddress);\n    require(_erc20Value <= erc20Contract.allowance(msg.sender, address(this)));\n    require(erc20Contract.transferFrom(msg.sender, address(this), _erc20Value));\n\n    // Store the details of the swap.\n    Swap memory swap = Swap({\n      timelock: _timelock,\n      erc20Value: _erc20Value,\n      erc20Trader: msg.sender,\n      erc20ContractAddress: _erc20ContractAddress,\n      withdrawTrader: _withdrawTrader,\n      secretLock: _secretLock,\n      secretKey: new bytes(0)\n    });\n    swaps[_swapID] = swap;\n    swapStates[_swapID] = States.OPEN;\n    emit Open(_swapID, _withdrawTrader, _secretLock);\n  }\n\n  function close(bytes32 _swapID, bytes _secretKey) public onlyOpenSwaps(_swapID) onlyWithSecretKey(_swapID, _secretKey) {\n    // Close the swap.\n    Swap memory swap = swaps[_swapID];\n    swaps[_swapID].secretKey = _secretKey;\n    swapStates[_swapID] = States.CLOSED;\n\n    // Transfer the ERC20 funds from this contract to the withdrawing trader.\n    ERC20 erc20Contract = ERC20(swap.erc20ContractAddress);\n    require(erc20Contract.transfer(swap.withdrawTrader, swap.erc20Value));\n\n    emit Close(_swapID, _secretKey);\n  }\n\n  function expire(bytes32 _swapID) public onlyOpenSwaps(_swapID) onlyExpirableSwaps(_swapID) {\n    // Expire the swap.\n    Swap memory swap = swaps[_swapID];\n    swapStates[_swapID] = States.EXPIRED;\n\n    // Transfer the ERC20 value from this contract back to the ERC20 trader.\n    ERC20 erc20Contract = ERC20(swap.erc20ContractAddress);\n    require(erc20Contract.transfer(swap.erc20Trader, swap.erc20Value));\n\n    emit Expire(_swapID);\n  }\n\n  function check(bytes32 _swapID) public view returns (uint256 timelock, uint256 erc20Value, address erc20ContractAddress, address withdrawTrader, bytes32 secretLock) {\n    Swap memory swap = swaps[_swapID];\n    return (swap.timelock, swap.erc20Value, swap.erc20ContractAddress, swap.withdrawTrader, swap.secretLock);\n  }\n\n  function checkSecretKey(bytes32 _swapID) public view onlyClosedSwaps(_swapID) returns (bytes secretKey) {\n    Swap memory swap = swaps[_swapID];\n    return swap.secretKey;\n  }\n}\n",
  "sourcePath": "/Users/ahiatsevich/Development/chronobank/LXsidechain-sc/contracts/atomicswap/AtomicSwapERC20.sol",
  "compiler": {
    "name": "solc",
    "version": "0.4.23+commit.124ca40d.Emscripten.clang"
  },
  "schemaVersion": "2.0.0",
  "updatedAt": "2018-05-29T13:51:53.223Z"
}