{
  "contractName": "BaseManager",
  "abi": [
    {
      "constant": false,
      "inputs": [],
      "name": "claimContractOwnership",
      "outputs": [
        {
          "name": "",
          "type": "bool"
        }
      ],
      "payable": false,
      "stateMutability": "nonpayable",
      "type": "function"
    },
    {
      "constant": false,
      "inputs": [
        {
          "name": "_to",
          "type": "address"
        }
      ],
      "name": "changeContractOwnership",
      "outputs": [
        {
          "name": "",
          "type": "bool"
        }
      ],
      "payable": false,
      "stateMutability": "nonpayable",
      "type": "function"
    },
    {
      "constant": true,
      "inputs": [],
      "name": "pendingContractOwner",
      "outputs": [
        {
          "name": "",
          "type": "address"
        }
      ],
      "payable": false,
      "stateMutability": "view",
      "type": "function"
    },
    {
      "constant": false,
      "inputs": [
        {
          "name": "tokens",
          "type": "address[]"
        }
      ],
      "name": "withdrawTokens",
      "outputs": [],
      "payable": false,
      "stateMutability": "nonpayable",
      "type": "function"
    },
    {
      "constant": false,
      "inputs": [],
      "name": "withdrawEther",
      "outputs": [],
      "payable": false,
      "stateMutability": "nonpayable",
      "type": "function"
    },
    {
      "constant": true,
      "inputs": [],
      "name": "contractOwner",
      "outputs": [
        {
          "name": "",
          "type": "address"
        }
      ],
      "payable": false,
      "stateMutability": "view",
      "type": "function"
    },
    {
      "constant": false,
      "inputs": [
        {
          "name": "newOwner",
          "type": "address"
        }
      ],
      "name": "transferOwnership",
      "outputs": [
        {
          "name": "",
          "type": "bool"
        }
      ],
      "payable": false,
      "stateMutability": "nonpayable",
      "type": "function"
    },
    {
      "inputs": [
        {
          "name": "_store",
          "type": "address"
        },
        {
          "name": "_crate",
          "type": "bytes32"
        }
      ],
      "payable": false,
      "stateMutability": "nonpayable",
      "type": "constructor"
    },
    {
      "anonymous": false,
      "inputs": [
        {
          "indexed": true,
          "name": "previousOwner",
          "type": "address"
        },
        {
          "indexed": true,
          "name": "newOwner",
          "type": "address"
        }
      ],
      "name": "OwnershipTransferred",
      "type": "event"
    },
    {
      "constant": false,
      "inputs": [
        {
          "name": "_eventsHistory",
          "type": "address"
        }
      ],
      "name": "setEventsHistory",
      "outputs": [],
      "payable": false,
      "stateMutability": "nonpayable",
      "type": "function"
    },
    {
      "constant": true,
      "inputs": [],
      "name": "getEventsHistory",
      "outputs": [
        {
          "name": "",
          "type": "address"
        }
      ],
      "payable": false,
      "stateMutability": "view",
      "type": "function"
    }
  ],
  "bytecode": "0x608060405234801561001057600080fd5b506040516040806106e983398101604052805160209091015160008054600160a060020a031916331790558181610056600283836401000000006105e361007282021704565b505060048054600160a060020a03191630179055506100989050565b8254600160a060020a031916600160a060020a0392909216919091178255600190910155565b610642806100a76000396000f3006080604052600436106100985763ffffffff7c01000000000000000000000000000000000000000000000000000000006000350416634592cd1d811461009d578063557f4bc9146100c65780635aa77d3c146100e75780635ecb16cd146101185780636521afd71461016f5780637362377b14610190578063ce606ee0146101a5578063f2fde38b146101ba578063fff10aba146101db575b600080fd5b3480156100a957600080fd5b506100b26101f0565b604080519115158252519081900360200190f35b3480156100d257600080fd5b506100b2600160a060020a0360043516610281565b3480156100f357600080fd5b506100fc6102dc565b60408051600160a060020a039092168252519081900360200190f35b34801561012457600080fd5b506040805160206004803580820135838102808601850190965280855261016d953695939460249493850192918291850190849080828437509497506102eb9650505050505050565b005b34801561017b57600080fd5b5061016d600160a060020a036004351661048a565b34801561019c57600080fd5b5061016d6104c9565b3480156101b157600080fd5b506100fc610526565b3480156101c657600080fd5b506100b2600160a060020a0360043516610535565b3480156101e757600080fd5b506100fc6105d4565b600154600090600160a060020a0316331461020d5750600061027e565b60015460008054604051600160a060020a0393841693909116917f8be0079c531659141344cd1fd0a4f28419497f9722a3daafe3b4186f6b6457e091a350600180546000805473ffffffffffffffffffffffffffffffffffffffff19908116600160a060020a038416179091551681555b90565b60008054600160a060020a03163314156102d757600160a060020a03821615156102ad575060006102d7565b506001805473ffffffffffffffffffffffffffffffffffffffff1916600160a060020a0383161781555b919050565b600154600160a060020a031681565b60008054819081908190600160a060020a03163314156104835760008054600160a060020a0316945092505b845183101561048357848381518110151561032e57fe5b6020908102909101810151604080517f70a082310000000000000000000000000000000000000000000000000000000081523060048201529051919450600160a060020a038516926370a08231926024808401938290030181600087803b15801561039857600080fd5b505af11580156103ac573d6000803e3d6000fd5b505050506040513d60208110156103c257600080fd5b5051905060008111156104785781600160a060020a031663a9059cbb85836040518363ffffffff167c01000000000000000000000000000000000000000000000000000000000281526004018083600160a060020a0316600160a060020a0316815260200182815260200192505050602060405180830381600087803b15801561044b57600080fd5b505af115801561045f573d6000803e3d6000fd5b505050506040513d602081101561047557600080fd5b50505b600190920191610317565b5050505050565b600054600160a060020a03163314156104c6576004805473ffffffffffffffffffffffffffffffffffffffff1916600160a060020a0383161790555b50565b60008054600160a060020a03163314156104c65750303160008111156104c65760008054604051600160a060020a039091169183156108fc02918491818181858888f19350505050158015610522573d6000803e3d6000fd5b5050565b600054600160a060020a031681565b60008054600160a060020a03163314156102d757600160a060020a0382161515610561575060006102d7565b60008054604051600160a060020a03808616939216917f8be0079c531659141344cd1fd0a4f28419497f9722a3daafe3b4186f6b6457e091a35060008054600160a060020a03831673ffffffffffffffffffffffffffffffffffffffff1991821617909155600180549091168155919050565b600454600160a060020a031690565b825473ffffffffffffffffffffffffffffffffffffffff1916600160a060020a03929092169190911782556001909101555600a165627a7a72305820f45972e2d30c826f9010aa833fa818c03682c89d394c70aa5ed83c30242d99390029",
  "source": "/**\n * Copyright 2017–2018, LaborX PTY\n * Licensed under the AGPL Version 3 license.\n */\n\npragma solidity ^0.4.23;\n\n\nimport \"solidity-storage-lib/contracts/StorageAdapter.sol\";\nimport \"./Object.sol\";\n\n\ncontract BaseManager is Object, StorageAdapter {\n    \n    uint constant REINITIALIZED = 6;\n\n    address eventsEmmiter;    \n\n    constructor(Storage _store, bytes32 _crate) StorageAdapter(_store, _crate) public {\n        eventsEmmiter = this;\n    }\n\n    function setEventsHistory(address _eventsHistory) onlyContractOwner external {\n        eventsEmmiter = _eventsHistory;\n    }\n\n    function getEventsHistory() public view returns (address) {\n        return eventsEmmiter;\n    }\n}\n",
  "sourcePath": "/Users/alesanro/Documents/Projects/ChronoBank/LXsidechain-sc/contracts/common/BaseManager.sol",
  "compiler": {
    "name": "solc",
    "version": "0.4.24+commit.e67f0147.Emscripten.clang"
  },
  "schemaVersion": "2.0.1",
  "updatedAt": "2018-07-27T20:15:18.606Z"
}