{
  "contractName": "ChronoBankAssetERC223",
  "abi": [
    {
      "constant": false,
      "inputs": [
        {
          "name": "_proxy",
          "type": "address"
        }
      ],
      "name": "init",
      "outputs": [
        {
          "name": "",
          "type": "bool"
        }
      ],
      "payable": false,
      "stateMutability": "nonpayable",
      "type": "function"
    },
    {
      "constant": false,
      "inputs": [
        {
          "name": "_symbol",
          "type": "bytes32"
        }
      ],
      "name": "emitUnpaused",
      "outputs": [],
      "payable": false,
      "stateMutability": "nonpayable",
      "type": "function"
    },
    {
      "constant": false,
      "inputs": [
        {
          "name": "_symbol",
          "type": "bytes32"
        },
        {
          "name": "_restricted",
          "type": "address"
        }
      ],
      "name": "emitRestricted",
      "outputs": [],
      "payable": false,
      "stateMutability": "nonpayable",
      "type": "function"
    },
    {
      "constant": false,
      "inputs": [],
      "name": "unpause",
      "outputs": [
        {
          "name": "",
          "type": "bool"
        }
      ],
      "payable": false,
      "stateMutability": "nonpayable",
      "type": "function"
    },
    {
      "constant": true,
      "inputs": [],
      "name": "paused",
      "outputs": [
        {
          "name": "",
          "type": "bool"
        }
      ],
      "payable": false,
      "stateMutability": "view",
      "type": "function"
    },
    {
      "constant": false,
      "inputs": [
        {
          "name": "_to",
          "type": "address"
        },
        {
          "name": "_value",
          "type": "uint256"
        },
        {
          "name": "_reference",
          "type": "string"
        },
        {
          "name": "_sender",
          "type": "address"
        }
      ],
      "name": "__transferWithReference",
      "outputs": [
        {
          "name": "",
          "type": "bool"
        }
      ],
      "payable": false,
      "stateMutability": "nonpayable",
      "type": "function"
    },
    {
      "constant": false,
      "inputs": [
        {
          "name": "_spender",
          "type": "address"
        },
        {
          "name": "_value",
          "type": "uint256"
        },
        {
          "name": "_sender",
          "type": "address"
        }
      ],
      "name": "__approve",
      "outputs": [
        {
          "name": "",
          "type": "bool"
        }
      ],
      "payable": false,
      "stateMutability": "nonpayable",
      "type": "function"
    },
    {
      "constant": false,
      "inputs": [
        {
          "name": "_symbol",
          "type": "bytes32"
        }
      ],
      "name": "emitPaused",
      "outputs": [],
      "payable": false,
      "stateMutability": "nonpayable",
      "type": "function"
    },
    {
      "constant": false,
      "inputs": [],
      "name": "pause",
      "outputs": [
        {
          "name": "",
          "type": "bool"
        }
      ],
      "payable": false,
      "stateMutability": "nonpayable",
      "type": "function"
    },
    {
      "constant": false,
      "inputs": [
        {
          "name": "_symbol",
          "type": "bytes32"
        },
        {
          "name": "_unrestricted",
          "type": "address"
        }
      ],
      "name": "emitUnrestricted",
      "outputs": [],
      "payable": false,
      "stateMutability": "nonpayable",
      "type": "function"
    },
    {
      "constant": false,
      "inputs": [
        {
          "name": "_restricted",
          "type": "address[]"
        }
      ],
      "name": "restrict",
      "outputs": [
        {
          "name": "",
          "type": "bool"
        }
      ],
      "payable": false,
      "stateMutability": "nonpayable",
      "type": "function"
    },
    {
      "constant": true,
      "inputs": [],
      "name": "proxy",
      "outputs": [
        {
          "name": "",
          "type": "address"
        }
      ],
      "payable": false,
      "stateMutability": "view",
      "type": "function"
    },
    {
      "constant": false,
      "inputs": [
        {
          "name": "_from",
          "type": "address"
        },
        {
          "name": "_to",
          "type": "address"
        },
        {
          "name": "_value",
          "type": "uint256"
        },
        {
          "name": "_reference",
          "type": "string"
        },
        {
          "name": "_sender",
          "type": "address"
        }
      ],
      "name": "__transferFromWithReference",
      "outputs": [
        {
          "name": "",
          "type": "bool"
        }
      ],
      "payable": false,
      "stateMutability": "nonpayable",
      "type": "function"
    },
    {
      "constant": false,
      "inputs": [
        {
          "name": "_unrestricted",
          "type": "address[]"
        }
      ],
      "name": "unrestrict",
      "outputs": [
        {
          "name": "",
          "type": "bool"
        }
      ],
      "payable": false,
      "stateMutability": "nonpayable",
      "type": "function"
    },
    {
      "constant": true,
      "inputs": [],
      "name": "eventsHistory",
      "outputs": [
        {
          "name": "",
          "type": "address"
        }
      ],
      "payable": false,
      "stateMutability": "view",
      "type": "function"
    },
    {
      "constant": false,
      "inputs": [
        {
          "name": "",
          "type": "bytes"
        },
        {
          "name": "",
          "type": "address"
        }
      ],
      "name": "__process",
      "outputs": [],
      "payable": true,
      "stateMutability": "payable",
      "type": "function"
    },
    {
      "constant": true,
      "inputs": [
        {
          "name": "",
          "type": "address"
        }
      ],
      "name": "blacklist",
      "outputs": [
        {
          "name": "",
          "type": "bool"
        }
      ],
      "payable": false,
      "stateMutability": "view",
      "type": "function"
    },
    {
      "anonymous": false,
      "inputs": [
        {
          "indexed": true,
          "name": "symbol",
          "type": "bytes32"
        },
        {
          "indexed": false,
          "name": "restricted",
          "type": "address"
        }
      ],
      "name": "Restricted",
      "type": "event"
    },
    {
      "anonymous": false,
      "inputs": [
        {
          "indexed": true,
          "name": "symbol",
          "type": "bytes32"
        },
        {
          "indexed": false,
          "name": "unrestricted",
          "type": "address"
        }
      ],
      "name": "Unrestricted",
      "type": "event"
    },
    {
      "anonymous": false,
      "inputs": [
        {
          "indexed": true,
          "name": "symbol",
          "type": "bytes32"
        }
      ],
      "name": "Paused",
      "type": "event"
    },
    {
      "anonymous": false,
      "inputs": [
        {
          "indexed": true,
          "name": "symbol",
          "type": "bytes32"
        }
      ],
      "name": "Unpaused",
      "type": "event"
    }
  ],
  "bytecode": "0x60806040526002805460ff1916905534801561001a57600080fd5b506117db8061002a6000396000f3006080604052600436106100d75763ffffffff60e060020a60003504166319ab453c81146100dc57806322ccf67814610111578063339d8b451461012b5780633f4ba83a1461014f5780635c975abb146101645780636a630ee7146101795780637b7054c8146101ed5780637df5fd35146102185780638456cb59146102305780638c8f488014610245578063be57771a14610269578063ec55688914610289578063ec698a28146102ba578063ee47af0014610334578063f07629f814610354578063f2d6e0ab14610369578063f9f92be4146103c0575b600080fd5b3480156100e857600080fd5b506100fd600160a060020a03600435166103e1565b604080519115158252519081900360200190f35b34801561011d57600080fd5b5061012960043561042c565b005b34801561013757600080fd5b50610129600435600160a060020a036024351661045a565b34801561015b57600080fd5b506100fd61049d565b34801561017057600080fd5b506100fd610649565b34801561018557600080fd5b50604080516020600460443581810135601f81018490048402850184019095528484526100fd948235600160a060020a031694602480359536959460649492019190819084018382808284375094975050509235600160a060020a0316935061065292505050565b3480156101f957600080fd5b506100fd600160a060020a03600435811690602435906044351661067d565b34801561022457600080fd5b506101296004356106a6565b34801561023c57600080fd5b506100fd6106d4565b34801561025157600080fd5b50610129600435600160a060020a036024351661087a565b34801561027557600080fd5b506100fd60048035602481019101356108bd565b34801561029557600080fd5b5061029e610ab3565b60408051600160a060020a039092168252519081900360200190f35b3480156102c657600080fd5b50604080516020601f6064356004818101359283018490048402850184019095528184526100fd94600160a060020a03813581169560248035909216956044359536956084940191819084018382808284375094975050509235600160a060020a03169350610ac292505050565b34801561034057600080fd5b506100fd6004803560248101910135610aef565b34801561036057600080fd5b5061029e610cd3565b6040805160206004803580820135601f810184900484028501840190955284845261012994369492936024939284019190819084018382808284375094975050509235600160a060020a031693506100d792505050565b3480156103cc57600080fd5b506100fd600160a060020a0360043516610e70565b60008054600160a060020a0316156103fb57506000610427565b506000805473ffffffffffffffffffffffffffffffffffffffff1916600160a060020a03831617905560015b919050565b60405181907fd05bfc2250abb0f8fd265a54c53a24359c5484af63cad2e4ce87c78ab751395a90600090a250565b60408051600160a060020a0383168152905183917fd097e4d83d4e07fdd04ead2330f40bccf48350dd3f12caf1e36ef45049494c17919081900360200190a25050565b60008054604080517f49752baf00000000000000000000000000000000000000000000000000000000815290518392600160a060020a0316916349752baf91600480830192602092919082900301818787803b1580156104fc57600080fd5b505af1158015610510573d6000803e3d6000fd5b505050506040513d602081101561052657600080fd5b5051600080546040805160e060020a63cb4e75bb0281529051939450600160a060020a038086169463ccc11f119433949092169263cb4e75bb9260048083019360209390929083900390910190829087803b15801561058457600080fd5b505af1158015610598573d6000803e3d6000fd5b505050506040513d60208110156105ae57600080fd5b50516040805160e060020a63ffffffff8616028152600160a060020a03909316600484015260248301919091525160448083019260209291908290030181600087803b1580156105fd57600080fd5b505af1158015610611573d6000803e3d6000fd5b505050506040513d602081101561062757600080fd5b505115610645576002805460ff19169055610640610e85565b600191505b5090565b60025460ff1681565b60008054600160a060020a03163314156106755761067285858585610f6f565b90505b949350505050565b60008054600160a060020a031633141561069f5761069c848484611093565b90505b9392505050565b60405181907f0cb09dc71d57eeec2046f6854976717e4874a3cf2d6ddeddde337e5b6de6ba3190600090a250565b60008054604080517f49752baf00000000000000000000000000000000000000000000000000000000815290518392600160a060020a0316916349752baf91600480830192602092919082900301818787803b15801561073357600080fd5b505af1158015610747573d6000803e3d6000fd5b505050506040513d602081101561075d57600080fd5b5051600080546040805160e060020a63cb4e75bb0281529051939450600160a060020a038086169463ccc11f119433949092169263cb4e75bb9260048083019360209390929083900390910190829087803b1580156107bb57600080fd5b505af11580156107cf573d6000803e3d6000fd5b505050506040513d60208110156107e557600080fd5b50516040805160e060020a63ffffffff8616028152600160a060020a03909316600484015260248301919091525160448083019260209291908290030181600087803b15801561083457600080fd5b505af1158015610848573d6000803e3d6000fd5b505050506040513d602081101561085e57600080fd5b505115610645576002805460ff1916600117905561064061118e565b60408051600160a060020a0383168152905183917f791b5fd6715e4832fb6052f31b1eba08447cceeced1bf87aeb13c242b7cef492919081900360200190a25050565b6000806000806000809054906101000a9004600160a060020a0316600160a060020a03166349752baf6040518163ffffffff1660e060020a028152600401602060405180830381600087803b15801561091557600080fd5b505af1158015610929573d6000803e3d6000fd5b505050506040513d602081101561093f57600080fd5b5051600080546040805160e060020a63cb4e75bb0281529051939450600160a060020a038086169463ccc11f119433949092169263cb4e75bb9260048083019360209390929083900390910190829087803b15801561099d57600080fd5b505af11580156109b1573d6000803e3d6000fd5b505050506040513d60208110156109c757600080fd5b50516040805160e060020a63ffffffff8616028152600160a060020a03909316600484015260248301919091525160448083019260209291908290030181600087803b158015610a1657600080fd5b505af1158015610a2a573d6000803e3d6000fd5b505050506040513d6020811015610a4057600080fd5b505115610aaa57600092505b84831015610aa557858584818110610a6057fe5b60209081029290920135600160a060020a0316600081815260019384905260409020805460ff1916909317909255509150610a9a826111f6565b600190920191610a4c565b600193505b50505092915050565b600054600160a060020a031681565b60008054600160a060020a0316331415610ae657610ae386868686866112f0565b90505b95945050505050565b6000806000806000809054906101000a9004600160a060020a0316600160a060020a03166349752baf6040518163ffffffff1660e060020a028152600401602060405180830381600087803b158015610b4757600080fd5b505af1158015610b5b573d6000803e3d6000fd5b505050506040513d6020811015610b7157600080fd5b5051600080546040805160e060020a63cb4e75bb0281529051939450600160a060020a038086169463ccc11f119433949092169263cb4e75bb9260048083019360209390929083900390910190829087803b158015610bcf57600080fd5b505af1158015610be3573d6000803e3d6000fd5b505050506040513d6020811015610bf957600080fd5b50516040805160e060020a63ffffffff8616028152600160a060020a03909316600484015260248301919091525160448083019260209291908290030181600087803b158015610c4857600080fd5b505af1158015610c5c573d6000803e3d6000fd5b505050506040513d6020811015610c7257600080fd5b505115610aaa57600092505b84831015610aa557858584818110610c9257fe5b60209081029290920135600160a060020a0316600081815260019093526040909220805460ff19169055509150610cc882611416565b600190920191610c7e565b60008054604080517f49752baf00000000000000000000000000000000000000000000000000000000815290518392600160a060020a0316916349752baf91600480830192602092919082900301818787803b158015610d3257600080fd5b505af1158015610d46573d6000803e3d6000fd5b505050506040513d6020811015610d5c57600080fd5b5051604080517ff07629f80000000000000000000000000000000000000000000000000000000081529051919250600160a060020a03831691829163f07629f89160048083019260209291908290030181600087803b158015610dbe57600080fd5b505af1158015610dd2573d6000803e3d6000fd5b505050506040513d6020811015610de857600080fd5b5051600160a060020a03161415610dff5730610e6a565b80600160a060020a031663f07629f86040518163ffffffff1660e060020a028152600401602060405180830381600087803b158015610e3d57600080fd5b505af1158015610e51573d6000803e3d6000fd5b505050506040513d6020811015610e6757600080fd5b50515b91505090565b60016020526000908152604090205460ff1681565b610e8d610cd3565b600160a060020a03166322ccf6786000809054906101000a9004600160a060020a0316600160a060020a031663cb4e75bb6040518163ffffffff1660e060020a028152600401602060405180830381600087803b158015610eed57600080fd5b505af1158015610f01573d6000803e3d6000fd5b505050506040513d6020811015610f1757600080fd5b50516040805160e060020a63ffffffff8516028152600481019290925251602480830192600092919082900301818387803b158015610f5557600080fd5b505af1158015610f69573d6000803e3d6000fd5b50505050565b60006060610f7f8686868661147e565b9150811515610f91576000915061108a565b610f9a866115f8565b156110855785600160a060020a031663c0ee0b8a8487846040518463ffffffff1660e060020a0281526004018084600160a060020a0316600160a060020a0316815260200183815260200180602001828103825283818151815260200191508051906020019080838360005b8381101561101e578181015183820152602001611006565b50505050905090810190601f16801561104b5780820380516001836020036101000a031916815260200191505b50945050505050600060405180830381600087803b15801561106c57600080fd5b505af1158015611080573d6000803e3d6000fd5b505050505b600191505b50949350505050565b600160a060020a038316600090815260016020526040812054849060ff16151561118657600160a060020a038316600090815260016020526040902054839060ff1615156111845760008054604080517f7b7054c8000000000000000000000000000000000000000000000000000000008152600160a060020a038a81166004830152602482018a9052888116604483015291519190921692637b7054c892606480820193602093909283900390910190829087803b15801561115557600080fd5b505af1158015611169573d6000803e3d6000fd5b505050506040513d602081101561117f57600080fd5b505192505b505b509392505050565b611196610cd3565b600160a060020a0316637df5fd356000809054906101000a9004600160a060020a0316600160a060020a031663cb4e75bb6040518163ffffffff1660e060020a028152600401602060405180830381600087803b158015610eed57600080fd5b6111fe610cd3565b600160a060020a031663339d8b456000809054906101000a9004600160a060020a0316600160a060020a031663cb4e75bb6040518163ffffffff1660e060020a028152600401602060405180830381600087803b15801561125e57600080fd5b505af1158015611272573d6000803e3d6000fd5b505050506040513d602081101561128857600080fd5b50516040805160e060020a63ffffffff85160281526004810192909252600160a060020a038516602483015251604480830192600092919082900301818387803b1580156112d557600080fd5b505af11580156112e9573d6000803e3d6000fd5b5050505050565b600060606113018787878787611600565b9150811515611313576000915061140c565b61131c866115f8565b156114075785600160a060020a031663c0ee0b8a8887846040518463ffffffff1660e060020a0281526004018084600160a060020a0316600160a060020a0316815260200183815260200180602001828103825283818151815260200191508051906020019080838360005b838110156113a0578181015183820152602001611388565b50505050905090810190601f1680156113cd5780820380516001836020036101000a031916815260200191505b50945050505050600060405180830381600087803b1580156113ee57600080fd5b505af1158015611402573d6000803e3d6000fd5b505050505b600191505b5095945050505050565b61141e610cd3565b600160a060020a0316638c8f48806000809054906101000a9004600160a060020a0316600160a060020a031663cb4e75bb6040518163ffffffff1660e060020a028152600401602060405180830381600087803b15801561125e57600080fd5b60025460009060ff16151561067557600160a060020a038516600090815260016020526040902054859060ff16151561108a57600160a060020a038316600090815260016020526040902054839060ff1615156115ee57600080546040517f6a630ee7000000000000000000000000000000000000000000000000000000008152600160a060020a038a811660048301908152602483018b905288821660648401526080604484019081528a5160848501528a519290941694636a630ee7948d948d948d948d9490939260a4019160208701918190849084905b83811015611570578181015183820152602001611558565b50505050905090810190601f16801561159d5780820380516001836020036101000a031916815260200191505b5095505050505050602060405180830381600087803b1580156115bf57600080fd5b505af11580156115d3573d6000803e3d6000fd5b505050506040513d60208110156115e957600080fd5b505192505b5050949350505050565b6000903b1190565b60025460009060ff161515610ae657600160a060020a038616600090815260016020526040902054869060ff16151561140c57600160a060020a038616600090815260016020526040902054869060ff1615156117a457600160a060020a038416600090815260016020526040902054849060ff1615156117a257600080546040517fec698a28000000000000000000000000000000000000000000000000000000008152600160a060020a038c8116600483019081528c82166024840152604483018c9052898216608484015260a0606484019081528b5160a48501528b51929094169463ec698a28948f948f948f948f948f949193919260c49092019160208701918190849084905b8381101561172357818101518382015260200161170b565b50505050905090810190601f1680156117505780820380516001836020036101000a031916815260200191505b509650505050505050602060405180830381600087803b15801561177357600080fd5b505af1158015611787573d6000803e3d6000fd5b505050506040513d602081101561179d57600080fd5b505193505b505b5050959450505050505600a165627a7a72305820f9c18ae3cc81b34f55400b88000190751d97008fe5445063dfef2dd04851484e0029",
  "source": "/**\n* Copyright 2017–2018, LaborX PTY\n* Licensed under the AGPL Version 3 license.\n*/\n\npragma solidity ^0.4.24;\n\n\nimport \"./ChronoBankAsset.sol\";\nimport \"../common/ERC223ReceivingContract.sol\";\n\n\ncontract ChronoBankAssetERC223 is ChronoBankAsset {\n\n    function _transferWithReference(\n        address _to, \n        uint _value, \n        string _reference, \n        address _sender\n    )\n    internal\n    returns (bool _result)\n    {\n        _result = super._transferWithReference(_to, _value, _reference, _sender);\n        if (!_result) {\n            return false;\n        }\n\n        if (_isContract(_to)) {\n            bytes memory _empty;\n            ERC223ReceivingContract(_to).tokenFallback(_sender, _value, _empty);\n        }\n\n        return true;\n    }\n\n    function _transferFromWithReference(\n        address _from, \n        address _to, \n        uint _value, \n        string _reference, \n        address _sender\n    )\n    internal\n    returns (bool _result) {\n        _result = super._transferFromWithReference(_from, _to, _value, _reference, _sender);\n        if (!_result) {\n            return false;\n        }\n\n        if (_isContract(_to)) {\n            bytes memory _empty;\n            ERC223ReceivingContract(_to).tokenFallback(_from, _value, _empty);\n        }\n        \n        return true;\n    }\n\n    function _isContract(address _target) \n    private \n    view \n    returns (bool) \n    {\n        uint _codeLength;\n        assembly {\n            _codeLength := extcodesize(_target)\n        }\n\n        return _codeLength > 0;\n    }\n}",
  "sourcePath": "/Users/alesanro/Documents/Projects/ChronoBank/LXsidechain-sc/contracts/platform/ChronoBankAssetERC223.sol",
  "compiler": {
    "name": "solc",
    "version": "0.4.24+commit.e67f0147.Emscripten.clang"
  },
  "schemaVersion": "2.0.1",
  "updatedAt": "2018-07-27T20:18:51.226Z"
}