{
  "contractName": "ChronoBankAsset",
  "abi": [
    {
      "constant": true,
      "inputs": [],
      "name": "paused",
      "outputs": [
        {
          "name": "",
          "type": "bool"
        }
      ],
      "payable": false,
      "stateMutability": "view",
      "type": "function"
    },
    {
      "constant": true,
      "inputs": [],
      "name": "proxy",
      "outputs": [
        {
          "name": "",
          "type": "address"
        }
      ],
      "payable": false,
      "stateMutability": "view",
      "type": "function"
    },
    {
      "constant": false,
      "inputs": [
        {
          "name": "",
          "type": "bytes"
        },
        {
          "name": "",
          "type": "address"
        }
      ],
      "name": "__process",
      "outputs": [],
      "payable": true,
      "stateMutability": "payable",
      "type": "function"
    },
    {
      "constant": true,
      "inputs": [
        {
          "name": "",
          "type": "address"
        }
      ],
      "name": "blacklist",
      "outputs": [
        {
          "name": "",
          "type": "bool"
        }
      ],
      "payable": false,
      "stateMutability": "view",
      "type": "function"
    },
    {
      "anonymous": false,
      "inputs": [
        {
          "indexed": true,
          "name": "symbol",
          "type": "bytes32"
        },
        {
          "indexed": false,
          "name": "restricted",
          "type": "address"
        }
      ],
      "name": "Restricted",
      "type": "event"
    },
    {
      "anonymous": false,
      "inputs": [
        {
          "indexed": true,
          "name": "symbol",
          "type": "bytes32"
        },
        {
          "indexed": false,
          "name": "unrestricted",
          "type": "address"
        }
      ],
      "name": "Unrestricted",
      "type": "event"
    },
    {
      "anonymous": false,
      "inputs": [
        {
          "indexed": true,
          "name": "symbol",
          "type": "bytes32"
        }
      ],
      "name": "Paused",
      "type": "event"
    },
    {
      "anonymous": false,
      "inputs": [
        {
          "indexed": true,
          "name": "symbol",
          "type": "bytes32"
        }
      ],
      "name": "Unpaused",
      "type": "event"
    },
    {
      "constant": false,
      "inputs": [
        {
          "name": "_proxy",
          "type": "address"
        }
      ],
      "name": "init",
      "outputs": [
        {
          "name": "",
          "type": "bool"
        }
      ],
      "payable": false,
      "stateMutability": "nonpayable",
      "type": "function"
    },
    {
      "constant": true,
      "inputs": [],
      "name": "eventsHistory",
      "outputs": [
        {
          "name": "",
          "type": "address"
        }
      ],
      "payable": false,
      "stateMutability": "view",
      "type": "function"
    },
    {
      "constant": false,
      "inputs": [
        {
          "name": "_restricted",
          "type": "address[]"
        }
      ],
      "name": "restrict",
      "outputs": [
        {
          "name": "",
          "type": "bool"
        }
      ],
      "payable": false,
      "stateMutability": "nonpayable",
      "type": "function"
    },
    {
      "constant": false,
      "inputs": [
        {
          "name": "_unrestricted",
          "type": "address[]"
        }
      ],
      "name": "unrestrict",
      "outputs": [
        {
          "name": "",
          "type": "bool"
        }
      ],
      "payable": false,
      "stateMutability": "nonpayable",
      "type": "function"
    },
    {
      "constant": false,
      "inputs": [],
      "name": "pause",
      "outputs": [
        {
          "name": "",
          "type": "bool"
        }
      ],
      "payable": false,
      "stateMutability": "nonpayable",
      "type": "function"
    },
    {
      "constant": false,
      "inputs": [],
      "name": "unpause",
      "outputs": [
        {
          "name": "",
          "type": "bool"
        }
      ],
      "payable": false,
      "stateMutability": "nonpayable",
      "type": "function"
    },
    {
      "constant": false,
      "inputs": [
        {
          "name": "_to",
          "type": "address"
        },
        {
          "name": "_value",
          "type": "uint256"
        },
        {
          "name": "_reference",
          "type": "string"
        },
        {
          "name": "_sender",
          "type": "address"
        }
      ],
      "name": "__transferWithReference",
      "outputs": [
        {
          "name": "",
          "type": "bool"
        }
      ],
      "payable": false,
      "stateMutability": "nonpayable",
      "type": "function"
    },
    {
      "constant": false,
      "inputs": [
        {
          "name": "_from",
          "type": "address"
        },
        {
          "name": "_to",
          "type": "address"
        },
        {
          "name": "_value",
          "type": "uint256"
        },
        {
          "name": "_reference",
          "type": "string"
        },
        {
          "name": "_sender",
          "type": "address"
        }
      ],
      "name": "__transferFromWithReference",
      "outputs": [
        {
          "name": "",
          "type": "bool"
        }
      ],
      "payable": false,
      "stateMutability": "nonpayable",
      "type": "function"
    },
    {
      "constant": false,
      "inputs": [
        {
          "name": "_spender",
          "type": "address"
        },
        {
          "name": "_value",
          "type": "uint256"
        },
        {
          "name": "_sender",
          "type": "address"
        }
      ],
      "name": "__approve",
      "outputs": [
        {
          "name": "",
          "type": "bool"
        }
      ],
      "payable": false,
      "stateMutability": "nonpayable",
      "type": "function"
    },
    {
      "constant": false,
      "inputs": [
        {
          "name": "_symbol",
          "type": "bytes32"
        },
        {
          "name": "_restricted",
          "type": "address"
        }
      ],
      "name": "emitRestricted",
      "outputs": [],
      "payable": false,
      "stateMutability": "nonpayable",
      "type": "function"
    },
    {
      "constant": false,
      "inputs": [
        {
          "name": "_symbol",
          "type": "bytes32"
        },
        {
          "name": "_unrestricted",
          "type": "address"
        }
      ],
      "name": "emitUnrestricted",
      "outputs": [],
      "payable": false,
      "stateMutability": "nonpayable",
      "type": "function"
    },
    {
      "constant": false,
      "inputs": [
        {
          "name": "_symbol",
          "type": "bytes32"
        }
      ],
      "name": "emitPaused",
      "outputs": [],
      "payable": false,
      "stateMutability": "nonpayable",
      "type": "function"
    },
    {
      "constant": false,
      "inputs": [
        {
          "name": "_symbol",
          "type": "bytes32"
        }
      ],
      "name": "emitUnpaused",
      "outputs": [],
      "payable": false,
      "stateMutability": "nonpayable",
      "type": "function"
    }
  ],
  "bytecode": "0x60806040526002805460ff1916905534801561001a57600080fd5b506115978061002a6000396000f3006080604052600436106100d75763ffffffff60e060020a60003504166319ab453c81146100dc57806322ccf67814610111578063339d8b451461012b5780633f4ba83a1461014f5780635c975abb146101645780636a630ee7146101795780637b7054c8146101ed5780637df5fd35146102185780638456cb59146102305780638c8f488014610245578063be57771a14610269578063ec55688914610289578063ec698a28146102ba578063ee47af0014610334578063f07629f814610354578063f2d6e0ab14610369578063f9f92be4146103c0575b600080fd5b3480156100e857600080fd5b506100fd600160a060020a03600435166103e1565b604080519115158252519081900360200190f35b34801561011d57600080fd5b5061012960043561042c565b005b34801561013757600080fd5b50610129600435600160a060020a036024351661045a565b34801561015b57600080fd5b506100fd61049d565b34801561017057600080fd5b506100fd610649565b34801561018557600080fd5b50604080516020600460443581810135601f81018490048402850184019095528484526100fd948235600160a060020a031694602480359536959460649492019190819084018382808284375094975050509235600160a060020a0316935061065292505050565b3480156101f957600080fd5b506100fd600160a060020a036004358116906024359060443516610681565b34801561022457600080fd5b506101296004356106ae565b34801561023c57600080fd5b506100fd6106dc565b34801561025157600080fd5b50610129600435600160a060020a0360243516610882565b34801561027557600080fd5b506100fd60048035602481019101356108c5565b34801561029557600080fd5b5061029e610abb565b60408051600160a060020a039092168252519081900360200190f35b3480156102c657600080fd5b50604080516020601f6064356004818101359283018490048402850184019095528184526100fd94600160a060020a03813581169560248035909216956044359536956084940191819084018382808284375094975050509235600160a060020a03169350610aca92505050565b34801561034057600080fd5b506100fd6004803560248101910135610afb565b34801561036057600080fd5b5061029e610cdf565b6040805160206004803580820135601f810184900484028501840190955284845261012994369492936024939284019190819084018382808284375094975050509235600160a060020a031693506100d792505050565b3480156103cc57600080fd5b506100fd600160a060020a0360043516610e7c565b60008054600160a060020a0316156103fb57506000610427565b506000805473ffffffffffffffffffffffffffffffffffffffff1916600160a060020a03831617905560015b919050565b60405181907fd05bfc2250abb0f8fd265a54c53a24359c5484af63cad2e4ce87c78ab751395a90600090a250565b60408051600160a060020a0383168152905183917fd097e4d83d4e07fdd04ead2330f40bccf48350dd3f12caf1e36ef45049494c17919081900360200190a25050565b60008054604080517f49752baf00000000000000000000000000000000000000000000000000000000815290518392600160a060020a0316916349752baf91600480830192602092919082900301818787803b1580156104fc57600080fd5b505af1158015610510573d6000803e3d6000fd5b505050506040513d602081101561052657600080fd5b5051600080546040805160e060020a63cb4e75bb0281529051939450600160a060020a038086169463ccc11f119433949092169263cb4e75bb9260048083019360209390929083900390910190829087803b15801561058457600080fd5b505af1158015610598573d6000803e3d6000fd5b505050506040513d60208110156105ae57600080fd5b50516040805160e060020a63ffffffff8616028152600160a060020a03909316600484015260248301919091525160448083019260209291908290030181600087803b1580156105fd57600080fd5b505af1158015610611573d6000803e3d6000fd5b505050506040513d602081101561062757600080fd5b505115610645576002805460ff19169055610640610e91565b600191505b5090565b60025460ff1681565b6000805433600160a060020a03908116911614156106795761067685858585610f7b565b90505b949350505050565b6000805433600160a060020a03908116911614156106a7576106a48484846110f6565b90505b9392505050565b60405181907f0cb09dc71d57eeec2046f6854976717e4874a3cf2d6ddeddde337e5b6de6ba3190600090a250565b60008054604080517f49752baf00000000000000000000000000000000000000000000000000000000815290518392600160a060020a0316916349752baf91600480830192602092919082900301818787803b15801561073b57600080fd5b505af115801561074f573d6000803e3d6000fd5b505050506040513d602081101561076557600080fd5b5051600080546040805160e060020a63cb4e75bb0281529051939450600160a060020a038086169463ccc11f119433949092169263cb4e75bb9260048083019360209390929083900390910190829087803b1580156107c357600080fd5b505af11580156107d7573d6000803e3d6000fd5b505050506040513d60208110156107ed57600080fd5b50516040805160e060020a63ffffffff8616028152600160a060020a03909316600484015260248301919091525160448083019260209291908290030181600087803b15801561083c57600080fd5b505af1158015610850573d6000803e3d6000fd5b505050506040513d602081101561086657600080fd5b505115610645576002805460ff191660011790556106406111f1565b60408051600160a060020a0383168152905183917f791b5fd6715e4832fb6052f31b1eba08447cceeced1bf87aeb13c242b7cef492919081900360200190a25050565b6000806000806000809054906101000a9004600160a060020a0316600160a060020a03166349752baf6040518163ffffffff1660e060020a028152600401602060405180830381600087803b15801561091d57600080fd5b505af1158015610931573d6000803e3d6000fd5b505050506040513d602081101561094757600080fd5b5051600080546040805160e060020a63cb4e75bb0281529051939450600160a060020a038086169463ccc11f119433949092169263cb4e75bb9260048083019360209390929083900390910190829087803b1580156109a557600080fd5b505af11580156109b9573d6000803e3d6000fd5b505050506040513d60208110156109cf57600080fd5b50516040805160e060020a63ffffffff8616028152600160a060020a03909316600484015260248301919091525160448083019260209291908290030181600087803b158015610a1e57600080fd5b505af1158015610a32573d6000803e3d6000fd5b505050506040513d6020811015610a4857600080fd5b505115610ab257600092505b84831015610aad57858584818110610a6857fe5b60209081029290920135600160a060020a0316600081815260019384905260409020805460ff1916909317909255509150610aa282611259565b600190920191610a54565b600193505b50505092915050565b600054600160a060020a031681565b6000805433600160a060020a0390811691161415610af257610aef8686868686611353565b90505b95945050505050565b6000806000806000809054906101000a9004600160a060020a0316600160a060020a03166349752baf6040518163ffffffff1660e060020a028152600401602060405180830381600087803b158015610b5357600080fd5b505af1158015610b67573d6000803e3d6000fd5b505050506040513d6020811015610b7d57600080fd5b5051600080546040805160e060020a63cb4e75bb0281529051939450600160a060020a038086169463ccc11f119433949092169263cb4e75bb9260048083019360209390929083900390910190829087803b158015610bdb57600080fd5b505af1158015610bef573d6000803e3d6000fd5b505050506040513d6020811015610c0557600080fd5b50516040805160e060020a63ffffffff8616028152600160a060020a03909316600484015260248301919091525160448083019260209291908290030181600087803b158015610c5457600080fd5b505af1158015610c68573d6000803e3d6000fd5b505050506040513d6020811015610c7e57600080fd5b505115610ab257600092505b84831015610aad57858584818110610c9e57fe5b60209081029290920135600160a060020a0316600081815260019093526040909220805460ff19169055509150610cd482611503565b600190920191610c8a565b60008054604080517f49752baf00000000000000000000000000000000000000000000000000000000815290518392600160a060020a0316916349752baf91600480830192602092919082900301818787803b158015610d3e57600080fd5b505af1158015610d52573d6000803e3d6000fd5b505050506040513d6020811015610d6857600080fd5b5051604080517ff07629f80000000000000000000000000000000000000000000000000000000081529051919250600160a060020a03831691829163f07629f89160048083019260209291908290030181600087803b158015610dca57600080fd5b505af1158015610dde573d6000803e3d6000fd5b505050506040513d6020811015610df457600080fd5b5051600160a060020a03161415610e0b5730610e76565b80600160a060020a031663f07629f86040518163ffffffff1660e060020a028152600401602060405180830381600087803b158015610e4957600080fd5b505af1158015610e5d573d6000803e3d6000fd5b505050506040513d6020811015610e7357600080fd5b50515b91505090565b60016020526000908152604090205460ff1681565b610e99610cdf565b600160a060020a03166322ccf6786000809054906101000a9004600160a060020a0316600160a060020a031663cb4e75bb6040518163ffffffff1660e060020a028152600401602060405180830381600087803b158015610ef957600080fd5b505af1158015610f0d573d6000803e3d6000fd5b505050506040513d6020811015610f2357600080fd5b50516040805160e060020a63ffffffff8516028152600481019290925251602480830192600092919082900301818387803b158015610f6157600080fd5b505af1158015610f75573d6000803e3d6000fd5b50505050565b60025460009060ff16151561067957600160a060020a038516600090815260016020526040902054859060ff1615156110ed57600160a060020a038316600090815260016020526040902054839060ff1615156110eb57600080546040517f6a630ee7000000000000000000000000000000000000000000000000000000008152600160a060020a038a811660048301908152602483018b905288821660648401526080604484019081528a5160848501528a519290941694636a630ee7948d948d948d948d9490939260a4019160208701918190849084905b8381101561106d578181015183820152602001611055565b50505050905090810190601f16801561109a5780820380516001836020036101000a031916815260200191505b5095505050505050602060405180830381600087803b1580156110bc57600080fd5b505af11580156110d0573d6000803e3d6000fd5b505050506040513d60208110156110e657600080fd5b505192505b505b50949350505050565b600160a060020a038316600090815260016020526040812054849060ff1615156111e957600160a060020a038316600090815260016020526040902054839060ff1615156111e75760008054604080517f7b7054c8000000000000000000000000000000000000000000000000000000008152600160a060020a038a81166004830152602482018a9052888116604483015291519190921692637b7054c892606480820193602093909283900390910190829087803b1580156111b857600080fd5b505af11580156111cc573d6000803e3d6000fd5b505050506040513d60208110156111e257600080fd5b505192505b505b509392505050565b6111f9610cdf565b600160a060020a0316637df5fd356000809054906101000a9004600160a060020a0316600160a060020a031663cb4e75bb6040518163ffffffff1660e060020a028152600401602060405180830381600087803b158015610ef957600080fd5b611261610cdf565b600160a060020a031663339d8b456000809054906101000a9004600160a060020a0316600160a060020a031663cb4e75bb6040518163ffffffff1660e060020a028152600401602060405180830381600087803b1580156112c157600080fd5b505af11580156112d5573d6000803e3d6000fd5b505050506040513d60208110156112eb57600080fd5b50516040805160e060020a63ffffffff85160281526004810192909252600160a060020a038516602483015251604480830192600092919082900301818387803b15801561133857600080fd5b505af115801561134c573d6000803e3d6000fd5b5050505050565b60025460009060ff161515610af257600160a060020a038616600090815260016020526040902054869060ff1615156114f957600160a060020a038616600090815260016020526040902054869060ff1615156114f757600160a060020a038416600090815260016020526040902054849060ff1615156114f557600080546040517fec698a28000000000000000000000000000000000000000000000000000000008152600160a060020a038c8116600483019081528c82166024840152604483018c9052898216608484015260a0606484019081528b5160a48501528b51929094169463ec698a28948f948f948f948f948f949193919260c49092019160208701918190849084905b8381101561147657818101518382015260200161145e565b50505050905090810190601f1680156114a35780820380516001836020036101000a031916815260200191505b509650505050505050602060405180830381600087803b1580156114c657600080fd5b505af11580156114da573d6000803e3d6000fd5b505050506040513d60208110156114f057600080fd5b505193505b505b505b5095945050505050565b61150b610cdf565b600160a060020a0316638c8f48806000809054906101000a9004600160a060020a0316600160a060020a031663cb4e75bb6040518163ffffffff1660e060020a028152600401602060405180830381600087803b1580156112c157600080fd00a165627a7a7230582014313618d67ea18c431d9fc08c2d056ad5bcf8c2077551dba10fe4837d0dafef0029",
  "source": "/**\n * Copyright 2017–2018, LaborX PTY\n * Licensed under the AGPL Version 3 license.\n */\n\npragma solidity ^0.4.21;\n\n\nimport \"./ChronoBankAssetInterface.sol\";\nimport {ChronoBankAssetProxyInterface as ChronoBankAssetProxy} from \"./ChronoBankAssetProxyInterface.sol\";\nimport {ChronoBankPlatformInterface as ChronoBankPlatform} from \"./ChronoBankPlatformInterface.sol\";\n\n\n/// @title ChronoBank Asset implementation contract.\n///\n/// Basic asset implementation contract, without any additional logic.\n/// Every other asset implementation contracts should derive from this one.\n/// Receives calls from the proxy, and calls back immediatly without arguments modification.\n///\n/// Note: all the non constant functions return false instead of throwing in case if state change\n/// didn't happen yet.\ncontract ChronoBankAsset is ChronoBankAssetInterface {\n\n    // @dev Assigned asset proxy contract, immutable.\n    ChronoBankAssetProxy public proxy;\n\n    // @dev banned addresses\n    mapping (address => bool) public blacklist;\n\n    // @dev stops asset transfers\n    bool public paused = false;\n\n    // @dev restriction/Unrestriction events\n    event Restricted(bytes32 indexed symbol, address restricted);\n    event Unrestricted(bytes32 indexed symbol, address unrestricted);\n\n    // @dev Paused/Unpaused events\n    event Paused(bytes32 indexed symbol);\n    event Unpaused(bytes32 indexed symbol);\n\n    /// @dev Only assigned proxy is allowed to call.\n    modifier onlyProxy {\n        if (proxy == msg.sender) {\n            _;\n        }\n    }\n\n    /// @dev Only not paused tokens could go further.\n    modifier onlyNotPaused {\n        if (!paused) {\n            _;\n        }\n    }\n\n    /// @dev Only acceptable (not in blacklist) addresses are allowed to call.\n    modifier onlyAcceptable(address _address) {\n        if (!blacklist[_address]) {\n            _;\n        }\n    }\n\n    /// @dev Only assets's admins are allowed to execute\n    modifier onlyAuthorized {\n        ChronoBankPlatform platform = ChronoBankPlatform(proxy.chronoBankPlatform());\n        if (platform.hasAssetRights(msg.sender, proxy.smbl())) {\n            _;\n        }\n    }\n\n    /// @notice Sets asset proxy address.\n    /// Can be set only once.\n    /// @dev function is final, and must not be overridden.\n    /// @param _proxy asset proxy contract address.\n    /// @return success.\n    function init(ChronoBankAssetProxy _proxy) public returns(bool) {\n        if (address(proxy) != 0x0) {\n            return false;\n        }\n        proxy = _proxy;\n        return true;\n    }\n\n    /// @notice Gets eventsHistory contract used for events' triggering\n    function eventsHistory() public view returns (address) {\n        ChronoBankPlatform platform = ChronoBankPlatform(proxy.chronoBankPlatform());\n        return platform.eventsHistory() != address(platform) ? platform.eventsHistory() : this;\n    }\n\n    /// @notice Lifts the ban on transfers for given addresses\n    function restrict(address [] _restricted) onlyAuthorized external returns (bool) {\n        for (uint i = 0; i < _restricted.length; i++) {\n            address restricted = _restricted[i];\n            blacklist[restricted] = true;\n            _emitRestricted(restricted);\n        }\n        return true;\n    }\n\n    /// @notice Revokes the ban on transfers for given addresses\n    function unrestrict(address [] _unrestricted) onlyAuthorized external returns (bool) {\n        for (uint i = 0; i < _unrestricted.length; i++) {\n            address unrestricted = _unrestricted[i];\n            delete blacklist[unrestricted];\n            _emitUnrestricted(unrestricted);\n        }\n        return true;\n    }\n\n    /// @notice called by the owner to pause, triggers stopped state\n    /// Only admin is allowed to execute this method.\n    function pause() onlyAuthorized external returns (bool) {\n        paused = true;\n        _emitPaused();\n        return true;\n    }\n\n    /// @notice called by the owner to unpause, returns to normal state\n    /// Only admin is allowed to execute this method.\n    function unpause() onlyAuthorized external returns (bool) {\n        paused = false;\n        _emitUnpaused();\n        return true;\n    }\n\n    /// @notice Passes execution into virtual function.\n    /// Can only be called by assigned asset proxy.\n    /// @dev function is final, and must not be overridden.\n    /// @return success.\n    function __transferWithReference(\n        address _to, \n        uint _value, \n        string _reference, \n        address _sender\n    ) \n    onlyProxy \n    public \n    returns (bool) \n    {\n        return _transferWithReference(_to, _value, _reference, _sender);\n    }\n\n    /// @notice Calls back without modifications if an asset is not stopped.\n    /// Checks whether _from/_sender are not in blacklist.\n    /// @dev function is virtual, and meant to be overridden.\n    /// @return success.\n    function _transferWithReference(\n        address _to, \n        uint _value, \n        string _reference, \n        address _sender\n    )\n    onlyNotPaused\n    onlyAcceptable(_to)\n    onlyAcceptable(_sender)\n    internal\n    returns (bool)\n    {\n        return proxy.__transferWithReference(_to, _value, _reference, _sender);\n    }\n\n    /// @notice Passes execution into virtual function.\n    /// Can only be called by assigned asset proxy.\n    /// @dev function is final, and must not be overridden.\n    /// @return success.\n    function __transferFromWithReference(\n        address _from, \n        address _to, \n        uint _value, \n        string _reference, \n        address _sender\n    ) \n    onlyProxy \n    public \n    returns (bool) \n    {\n        return _transferFromWithReference(_from, _to, _value, _reference, _sender);\n    }\n\n    /// @notice Calls back without modifications if an asset is not stopped.\n    /// Checks whether _from/_sender are not in blacklist.\n    /// @dev function is virtual, and meant to be overridden.\n    /// @return success.\n    function _transferFromWithReference(\n        address _from, \n        address _to, \n        uint _value, \n        string _reference, \n        address _sender\n    )\n    onlyNotPaused\n    onlyAcceptable(_from)\n    onlyAcceptable(_to)\n    onlyAcceptable(_sender)\n    internal\n    returns (bool)\n    {\n        return proxy.__transferFromWithReference(_from, _to, _value, _reference, _sender);\n    }\n\n    /// @notice Passes execution into virtual function.\n    /// Can only be called by assigned asset proxy.\n    /// @dev function is final, and must not be overridden.\n    /// @return success.\n    function __approve(address _spender, uint _value, address _sender) onlyProxy public returns (bool) {\n        return _approve(_spender, _value, _sender);\n    }\n\n    /// @notice Calls back without modifications.\n    /// @dev function is virtual, and meant to be overridden.\n    /// @return success.\n    function _approve(address _spender, uint _value, address _sender)\n    onlyAcceptable(_spender)\n    onlyAcceptable(_sender)\n    internal\n    returns (bool)\n    {\n        return proxy.__approve(_spender, _value, _sender);\n    }\n\n    function _emitRestricted(address _restricted) private {\n        ChronoBankAsset(eventsHistory()).emitRestricted(proxy.smbl(), _restricted);\n    }\n\n    function _emitUnrestricted(address _unrestricted) private {\n        ChronoBankAsset(eventsHistory()).emitUnrestricted(proxy.smbl(), _unrestricted);\n    }\n\n    function _emitPaused() private {\n        ChronoBankAsset(eventsHistory()).emitPaused(proxy.smbl());\n    }\n\n    function _emitUnpaused() private {\n        ChronoBankAsset(eventsHistory()).emitUnpaused(proxy.smbl());\n    }\n\n    function emitRestricted(bytes32 _symbol, address _restricted) public {\n        emit Restricted(_symbol, _restricted);\n    }\n\n    function emitUnrestricted(bytes32 _symbol, address _unrestricted) public {\n        emit Unrestricted(_symbol, _unrestricted);\n    }\n\n    function emitPaused(bytes32 _symbol) public {\n        emit Paused(_symbol);\n    }\n\n    function emitUnpaused(bytes32 _symbol) public {\n        emit Unpaused(_symbol);\n    }\n}\n",
  "sourcePath": "/Users/ahiatsevich/Development/chronobank/LXsidechain-sc/contracts/platform/ChronoBankAsset.sol",
  "compiler": {
    "name": "solc",
    "version": "0.4.23+commit.124ca40d.Emscripten.clang"
  },
  "schemaVersion": "2.0.0",
  "updatedAt": "2018-05-29T13:51:30.350Z"
}