{
  "contractName": "ChronoBankAssetProxy",
  "abi": [
    {
      "constant": true,
      "inputs": [],
      "name": "name",
      "outputs": [
        {
          "name": "",
          "type": "string"
        }
      ],
      "payable": false,
      "stateMutability": "view",
      "type": "function"
    },
    {
      "constant": true,
      "inputs": [],
      "name": "chronoBankPlatform",
      "outputs": [
        {
          "name": "",
          "type": "address"
        }
      ],
      "payable": false,
      "stateMutability": "view",
      "type": "function"
    },
    {
      "constant": true,
      "inputs": [],
      "name": "symbol",
      "outputs": [
        {
          "name": "",
          "type": "string"
        }
      ],
      "payable": false,
      "stateMutability": "view",
      "type": "function"
    },
    {
      "constant": true,
      "inputs": [],
      "name": "smbl",
      "outputs": [
        {
          "name": "",
          "type": "bytes32"
        }
      ],
      "payable": false,
      "stateMutability": "view",
      "type": "function"
    },
    {
      "payable": true,
      "stateMutability": "payable",
      "type": "fallback"
    },
    {
      "anonymous": false,
      "inputs": [
        {
          "indexed": false,
          "name": "newVersion",
          "type": "address"
        }
      ],
      "name": "UpgradeProposal",
      "type": "event"
    },
    {
      "anonymous": false,
      "inputs": [
        {
          "indexed": true,
          "name": "from",
          "type": "address"
        },
        {
          "indexed": true,
          "name": "to",
          "type": "address"
        },
        {
          "indexed": false,
          "name": "value",
          "type": "uint256"
        }
      ],
      "name": "Transfer",
      "type": "event"
    },
    {
      "anonymous": false,
      "inputs": [
        {
          "indexed": true,
          "name": "from",
          "type": "address"
        },
        {
          "indexed": true,
          "name": "spender",
          "type": "address"
        },
        {
          "indexed": false,
          "name": "value",
          "type": "uint256"
        }
      ],
      "name": "Approval",
      "type": "event"
    },
    {
      "constant": false,
      "inputs": [
        {
          "name": "_chronoBankPlatform",
          "type": "address"
        },
        {
          "name": "_symbol",
          "type": "string"
        },
        {
          "name": "_name",
          "type": "string"
        }
      ],
      "name": "init",
      "outputs": [
        {
          "name": "",
          "type": "bool"
        }
      ],
      "payable": false,
      "stateMutability": "nonpayable",
      "type": "function"
    },
    {
      "constant": true,
      "inputs": [
        {
          "name": "source",
          "type": "string"
        }
      ],
      "name": "stringToBytes32",
      "outputs": [
        {
          "name": "result",
          "type": "bytes32"
        }
      ],
      "payable": false,
      "stateMutability": "pure",
      "type": "function"
    },
    {
      "constant": true,
      "inputs": [],
      "name": "totalSupply",
      "outputs": [
        {
          "name": "",
          "type": "uint256"
        }
      ],
      "payable": false,
      "stateMutability": "view",
      "type": "function"
    },
    {
      "constant": true,
      "inputs": [
        {
          "name": "_owner",
          "type": "address"
        }
      ],
      "name": "balanceOf",
      "outputs": [
        {
          "name": "",
          "type": "uint256"
        }
      ],
      "payable": false,
      "stateMutability": "view",
      "type": "function"
    },
    {
      "constant": true,
      "inputs": [
        {
          "name": "_from",
          "type": "address"
        },
        {
          "name": "_spender",
          "type": "address"
        }
      ],
      "name": "allowance",
      "outputs": [
        {
          "name": "",
          "type": "uint256"
        }
      ],
      "payable": false,
      "stateMutability": "view",
      "type": "function"
    },
    {
      "constant": true,
      "inputs": [],
      "name": "decimals",
      "outputs": [
        {
          "name": "",
          "type": "uint8"
        }
      ],
      "payable": false,
      "stateMutability": "view",
      "type": "function"
    },
    {
      "constant": false,
      "inputs": [
        {
          "name": "_to",
          "type": "address"
        },
        {
          "name": "_value",
          "type": "uint256"
        }
      ],
      "name": "transfer",
      "outputs": [
        {
          "name": "",
          "type": "bool"
        }
      ],
      "payable": false,
      "stateMutability": "nonpayable",
      "type": "function"
    },
    {
      "constant": false,
      "inputs": [
        {
          "name": "_to",
          "type": "address"
        },
        {
          "name": "_value",
          "type": "uint256"
        },
        {
          "name": "_reference",
          "type": "string"
        }
      ],
      "name": "transferWithReference",
      "outputs": [
        {
          "name": "",
          "type": "bool"
        }
      ],
      "payable": false,
      "stateMutability": "nonpayable",
      "type": "function"
    },
    {
      "constant": false,
      "inputs": [
        {
          "name": "_to",
          "type": "address"
        },
        {
          "name": "_value",
          "type": "uint256"
        },
        {
          "name": "_reference",
          "type": "string"
        },
        {
          "name": "_sender",
          "type": "address"
        }
      ],
      "name": "__transferWithReference",
      "outputs": [
        {
          "name": "",
          "type": "bool"
        }
      ],
      "payable": false,
      "stateMutability": "nonpayable",
      "type": "function"
    },
    {
      "constant": false,
      "inputs": [
        {
          "name": "_from",
          "type": "address"
        },
        {
          "name": "_to",
          "type": "address"
        },
        {
          "name": "_value",
          "type": "uint256"
        }
      ],
      "name": "transferFrom",
      "outputs": [
        {
          "name": "",
          "type": "bool"
        }
      ],
      "payable": false,
      "stateMutability": "nonpayable",
      "type": "function"
    },
    {
      "constant": false,
      "inputs": [
        {
          "name": "_from",
          "type": "address"
        },
        {
          "name": "_to",
          "type": "address"
        },
        {
          "name": "_value",
          "type": "uint256"
        },
        {
          "name": "_reference",
          "type": "string"
        },
        {
          "name": "_sender",
          "type": "address"
        }
      ],
      "name": "__transferFromWithReference",
      "outputs": [
        {
          "name": "",
          "type": "bool"
        }
      ],
      "payable": false,
      "stateMutability": "nonpayable",
      "type": "function"
    },
    {
      "constant": false,
      "inputs": [
        {
          "name": "_spender",
          "type": "address"
        },
        {
          "name": "_value",
          "type": "uint256"
        }
      ],
      "name": "approve",
      "outputs": [
        {
          "name": "",
          "type": "bool"
        }
      ],
      "payable": false,
      "stateMutability": "nonpayable",
      "type": "function"
    },
    {
      "constant": false,
      "inputs": [
        {
          "name": "_spender",
          "type": "address"
        },
        {
          "name": "_value",
          "type": "uint256"
        },
        {
          "name": "_sender",
          "type": "address"
        }
      ],
      "name": "__approve",
      "outputs": [
        {
          "name": "",
          "type": "bool"
        }
      ],
      "payable": false,
      "stateMutability": "nonpayable",
      "type": "function"
    },
    {
      "constant": false,
      "inputs": [
        {
          "name": "_from",
          "type": "address"
        },
        {
          "name": "_to",
          "type": "address"
        },
        {
          "name": "_value",
          "type": "uint256"
        }
      ],
      "name": "emitTransfer",
      "outputs": [],
      "payable": false,
      "stateMutability": "nonpayable",
      "type": "function"
    },
    {
      "constant": false,
      "inputs": [
        {
          "name": "_from",
          "type": "address"
        },
        {
          "name": "_spender",
          "type": "address"
        },
        {
          "name": "_value",
          "type": "uint256"
        }
      ],
      "name": "emitApprove",
      "outputs": [],
      "payable": false,
      "stateMutability": "nonpayable",
      "type": "function"
    },
    {
      "constant": true,
      "inputs": [
        {
          "name": "_sender",
          "type": "address"
        }
      ],
      "name": "getVersionFor",
      "outputs": [
        {
          "name": "",
          "type": "address"
        }
      ],
      "payable": false,
      "stateMutability": "view",
      "type": "function"
    },
    {
      "constant": true,
      "inputs": [],
      "name": "getLatestVersion",
      "outputs": [
        {
          "name": "",
          "type": "address"
        }
      ],
      "payable": false,
      "stateMutability": "view",
      "type": "function"
    },
    {
      "constant": true,
      "inputs": [],
      "name": "getPendingVersion",
      "outputs": [
        {
          "name": "",
          "type": "address"
        }
      ],
      "payable": false,
      "stateMutability": "view",
      "type": "function"
    },
    {
      "constant": true,
      "inputs": [],
      "name": "getPendingVersionTimestamp",
      "outputs": [
        {
          "name": "",
          "type": "uint256"
        }
      ],
      "payable": false,
      "stateMutability": "view",
      "type": "function"
    },
    {
      "constant": false,
      "inputs": [
        {
          "name": "_newVersion",
          "type": "address"
        }
      ],
      "name": "proposeUpgrade",
      "outputs": [
        {
          "name": "",
          "type": "bool"
        }
      ],
      "payable": false,
      "stateMutability": "nonpayable",
      "type": "function"
    },
    {
      "constant": false,
      "inputs": [],
      "name": "purgeUpgrade",
      "outputs": [
        {
          "name": "",
          "type": "bool"
        }
      ],
      "payable": false,
      "stateMutability": "nonpayable",
      "type": "function"
    },
    {
      "constant": false,
      "inputs": [],
      "name": "commitUpgrade",
      "outputs": [
        {
          "name": "",
          "type": "bool"
        }
      ],
      "payable": false,
      "stateMutability": "nonpayable",
      "type": "function"
    },
    {
      "constant": false,
      "inputs": [],
      "name": "optOut",
      "outputs": [
        {
          "name": "",
          "type": "bool"
        }
      ],
      "payable": false,
      "stateMutability": "nonpayable",
      "type": "function"
    },
    {
      "constant": false,
      "inputs": [],
      "name": "optIn",
      "outputs": [
        {
          "name": "",
          "type": "bool"
        }
      ],
      "payable": false,
      "stateMutability": "nonpayable",
      "type": "function"
    }
  ],
  "bytecode": "0x608060405234801561001057600080fd5b506116ce806100206000396000f3006080604052600436106101505763ffffffff60e060020a60003504166306fdde0381146101f0578063095ea7b31461027a5780630ba12c83146102b25780630e6d1de9146102c757806318160ddd146102f8578063233850891461031f57806323b872dd1461034b57806323de665114610375578063313ce5671461039f57806349752baf146103ca5780634bfaf2e8146103df5780634dfe950d146103f45780635b48684e146104095780636a630ee71461041e57806370a08231146104925780637b7054c8146104b357806395d89b41146104de578063a883fb90146104f3578063a9059cbb14610508578063ac35caee1461052c578063b2b45df514610595578063c915fc931461063a578063cb4e75bb1461065b578063cfb5192814610670578063d4eec5a6146106c9578063dd62ed3e146106de578063ec698a2814610705578063fe8beb711461077f575b6101586107a0565b600160a060020a031663f2d6e0ab34600036336040518563ffffffff1660e060020a028152600401808060200183600160a060020a0316600160a060020a03168152602001828103825285858281815260200192508082843782019150509450505050506000604051808303818588803b1580156101d557600080fd5b505af11580156101e9573d6000803e3d6000fd5b5050505050005b3480156101fc57600080fd5b506102056107b1565b6040805160208082528351818301528351919283929083019185019080838360005b8381101561023f578181015183820152602001610227565b50505050905090810190601f16801561026c5780820380516001836020036101000a031916815260200191505b509250505060405180910390f35b34801561028657600080fd5b5061029e600160a060020a036004351660243561083f565b604080519115158252519081900360200190f35b3480156102be57600080fd5b5061029e610900565b3480156102d357600080fd5b506102dc610964565b60408051600160a060020a039092168252519081900360200190f35b34801561030457600080fd5b5061030d610973565b60408051918252519081900360200190f35b34801561032b57600080fd5b50610349600160a060020a0360043581169060243516604435610a0d565b005b34801561035757600080fd5b5061029e600160a060020a0360043581169060243516604435610a71565b34801561038157600080fd5b50610349600160a060020a0360043581169060243516604435610b4a565b3480156103ab57600080fd5b506103b4610bad565b6040805160ff9092168252519081900360200190f35b3480156103d657600080fd5b506102dc610c16565b3480156103eb57600080fd5b5061030d610c25565b34801561040057600080fd5b5061029e610c2b565b34801561041557600080fd5b5061029e610d00565b34801561042a57600080fd5b50604080516020600460443581810135601f810184900484028501840190955284845261029e948235600160a060020a031694602480359536959460649492019190819084018382808284375094975050509235600160a060020a03169350610d2292505050565b34801561049e57600080fd5b5061030d600160a060020a0360043516610e70565b3480156104bf57600080fd5b5061029e600160a060020a036004358116906024359060443516610f1a565b3480156104ea57600080fd5b50610205610ff1565b3480156104ff57600080fd5b506102dc61104c565b34801561051457600080fd5b5061029e600160a060020a036004351660243561105b565b34801561053857600080fd5b50604080516020600460443581810135601f810184900484028501840190955284845261029e948235600160a060020a031694602480359536959460649492019190819084018382808284375094975061108e9650505050505050565b3480156105a157600080fd5b5060408051602060046024803582810135601f810185900485028601850190965285855261029e958335600160a060020a031695369560449491939091019190819084018382808284375050604080516020601f89358b018035918201839004830284018301909452808352979a9998810197919650918201945092508291508401838280828437509497506110b19650505050505050565b34801561064657600080fd5b5061029e600160a060020a0360043516611126565b34801561066757600080fd5b5061030d611289565b34801561067c57600080fd5b506040805160206004803580820135601f810184900484028501840190955284845261030d94369492936024939284019190819084018382808284375094975061128f9650505050505050565b3480156106d557600080fd5b5061029e611296565b3480156106ea57600080fd5b5061030d600160a060020a03600435811690602435166112f1565b34801561071157600080fd5b50604080516020601f60643560048181013592830184900484028501840190955281845261029e94600160a060020a03813581169560248035909216956044359536956084940191819084018382808284375094975050509235600160a060020a0316935061136f92505050565b34801561078b57600080fd5b506102dc600160a060020a03600435166114c7565b60006107ab336114c7565b90505b90565b6003805460408051602060026001851615610100026000190190941693909304601f810184900484028201840190925281815292918301828280156108375780601f1061080c57610100808354040283529160200191610837565b820191906000526020600020905b81548152906001019060200180831161081a57829003601f168201915b505050505081565b6000600160a060020a038316156108fa576108586107a0565b604080517f7b7054c8000000000000000000000000000000000000000000000000000000008152600160a060020a0386811660048301526024820186905233604483015291519290911691637b7054c8916064808201926020929091908290030181600087803b1580156108cb57600080fd5b505af11580156108df573d6000803e3d6000fd5b505050506040513d60208110156108f557600080fd5b505190505b92915050565b600654600090600160a060020a0316151561091d575060006107ae565b426203f480600754011115610934575060006107ae565b506006805460058054600160a060020a0319908116600160a060020a038416179091551690556000600755600190565b600554600160a060020a031690565b600154600254604080517fb524abcf000000000000000000000000000000000000000000000000000000008152600481019290925251600092600160a060020a03169163b524abcf91602480830192602092919082900301818787803b1580156109dc57600080fd5b505af11580156109f0573d6000803e3d6000fd5b505050506040513d6020811015610a0657600080fd5b5051905090565b600154600160a060020a0316331415610a6c5781600160a060020a031683600160a060020a03167f8c5be1e5ebec7d5bd14f71427d1e84f3dd0314c0f7b2291e5b200ac8c7c3b925836040518082815260200191505060405180910390a35b505050565b6000600160a060020a03831615610b4357610a8a6107a0565b604080517fec698a28000000000000000000000000000000000000000000000000000000008152600160a060020a03878116600483015286811660248301526044820186905233608483015260a06064830152600060a48301819052925193169263ec698a289260e480840193602093929083900390910190829087803b158015610b1457600080fd5b505af1158015610b28573d6000803e3d6000fd5b505050506040513d6020811015610b3e57600080fd5b505190505b9392505050565b600154600160a060020a0316331415610a6c5781600160a060020a031683600160a060020a03167fddf252ad1be2c89b69c2b068fc378daa952ba7f163c4a11628f55a4df523b3ef836040518082815260200191505060405180910390a3505050565b600154600254604080517fdc86e6f0000000000000000000000000000000000000000000000000000000008152600481019290925251600092600160a060020a03169163dc86e6f091602480830192602092919082900301818787803b1580156109dc57600080fd5b600154600160a060020a031681565b60075490565b600154600254604080517fe96b462a000000000000000000000000000000000000000000000000000000008152336004820152602481019290925251600092600160a060020a03169163e96b462a91604480830192602092919082900301818787803b158015610c9a57600080fd5b505af1158015610cae573d6000803e3d6000fd5b505050506040513d6020811015610cc457600080fd5b5051156107ae57600654600160a060020a03161515610ce5575060006107ae565b5060068054600160a060020a03191690556000600755600190565b3360009081526008602052604090208054600160a060020a0319169055600190565b60008133610d2f826114c7565b600160a060020a03161415610e6757600180546002546040517f57a96dd0000000000000000000000000000000000000000000000000000000008152600160a060020a038a811660048301908152602483018b905260448301849052888216608484015260a0606484019081528a5160a48501528a5192909516946357a96dd0948d948d9491938d938d939192909160c490910190602086019080838360005b83811015610de7578181015183820152602001610dcf565b50505050905090810190601f168015610e145780820380516001836020036101000a031916815260200191505b509650505050505050602060405180830381600087803b158015610e3757600080fd5b505af1158015610e4b573d6000803e3d6000fd5b505050506040513d6020811015610e6157600080fd5b50511491505b50949350505050565b600154600254604080517f4d30b6be000000000000000000000000000000000000000000000000000000008152600160a060020a038581166004830152602482019390935290516000939290921691634d30b6be9160448082019260209290919082900301818787803b158015610ee657600080fd5b505af1158015610efa573d6000803e3d6000fd5b505050506040513d6020811015610f1057600080fd5b505190505b919050565b60008133610f27826114c7565b600160a060020a03161415610fe95760018054600254604080517f14712e2f000000000000000000000000000000000000000000000000000000008152600160a060020a038a81166004830152602482018a905260448201939093528783166064820152905191909216916314712e2f9160848083019260209291908290030181600087803b158015610fb957600080fd5b505af1158015610fcd573d6000803e3d6000fd5b505050506040513d6020811015610fe357600080fd5b50511491505b509392505050565b6004805460408051602060026001851615610100026000190190941693909304601f810184900484028201840190925281815292918301828280156108375780601f1061080c57610100808354040283529160200191610837565b600654600160a060020a031690565b6000600160a060020a038316156108fa576110878383602060405190810160405280600081525061151a565b90506108fa565b6000600160a060020a03841615610b43576110aa84848461151a565b9050610b43565b600154600090600160a060020a0316156110cd57506000610b43565b60018054600160a060020a031916600160a060020a03861617905582516110fb90600490602086019061160a565b506111058361128f565b600255815161111b90600390602085019061160a565b506001949350505050565b600154600254604080517fe96b462a000000000000000000000000000000000000000000000000000000008152336004820152602481019290925251600092600160a060020a03169163e96b462a91604480830192602092919082900301818787803b15801561119557600080fd5b505af11580156111a9573d6000803e3d6000fd5b505050506040513d60208110156111bf57600080fd5b505115610f1557600654600160a060020a0316156111df57506000610f15565b600160a060020a03821615156111f757506000610f15565b600554600160a060020a0316151561122c575060058054600160a060020a031916600160a060020a0383161790556001610f15565b60068054600160a060020a038416600160a060020a031990911681179091554260075560408051918252517faf574319215a31df9b528258f1bdeef2b12b169dc85ff443a49373248c77493a9181900360200190a1506001919050565b60025481565b6020015190565b33600090815260086020526040812054600160a060020a0316156112bc575060006107ae565b506005543360009081526008602052604090208054600160a060020a031916600160a060020a03909216919091179055600190565b600154600254604080517f1c8d5d38000000000000000000000000000000000000000000000000000000008152600160a060020a0386811660048301528581166024830152604482019390935290516000939290921691631c8d5d389160648082019260209290919082900301818787803b1580156108cb57600080fd5b6000813361137c826114c7565b600160a060020a031614156114bd57600180546002546040517f161ff662000000000000000000000000000000000000000000000000000000008152600160a060020a038b8116600483019081528b82166024840152604483018b90526064830184905288821660a484015260c0608484019081528a5160c48501528a51929095169463161ff662948e948e948e9492938e938e93909260e490910190602086019080838360005b8381101561143c578181015183820152602001611424565b50505050905090810190601f1680156114695780820380516001836020036101000a031916815260200191505b50975050505050505050602060405180830381600087803b15801561148d57600080fd5b505af11580156114a1573d6000803e3d6000fd5b505050506040513d60208110156114b757600080fd5b50511491505b5095945050505050565b600160a060020a038082166000908152600860205260408120549091161561150957600160a060020a03808316600090815260086020526040902054166108fa565b5050600554600160a060020a031690565b60006115246107a0565b600160a060020a0316636a630ee7858585336040518563ffffffff1660e060020a0281526004018085600160a060020a0316600160a060020a031681526020018481526020018060200183600160a060020a0316600160a060020a03168152602001828103825284818151815260200191508051906020019080838360005b838110156115bb5781810151838201526020016115a3565b50505050905090810190601f1680156115e85780820380516001836020036101000a031916815260200191505b5095505050505050602060405180830381600087803b158015610b1457600080fd5b828054600181600116156101000203166002900490600052602060002090601f016020900481019282601f1061164b57805160ff1916838001178555611678565b82800160010185558215611678579182015b8281111561167857825182559160200191906001019061165d565b50611684929150611688565b5090565b6107ae91905b80821115611684576000815560010161168e5600a165627a7a72305820e2181cab4970423ad54b99fa8f067730ec017c5ac8e017da8fbf8f583c71e29f0029",
  "source": "/**\n * Copyright 2017–2018, LaborX PTY\n * Licensed under the AGPL Version 3 license.\n */\n\npragma solidity ^0.4.21;\n\n\nimport {ChronoBankPlatformInterface as ChronoBankPlatform} from \"./ChronoBankPlatformInterface.sol\";\nimport {ChronoBankAssetInterface as ChronoBankAsset} from \"./ChronoBankAssetInterface.sol\";\nimport { ERC20Interface as ERC20 } from \"solidity-shared-lib/contracts/ERC20Interface.sol\";\n\n\n/// @title ChronoBank Asset Proxy.\n///\n/// Proxy implements ERC20 interface and acts as a gateway to a single platform asset.\n/// Proxy adds symbol and caller(sender) when forwarding requests to platform.\n/// Every request that is made by caller first sent to the specific asset implementation\n/// contract, which then calls back to be forwarded onto platform.\n///\n/// Calls flow: Caller ->\n///             Proxy.func(...) ->\n///             Asset.__func(..., Caller.address) ->\n///             Proxy.__func(..., Caller.address) ->\n///             Platform.proxyFunc(..., symbol, Caller.address)\n///\n/// Asset implementation contract is mutable, but each user have an option to stick with\n/// old implementation, through explicit decision made in timely manner, if he doesn't agree\n/// with new rules.\n/// Each user have a possibility to upgrade to latest asset contract implementation, without the\n/// possibility to rollback.\n///\n/// Note: all the non constant functions return false instead of throwing in case if state change\n/// didn't happen yet.\ncontract ChronoBankAssetProxy is ERC20 {\n\n    /// @dev Supports ChronoBankPlatform ability to return error codes from methods\n    uint constant OK = 1;\n\n    /// @dev Assigned platform, immutable.\n    ChronoBankPlatform public chronoBankPlatform;\n\n    /// @dev Assigned symbol, immutable.\n    bytes32 public smbl;\n\n    /// @dev Assigned name, immutable.\n    string public name;\n\n    /// @dev Assigned symbol (from ERC20 standard), immutable\n    string public symbol;\n\n    /// @notice Sets platform address, assigns symbol and name.\n    /// Can be set only once.\n    /// @param _chronoBankPlatform platform contract address.\n    /// @param _symbol assigned symbol.\n    /// @param _name assigned name.\n    /// @return success.\n    function init(ChronoBankPlatform _chronoBankPlatform, string _symbol, string _name) public returns (bool) {\n        if (address(chronoBankPlatform) != 0x0) {\n            return false;\n        }\n\n        chronoBankPlatform = _chronoBankPlatform;\n        symbol = _symbol;\n        smbl = stringToBytes32(_symbol);\n        name = _name;\n        return true;\n    }\n\n    function stringToBytes32(string memory source) public pure returns (bytes32 result) {\n        assembly {\n           result := mload(add(source, 32))\n        }\n    }\n\n    /// @dev Only platform is allowed to call.\n    modifier onlyChronoBankPlatform {\n        if (msg.sender == address(chronoBankPlatform)) {\n            _;\n        }\n    }\n\n    /// @dev Only current asset owner is allowed to call.\n    modifier onlyAssetOwner {\n        if (chronoBankPlatform.isOwner(msg.sender, smbl)) {\n            _;\n        }\n    }\n\n    /// @dev Returns asset implementation contract for current caller.\n    /// @return asset implementation contract.\n    function _getAsset() internal view returns (ChronoBankAsset) {\n        return ChronoBankAsset(getVersionFor(msg.sender));\n    }\n\n    /// @notice Returns asset total supply.\n    /// @return asset total supply.\n    function totalSupply() public view returns (uint) {\n        return chronoBankPlatform.totalSupply(smbl);\n    }\n\n    /// @notice Returns asset balance for a particular holder.\n    /// @param _owner holder address.\n    /// @return holder balance.\n    function balanceOf(address _owner) public view returns (uint) {\n        return chronoBankPlatform.balanceOf(_owner, smbl);\n    }\n\n    /// @notice Returns asset allowance from one holder to another.\n    /// @param _from holder that allowed spending.\n    /// @param _spender holder that is allowed to spend.\n    /// @return holder to spender allowance.\n    function allowance(address _from, address _spender) public view returns (uint) {\n        return chronoBankPlatform.allowance(_from, _spender, smbl);\n    }\n\n    /// @notice Returns asset decimals.\n    /// @return asset decimals.\n    function decimals() public view returns (uint8) {\n        return chronoBankPlatform.baseUnit(smbl);\n    }\n\n    /// @notice Transfers asset balance from the caller to specified receiver.\n    /// @param _to holder address to give to.\n    /// @param _value amount to transfer.\n    /// @return success.\n    function transfer(address _to, uint _value) public returns (bool) {\n        if (_to != 0x0) {\n            return _transferWithReference(_to, _value, \"\");\n        }\n    }\n\n    /// @notice Transfers asset balance from the caller to specified receiver adding specified comment.\n    /// @param _to holder address to give to.\n    /// @param _value amount to transfer.\n    /// @param _reference transfer comment to be included in a platform's Transfer event.\n    /// @return success.\n    function transferWithReference(address _to, uint _value, string _reference) public returns (bool) {\n        if (_to != 0x0) {\n            return _transferWithReference(_to, _value, _reference);\n        }\n    }\n\n    /// @notice Resolves asset implementation contract for the caller and forwards there arguments along with\n    /// the caller address.\n    /// @return success.\n    function _transferWithReference(address _to, uint _value, string _reference) internal returns (bool) {\n        return _getAsset().__transferWithReference(_to, _value, _reference, msg.sender);\n    }\n\n    /// @notice Performs transfer call on the platform by the name of specified sender.\n    ///\n    /// Can only be called by asset implementation contract assigned to sender.\n    ///\n    /// @param _to holder address to give to.\n    /// @param _value amount to transfer.\n    /// @param _reference transfer comment to be included in a platform's Transfer event.\n    /// @param _sender initial caller.\n    ///\n    /// @return success.\n    function __transferWithReference(\n        address _to,\n        uint _value,\n        string _reference,\n        address _sender\n    )\n    onlyAccess(_sender)\n    public\n    returns (bool)\n    {\n        return chronoBankPlatform.proxyTransferWithReference(_to, _value, smbl, _reference, _sender) == OK;\n    }\n\n    /// @notice Performs allowance transfer of asset balance between holders.\n    /// @param _from holder address to take from.\n    /// @param _to holder address to give to.\n    /// @param _value amount to transfer.\n    /// @return success.\n    function transferFrom(address _from, address _to, uint _value) public returns (bool) {\n        if (_to != 0x0) {\n            return _getAsset().__transferFromWithReference(_from, _to, _value, \"\", msg.sender);\n        }\n    }\n\n    /// @notice Performs allowance transfer call on the platform by the name of specified sender.\n    ///\n    /// Can only be called by asset implementation contract assigned to sender.\n    ///\n    /// @param _from holder address to take from.\n    /// @param _to holder address to give to.\n    /// @param _value amount to transfer.\n    /// @param _reference transfer comment to be included in a platform's Transfer event.\n    /// @param _sender initial caller.\n    ///\n    /// @return success.\n    function __transferFromWithReference(\n        address _from,\n        address _to,\n        uint _value,\n        string _reference,\n        address _sender\n    )\n    onlyAccess(_sender)\n    public\n    returns (bool)\n    {\n        return chronoBankPlatform.proxyTransferFromWithReference(_from, _to, _value, smbl, _reference, _sender) == OK;\n    }\n\n    /// @notice Sets asset spending allowance for a specified spender.\n    /// @param _spender holder address to set allowance to.\n    /// @param _value amount to allow.\n    /// @return success.\n    function approve(address _spender, uint _value) public returns (bool) {\n        if (_spender != 0x0) {\n            return _getAsset().__approve(_spender, _value, msg.sender);\n        }\n    }\n\n    /// @notice Performs allowance setting call on the platform by the name of specified sender.\n    /// Can only be called by asset implementation contract assigned to sender.\n    /// @param _spender holder address to set allowance to.\n    /// @param _value amount to allow.\n    /// @param _sender initial caller.\n    /// @return success.\n    function __approve(address _spender, uint _value, address _sender) onlyAccess(_sender) public returns (bool) {\n        return chronoBankPlatform.proxyApprove(_spender, _value, smbl, _sender) == OK;\n    }\n\n    /// @notice Emits ERC20 Transfer event on this contract.\n    /// Can only be, and, called by assigned platform when asset transfer happens.\n    function emitTransfer(address _from, address _to, uint _value) onlyChronoBankPlatform public {\n        emit Transfer(_from, _to, _value);\n    }\n\n    /// @notice Emits ERC20 Approval event on this contract.\n    /// Can only be, and, called by assigned platform when asset allowance set happens.\n    function emitApprove(address _from, address _spender, uint _value) onlyChronoBankPlatform public {\n        emit Approval(_from, _spender, _value);\n    }\n\n    /// @notice Resolves asset implementation contract for the caller and forwards there transaction data,\n    /// along with the value. This allows for proxy interface growth.\n    function () public payable {\n        _getAsset().__process.value(msg.value)(msg.data, msg.sender);\n    }\n\n    /// @dev Indicates an upgrade freeze-time start, and the next asset implementation contract.\n    event UpgradeProposal(address newVersion);\n\n    /// @dev Current asset implementation contract address.\n    address latestVersion;\n\n    /// @dev Proposed next asset implementation contract address.\n    address pendingVersion;\n\n    /// @dev Upgrade freeze-time start.\n    uint pendingVersionTimestamp;\n\n    /// @dev Timespan for users to review the new implementation and make decision.\n    uint constant UPGRADE_FREEZE_TIME = 3 days;\n\n    /// @dev Asset implementation contract address that user decided to stick with.\n    /// 0x0 means that user uses latest version.\n    mapping(address => address) userOptOutVersion;\n\n    /// @dev Only asset implementation contract assigned to sender is allowed to call.\n    modifier onlyAccess(address _sender) {\n        if (getVersionFor(_sender) == msg.sender) {\n            _;\n        }\n    }\n\n    /// @notice Returns asset implementation contract address assigned to sender.\n    /// @param _sender sender address.\n    /// @return asset implementation contract address.\n    function getVersionFor(address _sender) public view returns (address) {\n        return userOptOutVersion[_sender] == 0 ? latestVersion : userOptOutVersion[_sender];\n    }\n\n    /// @notice Returns current asset implementation contract address.\n    /// @return asset implementation contract address.\n    function getLatestVersion() public view returns (address) {\n        return latestVersion;\n    }\n\n    /// @notice Returns proposed next asset implementation contract address.\n    /// @return asset implementation contract address.\n    function getPendingVersion() public view returns (address) {\n        return pendingVersion;\n    }\n\n    /// @notice Returns upgrade freeze-time start.\n    /// @return freeze-time start.\n    function getPendingVersionTimestamp() public view returns (uint) {\n        return pendingVersionTimestamp;\n    }\n\n    /// @notice Propose next asset implementation contract address.\n    /// Can only be called by current asset owner.\n    /// Note: freeze-time should not be applied for the initial setup.\n    /// @param _newVersion asset implementation contract address.\n    /// @return success.\n    function proposeUpgrade(address _newVersion) onlyAssetOwner public returns (bool) {\n        // Should not already be in the upgrading process.\n        if (pendingVersion != 0x0) {\n            return false;\n        }\n\n        // New version address should be other than 0x0.\n        if (_newVersion == 0x0) {\n            return false;\n        }\n\n        // Don't apply freeze-time for the initial setup.\n        if (latestVersion == 0x0) {\n            latestVersion = _newVersion;\n            return true;\n        }\n\n        pendingVersion = _newVersion;\n        pendingVersionTimestamp = now;\n\n        emit UpgradeProposal(_newVersion);\n        return true;\n    }\n\n    /// @notice Cancel the pending upgrade process.\n    /// Can only be called by current asset owner.\n    /// @return success.\n    function purgeUpgrade() public onlyAssetOwner returns (bool) {\n        if (pendingVersion == 0x0) {\n            return false;\n        }\n\n        delete pendingVersion;\n        delete pendingVersionTimestamp;\n        return true;\n    }\n\n    /// @notice Finalize an upgrade process setting new asset implementation contract address.\n    /// Can only be called after an upgrade freeze-time.\n    /// @return success.\n    function commitUpgrade() public returns (bool) {\n        if (pendingVersion == 0x0) {\n            return false;\n        }\n\n        if (pendingVersionTimestamp + UPGRADE_FREEZE_TIME > now) {\n            return false;\n        }\n\n        latestVersion = pendingVersion;\n        delete pendingVersion;\n        delete pendingVersionTimestamp;\n        return true;\n    }\n\n    /// @notice Disagree with proposed upgrade, and stick with current asset implementation\n    /// until further explicit agreement to upgrade.\n    /// @return success.\n    function optOut() public returns (bool) {\n        if (userOptOutVersion[msg.sender] != 0x0) {\n            return false;\n        }\n        userOptOutVersion[msg.sender] = latestVersion;\n        return true;\n    }\n\n    /// @notice Implicitly agree to upgrade to current and future asset implementation upgrades,\n    /// until further explicit disagreement.\n    /// @return success.\n    function optIn() public returns (bool) {\n        delete userOptOutVersion[msg.sender];\n        return true;\n    }\n}\n",
  "sourcePath": "/Users/alesanro/Documents/Projects/ChronoBank/LXsidechain-sc/contracts/platform/ChronoBankAssetProxy.sol",
  "compiler": {
    "name": "solc",
    "version": "0.4.24+commit.e67f0147.Emscripten.clang"
  },
  "schemaVersion": "2.0.1",
  "updatedAt": "2018-07-27T20:29:50.998Z"
}