{
  "contractName": "ChronoBankPlatform",
  "abi": [
    {
      "constant": true,
      "inputs": [
        {
          "name": "",
          "type": "uint256"
        }
      ],
      "name": "holders",
      "outputs": [
        {
          "name": "addr",
          "type": "address"
        }
      ],
      "payable": false,
      "stateMutability": "view",
      "type": "function"
    },
    {
      "constant": false,
      "inputs": [],
      "name": "claimContractOwnership",
      "outputs": [
        {
          "name": "",
          "type": "bool"
        }
      ],
      "payable": false,
      "stateMutability": "nonpayable",
      "type": "function"
    },
    {
      "constant": false,
      "inputs": [
        {
          "name": "_from",
          "type": "address"
        },
        {
          "name": "_to",
          "type": "address"
        },
        {
          "name": "_symbol",
          "type": "bytes32"
        },
        {
          "name": "_value",
          "type": "uint256"
        },
        {
          "name": "_reference",
          "type": "string"
        }
      ],
      "name": "emitTransfer",
      "outputs": [],
      "payable": false,
      "stateMutability": "nonpayable",
      "type": "function"
    },
    {
      "constant": false,
      "inputs": [
        {
          "name": "_to",
          "type": "address"
        }
      ],
      "name": "changeContractOwnership",
      "outputs": [
        {
          "name": "",
          "type": "bool"
        }
      ],
      "payable": false,
      "stateMutability": "nonpayable",
      "type": "function"
    },
    {
      "constant": true,
      "inputs": [],
      "name": "pendingContractOwner",
      "outputs": [
        {
          "name": "",
          "type": "address"
        }
      ],
      "payable": false,
      "stateMutability": "view",
      "type": "function"
    },
    {
      "constant": false,
      "inputs": [
        {
          "name": "tokens",
          "type": "address[]"
        }
      ],
      "name": "withdrawTokens",
      "outputs": [],
      "payable": false,
      "stateMutability": "nonpayable",
      "type": "function"
    },
    {
      "constant": true,
      "inputs": [
        {
          "name": "",
          "type": "bytes32"
        }
      ],
      "name": "proxies",
      "outputs": [
        {
          "name": "",
          "type": "address"
        }
      ],
      "payable": false,
      "stateMutability": "view",
      "type": "function"
    },
    {
      "constant": true,
      "inputs": [],
      "name": "holdersCount",
      "outputs": [
        {
          "name": "",
          "type": "uint256"
        }
      ],
      "payable": false,
      "stateMutability": "view",
      "type": "function"
    },
    {
      "constant": false,
      "inputs": [],
      "name": "withdrawEther",
      "outputs": [],
      "payable": false,
      "stateMutability": "nonpayable",
      "type": "function"
    },
    {
      "constant": false,
      "inputs": [
        {
          "name": "_errorCode",
          "type": "uint256"
        }
      ],
      "name": "emitErrorCode",
      "outputs": [],
      "payable": false,
      "stateMutability": "nonpayable",
      "type": "function"
    },
    {
      "constant": true,
      "inputs": [
        {
          "name": "",
          "type": "bytes32"
        }
      ],
      "name": "assets",
      "outputs": [
        {
          "name": "owner",
          "type": "uint256"
        },
        {
          "name": "totalSupply",
          "type": "uint256"
        },
        {
          "name": "name",
          "type": "string"
        },
        {
          "name": "description",
          "type": "string"
        },
        {
          "name": "isReissuable",
          "type": "bool"
        },
        {
          "name": "baseUnit",
          "type": "uint8"
        }
      ],
      "payable": false,
      "stateMutability": "view",
      "type": "function"
    },
    {
      "constant": false,
      "inputs": [
        {
          "name": "_from",
          "type": "address"
        },
        {
          "name": "_to",
          "type": "address"
        },
        {
          "name": "_symbol",
          "type": "bytes32"
        }
      ],
      "name": "emitOwnershipChange",
      "outputs": [],
      "payable": false,
      "stateMutability": "nonpayable",
      "type": "function"
    },
    {
      "constant": false,
      "inputs": [
        {
          "name": "_symbol",
          "type": "bytes32"
        },
        {
          "name": "_value",
          "type": "uint256"
        },
        {
          "name": "_by",
          "type": "address"
        }
      ],
      "name": "emitIssue",
      "outputs": [],
      "payable": false,
      "stateMutability": "nonpayable",
      "type": "function"
    },
    {
      "constant": false,
      "inputs": [
        {
          "name": "_symbol",
          "type": "bytes32"
        },
        {
          "name": "_value",
          "type": "uint256"
        },
        {
          "name": "_by",
          "type": "address"
        }
      ],
      "name": "emitRevoke",
      "outputs": [],
      "payable": false,
      "stateMutability": "nonpayable",
      "type": "function"
    },
    {
      "constant": true,
      "inputs": [
        {
          "name": "",
          "type": "address"
        }
      ],
      "name": "partowners",
      "outputs": [
        {
          "name": "",
          "type": "bool"
        }
      ],
      "payable": false,
      "stateMutability": "view",
      "type": "function"
    },
    {
      "constant": true,
      "inputs": [
        {
          "name": "",
          "type": "uint256"
        }
      ],
      "name": "symbols",
      "outputs": [
        {
          "name": "",
          "type": "bytes32"
        }
      ],
      "payable": false,
      "stateMutability": "view",
      "type": "function"
    },
    {
      "constant": true,
      "inputs": [],
      "name": "contractOwner",
      "outputs": [
        {
          "name": "",
          "type": "address"
        }
      ],
      "payable": false,
      "stateMutability": "view",
      "type": "function"
    },
    {
      "constant": false,
      "inputs": [
        {
          "name": "_from",
          "type": "address"
        },
        {
          "name": "_spender",
          "type": "address"
        },
        {
          "name": "_symbol",
          "type": "bytes32"
        },
        {
          "name": "_value",
          "type": "uint256"
        }
      ],
      "name": "emitApprove",
      "outputs": [],
      "payable": false,
      "stateMutability": "nonpayable",
      "type": "function"
    },
    {
      "constant": false,
      "inputs": [
        {
          "name": "_from",
          "type": "address"
        },
        {
          "name": "_to",
          "type": "address"
        },
        {
          "name": "_by",
          "type": "address"
        }
      ],
      "name": "emitRecovery",
      "outputs": [],
      "payable": false,
      "stateMutability": "nonpayable",
      "type": "function"
    },
    {
      "constant": false,
      "inputs": [
        {
          "name": "newOwner",
          "type": "address"
        }
      ],
      "name": "transferOwnership",
      "outputs": [
        {
          "name": "",
          "type": "bool"
        }
      ],
      "payable": false,
      "stateMutability": "nonpayable",
      "type": "function"
    },
    {
      "constant": true,
      "inputs": [],
      "name": "getEventsHistory",
      "outputs": [
        {
          "name": "",
          "type": "address"
        }
      ],
      "payable": false,
      "stateMutability": "view",
      "type": "function"
    },
    {
      "anonymous": false,
      "inputs": [
        {
          "indexed": true,
          "name": "from",
          "type": "address"
        },
        {
          "indexed": true,
          "name": "to",
          "type": "address"
        },
        {
          "indexed": true,
          "name": "symbol",
          "type": "bytes32"
        },
        {
          "indexed": false,
          "name": "value",
          "type": "uint256"
        },
        {
          "indexed": false,
          "name": "reference",
          "type": "string"
        }
      ],
      "name": "Transfer",
      "type": "event"
    },
    {
      "anonymous": false,
      "inputs": [
        {
          "indexed": true,
          "name": "symbol",
          "type": "bytes32"
        },
        {
          "indexed": false,
          "name": "value",
          "type": "uint256"
        },
        {
          "indexed": true,
          "name": "by",
          "type": "address"
        }
      ],
      "name": "Issue",
      "type": "event"
    },
    {
      "anonymous": false,
      "inputs": [
        {
          "indexed": true,
          "name": "symbol",
          "type": "bytes32"
        },
        {
          "indexed": false,
          "name": "value",
          "type": "uint256"
        },
        {
          "indexed": true,
          "name": "by",
          "type": "address"
        }
      ],
      "name": "Revoke",
      "type": "event"
    },
    {
      "anonymous": false,
      "inputs": [
        {
          "indexed": true,
          "name": "from",
          "type": "address"
        },
        {
          "indexed": true,
          "name": "to",
          "type": "address"
        },
        {
          "indexed": true,
          "name": "symbol",
          "type": "bytes32"
        }
      ],
      "name": "OwnershipChange",
      "type": "event"
    },
    {
      "anonymous": false,
      "inputs": [
        {
          "indexed": true,
          "name": "from",
          "type": "address"
        },
        {
          "indexed": true,
          "name": "spender",
          "type": "address"
        },
        {
          "indexed": true,
          "name": "symbol",
          "type": "bytes32"
        },
        {
          "indexed": false,
          "name": "value",
          "type": "uint256"
        }
      ],
      "name": "Approve",
      "type": "event"
    },
    {
      "anonymous": false,
      "inputs": [
        {
          "indexed": true,
          "name": "from",
          "type": "address"
        },
        {
          "indexed": true,
          "name": "to",
          "type": "address"
        },
        {
          "indexed": false,
          "name": "by",
          "type": "address"
        }
      ],
      "name": "Recovery",
      "type": "event"
    },
    {
      "anonymous": false,
      "inputs": [
        {
          "indexed": true,
          "name": "self",
          "type": "address"
        },
        {
          "indexed": false,
          "name": "errorCode",
          "type": "uint256"
        }
      ],
      "name": "ErrorCode",
      "type": "event"
    },
    {
      "anonymous": false,
      "inputs": [
        {
          "indexed": true,
          "name": "previousOwner",
          "type": "address"
        },
        {
          "indexed": true,
          "name": "newOwner",
          "type": "address"
        }
      ],
      "name": "OwnershipTransferred",
      "type": "event"
    },
    {
      "constant": false,
      "inputs": [
        {
          "name": "_partowner",
          "type": "address"
        }
      ],
      "name": "addPartOwner",
      "outputs": [
        {
          "name": "",
          "type": "uint256"
        }
      ],
      "payable": false,
      "stateMutability": "nonpayable",
      "type": "function"
    },
    {
      "constant": false,
      "inputs": [
        {
          "name": "_partowner",
          "type": "address"
        }
      ],
      "name": "removePartOwner",
      "outputs": [
        {
          "name": "",
          "type": "uint256"
        }
      ],
      "payable": false,
      "stateMutability": "nonpayable",
      "type": "function"
    },
    {
      "constant": false,
      "inputs": [
        {
          "name": "_eventsHistory",
          "type": "address"
        }
      ],
      "name": "setupEventsHistory",
      "outputs": [
        {
          "name": "errorCode",
          "type": "uint256"
        }
      ],
      "payable": false,
      "stateMutability": "nonpayable",
      "type": "function"
    },
    {
      "constant": true,
      "inputs": [],
      "name": "symbolsCount",
      "outputs": [
        {
          "name": "",
          "type": "uint256"
        }
      ],
      "payable": false,
      "stateMutability": "view",
      "type": "function"
    },
    {
      "constant": true,
      "inputs": [
        {
          "name": "_symbol",
          "type": "bytes32"
        }
      ],
      "name": "isCreated",
      "outputs": [
        {
          "name": "",
          "type": "bool"
        }
      ],
      "payable": false,
      "stateMutability": "view",
      "type": "function"
    },
    {
      "constant": true,
      "inputs": [
        {
          "name": "_symbol",
          "type": "bytes32"
        }
      ],
      "name": "baseUnit",
      "outputs": [
        {
          "name": "",
          "type": "uint8"
        }
      ],
      "payable": false,
      "stateMutability": "view",
      "type": "function"
    },
    {
      "constant": true,
      "inputs": [
        {
          "name": "_symbol",
          "type": "bytes32"
        }
      ],
      "name": "name",
      "outputs": [
        {
          "name": "",
          "type": "string"
        }
      ],
      "payable": false,
      "stateMutability": "view",
      "type": "function"
    },
    {
      "constant": true,
      "inputs": [
        {
          "name": "_symbol",
          "type": "bytes32"
        }
      ],
      "name": "description",
      "outputs": [
        {
          "name": "",
          "type": "string"
        }
      ],
      "payable": false,
      "stateMutability": "view",
      "type": "function"
    },
    {
      "constant": true,
      "inputs": [
        {
          "name": "_symbol",
          "type": "bytes32"
        }
      ],
      "name": "isReissuable",
      "outputs": [
        {
          "name": "",
          "type": "bool"
        }
      ],
      "payable": false,
      "stateMutability": "view",
      "type": "function"
    },
    {
      "constant": true,
      "inputs": [
        {
          "name": "_symbol",
          "type": "bytes32"
        }
      ],
      "name": "owner",
      "outputs": [
        {
          "name": "",
          "type": "address"
        }
      ],
      "payable": false,
      "stateMutability": "view",
      "type": "function"
    },
    {
      "constant": true,
      "inputs": [
        {
          "name": "_owner",
          "type": "address"
        },
        {
          "name": "_symbol",
          "type": "bytes32"
        }
      ],
      "name": "isOwner",
      "outputs": [
        {
          "name": "",
          "type": "bool"
        }
      ],
      "payable": false,
      "stateMutability": "view",
      "type": "function"
    },
    {
      "constant": true,
      "inputs": [
        {
          "name": "_owner",
          "type": "address"
        },
        {
          "name": "_symbol",
          "type": "bytes32"
        }
      ],
      "name": "hasAssetRights",
      "outputs": [
        {
          "name": "",
          "type": "bool"
        }
      ],
      "payable": false,
      "stateMutability": "view",
      "type": "function"
    },
    {
      "constant": true,
      "inputs": [
        {
          "name": "_symbol",
          "type": "bytes32"
        }
      ],
      "name": "totalSupply",
      "outputs": [
        {
          "name": "",
          "type": "uint256"
        }
      ],
      "payable": false,
      "stateMutability": "view",
      "type": "function"
    },
    {
      "constant": true,
      "inputs": [
        {
          "name": "_holder",
          "type": "address"
        },
        {
          "name": "_symbol",
          "type": "bytes32"
        }
      ],
      "name": "balanceOf",
      "outputs": [
        {
          "name": "",
          "type": "uint256"
        }
      ],
      "payable": false,
      "stateMutability": "view",
      "type": "function"
    },
    {
      "constant": true,
      "inputs": [
        {
          "name": "_holderId",
          "type": "uint256"
        },
        {
          "name": "_symbol",
          "type": "bytes32"
        }
      ],
      "name": "_balanceOf",
      "outputs": [
        {
          "name": "",
          "type": "uint256"
        }
      ],
      "payable": false,
      "stateMutability": "view",
      "type": "function"
    },
    {
      "constant": true,
      "inputs": [
        {
          "name": "_holderId",
          "type": "uint256"
        }
      ],
      "name": "_address",
      "outputs": [
        {
          "name": "",
          "type": "address"
        }
      ],
      "payable": false,
      "stateMutability": "view",
      "type": "function"
    },
    {
      "constant": false,
      "inputs": [
        {
          "name": "_symbol",
          "type": "bytes32"
        },
        {
          "name": "_partowner",
          "type": "address"
        }
      ],
      "name": "addAssetPartOwner",
      "outputs": [
        {
          "name": "",
          "type": "uint256"
        }
      ],
      "payable": false,
      "stateMutability": "nonpayable",
      "type": "function"
    },
    {
      "constant": false,
      "inputs": [
        {
          "name": "_symbol",
          "type": "bytes32"
        },
        {
          "name": "_partowner",
          "type": "address"
        }
      ],
      "name": "removeAssetPartOwner",
      "outputs": [
        {
          "name": "",
          "type": "uint256"
        }
      ],
      "payable": false,
      "stateMutability": "nonpayable",
      "type": "function"
    },
    {
      "constant": false,
      "inputs": [
        {
          "name": "_proxyAddress",
          "type": "address"
        },
        {
          "name": "_symbol",
          "type": "bytes32"
        }
      ],
      "name": "setProxy",
      "outputs": [
        {
          "name": "",
          "type": "uint256"
        }
      ],
      "payable": false,
      "stateMutability": "nonpayable",
      "type": "function"
    },
    {
      "constant": false,
      "inputs": [
        {
          "name": "addresses",
          "type": "address[]"
        },
        {
          "name": "values",
          "type": "uint256[]"
        },
        {
          "name": "_symbol",
          "type": "bytes32"
        }
      ],
      "name": "massTransfer",
      "outputs": [
        {
          "name": "errorCode",
          "type": "uint256"
        },
        {
          "name": "count",
          "type": "uint256"
        }
      ],
      "payable": false,
      "stateMutability": "nonpayable",
      "type": "function"
    },
    {
      "constant": false,
      "inputs": [
        {
          "name": "_to",
          "type": "address"
        },
        {
          "name": "_value",
          "type": "uint256"
        },
        {
          "name": "_symbol",
          "type": "bytes32"
        },
        {
          "name": "_reference",
          "type": "string"
        },
        {
          "name": "_sender",
          "type": "address"
        }
      ],
      "name": "proxyTransferWithReference",
      "outputs": [
        {
          "name": "",
          "type": "uint256"
        }
      ],
      "payable": false,
      "stateMutability": "nonpayable",
      "type": "function"
    },
    {
      "constant": true,
      "inputs": [
        {
          "name": "_holder",
          "type": "address"
        }
      ],
      "name": "getHolderId",
      "outputs": [
        {
          "name": "",
          "type": "uint256"
        }
      ],
      "payable": false,
      "stateMutability": "view",
      "type": "function"
    },
    {
      "constant": false,
      "inputs": [
        {
          "name": "_symbol",
          "type": "bytes32"
        },
        {
          "name": "_value",
          "type": "uint256"
        },
        {
          "name": "_name",
          "type": "string"
        },
        {
          "name": "_description",
          "type": "string"
        },
        {
          "name": "_baseUnit",
          "type": "uint8"
        },
        {
          "name": "_isReissuable",
          "type": "bool"
        }
      ],
      "name": "issueAsset",
      "outputs": [
        {
          "name": "",
          "type": "uint256"
        }
      ],
      "payable": false,
      "stateMutability": "nonpayable",
      "type": "function"
    },
    {
      "constant": false,
      "inputs": [
        {
          "name": "_symbol",
          "type": "bytes32"
        },
        {
          "name": "_value",
          "type": "uint256"
        }
      ],
      "name": "reissueAsset",
      "outputs": [
        {
          "name": "",
          "type": "uint256"
        }
      ],
      "payable": false,
      "stateMutability": "nonpayable",
      "type": "function"
    },
    {
      "constant": false,
      "inputs": [
        {
          "name": "_symbol",
          "type": "bytes32"
        },
        {
          "name": "_value",
          "type": "uint256"
        }
      ],
      "name": "revokeAsset",
      "outputs": [
        {
          "name": "",
          "type": "uint256"
        }
      ],
      "payable": false,
      "stateMutability": "nonpayable",
      "type": "function"
    },
    {
      "constant": false,
      "inputs": [
        {
          "name": "_symbol",
          "type": "bytes32"
        },
        {
          "name": "_newOwner",
          "type": "address"
        }
      ],
      "name": "changeOwnership",
      "outputs": [
        {
          "name": "",
          "type": "uint256"
        }
      ],
      "payable": false,
      "stateMutability": "nonpayable",
      "type": "function"
    },
    {
      "constant": true,
      "inputs": [
        {
          "name": "_from",
          "type": "address"
        },
        {
          "name": "_to",
          "type": "address"
        }
      ],
      "name": "isTrusted",
      "outputs": [
        {
          "name": "",
          "type": "bool"
        }
      ],
      "payable": false,
      "stateMutability": "view",
      "type": "function"
    },
    {
      "constant": false,
      "inputs": [
        {
          "name": "_to",
          "type": "address"
        }
      ],
      "name": "trust",
      "outputs": [
        {
          "name": "",
          "type": "uint256"
        }
      ],
      "payable": false,
      "stateMutability": "nonpayable",
      "type": "function"
    },
    {
      "constant": false,
      "inputs": [
        {
          "name": "_to",
          "type": "address"
        }
      ],
      "name": "distrust",
      "outputs": [
        {
          "name": "",
          "type": "uint256"
        }
      ],
      "payable": false,
      "stateMutability": "nonpayable",
      "type": "function"
    },
    {
      "constant": false,
      "inputs": [
        {
          "name": "_from",
          "type": "address"
        },
        {
          "name": "_to",
          "type": "address"
        }
      ],
      "name": "recover",
      "outputs": [
        {
          "name": "errorCode",
          "type": "uint256"
        }
      ],
      "payable": false,
      "stateMutability": "nonpayable",
      "type": "function"
    },
    {
      "constant": false,
      "inputs": [
        {
          "name": "_spender",
          "type": "address"
        },
        {
          "name": "_value",
          "type": "uint256"
        },
        {
          "name": "_symbol",
          "type": "bytes32"
        },
        {
          "name": "_sender",
          "type": "address"
        }
      ],
      "name": "proxyApprove",
      "outputs": [
        {
          "name": "",
          "type": "uint256"
        }
      ],
      "payable": false,
      "stateMutability": "nonpayable",
      "type": "function"
    },
    {
      "constant": false,
      "inputs": [
        {
          "name": "_from",
          "type": "address"
        },
        {
          "name": "_to",
          "type": "address"
        },
        {
          "name": "_value",
          "type": "uint256"
        },
        {
          "name": "_symbol",
          "type": "bytes32"
        },
        {
          "name": "_reference",
          "type": "string"
        },
        {
          "name": "_sender",
          "type": "address"
        }
      ],
      "name": "proxyTransferFromWithReference",
      "outputs": [
        {
          "name": "",
          "type": "uint256"
        }
      ],
      "payable": false,
      "stateMutability": "nonpayable",
      "type": "function"
    },
    {
      "constant": true,
      "inputs": [
        {
          "name": "_from",
          "type": "address"
        },
        {
          "name": "_spender",
          "type": "address"
        },
        {
          "name": "_symbol",
          "type": "bytes32"
        }
      ],
      "name": "allowance",
      "outputs": [
        {
          "name": "",
          "type": "uint256"
        }
      ],
      "payable": false,
      "stateMutability": "view",
      "type": "function"
    }
  ],
  "bytecode": "0x608060405260008054600160a060020a03191633179055612d31806100256000396000f30060806040526004361061026e5763ffffffff60e060020a60003504166302571be3811461027357806302927d20146102a7578063048ae1bb146102da578063085a4705146102fe5780630af3e660146103a65780631286e393146103c757806314712e2f146103e8578063161ff662146104175780631c8d5d38146104995780632a11ced0146104c35780632f553d31146104db5780634592cd1d146105075780634637d8271461051c5780634d30b6be1461053d578063515c145714610561578063557f4bc9146105da57806357a96dd0146105fb5780635aa77d3c146106725780635b7da338146106875780635ecb16cd146106a2578063638a9ce9146106f7578063648bf7741461071b5780636713e230146107425780636825c84314610769578063691f3431146107815780636932af361461080e5780636b4ed21b146108265780637362377b1461083b5780638834277e146108505780639fda5b6614610868578063a831751d14610984578063a9612f72146109a5578063abafaa16146109cf578063b524abcf146109f6578063bebcc04514610a0e578063c4eeeeb914610a26578063c70bbc1314610a3e578063ca448a8814610a65578063cb59646614610a80578063ccc11f1114610aa1578063ccce413b14610ac5578063cdeb148514610add578063ce606ee014610b25578063d54c8c8714610b3a578063dc86e6f014610b67578063e0873c0614610b95578063e96b462a14610bb0578063ea14457e14610bd4578063ec77809f14610c01578063ecac7f4b14610c25578063f0c06aa514610c3a578063f2fde38b14610c5b578063fd83915e14610c7c578063fff10aba14610ca0575b600080fd5b34801561027f57600080fd5b5061028b600435610cb5565b60408051600160a060020a039092168252519081900360200190f35b3480156102b357600080fd5b506102c8600160a060020a0360043516610ce0565b60408051918252519081900360200190f35b3480156102e657600080fd5b506102c8600435600160a060020a0360243516610d1b565b34801561030a57600080fd5b50604080516020600460443581810135601f81018490048402850184019095528484526102c894823594602480359536959460649492019190819084018382808284375050604080516020601f89358b018035918201839004830284018301909452808352979a9998810197919650918201945092508291508401838280828437509497505060ff853516955050505050602001351515610dff565b3480156103b257600080fd5b506102c8600160a060020a0360043516610e1b565b3480156103d357600080fd5b506102c8600160a060020a0360043516610e36565b3480156103f457600080fd5b506102c8600160a060020a03600435811690602435906044359060643516610e6f565b34801561042357600080fd5b50604080516020601f6084356004818101359283018490048402850184019095528184526102c894600160a060020a0381358116956024803590921695604435956064359536959460a4949391019190819084018382808284375094975050509235600160a060020a03169350610eb892505050565b3480156104a557600080fd5b506102c8600160a060020a0360043581169060243516604435610f0d565b3480156104cf57600080fd5b5061028b600435610f32565b3480156104e757600080fd5b506104f3600435610f4d565b604080519115158252519081900360200190f35b34801561051357600080fd5b506104f3610f61565b34801561052857600080fd5b506102c8600160a060020a0360043516610fe5565b34801561054957600080fd5b506102c8600160a060020a036004351660243561106a565b34801561056d57600080fd5b50604080516020601f6084356004818101359283018490048402850184019095528184526105d894600160a060020a0381358116956024803590921695604435956064359536959460a494939101919081908401838280828437509497506110879650505050505050565b005b3480156105e657600080fd5b506104f3600160a060020a0360043516611148565b34801561060757600080fd5b50604080516020601f6064356004818101359283018490048402850184019095528184526102c894600160a060020a03813516946024803595604435953695608494930191819084018382808284375094975050509235600160a060020a0316935061119792505050565b34801561067e57600080fd5b5061028b6111d1565b34801561069357600080fd5b506102c86004356024356111e0565b3480156106ae57600080fd5b50604080516020600480358082013583810280860185019096528085526105d8953695939460249493850192918291850190849080828437509497506112009650505050505050565b34801561070357600080fd5b506102c8600160a060020a0360043516602435611386565b34801561072757600080fd5b506102c8600160a060020a036004358116906024351661140c565b34801561074e57600080fd5b506104f3600160a060020a036004358116906024351661156a565b34801561077557600080fd5b5061028b6004356115ae565b34801561078d57600080fd5b506107996004356115c9565b6040805160208082528351818301528351919283929083019185019080838360005b838110156107d35781810151838201526020016107bb565b50505050905090810190601f1680156108005780820380516001836020036101000a031916815260200191505b509250505060405180910390f35b34801561081a57600080fd5b5061028b600435611670565b34801561083257600080fd5b506102c861168b565b34801561084757600080fd5b506105d8611691565b34801561085c57600080fd5b506105d86004356116ef565b34801561087457600080fd5b5061088060043561173a565b604051808781526020018681526020018060200180602001851515151581526020018460ff1660ff168152602001838103835287818151815260200191508051906020019080838360005b838110156108e35781810151838201526020016108cb565b50505050905090810190601f1680156109105780820380516001836020036101000a031916815260200191505b50838103825286518152865160209182019188019080838360005b8381101561094357818101518382015260200161092b565b50505050905090810190601f1680156109705780820380516001836020036101000a031916815260200191505b509850505050505050505060405180910390f35b34801561099057600080fd5b506102c8600160a060020a0360043516611885565b3480156109b157600080fd5b506105d8600160a060020a03600435811690602435166044356118c2565b3480156109db57600080fd5b506105d8600435602435600160a060020a0360443516611902565b348015610a0257600080fd5b506102c8600435611947565b348015610a1a57600080fd5b5061079960043561195c565b348015610a3257600080fd5b506104f36004356119c9565b348015610a4a57600080fd5b506105d8600435602435600160a060020a03604435166119e1565b348015610a7157600080fd5b506102c8600435602435611a26565b348015610a8c57600080fd5b506104f3600160a060020a0360043516611b71565b348015610aad57600080fd5b506104f3600160a060020a0360043516602435611b86565b348015610ad157600080fd5b506102c8600435611be3565b348015610ae957600080fd5b50610b0c6024600480358281019290820135918135918201910135604435611c02565b6040805192835260208301919091528051918290030190f35b348015610b3157600080fd5b5061028b611df3565b348015610b4657600080fd5b506105d8600160a060020a0360043581169060243516604435606435611e02565b348015610b7357600080fd5b50610b7f600435611e4e565b6040805160ff9092168252519081900360200190f35b348015610ba157600080fd5b506102c8600435602435611e6b565b348015610bbc57600080fd5b506104f3600160a060020a0360043516602435611fd1565b348015610be057600080fd5b506105d8600160a060020a0360043581169060243581169060443516612004565b348015610c0d57600080fd5b506102c8600435600160a060020a036024351661204e565b348015610c3157600080fd5b506102c8612108565b348015610c4657600080fd5b506102c8600160a060020a036004351661210e565b348015610c6757600080fd5b506104f3600160a060020a0360043516612174565b348015610c8857600080fd5b506102c8600435600160a060020a0360243516612206565b348015610cac57600080fd5b5061028b612321565b60008181526007602090815260408083205483526004909152902054600160a060020a03165b919050565b60008054600160a060020a0316331415610cdb57600160a060020a0382161515610d0957600080fd5b610d1282612346565b50600192915050565b60008083610d293382611b86565b15610df757610d378461236a565b60008681526007602090815260408083208484526006019091529020805460ff191660011790559150610d686123d5565b604080517fa9612f72000000000000000000000000000000000000000000000000000000008152600060048201819052600160a060020a038881166024840152604483018a90529251939092169263a9612f729260648084019391929182900301818387803b158015610dda57600080fd5b505af1158015610dee573d6000803e3d6000fd5b50505050600192505b505092915050565b6000610e10878787878787336123e4565b979650505050505050565b600160a060020a031660009081526005602052604090205490565b60008054600160a060020a0316331415610cdb5750600160a060020a03166000908152600960205260409020805460ff19169055600190565b6000828152600860205260408120548390600160a060020a0316331415610eaf57610eac610e9c8761236a565b8686610ea78761236a565b61263c565b91505b50949350505050565b6000838152600860205260408120548490600160a060020a0316331415610f0257610eff610ee589610e1b565b610eee8961236a565b888888610efa89610e1b565b612859565b91505b509695505050505050565b6000610f2a610f1b85610e1b565b610f2485610e1b565b84612a53565b949350505050565b600460205260009081526040902054600160a060020a031681565b600090815260076020526040902054151590565b600154600090600160a060020a03163314610f7e57506000610fe2565b60015460008054604051600160a060020a0393841693909116917f8be0079c531659141344cd1fd0a4f28419497f9722a3daafe3b4186f6b6457e091a3506001805460008054600160a060020a0319908116600160a060020a038416179091551681555b90565b600080610ff13361236a565b9050610ffc83610e1b565b8114156110155761100e613a99612a81565b9150611064565b61101f338461156a565b1561102f5761100e613aa3612a81565b6000818152600460209081526040808320600160a060020a03871684526001908101909252909120805460ff19168217905591505b50919050565b600061107e61107884610e1b565b836111e0565b90505b92915050565b826000191684600160a060020a031686600160a060020a03167f8f1b83868d2ecc962fd90cfee71c9c52455fe10940937bc7571d90ba404c5c3b85856040518083815260200180602001828103825283818151815260200191508051906020019080838360005b838110156111065781810151838201526020016110ee565b50505050905090810190601f1680156111335780820380516001836020036101000a031916815260200191505b50935050505060405180910390a45050505050565b60008054600160a060020a0316331415610cdb57600160a060020a038216151561117457506000610cdb565b5060018054600160a060020a038316600160a060020a0319909116178155919050565b6000838152600860205260408120548490600160a060020a03163314156111c7576111c4610ee584610e1b565b91505b5095945050505050565b600154600160a060020a031681565b600090815260076020908152604080832093835260059093019052205490565b60008054819081908190600160a060020a031633141561137f5760008054600160a060020a0316945092505b845183101561137f57848381518110151561124357fe5b6020908102909101810151604080517f70a082310000000000000000000000000000000000000000000000000000000081523060048201529051919450600160a060020a038516926370a08231926024808401938290030181600087803b1580156112ad57600080fd5b505af11580156112c1573d6000803e3d6000fd5b505050506040513d60208110156112d757600080fd5b5051905060008111156113745781600160a060020a031663a9059cbb85836040518363ffffffff1660e060020a0281526004018083600160a060020a0316600160a060020a0316815260200182815260200192505050602060405180830381600087803b15801561134757600080fd5b505af115801561135b573d6000803e3d6000fd5b505050506040513d602081101561137157600080fd5b50505b60019092019161122c565b5050505050565b60008054600160a060020a03163314806113af57503360009081526009602052604090205460ff165b1561108157600082815260086020526040902054600160a060020a0316156113da5750613a98611081565b5060008181526008602052604090208054600160a060020a038416600160a060020a0319909116179055600192915050565b600080833361141b828261156a565b156115615761142985610e1b565b1561144057611439613aa4612a81565b9350611561565b6004600061144d88610e1b565b81526020810191909152604001600090812054600160a060020a03169350859060049061147989610e1b565b815260208101919091526040016000208054600160a060020a031916600160a060020a03929092169190911790556114b086610e1b565b600160a060020a0386166000908152600560205260409020556114d16123d5565b604080517fea14457e000000000000000000000000000000000000000000000000000000008152600160a060020a03868116600483015288811660248301523360448301529151929091169163ea14457e9160648082019260009290919082900301818387803b15801561154457600080fd5b505af1158015611558573d6000803e3d6000fd5b50505050600193505b50505092915050565b60006004600061157985610e1b565b815260208082019290925260409081016000908120600160a060020a038616825260010190925290205460ff16905092915050565b600090815260046020526040902054600160a060020a031690565b6000818152600760209081526040918290206002908101805484516000196001831615610100020190911692909204601f810184900484028301840190945283825260609391929091908301828280156116645780601f1061163957610100808354040283529160200191611664565b820191906000526020600020905b81548152906001019060200180831161164757829003601f168201915b50505050509050919050565b600860205260009081526040902054600160a060020a031681565b60035481565b60008054600160a060020a03163314156116ec5750303160008111156116ec5760008054604051600160a060020a039091169183156108fc02918491818181858888f193505050501580156116ea573d6000803e3d6000fd5b505b50565b6116f7612af1565b600160a060020a03167f09e0713b45664e161c202b19bb4574ee83dfa056f9bfdee56847b3971d968221826040518082815260200191505060405180910390a250565b60076020908152600091825260409182902080546001808301546002808501805488519481161561010002600019011691909104601f8101879004870284018701909752868352929590949192918301828280156117d95780601f106117ae576101008083540402835291602001916117d9565b820191906000526020600020905b8154815290600101906020018083116117bc57829003601f168201915b5050505060038301805460408051602060026001851615610100026000190190941693909304601f81018490048402820184019092528181529495949350908301828280156118695780601f1061183e57610100808354040283529160200191611869565b820191906000526020600020905b81548152906001019060200180831161184c57829003601f168201915b5050506004909301549192505060ff8082169161010090041686565b60008054600160a060020a0316331415610cdb5750600160a060020a03166000908152600960205260409020805460ff1916600190811790915590565b6040518190600160a060020a0380851691908616907f0de92ba2d86c482d7f947cc22a580692bb78d6277988023434905f44b8cd261a90600090a4505050565b604080518381529051600160a060020a0383169185917fd03c2206e12a8eb3553d780874e1a7941b9c67f3a726ce6edb4a9fd65e25ec989181900360200190a3505050565b60009081526007602052604090206001015490565b60008181526007602090815260409182902060030180548351601f60026101006001851615026000190190931692909204918201849004840281018401909452808452606093928301828280156116645780601f1061163957610100808354040283529160200191611664565b60009081526007602052604090206004015460ff1690565b604080518381529051600160a060020a0383169185917fa4e2520a41c90422e37fc8ba7153c519a427a62ea5f494a14a218a7b9bceb6ca9181900360200190a3505050565b60008080831515611a4357611a3c613a9a612a81565b9250610df7565b60008581526007602052604090209150611a5c33610e1b565b6000818152600584016020526040902054909150841115611a8257611a3c613aa1612a81565b6000818152600583016020526040902054611aa3908563ffffffff612af516565b60008281526005840160205260409020556001820154611ac9908563ffffffff612af516565b6001830155611ad66123d5565b600160a060020a031663c70bbc138686611aef856115ae565b6040805160e060020a63ffffffff871602815260048101949094526024840192909252600160a060020a0316604483015251606480830192600092919082900301818387803b158015611b4157600080fd5b505af1158015611b55573d6000803e3d6000fd5b50505050611b668160008688612b07565b506001949350505050565b60096020526000908152604090205460ff1681565b600080611b9284610e1b565b9050611b9d83610f4d565b8015610f2a5750600083815260076020526040902054811480610f2a5750600083815260076020908152604080832084845260060190915290205460ff16949350505050565b6006805482908110611bf157fe5b600091825260209091200154905081565b600080600080600080600087611c183382611b86565b15611de3578b8a14611c2957600080fd5b881515611c3557600080fd5b611c3e3361236a565b955060009450600093505b8b84108015611c5a57506201adb05a115b15611ddb578a8a85818110611c6b57fe5b9050602002013592508260001415611c8e57611c88613a9a612a81565b50611dd0565b82611c99878b6111e0565b1015611caa57611c88613a9b612a81565b8c8c85818110611cb657fe5b90506020020135600160a060020a0316600160a060020a031633600160a060020a03161415611cea57611c88613a99612a81565b611d0e8d8d86818110611cf957fe5b90506020020135600160a060020a031661236a565b9150611d1c8683858c612bde565b611d246123d5565b600160a060020a031663515c1457338f8f88818110611d3f57fe5b6040805160e060020a63ffffffff8816028152600160a060020a0395861660048201526020909202939093013593909316602484015250604482018d90526064820187905260a06084830152600060a48301819052905160e48084019382900301818387803b158015611db157600080fd5b505af1158015611dc5573d6000803e3d6000fd5b505060019096019550505b600190930192611c49565b600185975097505b5050505050509550959350505050565b600054600160a060020a031681565b6040805182815290518391600160a060020a0380871692908816917f859b1cddb4da93a04541d62c27d7d83aa8173a1b37bbccd3c60ceb4ee19ee13e919081900360200190a450505050565b600090815260076020526040902060040154610100900460ff1690565b600080600084611e7b3382611b86565b1561156157841515611e9257611439613a9a612a81565b6000868152600760205260409020600481015490935060ff161515611ebc57611439613a9f612a81565b60018301548581011015611ed557611439613aa0612a81565b611ede33610e1b565b6000818152600585016020526040902054909250611f02908663ffffffff612c6116565b60008381526005850160205260409020556001830154611f28908663ffffffff612c6116565b6001840155611f356123d5565b600160a060020a031663abafaa168787611f4e866115ae565b6040805160e060020a63ffffffff871602815260048101949094526024840192909252600160a060020a0316604483015251606480830192600092919082900301818387803b158015611fa057600080fd5b505af1158015611fb4573d6000803e3d6000fd5b50505050611fc56000838789612b07565b50600195945050505050565b6000611fdc82610f4d565b801561107e5750611fec83610e1b565b60008381526007602052604090205414905092915050565b60408051600160a060020a0383811682529151828516928616917f6c0468512076e943ed3d1c5aae1d6903c72162713d86aedd1381b3ac19e10cec919081900360200190a3505050565b6000808361205c3382611b86565b15610df75761206a84610e1b565b60008681526007602090815260408083208484526006019091529020805460ff1916905591506120986123d5565b604080517fa9612f72000000000000000000000000000000000000000000000000000000008152600160a060020a038781166004830152600060248301819052604483018a9052925193169263a9612f729260648084019391929182900301818387803b158015610dda57600080fd5b60065490565b6000338261211c828261156a565b1561216d5760006004600061213033610e1b565b815260208082019290925260409081016000908120600160a060020a0389168252600190810190935220805460ff19169215159290921790915592505b5050919050565b60008054600160a060020a0316331415610cdb57600160a060020a03821615156121a057506000610cdb565b60008054604051600160a060020a03808616939216917f8be0079c531659141344cd1fd0a4f28419497f9722a3daafe3b4186f6b6457e091a35060008054600160a060020a038316600160a060020a031991821617909155600180549091168155919050565b600080600080856122173382611fd1565b1561231757600160a060020a038616151561223e57612237613aa2612a81565b9450612317565b600087815260076020526040902093506122578661236a565b845490935083141561226e57612237613a99612a81565b8354612279906115ae565b83855591506122866123d5565b604080517fa9612f72000000000000000000000000000000000000000000000000000000008152600160a060020a0385811660048301528981166024830152604482018b90529151929091169163a9612f729160648082019260009290919082900301818387803b1580156122fa57600080fd5b505af115801561230e573d6000803e3d6000fd5b50505050600194505b5050505092915050565b600254600090600160a060020a031680151561233d573061233f565b805b91505b5090565b60028054600160a060020a038316600160a060020a03199091161790556001919050565b600160a060020a0381166000908152600560205260408120548015156110815750600380546001019081905560008181526004602090815260408083208054600160a060020a031916600160a060020a03881690811790915583526005909152902081905592915050565b60006123df612321565b905090565b6000805481908190600160a060020a031633148061241157503360009081526009602052604090205460ff165b1561262f5788158015612422575084155b1561243957612432613a9e612a81565b925061262f565b6124428a610f4d565b1561245257612432613a9d612a81565b61245b8461236a565b9150600160a060020a038416331461247b576124763361236a565b61247d565b815b905060068a908060018154018082558091505090600182039060005260206000200160009091929091909150906000191690555060c0604051908101604052808281526020018a815260200189815260200188815260200186151581526020018760ff16815250600760008c600019166000191681526020019081526020016000206000820151816000015560208201518160010155604082015181600201908051906020019061252f929190612c77565b506060820151805161254b916003840191602090910190612c77565b5060808201516004909101805460a09093015160ff166101000261ff001992151560ff19909416939093179190911691909117905560008a815260076020908152604080832085845260050190915290208990556125a76123d5565b600160a060020a031663abafaa168b8b6125c0866115ae565b6040805160e060020a63ffffffff871602815260048101949094526024840192909252600160a060020a0316604483015251606480830192600092919082900301818387803b15801561261257600080fd5b505af1158015612626573d6000803e3d6000fd5b50505050600192505b5050979650505050505050565b600061264783610f4d565b151561265f57612658613aa5612a81565b9050610f2a565b8482141561267257612658613a99612a81565b60008381526007602090815260408083208584526005018252808320888452600101909152902054158015906126a757508315155b156126b757612658613aa9612a81565b6000838152600760209081526040808320858452600501825280832088845260010190915290208490556126e96123d5565b600160a060020a031663d54c8c87612700846115ae565b612709886115ae565b6040805160e060020a63ffffffff8616028152600160a060020a03938416600482015291909216602482015260448101879052606481018890529051608480830192600092919082900301818387803b15801561276557600080fd5b505af1158015612779573d6000803e3d6000fd5b505050600084815260086020526040902054600160a060020a0316159050611b6657600083815260086020526040902054600160a060020a031663233850896127c1846115ae565b6127ca886115ae565b876040518463ffffffff1660e060020a0281526004018084600160a060020a0316600160a060020a0316815260200183600160a060020a0316600160a060020a031681526020018281526020019350505050600060405180830381600087803b15801561283657600080fd5b505af115801561284a573d6000803e3d6000fd5b50505050506001949350505050565b600080868814156128765761286f613a99612a81565b9150610f02565b8515156128885761286f613a9a612a81565b8561289389876111e0565b10156128a45761286f613a9b612a81565b6128af888487612a53565b90508288141580156128c057508581105b156128d05761286f613a9c612a81565b6128dc88888888612bde565b8288141580156128ee57506000198114155b1561292c57612903818763ffffffff612af516565b60008681526007602090815260408083208c845260050182528083208784526001019091529020555b6129346123d5565b600160a060020a031663515c145761294b8a6115ae565b6129548a6115ae565b60405160e060020a63ffffffff8516028152600160a060020a03808416600483019081529083166024830152604482018b9052606482018c905260a0608483019081528a5160a48401528a518c938e938d939092909160c40190602085019080838360005b838110156129d15781810151838201526020016129b9565b50505050905090810190601f1680156129fe5780820380516001836020036101000a031916815260200191505b509650505050505050600060405180830381600087803b158015612a2157600080fd5b505af1158015612a35573d6000803e3d6000fd5b50505050612a4588888888612b07565b506001979650505050505050565b6000908152600760209081526040808320948352600590940181528382209282526001909201909152205490565b6000612a8b612321565b600160a060020a0316638834277e836040518263ffffffff1660e060020a02815260040180828152602001915050600060405180830381600087803b158015612ad357600080fd5b505af1158015612ae7573d6000803e3d6000fd5b5093949350505050565b3390565b600082821115612b0157fe5b50900390565b600081815260086020526040902054600160a060020a031615612bd857600081815260086020526040902054600160a060020a03166323de6651612b4a866115ae565b612b53866115ae565b856040518463ffffffff1660e060020a0281526004018084600160a060020a0316600160a060020a0316815260200183600160a060020a0316600160a060020a031681526020018281526020019350505050600060405180830381600087803b158015612bbf57600080fd5b505af1158015612bd3573d6000803e3d6000fd5b505050505b50505050565b6000818152600760209081526040808320878452600501909152902054612c0b908363ffffffff612af516565b6000828152600760209081526040808320888452600501909152808220929092558481522054612c3b9083612c61565b600091825260076020908152604080842095845260059095019052929020919091555050565b600082820183811015612c7057fe5b9392505050565b828054600181600116156101000203166002900490600052602060002090601f016020900481019282601f10612cb857805160ff1916838001178555612ce5565b82800160010185558215612ce5579182015b82811115612ce5578251825591602001919060010190612cca565b5061234292610fe29250905b808211156123425760008155600101612cf15600a165627a7a72305820a38a8051b6000e3e24f1fe78581e0ba8017a26f5e725b41800283ea45acd8a190029",
  "source": "/**\n * Copyright 20172018, LaborX PTY\n * Licensed under the AGPL Version 3 license.\n */\n\npragma solidity ^0.4.21;\n\nimport \"../common/Object.sol\";\nimport \"./ChronoBankPlatformEmitter.sol\";\nimport \"../lib/SafeMath.sol\";\n\n\ncontract ProxyEventsEmitter {\n    function emitTransfer(address _from, address _to, uint _value) public;\n    function emitApprove(address _from, address _spender, uint _value) public;\n}\n\n\n///  @title ChronoBank Platform.\n///\n///  The official ChronoBank assets platform powering TIME and LHT tokens, and possibly\n///  other unknown tokens needed later.\n///  Platform uses MultiEventsHistory contract to keep events, so that in case it needs to be redeployed\n///  at some point, all the events keep appearing at the same place.\n///\n///  Every asset is meant to be used through a proxy contract. Only one proxy contract have access\n///  rights for a particular asset.\n///\n///  Features: transfers, allowances, supply adjustments, lost wallet access recovery.\n///\n///  Note: all the non constant functions return false instead of throwing in case if state change\n/// didn't happen yet.\ncontract ChronoBankPlatform is Object, ChronoBankPlatformEmitter {\n\n    using SafeMath for uint;\n\n    uint constant CHRONOBANK_PLATFORM_SCOPE = 15000;\n    uint constant CHRONOBANK_PLATFORM_PROXY_ALREADY_EXISTS = CHRONOBANK_PLATFORM_SCOPE + 0;\n    uint constant CHRONOBANK_PLATFORM_CANNOT_APPLY_TO_ONESELF = CHRONOBANK_PLATFORM_SCOPE + 1;\n    uint constant CHRONOBANK_PLATFORM_INVALID_VALUE = CHRONOBANK_PLATFORM_SCOPE + 2;\n    uint constant CHRONOBANK_PLATFORM_INSUFFICIENT_BALANCE = CHRONOBANK_PLATFORM_SCOPE + 3;\n    uint constant CHRONOBANK_PLATFORM_NOT_ENOUGH_ALLOWANCE = CHRONOBANK_PLATFORM_SCOPE + 4;\n    uint constant CHRONOBANK_PLATFORM_ASSET_ALREADY_ISSUED = CHRONOBANK_PLATFORM_SCOPE + 5;\n    uint constant CHRONOBANK_PLATFORM_CANNOT_ISSUE_FIXED_ASSET_WITH_INVALID_VALUE = CHRONOBANK_PLATFORM_SCOPE + 6;\n    uint constant CHRONOBANK_PLATFORM_CANNOT_REISSUE_FIXED_ASSET = CHRONOBANK_PLATFORM_SCOPE + 7;\n    uint constant CHRONOBANK_PLATFORM_SUPPLY_OVERFLOW = CHRONOBANK_PLATFORM_SCOPE + 8;\n    uint constant CHRONOBANK_PLATFORM_NOT_ENOUGH_TOKENS = CHRONOBANK_PLATFORM_SCOPE + 9;\n    uint constant CHRONOBANK_PLATFORM_INVALID_NEW_OWNER = CHRONOBANK_PLATFORM_SCOPE + 10;\n    uint constant CHRONOBANK_PLATFORM_ALREADY_TRUSTED = CHRONOBANK_PLATFORM_SCOPE + 11;\n    uint constant CHRONOBANK_PLATFORM_SHOULD_RECOVER_TO_NEW_ADDRESS = CHRONOBANK_PLATFORM_SCOPE + 12;\n    uint constant CHRONOBANK_PLATFORM_ASSET_IS_NOT_ISSUED = CHRONOBANK_PLATFORM_SCOPE + 13;\n    uint constant CHRONOBANK_PLATFORM_INVALID_INVOCATION = CHRONOBANK_PLATFORM_SCOPE + 17;\n\n    uint constant MAX_ALLOWANCE = 2**256 - 1;\n\n    /// @title Structure of a particular asset.\n    struct Asset {\n        uint owner;                       // Asset's owner id.\n        uint totalSupply;                 // Asset's total supply.\n        string name;                      // Asset's name, for information purposes.\n        string description;               // Asset's description, for information purposes.\n        bool isReissuable;                // Indicates if asset have dynamic or fixed supply.\n        uint8 baseUnit;                   // Proposed number of decimals.\n        mapping(uint => Wallet) wallets;  // Holders wallets.\n        mapping(uint => bool) partowners; // Part-owners of an asset; have less access rights than owner\n    }\n\n    /// @title Structure of an asset holder wallet for particular asset.\n    struct Wallet {\n        uint balance;\n        mapping(uint => uint) allowance;\n    }\n\n    /// @title Structure of an asset holder.\n    struct Holder {\n        address addr;                    // Current address of the holder.\n        mapping(address => bool) trust;  // Addresses that are trusted with recovery proocedure.\n    }\n\n    /// @dev Iterable mapping pattern is used for holders.\n    uint public holdersCount;\n    mapping(uint => Holder) public holders;\n\n    /// @dev This is an access address mapping. Many addresses may have access to a single holder.\n    mapping(address => uint) holderIndex;\n\n    /// @dev List of symbols that exist in a platform\n    bytes32[] public symbols;\n\n    /// @dev Asset symbol to asset mapping.\n    mapping(bytes32 => Asset) public assets;\n\n    /// @dev Asset symbol to asset proxy mapping.\n    mapping(bytes32 => address) public proxies;\n\n    /// @dev Co-owners of a platform. Has less access rights than a root contract owner\n    mapping(address => bool) public partowners;\n\n    /// @dev Emits Error if called not by asset owner.\n    modifier onlyOwner(bytes32 _symbol) {\n        if (isOwner(msg.sender, _symbol)) {\n            _;\n        }\n    }\n\n    /// @dev UNAUTHORIZED if called not by one of symbol's partowners or owner\n    modifier onlyOneOfOwners(bytes32 _symbol) {\n        if (hasAssetRights(msg.sender, _symbol)) {\n            _;\n        }\n    }\n\n    /// @dev UNAUTHORIZED if called not by one of partowners or contract's owner\n    modifier onlyOneOfContractOwners() {\n        if (contractOwner == msg.sender || partowners[msg.sender]) {\n            _;\n        }\n    }\n\n    /// @dev Emits Error if called not by asset proxy.\n    modifier onlyProxy(bytes32 _symbol) {\n        if (proxies[_symbol] == msg.sender) {\n            _;\n        }\n    }\n\n    /// @dev Emits Error if _from doesn't trust _to.\n    modifier checkTrust(address _from, address _to) {\n        if (isTrusted(_from, _to)) {\n            _;\n        }\n    }\n\n    /// @notice Adds a co-owner of a contract. Might be more than one co-owner\n    /// @dev Allowed to only contract onwer\n    /// @param _partowner a co-owner of a contract\n    /// @return result code of an operation\n    function addPartOwner(address _partowner) onlyContractOwner public returns (uint) {\n        partowners[_partowner] = true;\n        return OK;\n    }\n\n    /// @notice Removes a co-owner of a contract\n    /// @dev Should be performed only by root contract owner\n    /// @param _partowner a co-owner of a contract\n    /// @return result code of an operation\n    function removePartOwner(address _partowner) onlyContractOwner public returns (uint) {\n        delete partowners[_partowner];\n        return OK;\n    }\n\n    /// @notice Sets EventsHistory contract address.\n    /// @dev Can be set only by owner.\n    /// @param _eventsHistory MultiEventsHistory contract address.\n    /// @return success.\n    function setupEventsHistory(address _eventsHistory) onlyContractOwner public returns (uint errorCode) {\n        require(_eventsHistory != 0x0);\n\n        _setEventsHistory(_eventsHistory);\n        return OK;\n    }\n\n    /// @notice Provides a cheap way to get number of symbols registered in a platform\n    /// @return number of symbols\n    function symbolsCount() public view returns (uint) {\n        return symbols.length;\n    }\n\n    /// @notice Check asset existance.\n    /// @param _symbol asset symbol.\n    /// @return asset existance.\n    function isCreated(bytes32 _symbol) public view returns (bool) {\n        return assets[_symbol].owner != 0;\n    }\n\n    /// @notice Returns asset decimals.\n    /// @param _symbol asset symbol.\n    /// @return asset decimals.\n    function baseUnit(bytes32 _symbol) public view returns (uint8) {\n        return assets[_symbol].baseUnit;\n    }\n\n    /// @notice Returns asset name.\n    /// @param _symbol asset symbol.\n    /// @return asset name.\n    function name(bytes32 _symbol) public view returns (string) {\n        return assets[_symbol].name;\n    }\n\n    /// @notice Returns asset description.\n    /// @param _symbol asset symbol.\n    /// @return asset description.\n    function description(bytes32 _symbol) public view returns (string) {\n        return assets[_symbol].description;\n    }\n\n    /// @notice Returns asset reissuability.\n    /// @param _symbol asset symbol.\n    /// @return asset reissuability.\n    function isReissuable(bytes32 _symbol) public view returns (bool) {\n        return assets[_symbol].isReissuable;\n    }\n\n    /// @notice Returns asset owner address.\n    /// @param _symbol asset symbol.\n    /// @return asset owner address.\n    function owner(bytes32 _symbol) public view returns (address) {\n        return holders[assets[_symbol].owner].addr;\n    }\n\n    /// @notice Check if specified address has asset owner rights.\n    /// @param _owner address to check.\n    /// @param _symbol asset symbol.\n    /// @return owner rights availability.\n    function isOwner(address _owner, bytes32 _symbol) public view returns (bool) {\n        return isCreated(_symbol) && (assets[_symbol].owner == getHolderId(_owner));\n    }\n\n    /// @notice Checks if a specified address has asset owner or co-owner rights.\n    /// @param _owner address to check.\n    /// @param _symbol asset symbol.\n    /// @return owner rights availability.\n    function hasAssetRights(address _owner, bytes32 _symbol) public view returns (bool) {\n        uint holderId = getHolderId(_owner);\n        return isCreated(_symbol) && (assets[_symbol].owner == holderId || assets[_symbol].partowners[holderId]);\n    }\n\n    /// @notice Returns asset total supply.\n    /// @param _symbol asset symbol.\n    /// @return asset total supply.\n    function totalSupply(bytes32 _symbol) public view returns (uint) {\n        return assets[_symbol].totalSupply;\n    }\n\n    /// @notice Returns asset balance for a particular holder.\n    /// @param _holder holder address.\n    /// @param _symbol asset symbol.\n    /// @return holder balance.\n    function balanceOf(address _holder, bytes32 _symbol) public view returns (uint) {\n        return _balanceOf(getHolderId(_holder), _symbol);\n    }\n\n    /// @notice Returns asset balance for a particular holder id.\n    /// @param _holderId holder id.\n    /// @param _symbol asset symbol.\n    /// @return holder balance.\n    function _balanceOf(uint _holderId, bytes32 _symbol) public view returns (uint) {\n        return assets[_symbol].wallets[_holderId].balance;\n    }\n\n    /// @notice Returns current address for a particular holder id.\n    /// @param _holderId holder id.\n    /// @return holder address.\n    function _address(uint _holderId) public view returns (address) {\n        return holders[_holderId].addr;\n    }\n\n    /// @notice Adds a co-owner for an asset with provided symbol.\n    /// @dev Should be performed by a contract owner or its co-owners\n    /// @param _symbol asset's symbol\n    /// @param _partowner a co-owner of an asset\n    /// @return errorCode result code of an operation\n    function addAssetPartOwner(bytes32 _symbol, address _partowner) onlyOneOfOwners(_symbol) public returns (uint) {\n        uint holderId = _createHolderId(_partowner);\n        assets[_symbol].partowners[holderId] = true;\n        _emitter().emitOwnershipChange(0x0, _partowner, _symbol);\n        return OK;\n    }\n\n    /// @notice Removes a co-owner for an asset with provided symbol.\n    /// @dev Should be performed by a contract owner or its co-owners\n    /// @param _symbol asset's symbol\n    /// @param _partowner a co-owner of an asset\n    /// @return errorCode result code of an operation\n    function removeAssetPartOwner(bytes32 _symbol, address _partowner) onlyOneOfOwners(_symbol) public returns (uint) {\n        uint holderId = getHolderId(_partowner);\n        delete assets[_symbol].partowners[holderId];\n        _emitter().emitOwnershipChange(_partowner, 0x0, _symbol);\n        return OK;\n    }\n\n    /// @notice Sets Proxy contract address for a particular asset.\n    /// @dev Can be set only once for each asset and only by contract owner.\n    /// @param _proxyAddress Proxy contract address.\n    /// @param _symbol asset symbol.\n    /// @return success.\n    function setProxy(address _proxyAddress, bytes32 _symbol) public onlyOneOfContractOwners returns (uint) {\n        if (proxies[_symbol] != 0x0) {\n            return CHRONOBANK_PLATFORM_PROXY_ALREADY_EXISTS;\n        }\n\n        proxies[_symbol] = _proxyAddress;\n        return OK;\n    }\n\n    /// @notice Performes asset transfer for multiple destinations\n    /// @param addresses list of addresses to receive some amount\n    /// @param values list of asset amounts for according addresses\n    /// @param _symbol asset symbol\n    /// @return {\n    ///     \"errorCode\": \"resultCode of an operation\",\n    ///     \"count\": \"an amount of succeeded transfers\"\n    /// }\n    function massTransfer(address[] addresses, uint[] values, bytes32 _symbol)\n    onlyOneOfOwners(_symbol)\n    external\n    returns (uint errorCode, uint count)\n    {\n        require(addresses.length == values.length);\n        require(_symbol != 0x0);\n\n        uint senderId = _createHolderId(msg.sender);\n\n        uint success = 0;\n        for(uint idx = 0; idx < addresses.length && gasleft() > 110000; idx++) {\n            uint value = values[idx];\n\n            if (value == 0) {\n                _emitErrorCode(CHRONOBANK_PLATFORM_INVALID_VALUE);\n                continue;\n            }\n\n            if (_balanceOf(senderId, _symbol) < value) {\n                _emitErrorCode(CHRONOBANK_PLATFORM_INSUFFICIENT_BALANCE);\n                continue;\n            }\n\n            if (msg.sender == addresses[idx]) {\n                _emitErrorCode(CHRONOBANK_PLATFORM_CANNOT_APPLY_TO_ONESELF);\n                continue;\n            }\n\n            uint holderId = _createHolderId(addresses[idx]);\n\n            _transferDirect(senderId, holderId, value, _symbol);\n            _emitter().emitTransfer(msg.sender, addresses[idx], _symbol, value, \"\");\n\n            success++;\n        }\n\n        return (OK, success);\n    }\n\n    /// @dev Transfers asset balance between holders wallets.\n    /// @param _fromId holder id to take from.\n    /// @param _toId holder id to give to.\n    /// @param _value amount to transfer.\n    /// @param _symbol asset symbol.\n    function _transferDirect(\n        uint _fromId,\n        uint _toId,\n        uint _value,\n        bytes32 _symbol\n    )\n    internal\n    {\n        assets[_symbol].wallets[_fromId].balance = assets[_symbol].wallets[_fromId].balance.sub(_value);\n        assets[_symbol].wallets[_toId].balance = assets[_symbol].wallets[_toId].balance.add(_value);\n    }\n\n    /// @dev Transfers asset balance between holders wallets.\n    /// Performs sanity checks and takes care of allowances adjustment.\n    ///\n    /// @param _fromId holder id to take from.\n    /// @param _toId holder id to give to.\n    /// @param _value amount to transfer.\n    /// @param _symbol asset symbol.\n    /// @param _reference transfer comment to be included in a Transfer event.\n    /// @param _senderId transfer initiator holder id.\n    ///\n    /// @return success.\n    function _transfer(\n        uint _fromId,\n        uint _toId,\n        uint _value,\n        bytes32 _symbol,\n        string _reference,\n        uint _senderId\n    )\n    internal\n    returns (uint)\n    {\n        // Should not allow to send to oneself.\n        if (_fromId == _toId) {\n            return _emitErrorCode(CHRONOBANK_PLATFORM_CANNOT_APPLY_TO_ONESELF);\n        }\n        // Should have positive value.\n        if (_value == 0) {\n            return _emitErrorCode(CHRONOBANK_PLATFORM_INVALID_VALUE);\n        }\n        // Should have enough balance.\n        if (_balanceOf(_fromId, _symbol) < _value) {\n            return _emitErrorCode(CHRONOBANK_PLATFORM_INSUFFICIENT_BALANCE);\n        }\n\n        uint _holderAllowance = _allowance(_fromId, _senderId, _symbol);\n        // Should have enough allowance.\n        if (_fromId != _senderId && _holderAllowance < _value) {\n            return _emitErrorCode(CHRONOBANK_PLATFORM_NOT_ENOUGH_ALLOWANCE);\n        }\n\n        _transferDirect(_fromId, _toId, _value, _symbol);\n        // Adjust allowance. Use MAX_ALLOWANCE to provide unlimited allowance\n        if (_fromId != _senderId && _holderAllowance != MAX_ALLOWANCE) {\n            assets[_symbol].wallets[_fromId].allowance[_senderId] = _holderAllowance.sub(_value);\n        }\n        // Internal Out Of Gas/Throw: revert this transaction too;\n        // Call Stack Depth Limit reached: n/a after HF 4;\n        // Recursive Call: safe, all changes already made.\n        _emitter().emitTransfer(_address(_fromId), _address(_toId), _symbol, _value, _reference);\n        _proxyTransferEvent(_fromId, _toId, _value, _symbol);\n        return OK;\n    }\n\n    /// @dev Transfers asset balance between holders wallets.\n    /// Can only be called by asset proxy.\n    ///\n    /// @param _to holder address to give to.\n    /// @param _value amount to transfer.\n    /// @param _symbol asset symbol.\n    /// @param _reference transfer comment to be included in a Transfer event.\n    /// @param _sender transfer initiator address.\n    ///\n    /// @return success.\n    function proxyTransferWithReference(\n        address _to,\n        uint _value,\n        bytes32 _symbol,\n        string _reference,\n        address _sender\n    )\n    onlyProxy(_symbol)\n    public\n    returns (uint)\n    {\n        return _transfer(getHolderId(_sender), _createHolderId(_to), _value, _symbol, _reference, getHolderId(_sender));\n    }\n\n    /// @dev Ask asset Proxy contract to emit ERC20 compliant Transfer event.\n    /// @param _fromId holder id to take from.\n    /// @param _toId holder id to give to.\n    /// @param _value amount to transfer.\n    /// @param _symbol asset symbol.\n    function _proxyTransferEvent(uint _fromId, uint _toId, uint _value, bytes32 _symbol) internal {\n        if (proxies[_symbol] != 0x0) {\n            // Internal Out Of Gas/Throw: revert this transaction too;\n            // Call Stack Depth Limit reached: n/a after HF 4;\n            // Recursive Call: safe, all changes already made.\n            ProxyEventsEmitter(proxies[_symbol]).emitTransfer(_address(_fromId), _address(_toId), _value);\n        }\n    }\n\n    /// @notice Returns holder id for the specified address.\n    /// @param _holder holder address.\n    /// @return holder id.\n    function getHolderId(address _holder) public view returns (uint) {\n        return holderIndex[_holder];\n    }\n\n    /// @dev Returns holder id for the specified address, creates it if needed.\n    /// @param _holder holder address.\n    /// @return holder id.\n    function _createHolderId(address _holder) internal returns (uint) {\n        uint holderId = holderIndex[_holder];\n        if (holderId == 0) {\n            holderId = ++holdersCount;\n            holders[holderId].addr = _holder;\n            holderIndex[_holder] = holderId;\n        }\n        return holderId;\n    }\n\n    /// @notice Issues new asset token on the platform.\n    ///\n    /// Tokens issued with this call go straight to contract owner.\n    /// Each symbol can be issued only once, and only by contract owner.\n    ///\n    /// @param _symbol asset symbol.\n    /// @param _value amount of tokens to issue immediately.\n    /// @param _name name of the asset.\n    /// @param _description description for the asset.\n    /// @param _baseUnit number of decimals.\n    /// @param _isReissuable dynamic or fixed supply.\n    ///\n    /// @return success.\n    function issueAsset(\n        bytes32 _symbol,\n        uint _value,\n        string _name,\n        string _description,\n        uint8 _baseUnit,\n        bool _isReissuable\n    )\n    public\n    returns (uint)\n    {\n        return issueAsset(_symbol, _value, _name, _description, _baseUnit, _isReissuable, msg.sender);\n    }\n\n    /// @notice Issues new asset token on the platform.\n    ///\n    /// Tokens issued with this call go straight to contract owner.\n    /// Each symbol can be issued only once, and only by contract owner.\n    ///\n    /// @param _symbol asset symbol.\n    /// @param _value amount of tokens to issue immediately.\n    /// @param _name name of the asset.\n    /// @param _description description for the asset.\n    /// @param _baseUnit number of decimals.\n    /// @param _isReissuable dynamic or fixed supply.\n    /// @param _account address where issued balance will be held\n    ///\n    /// @return success.\n    function issueAsset(\n        bytes32 _symbol,\n        uint _value,\n        string _name,\n        string _description,\n        uint8 _baseUnit,\n        bool _isReissuable,\n        address _account\n    )\n    onlyOneOfContractOwners\n    internal // TODO: fix `Invalid number of arguments to Solidity function` in truffle\n    returns (uint)\n    {\n        // Should have positive value if supply is going to be fixed.\n        if (_value == 0 && !_isReissuable) {\n            return _emitErrorCode(CHRONOBANK_PLATFORM_CANNOT_ISSUE_FIXED_ASSET_WITH_INVALID_VALUE);\n        }\n        // Should not be issued yet.\n        if (isCreated(_symbol)) {\n            return _emitErrorCode(CHRONOBANK_PLATFORM_ASSET_ALREADY_ISSUED);\n        }\n        uint holderId = _createHolderId(_account);\n        uint creatorId = _account == msg.sender ? holderId : _createHolderId(msg.sender);\n\n        symbols.push(_symbol);\n        assets[_symbol] = Asset(creatorId, _value, _name, _description, _isReissuable, _baseUnit);\n        assets[_symbol].wallets[holderId].balance = _value;\n\n        // Internal Out Of Gas/Throw: revert this transaction too;\n        // Call Stack Depth Limit reached: n/a after HF 4;\n        // Recursive Call: safe, all changes already made.\n        _emitter().emitIssue(_symbol, _value, _address(holderId));\n        return OK;\n    }\n\n    /// @notice Issues additional asset tokens if the asset have dynamic supply.\n    ///\n    /// Tokens issued with this call go straight to asset owner.\n    /// Can only be called by asset owner.\n    ///\n    /// @param _symbol asset symbol.\n    /// @param _value amount of additional tokens to issue.\n    ///\n    /// @return success.\n    function reissueAsset(bytes32 _symbol, uint _value) onlyOneOfOwners(_symbol) public returns (uint) {\n        // Should have positive value.\n        if (_value == 0) {\n            return _emitErrorCode(CHRONOBANK_PLATFORM_INVALID_VALUE);\n        }\n        Asset storage asset = assets[_symbol];\n        // Should have dynamic supply.\n        if (!asset.isReissuable) {\n            return _emitErrorCode(CHRONOBANK_PLATFORM_CANNOT_REISSUE_FIXED_ASSET);\n        }\n        // Resulting total supply should not overflow.\n        if (asset.totalSupply + _value < asset.totalSupply) {\n            return _emitErrorCode(CHRONOBANK_PLATFORM_SUPPLY_OVERFLOW);\n        }\n        uint holderId = getHolderId(msg.sender);\n        asset.wallets[holderId].balance = asset.wallets[holderId].balance.add(_value);\n        asset.totalSupply = asset.totalSupply.add(_value);\n\n        // Internal Out Of Gas/Throw: revert this transaction too;\n        // Call Stack Depth Limit reached: n/a after HF 4;\n        // Recursive Call: safe, all changes already made.\n        _emitter().emitIssue(_symbol, _value, _address(holderId));\n        _proxyTransferEvent(0, holderId, _value, _symbol);\n        return OK;\n    }\n\n    /// @notice Destroys specified amount of senders asset tokens.\n    ///\n    /// @param _symbol asset symbol.\n    /// @param _value amount of tokens to destroy.\n    ///\n    /// @return success.\n    function revokeAsset(bytes32 _symbol, uint _value) public returns (uint) {\n        // Should have positive value.\n        if (_value == 0) {\n            return _emitErrorCode(CHRONOBANK_PLATFORM_INVALID_VALUE);\n        }\n        Asset storage asset = assets[_symbol];\n        uint holderId = getHolderId(msg.sender);\n        // Should have enough tokens.\n        if (asset.wallets[holderId].balance < _value) {\n            return _emitErrorCode(CHRONOBANK_PLATFORM_NOT_ENOUGH_TOKENS);\n        }\n        asset.wallets[holderId].balance = asset.wallets[holderId].balance.sub(_value);\n        asset.totalSupply = asset.totalSupply.sub(_value);\n\n        // Internal Out Of Gas/Throw: revert this transaction too;\n        // Call Stack Depth Limit reached: n/a after HF 4;\n        // Recursive Call: safe, all changes already made.\n        _emitter().emitRevoke(_symbol, _value, _address(holderId));\n        _proxyTransferEvent(holderId, 0, _value, _symbol);\n        return OK;\n    }\n\n    /// @notice Passes asset ownership to specified address.\n    ///\n    /// Only ownership is changed, balances are not touched.\n    /// Can only be called by asset owner.\n    ///\n    /// @param _symbol asset symbol.\n    /// @param _newOwner address to become a new owner.\n    ///\n    /// @return success.\n    function changeOwnership(bytes32 _symbol, address _newOwner) onlyOwner(_symbol) public returns (uint) {\n        if (_newOwner == 0x0) {\n            return _emitErrorCode(CHRONOBANK_PLATFORM_INVALID_NEW_OWNER);\n        }\n\n        Asset storage asset = assets[_symbol];\n        uint newOwnerId = _createHolderId(_newOwner);\n        // Should pass ownership to another holder.\n        if (asset.owner == newOwnerId) {\n            return _emitErrorCode(CHRONOBANK_PLATFORM_CANNOT_APPLY_TO_ONESELF);\n        }\n        address oldOwner = _address(asset.owner);\n        asset.owner = newOwnerId;\n        // Internal Out Of Gas/Throw: revert this transaction too;\n        // Call Stack Depth Limit reached: n/a after HF 4;\n        // Recursive Call: safe, all changes already made.\n        _emitter().emitOwnershipChange(oldOwner, _newOwner, _symbol);\n        return OK;\n    }\n\n    /// @notice Check if specified holder trusts an address with recovery procedure.\n    /// @param _from truster.\n    /// @param _to trustee.\n    /// @return trust existance.\n    function isTrusted(address _from, address _to) public view returns (bool) {\n        return holders[getHolderId(_from)].trust[_to];\n    }\n\n    /// @notice Trust an address to perform recovery procedure for the caller.\n    /// @param _to trustee.\n    /// @return success.\n    function trust(address _to) public returns (uint) {\n        uint fromId = _createHolderId(msg.sender);\n        // Should trust to another address.\n        if (fromId == getHolderId(_to)) {\n            return _emitErrorCode(CHRONOBANK_PLATFORM_CANNOT_APPLY_TO_ONESELF);\n        }\n        // Should trust to yet untrusted.\n        if (isTrusted(msg.sender, _to)) {\n            return _emitErrorCode(CHRONOBANK_PLATFORM_ALREADY_TRUSTED);\n        }\n\n        holders[fromId].trust[_to] = true;\n        return OK;\n    }\n\n    /// @notice Revoke trust to perform recovery procedure from an address.\n    /// @param _to trustee.\n    /// @return success.\n    function distrust(address _to) checkTrust(msg.sender, _to) public returns (uint) {\n        holders[getHolderId(msg.sender)].trust[_to] = false;\n        return OK;\n    }\n\n    /// @notice Perform recovery procedure.\n    ///\n    /// This function logic is actually more of an addAccess(uint _holderId, address _to).\n    /// It grants another address access to recovery subject wallets.\n    /// Can only be called by trustee of recovery subject.\n    ///\n    /// @param _from holder address to recover from.\n    /// @param _to address to grant access to.\n    ///\n    /// @return success.\n    function recover(address _from, address _to) checkTrust(_from, msg.sender) public returns (uint errorCode) {\n        // Should recover to previously unused address.\n        if (getHolderId(_to) != 0) {\n            return _emitErrorCode(CHRONOBANK_PLATFORM_SHOULD_RECOVER_TO_NEW_ADDRESS);\n        }\n        // We take current holder address because it might not equal _from.\n        // It is possible to recover from any old holder address, but event should have the current one.\n        address from = holders[getHolderId(_from)].addr;\n        holders[getHolderId(_from)].addr = _to;\n        holderIndex[_to] = getHolderId(_from);\n        // Internal Out Of Gas/Throw: revert this transaction too;\n        // Call Stack Depth Limit reached: revert this transaction too;\n        // Recursive Call: safe, all changes already made.\n        _emitter().emitRecovery(from, _to, msg.sender);\n        return OK;\n    }\n\n    /// @dev Sets asset spending allowance for a specified spender.\n    ///\n    /// Note: to revoke allowance, one needs to set allowance to 0.\n    ///\n    /// @param _spenderId holder id to set allowance for.\n    /// @param _value amount to allow.\n    /// @param _symbol asset symbol.\n    /// @param _senderId approve initiator holder id.\n    ///\n    /// @return success.\n    function _approve(\n        uint _spenderId,\n        uint _value,\n        bytes32 _symbol,\n        uint _senderId\n    )\n    internal\n    returns (uint)\n    {\n        // Asset should exist.\n        if (!isCreated(_symbol)) {\n            return _emitErrorCode(CHRONOBANK_PLATFORM_ASSET_IS_NOT_ISSUED);\n        }\n        // Should allow to another holder.\n        if (_senderId == _spenderId) {\n            return _emitErrorCode(CHRONOBANK_PLATFORM_CANNOT_APPLY_TO_ONESELF);\n        }\n\n        // Double Spend Attack checkpoint\n        if (assets[_symbol].wallets[_senderId].allowance[_spenderId] != 0 && _value != 0) {\n            return _emitErrorCode(CHRONOBANK_PLATFORM_INVALID_INVOCATION);\n        }\n\n        assets[_symbol].wallets[_senderId].allowance[_spenderId] = _value;\n\n        // Internal Out Of Gas/Throw: revert this transaction too;\n        // Call Stack Depth Limit reached: revert this transaction too;\n        // Recursive Call: safe, all changes already made.\n        _emitter().emitApprove(_address(_senderId), _address(_spenderId), _symbol, _value);\n        if (proxies[_symbol] != 0x0) {\n            // Internal Out Of Gas/Throw: revert this transaction too;\n            // Call Stack Depth Limit reached: n/a after HF 4;\n            // Recursive Call: safe, all changes already made.\n            ProxyEventsEmitter(proxies[_symbol]).emitApprove(_address(_senderId), _address(_spenderId), _value);\n        }\n        return OK;\n    }\n\n    /// @dev Sets asset spending allowance for a specified spender.\n    ///\n    /// Can only be called by asset proxy.\n    ///\n    /// @param _spender holder address to set allowance to.\n    /// @param _value amount to allow.\n    /// @param _symbol asset symbol.\n    /// @param _sender approve initiator address.\n    ///\n    /// @return success.\n    function proxyApprove(\n        address _spender,\n        uint _value,\n        bytes32 _symbol,\n        address _sender\n    )\n    onlyProxy(_symbol)\n    public\n    returns (uint)\n    {\n        return _approve(_createHolderId(_spender), _value, _symbol, _createHolderId(_sender));\n    }\n\n    /// @notice Performs allowance transfer of asset balance between holders wallets.\n    ///\n    /// @dev Can only be called by asset proxy.\n    ///\n    /// @param _from holder address to take from.\n    /// @param _to holder address to give to.\n    /// @param _value amount to transfer.\n    /// @param _symbol asset symbol.\n    /// @param _reference transfer comment to be included in a Transfer event.\n    /// @param _sender allowance transfer initiator address.\n    ///\n    /// @return success.\n    function proxyTransferFromWithReference(\n        address _from,\n        address _to,\n        uint _value,\n        bytes32 _symbol,\n        string _reference,\n        address _sender\n    )\n    onlyProxy(_symbol)\n    public\n    returns (uint)\n    {\n        return _transfer(getHolderId(_from), _createHolderId(_to), _value, _symbol, _reference, getHolderId(_sender));\n    }\n\n    /// @dev Returns asset allowance from one holder to another.\n    /// @param _from holder that allowed spending.\n    /// @param _spender holder that is allowed to spend.\n    /// @param _symbol asset symbol.\n    /// @return holder to spender allowance.\n    function allowance(address _from, address _spender, bytes32 _symbol) public view returns (uint) {\n        return _allowance(getHolderId(_from), getHolderId(_spender), _symbol);\n    }\n\n    /// @dev Returns asset allowance from one holder to another.\n    /// @param _fromId holder id that allowed spending.\n    /// @param _toId holder id that is allowed to spend.\n    /// @param _symbol asset symbol.\n    /// @return holder to spender allowance.\n    function _allowance(uint _fromId, uint _toId, bytes32 _symbol) internal view returns (uint) {\n        return assets[_symbol].wallets[_fromId].allowance[_toId];\n    }\n\n    function _emitter() internal view returns (ChronoBankPlatformEmitter) {\n        return ChronoBankPlatformEmitter(getEventsHistory());\n    }\n}\n",
  "sourcePath": "/Users/alesanro/Documents/Projects/ChronoBank/LXsidechain-sc/contracts/platform/ChronoBankPlatform.sol",
  "compiler": {
    "name": "solc",
    "version": "0.4.24+commit.e67f0147.Emscripten.clang"
  },
  "schemaVersion": "2.0.1",
  "updatedAt": "2018-07-27T20:29:51.080Z"
}