{
  "contractName": "ChronoBankPlatformEmitter",
  "abi": [
    {
      "anonymous": false,
      "inputs": [
        {
          "indexed": true,
          "name": "from",
          "type": "address"
        },
        {
          "indexed": true,
          "name": "to",
          "type": "address"
        },
        {
          "indexed": true,
          "name": "symbol",
          "type": "bytes32"
        },
        {
          "indexed": false,
          "name": "value",
          "type": "uint256"
        },
        {
          "indexed": false,
          "name": "reference",
          "type": "string"
        }
      ],
      "name": "Transfer",
      "type": "event"
    },
    {
      "anonymous": false,
      "inputs": [
        {
          "indexed": true,
          "name": "symbol",
          "type": "bytes32"
        },
        {
          "indexed": false,
          "name": "value",
          "type": "uint256"
        },
        {
          "indexed": true,
          "name": "by",
          "type": "address"
        }
      ],
      "name": "Issue",
      "type": "event"
    },
    {
      "anonymous": false,
      "inputs": [
        {
          "indexed": true,
          "name": "symbol",
          "type": "bytes32"
        },
        {
          "indexed": false,
          "name": "value",
          "type": "uint256"
        },
        {
          "indexed": true,
          "name": "by",
          "type": "address"
        }
      ],
      "name": "Revoke",
      "type": "event"
    },
    {
      "anonymous": false,
      "inputs": [
        {
          "indexed": true,
          "name": "from",
          "type": "address"
        },
        {
          "indexed": true,
          "name": "to",
          "type": "address"
        },
        {
          "indexed": true,
          "name": "symbol",
          "type": "bytes32"
        }
      ],
      "name": "OwnershipChange",
      "type": "event"
    },
    {
      "anonymous": false,
      "inputs": [
        {
          "indexed": true,
          "name": "from",
          "type": "address"
        },
        {
          "indexed": true,
          "name": "spender",
          "type": "address"
        },
        {
          "indexed": true,
          "name": "symbol",
          "type": "bytes32"
        },
        {
          "indexed": false,
          "name": "value",
          "type": "uint256"
        }
      ],
      "name": "Approve",
      "type": "event"
    },
    {
      "anonymous": false,
      "inputs": [
        {
          "indexed": true,
          "name": "from",
          "type": "address"
        },
        {
          "indexed": true,
          "name": "to",
          "type": "address"
        },
        {
          "indexed": false,
          "name": "by",
          "type": "address"
        }
      ],
      "name": "Recovery",
      "type": "event"
    },
    {
      "anonymous": false,
      "inputs": [
        {
          "indexed": false,
          "name": "errorCode",
          "type": "uint256"
        }
      ],
      "name": "Error",
      "type": "event"
    },
    {
      "constant": false,
      "inputs": [
        {
          "name": "_from",
          "type": "address"
        },
        {
          "name": "_to",
          "type": "address"
        },
        {
          "name": "_symbol",
          "type": "bytes32"
        },
        {
          "name": "_value",
          "type": "uint256"
        },
        {
          "name": "_reference",
          "type": "string"
        }
      ],
      "name": "emitTransfer",
      "outputs": [],
      "payable": false,
      "stateMutability": "nonpayable",
      "type": "function"
    },
    {
      "constant": false,
      "inputs": [
        {
          "name": "_symbol",
          "type": "bytes32"
        },
        {
          "name": "_value",
          "type": "uint256"
        },
        {
          "name": "_by",
          "type": "address"
        }
      ],
      "name": "emitIssue",
      "outputs": [],
      "payable": false,
      "stateMutability": "nonpayable",
      "type": "function"
    },
    {
      "constant": false,
      "inputs": [
        {
          "name": "_symbol",
          "type": "bytes32"
        },
        {
          "name": "_value",
          "type": "uint256"
        },
        {
          "name": "_by",
          "type": "address"
        }
      ],
      "name": "emitRevoke",
      "outputs": [],
      "payable": false,
      "stateMutability": "nonpayable",
      "type": "function"
    },
    {
      "constant": false,
      "inputs": [
        {
          "name": "_from",
          "type": "address"
        },
        {
          "name": "_to",
          "type": "address"
        },
        {
          "name": "_symbol",
          "type": "bytes32"
        }
      ],
      "name": "emitOwnershipChange",
      "outputs": [],
      "payable": false,
      "stateMutability": "nonpayable",
      "type": "function"
    },
    {
      "constant": false,
      "inputs": [
        {
          "name": "_from",
          "type": "address"
        },
        {
          "name": "_spender",
          "type": "address"
        },
        {
          "name": "_symbol",
          "type": "bytes32"
        },
        {
          "name": "_value",
          "type": "uint256"
        }
      ],
      "name": "emitApprove",
      "outputs": [],
      "payable": false,
      "stateMutability": "nonpayable",
      "type": "function"
    },
    {
      "constant": false,
      "inputs": [
        {
          "name": "_from",
          "type": "address"
        },
        {
          "name": "_to",
          "type": "address"
        },
        {
          "name": "_by",
          "type": "address"
        }
      ],
      "name": "emitRecovery",
      "outputs": [],
      "payable": false,
      "stateMutability": "nonpayable",
      "type": "function"
    },
    {
      "constant": false,
      "inputs": [
        {
          "name": "_errorCode",
          "type": "uint256"
        }
      ],
      "name": "emitError",
      "outputs": [],
      "payable": false,
      "stateMutability": "nonpayable",
      "type": "function"
    }
  ],
  "bytecode": "0x608060405234801561001057600080fd5b5061046d806100206000396000f3006080604052600436106100825763ffffffff7c0100000000000000000000000000000000000000000000000000000000600035041663515c14578114610087578063a9612f7214610100578063abafaa161461012a578063c70bbc1314610151578063d54c8c8714610178578063df26ca08146101a5578063ea14457e146101bd575b600080fd5b34801561009357600080fd5b50604080516020601f6084356004818101359283018490048402850184019095528184526100fe94600160a060020a0381358116956024803590921695604435956064359536959460a494939101919081908401838280828437509497506101ea9650505050505050565b005b34801561010c57600080fd5b506100fe600160a060020a03600435811690602435166044356102ab565b34801561013657600080fd5b506100fe600435602435600160a060020a03604435166102eb565b34801561015d57600080fd5b506100fe600435602435600160a060020a0360443516610330565b34801561018457600080fd5b506100fe600160a060020a0360043581169060243516604435606435610375565b3480156101b157600080fd5b506100fe6004356103c1565b3480156101c957600080fd5b506100fe600160a060020a03600435811690602435811690604435166103f7565b826000191684600160a060020a031686600160a060020a03167f8f1b83868d2ecc962fd90cfee71c9c52455fe10940937bc7571d90ba404c5c3b85856040518083815260200180602001828103825283818151815260200191508051906020019080838360005b83811015610269578181015183820152602001610251565b50505050905090810190601f1680156102965780820380516001836020036101000a031916815260200191505b50935050505060405180910390a45050505050565b6040518190600160a060020a0380851691908616907f0de92ba2d86c482d7f947cc22a580692bb78d6277988023434905f44b8cd261a90600090a4505050565b604080518381529051600160a060020a0383169185917fd03c2206e12a8eb3553d780874e1a7941b9c67f3a726ce6edb4a9fd65e25ec989181900360200190a3505050565b604080518381529051600160a060020a0383169185917fa4e2520a41c90422e37fc8ba7153c519a427a62ea5f494a14a218a7b9bceb6ca9181900360200190a3505050565b6040805182815290518391600160a060020a0380871692908816917f859b1cddb4da93a04541d62c27d7d83aa8173a1b37bbccd3c60ceb4ee19ee13e919081900360200190a450505050565b6040805182815290517f2e36a7093f25f22bd4cbdeb6040174c3ba4c5fe8f1abc04e7c3c48f26c7413e09181900360200190a150565b60408051600160a060020a0383811682529151828516928616917f6c0468512076e943ed3d1c5aae1d6903c72162713d86aedd1381b3ac19e10cec919081900360200190a35050505600a165627a7a723058207a398ca7ce8ea71a454d16593529204bf09b1d23593be6b0b55e61e469d5e4100029",
  "source": "/**\n * Copyright 2017–2018, LaborX PTY\n * Licensed under the AGPL Version 3 license.\n */\n\npragma solidity ^0.4.21;\n\n\nimport \"../event/MultiEventsHistoryAdapter.sol\";\n\n\n/// @title ChronoBank Platform Emitter.\n///\n/// Contains all the original event emitting function definitions and events.\n/// In case of new events needed later, additional emitters can be developed.\n/// All the functions is meant to be called using delegatecall.\ncontract ChronoBankPlatformEmitter is MultiEventsHistoryAdapter {\n\n    event Transfer(address indexed from, address indexed to, bytes32 indexed symbol, uint value, string reference);\n    event Issue(bytes32 indexed symbol, uint value, address indexed by);\n    event Revoke(bytes32 indexed symbol, uint value, address indexed by);\n    event OwnershipChange(address indexed from, address indexed to, bytes32 indexed symbol);\n    event Approve(address indexed from, address indexed spender, bytes32 indexed symbol, uint value);\n    event Recovery(address indexed from, address indexed to, address by);\n    event Error(uint errorCode);\n\n    function emitTransfer(address _from, address _to, bytes32 _symbol, uint _value, string _reference) public {\n        emit Transfer(_from, _to, _symbol, _value, _reference);\n    }\n\n    function emitIssue(bytes32 _symbol, uint _value, address _by) public {\n        emit Issue(_symbol, _value, _by);\n    }\n\n    function emitRevoke(bytes32 _symbol, uint _value, address _by) public {\n        emit Revoke(_symbol, _value, _by);\n    }\n\n    function emitOwnershipChange(address _from, address _to, bytes32 _symbol) public {\n        emit OwnershipChange(_from, _to, _symbol);\n    }\n\n    function emitApprove(address _from, address _spender, bytes32 _symbol, uint _value) public {\n        emit Approve(_from, _spender, _symbol, _value);\n    }\n\n    function emitRecovery(address _from, address _to, address _by) public {\n        emit Recovery(_from, _to, _by);\n    }\n\n    function emitError(uint _errorCode) public {\n        emit Error(_errorCode);\n    }\n}",
  "sourcePath": "/Users/ahiatsevich/Development/chronobank/LXsidechain-sc/contracts/platform/ChronoBankPlatformEmitter.sol",
  "compiler": {
    "name": "solc",
    "version": "0.4.23+commit.124ca40d.Emscripten.clang"
  },
  "schemaVersion": "2.0.0",
  "updatedAt": "2018-05-29T13:47:05.593Z"
}