{
  "contractName": "ChronoBankPlatform",
  "abi": [
    {
      "constant": true,
      "inputs": [
        {
          "name": "",
          "type": "uint256"
        }
      ],
      "name": "holders",
      "outputs": [
        {
          "name": "addr",
          "type": "address"
        }
      ],
      "payable": false,
      "stateMutability": "view",
      "type": "function"
    },
    {
      "constant": false,
      "inputs": [
        {
          "name": "_from",
          "type": "address"
        },
        {
          "name": "_to",
          "type": "address"
        },
        {
          "name": "_symbol",
          "type": "bytes32"
        },
        {
          "name": "_value",
          "type": "uint256"
        },
        {
          "name": "_reference",
          "type": "string"
        }
      ],
      "name": "emitTransfer",
      "outputs": [],
      "payable": false,
      "stateMutability": "nonpayable",
      "type": "function"
    },
    {
      "constant": true,
      "inputs": [
        {
          "name": "",
          "type": "bytes32"
        }
      ],
      "name": "proxies",
      "outputs": [
        {
          "name": "",
          "type": "address"
        }
      ],
      "payable": false,
      "stateMutability": "view",
      "type": "function"
    },
    {
      "constant": true,
      "inputs": [],
      "name": "holdersCount",
      "outputs": [
        {
          "name": "",
          "type": "uint256"
        }
      ],
      "payable": false,
      "stateMutability": "view",
      "type": "function"
    },
    {
      "constant": true,
      "inputs": [
        {
          "name": "",
          "type": "bytes32"
        }
      ],
      "name": "assets",
      "outputs": [
        {
          "name": "owner",
          "type": "uint256"
        },
        {
          "name": "totalSupply",
          "type": "uint256"
        },
        {
          "name": "name",
          "type": "string"
        },
        {
          "name": "description",
          "type": "string"
        },
        {
          "name": "isReissuable",
          "type": "bool"
        },
        {
          "name": "baseUnit",
          "type": "uint8"
        },
        {
          "name": "listener",
          "type": "address"
        }
      ],
      "payable": false,
      "stateMutability": "view",
      "type": "function"
    },
    {
      "constant": false,
      "inputs": [
        {
          "name": "_from",
          "type": "address"
        },
        {
          "name": "_to",
          "type": "address"
        },
        {
          "name": "_symbol",
          "type": "bytes32"
        }
      ],
      "name": "emitOwnershipChange",
      "outputs": [],
      "payable": false,
      "stateMutability": "nonpayable",
      "type": "function"
    },
    {
      "constant": false,
      "inputs": [
        {
          "name": "_symbol",
          "type": "bytes32"
        },
        {
          "name": "_value",
          "type": "uint256"
        },
        {
          "name": "_by",
          "type": "address"
        }
      ],
      "name": "emitIssue",
      "outputs": [],
      "payable": false,
      "stateMutability": "nonpayable",
      "type": "function"
    },
    {
      "constant": false,
      "inputs": [
        {
          "name": "_symbol",
          "type": "bytes32"
        },
        {
          "name": "_value",
          "type": "uint256"
        },
        {
          "name": "_by",
          "type": "address"
        }
      ],
      "name": "emitRevoke",
      "outputs": [],
      "payable": false,
      "stateMutability": "nonpayable",
      "type": "function"
    },
    {
      "constant": true,
      "inputs": [
        {
          "name": "",
          "type": "address"
        }
      ],
      "name": "partowners",
      "outputs": [
        {
          "name": "",
          "type": "bool"
        }
      ],
      "payable": false,
      "stateMutability": "view",
      "type": "function"
    },
    {
      "constant": true,
      "inputs": [
        {
          "name": "",
          "type": "uint256"
        }
      ],
      "name": "symbols",
      "outputs": [
        {
          "name": "",
          "type": "bytes32"
        }
      ],
      "payable": false,
      "stateMutability": "view",
      "type": "function"
    },
    {
      "constant": true,
      "inputs": [],
      "name": "contractOwner",
      "outputs": [
        {
          "name": "",
          "type": "address"
        }
      ],
      "payable": false,
      "stateMutability": "view",
      "type": "function"
    },
    {
      "constant": false,
      "inputs": [
        {
          "name": "_from",
          "type": "address"
        },
        {
          "name": "_spender",
          "type": "address"
        },
        {
          "name": "_symbol",
          "type": "bytes32"
        },
        {
          "name": "_value",
          "type": "uint256"
        }
      ],
      "name": "emitApprove",
      "outputs": [],
      "payable": false,
      "stateMutability": "nonpayable",
      "type": "function"
    },
    {
      "constant": false,
      "inputs": [
        {
          "name": "tokens",
          "type": "address[]"
        },
        {
          "name": "_to",
          "type": "address"
        }
      ],
      "name": "withdrawnTokens",
      "outputs": [
        {
          "name": "",
          "type": "uint256"
        }
      ],
      "payable": false,
      "stateMutability": "nonpayable",
      "type": "function"
    },
    {
      "constant": false,
      "inputs": [
        {
          "name": "_errorCode",
          "type": "uint256"
        }
      ],
      "name": "emitError",
      "outputs": [],
      "payable": false,
      "stateMutability": "nonpayable",
      "type": "function"
    },
    {
      "constant": false,
      "inputs": [
        {
          "name": "_from",
          "type": "address"
        },
        {
          "name": "_to",
          "type": "address"
        },
        {
          "name": "_by",
          "type": "address"
        }
      ],
      "name": "emitRecovery",
      "outputs": [],
      "payable": false,
      "stateMutability": "nonpayable",
      "type": "function"
    },
    {
      "constant": true,
      "inputs": [],
      "name": "eventsHistory",
      "outputs": [
        {
          "name": "",
          "type": "address"
        }
      ],
      "payable": false,
      "stateMutability": "view",
      "type": "function"
    },
    {
      "constant": false,
      "inputs": [
        {
          "name": "newOwner",
          "type": "address"
        }
      ],
      "name": "transferOwnership",
      "outputs": [],
      "payable": false,
      "stateMutability": "nonpayable",
      "type": "function"
    },
    {
      "anonymous": false,
      "inputs": [
        {
          "indexed": true,
          "name": "from",
          "type": "address"
        },
        {
          "indexed": true,
          "name": "to",
          "type": "address"
        },
        {
          "indexed": true,
          "name": "symbol",
          "type": "bytes32"
        },
        {
          "indexed": false,
          "name": "value",
          "type": "uint256"
        },
        {
          "indexed": false,
          "name": "reference",
          "type": "string"
        }
      ],
      "name": "Transfer",
      "type": "event"
    },
    {
      "anonymous": false,
      "inputs": [
        {
          "indexed": true,
          "name": "symbol",
          "type": "bytes32"
        },
        {
          "indexed": false,
          "name": "value",
          "type": "uint256"
        },
        {
          "indexed": true,
          "name": "by",
          "type": "address"
        }
      ],
      "name": "Issue",
      "type": "event"
    },
    {
      "anonymous": false,
      "inputs": [
        {
          "indexed": true,
          "name": "symbol",
          "type": "bytes32"
        },
        {
          "indexed": false,
          "name": "value",
          "type": "uint256"
        },
        {
          "indexed": true,
          "name": "by",
          "type": "address"
        }
      ],
      "name": "Revoke",
      "type": "event"
    },
    {
      "anonymous": false,
      "inputs": [
        {
          "indexed": true,
          "name": "from",
          "type": "address"
        },
        {
          "indexed": true,
          "name": "to",
          "type": "address"
        },
        {
          "indexed": true,
          "name": "symbol",
          "type": "bytes32"
        }
      ],
      "name": "OwnershipChange",
      "type": "event"
    },
    {
      "anonymous": false,
      "inputs": [
        {
          "indexed": true,
          "name": "from",
          "type": "address"
        },
        {
          "indexed": true,
          "name": "spender",
          "type": "address"
        },
        {
          "indexed": true,
          "name": "symbol",
          "type": "bytes32"
        },
        {
          "indexed": false,
          "name": "value",
          "type": "uint256"
        }
      ],
      "name": "Approve",
      "type": "event"
    },
    {
      "anonymous": false,
      "inputs": [
        {
          "indexed": true,
          "name": "from",
          "type": "address"
        },
        {
          "indexed": true,
          "name": "to",
          "type": "address"
        },
        {
          "indexed": false,
          "name": "by",
          "type": "address"
        }
      ],
      "name": "Recovery",
      "type": "event"
    },
    {
      "anonymous": false,
      "inputs": [
        {
          "indexed": false,
          "name": "errorCode",
          "type": "uint256"
        }
      ],
      "name": "Error",
      "type": "event"
    },
    {
      "anonymous": false,
      "inputs": [
        {
          "indexed": true,
          "name": "previousOwner",
          "type": "address"
        },
        {
          "indexed": true,
          "name": "newOwner",
          "type": "address"
        }
      ],
      "name": "OwnershipTransferred",
      "type": "event"
    },
    {
      "constant": false,
      "inputs": [
        {
          "name": "_partowner",
          "type": "address"
        }
      ],
      "name": "addPartOwner",
      "outputs": [
        {
          "name": "",
          "type": "uint256"
        }
      ],
      "payable": false,
      "stateMutability": "nonpayable",
      "type": "function"
    },
    {
      "constant": false,
      "inputs": [
        {
          "name": "_partowner",
          "type": "address"
        }
      ],
      "name": "removePartOwner",
      "outputs": [
        {
          "name": "",
          "type": "uint256"
        }
      ],
      "payable": false,
      "stateMutability": "nonpayable",
      "type": "function"
    },
    {
      "constant": false,
      "inputs": [
        {
          "name": "_eventsHistory",
          "type": "address"
        }
      ],
      "name": "setupEventsHistory",
      "outputs": [
        {
          "name": "errorCode",
          "type": "uint256"
        }
      ],
      "payable": false,
      "stateMutability": "nonpayable",
      "type": "function"
    },
    {
      "constant": true,
      "inputs": [],
      "name": "symbolsCount",
      "outputs": [
        {
          "name": "",
          "type": "uint256"
        }
      ],
      "payable": false,
      "stateMutability": "view",
      "type": "function"
    },
    {
      "constant": true,
      "inputs": [
        {
          "name": "_symbol",
          "type": "bytes32"
        }
      ],
      "name": "isCreated",
      "outputs": [
        {
          "name": "",
          "type": "bool"
        }
      ],
      "payable": false,
      "stateMutability": "view",
      "type": "function"
    },
    {
      "constant": true,
      "inputs": [
        {
          "name": "_symbol",
          "type": "bytes32"
        }
      ],
      "name": "baseUnit",
      "outputs": [
        {
          "name": "",
          "type": "uint8"
        }
      ],
      "payable": false,
      "stateMutability": "view",
      "type": "function"
    },
    {
      "constant": true,
      "inputs": [
        {
          "name": "_symbol",
          "type": "bytes32"
        }
      ],
      "name": "name",
      "outputs": [
        {
          "name": "",
          "type": "string"
        }
      ],
      "payable": false,
      "stateMutability": "view",
      "type": "function"
    },
    {
      "constant": true,
      "inputs": [
        {
          "name": "_symbol",
          "type": "bytes32"
        }
      ],
      "name": "description",
      "outputs": [
        {
          "name": "",
          "type": "string"
        }
      ],
      "payable": false,
      "stateMutability": "view",
      "type": "function"
    },
    {
      "constant": true,
      "inputs": [
        {
          "name": "_symbol",
          "type": "bytes32"
        }
      ],
      "name": "isReissuable",
      "outputs": [
        {
          "name": "",
          "type": "bool"
        }
      ],
      "payable": false,
      "stateMutability": "view",
      "type": "function"
    },
    {
      "constant": true,
      "inputs": [
        {
          "name": "_symbol",
          "type": "bytes32"
        }
      ],
      "name": "owner",
      "outputs": [
        {
          "name": "",
          "type": "address"
        }
      ],
      "payable": false,
      "stateMutability": "view",
      "type": "function"
    },
    {
      "constant": true,
      "inputs": [
        {
          "name": "_owner",
          "type": "address"
        },
        {
          "name": "_symbol",
          "type": "bytes32"
        }
      ],
      "name": "isOwner",
      "outputs": [
        {
          "name": "",
          "type": "bool"
        }
      ],
      "payable": false,
      "stateMutability": "view",
      "type": "function"
    },
    {
      "constant": true,
      "inputs": [
        {
          "name": "_owner",
          "type": "address"
        },
        {
          "name": "_symbol",
          "type": "bytes32"
        }
      ],
      "name": "hasAssetRights",
      "outputs": [
        {
          "name": "",
          "type": "bool"
        }
      ],
      "payable": false,
      "stateMutability": "view",
      "type": "function"
    },
    {
      "constant": true,
      "inputs": [
        {
          "name": "_symbol",
          "type": "bytes32"
        }
      ],
      "name": "totalSupply",
      "outputs": [
        {
          "name": "",
          "type": "uint256"
        }
      ],
      "payable": false,
      "stateMutability": "view",
      "type": "function"
    },
    {
      "constant": true,
      "inputs": [
        {
          "name": "_holder",
          "type": "address"
        },
        {
          "name": "_symbol",
          "type": "bytes32"
        }
      ],
      "name": "balanceOf",
      "outputs": [
        {
          "name": "",
          "type": "uint256"
        }
      ],
      "payable": false,
      "stateMutability": "view",
      "type": "function"
    },
    {
      "constant": true,
      "inputs": [
        {
          "name": "_holderId",
          "type": "uint256"
        },
        {
          "name": "_symbol",
          "type": "bytes32"
        }
      ],
      "name": "_balanceOf",
      "outputs": [
        {
          "name": "",
          "type": "uint256"
        }
      ],
      "payable": false,
      "stateMutability": "view",
      "type": "function"
    },
    {
      "constant": true,
      "inputs": [
        {
          "name": "_holderId",
          "type": "uint256"
        }
      ],
      "name": "_address",
      "outputs": [
        {
          "name": "",
          "type": "address"
        }
      ],
      "payable": false,
      "stateMutability": "view",
      "type": "function"
    },
    {
      "constant": false,
      "inputs": [
        {
          "name": "_symbol",
          "type": "bytes32"
        },
        {
          "name": "_partowner",
          "type": "address"
        }
      ],
      "name": "addAssetPartOwner",
      "outputs": [
        {
          "name": "",
          "type": "uint256"
        }
      ],
      "payable": false,
      "stateMutability": "nonpayable",
      "type": "function"
    },
    {
      "constant": false,
      "inputs": [
        {
          "name": "_symbol",
          "type": "bytes32"
        },
        {
          "name": "_partowner",
          "type": "address"
        }
      ],
      "name": "removeAssetPartOwner",
      "outputs": [
        {
          "name": "",
          "type": "uint256"
        }
      ],
      "payable": false,
      "stateMutability": "nonpayable",
      "type": "function"
    },
    {
      "constant": false,
      "inputs": [
        {
          "name": "_proxyAddress",
          "type": "address"
        },
        {
          "name": "_symbol",
          "type": "bytes32"
        }
      ],
      "name": "setProxy",
      "outputs": [
        {
          "name": "",
          "type": "uint256"
        }
      ],
      "payable": false,
      "stateMutability": "nonpayable",
      "type": "function"
    },
    {
      "constant": false,
      "inputs": [
        {
          "name": "_listener",
          "type": "address"
        },
        {
          "name": "_symbol",
          "type": "bytes32"
        }
      ],
      "name": "setListener",
      "outputs": [
        {
          "name": "",
          "type": "uint256"
        }
      ],
      "payable": false,
      "stateMutability": "nonpayable",
      "type": "function"
    },
    {
      "constant": false,
      "inputs": [
        {
          "name": "addresses",
          "type": "address[]"
        },
        {
          "name": "values",
          "type": "uint256[]"
        },
        {
          "name": "_symbol",
          "type": "bytes32"
        }
      ],
      "name": "massTransfer",
      "outputs": [
        {
          "name": "errorCode",
          "type": "uint256"
        },
        {
          "name": "count",
          "type": "uint256"
        }
      ],
      "payable": false,
      "stateMutability": "nonpayable",
      "type": "function"
    },
    {
      "constant": false,
      "inputs": [
        {
          "name": "_to",
          "type": "address"
        },
        {
          "name": "_value",
          "type": "uint256"
        },
        {
          "name": "_symbol",
          "type": "bytes32"
        },
        {
          "name": "_reference",
          "type": "string"
        },
        {
          "name": "_sender",
          "type": "address"
        }
      ],
      "name": "proxyTransferWithReference",
      "outputs": [
        {
          "name": "",
          "type": "uint256"
        }
      ],
      "payable": false,
      "stateMutability": "nonpayable",
      "type": "function"
    },
    {
      "constant": true,
      "inputs": [
        {
          "name": "_holder",
          "type": "address"
        }
      ],
      "name": "getHolderId",
      "outputs": [
        {
          "name": "",
          "type": "uint256"
        }
      ],
      "payable": false,
      "stateMutability": "view",
      "type": "function"
    },
    {
      "constant": false,
      "inputs": [
        {
          "name": "_symbol",
          "type": "bytes32"
        },
        {
          "name": "_value",
          "type": "uint256"
        },
        {
          "name": "_name",
          "type": "string"
        },
        {
          "name": "_description",
          "type": "string"
        },
        {
          "name": "_baseUnit",
          "type": "uint8"
        },
        {
          "name": "_isReissuable",
          "type": "bool"
        }
      ],
      "name": "issueAsset",
      "outputs": [
        {
          "name": "",
          "type": "uint256"
        }
      ],
      "payable": false,
      "stateMutability": "nonpayable",
      "type": "function"
    },
    {
      "constant": false,
      "inputs": [
        {
          "name": "_symbol",
          "type": "bytes32"
        },
        {
          "name": "_value",
          "type": "uint256"
        }
      ],
      "name": "reissueAsset",
      "outputs": [
        {
          "name": "",
          "type": "uint256"
        }
      ],
      "payable": false,
      "stateMutability": "nonpayable",
      "type": "function"
    },
    {
      "constant": false,
      "inputs": [
        {
          "name": "_symbol",
          "type": "bytes32"
        },
        {
          "name": "_value",
          "type": "uint256"
        }
      ],
      "name": "revokeAsset",
      "outputs": [
        {
          "name": "",
          "type": "uint256"
        }
      ],
      "payable": false,
      "stateMutability": "nonpayable",
      "type": "function"
    },
    {
      "constant": false,
      "inputs": [
        {
          "name": "_symbol",
          "type": "bytes32"
        },
        {
          "name": "_newOwner",
          "type": "address"
        }
      ],
      "name": "changeOwnership",
      "outputs": [
        {
          "name": "",
          "type": "uint256"
        }
      ],
      "payable": false,
      "stateMutability": "nonpayable",
      "type": "function"
    },
    {
      "constant": true,
      "inputs": [
        {
          "name": "_from",
          "type": "address"
        },
        {
          "name": "_to",
          "type": "address"
        }
      ],
      "name": "isTrusted",
      "outputs": [
        {
          "name": "",
          "type": "bool"
        }
      ],
      "payable": false,
      "stateMutability": "view",
      "type": "function"
    },
    {
      "constant": false,
      "inputs": [
        {
          "name": "_to",
          "type": "address"
        }
      ],
      "name": "trust",
      "outputs": [
        {
          "name": "",
          "type": "uint256"
        }
      ],
      "payable": false,
      "stateMutability": "nonpayable",
      "type": "function"
    },
    {
      "constant": false,
      "inputs": [
        {
          "name": "_to",
          "type": "address"
        }
      ],
      "name": "distrust",
      "outputs": [
        {
          "name": "",
          "type": "uint256"
        }
      ],
      "payable": false,
      "stateMutability": "nonpayable",
      "type": "function"
    },
    {
      "constant": false,
      "inputs": [
        {
          "name": "_from",
          "type": "address"
        },
        {
          "name": "_to",
          "type": "address"
        }
      ],
      "name": "recover",
      "outputs": [
        {
          "name": "errorCode",
          "type": "uint256"
        }
      ],
      "payable": false,
      "stateMutability": "nonpayable",
      "type": "function"
    },
    {
      "constant": false,
      "inputs": [
        {
          "name": "_spender",
          "type": "address"
        },
        {
          "name": "_value",
          "type": "uint256"
        },
        {
          "name": "_symbol",
          "type": "bytes32"
        },
        {
          "name": "_sender",
          "type": "address"
        }
      ],
      "name": "proxyApprove",
      "outputs": [
        {
          "name": "",
          "type": "uint256"
        }
      ],
      "payable": false,
      "stateMutability": "nonpayable",
      "type": "function"
    },
    {
      "constant": false,
      "inputs": [
        {
          "name": "_from",
          "type": "address"
        },
        {
          "name": "_to",
          "type": "address"
        },
        {
          "name": "_value",
          "type": "uint256"
        },
        {
          "name": "_symbol",
          "type": "bytes32"
        },
        {
          "name": "_reference",
          "type": "string"
        },
        {
          "name": "_sender",
          "type": "address"
        }
      ],
      "name": "proxyTransferFromWithReference",
      "outputs": [
        {
          "name": "",
          "type": "uint256"
        }
      ],
      "payable": false,
      "stateMutability": "nonpayable",
      "type": "function"
    },
    {
      "constant": true,
      "inputs": [
        {
          "name": "_from",
          "type": "address"
        },
        {
          "name": "_spender",
          "type": "address"
        },
        {
          "name": "_symbol",
          "type": "bytes32"
        }
      ],
      "name": "allowance",
      "outputs": [
        {
          "name": "",
          "type": "uint256"
        }
      ],
      "payable": false,
      "stateMutability": "view",
      "type": "function"
    }
  ],
  "bytecode": "0x608060405260008054600160a060020a033316600160a060020a0319909116179055612eb3806100306000396000f30060806040526004361061024d5763ffffffff60e060020a60003504166302571be3811461025257806302927d2014610286578063048ae1bb146102b9578063085a4705146102dd5780630af3e660146103855780631286e393146103a657806314712e2f146103c7578063161ff662146103f65780631c8d5d38146104785780632a11ced0146104a25780632f553d31146104ba5780634637d827146104e65780634d30b6be14610507578063515c14571461052b57806357a96dd0146105a45780635b7da3381461061b578063638a9ce914610636578063648bf7741461065a5780636713e230146106815780636825c843146106a8578063691f3431146106c05780636932af361461074d5780636b4ed21b146107655780639fda5b661461077a578063a831751d146108af578063a9612f72146108d0578063abafaa16146108fa578063b524abcf14610921578063bebcc04514610939578063c4eeeeb914610951578063c70bbc1314610969578063ca448a8814610990578063cb596466146109ab578063ccc11f11146109cc578063ccce413b146109f0578063cdeb148514610a08578063ce606ee014610a50578063d54c8c8714610a65578063d8f9659b14610a92578063dc86e6f014610af2578063df26ca0814610b20578063e0873c0614610b38578063e96b462a14610b53578063ea14457e14610b77578063ec77809f14610ba4578063ecac7f4b14610bc8578063f07629f814610bdd578063f0c06aa514610bf2578063f2fde38b14610c13578063f87480c314610c34578063fd83915e14610c58575b600080fd5b34801561025e57600080fd5b5061026a600435610c7c565b60408051600160a060020a039092168252519081900360200190f35b34801561029257600080fd5b506102a7600160a060020a0360043516610ca4565b60408051918252519081900360200190f35b3480156102c557600080fd5b506102a7600435600160a060020a0360243516610ce5565b3480156102e957600080fd5b50604080516020600460443581810135601f81018490048402850184019095528484526102a794823594602480359536959460649492019190819084018382808284375050604080516020601f89358b018035918201839004830284018301909452808352979a9998810197919650918201945092508291508401838280828437509497505060ff853516955050505050602001351515610dc0565b34801561039157600080fd5b506102a7600160a060020a0360043516610dde565b3480156103b257600080fd5b506102a7600160a060020a0360043516610df9565b3480156103d357600080fd5b506102a7600160a060020a03600435811690602435906044359060643516610e3a565b34801561040257600080fd5b50604080516020601f6084356004818101359283018490048402850184019095528184526102a794600160a060020a0381358116956024803590921695604435956064359536959460a4949391019190819084018382808284375094975050509235600160a060020a03169350610e8792505050565b34801561048457600080fd5b506102a7600160a060020a0360043581169060243516604435610ee0565b3480156104ae57600080fd5b5061026a600435610f05565b3480156104c657600080fd5b506104d2600435610f20565b604080519115158252519081900360200190f35b3480156104f257600080fd5b506102a7600160a060020a0360043516610f34565b34801561051357600080fd5b506102a7600160a060020a0360043516602435610fb9565b34801561053757600080fd5b50604080516020601f6084356004818101359283018490048402850184019095528184526105a294600160a060020a0381358116956024803590921695604435956064359536959460a49493910191908190840183828082843750949750610fd69650505050505050565b005b3480156105b057600080fd5b50604080516020601f6064356004818101359283018490048402850184019095528184526102a794600160a060020a03813516946024803595604435953695608494930191819084018382808284375094975050509235600160a060020a0316935061109792505050565b34801561062757600080fd5b506102a76004356024356110d5565b34801561064257600080fd5b506102a7600160a060020a03600435166024356110f4565b34801561066657600080fd5b506102a7600160a060020a0360043581169060243516611187565b34801561068d57600080fd5b506104d2600160a060020a03600435811690602435166112da565b3480156106b457600080fd5b5061026a60043561131e565b3480156106cc57600080fd5b506106d8600435611339565b6040805160208082528351818301528351919283929083019185019080838360005b838110156107125781810151838201526020016106fa565b50505050905090810190601f16801561073f5780820380516001836020036101000a031916815260200191505b509250505060405180910390f35b34801561075957600080fd5b5061026a6004356113e0565b34801561077157600080fd5b506102a76113fb565b34801561078657600080fd5b50610792600435611401565b604051808881526020018781526020018060200180602001861515151581526020018560ff1660ff16815260200184600160a060020a0316600160a060020a03168152602001838103835288818151815260200191508051906020019080838360005b8381101561080d5781810151838201526020016107f5565b50505050905090810190601f16801561083a5780820380516001836020036101000a031916815260200191505b50838103825287518152875160209182019189019080838360005b8381101561086d578181015183820152602001610855565b50505050905090810190601f16801561089a5780820380516001836020036101000a031916815260200191505b50995050505050505050505060405180910390f35b3480156108bb57600080fd5b506102a7600160a060020a036004351661155c565b3480156108dc57600080fd5b506105a2600160a060020a03600435811690602435166044356115a1565b34801561090657600080fd5b506105a2600435602435600160a060020a03604435166115e1565b34801561092d57600080fd5b506102a7600435611626565b34801561094557600080fd5b506106d860043561163b565b34801561095d57600080fd5b506104d26004356116a8565b34801561097557600080fd5b506105a2600435602435600160a060020a03604435166116c0565b34801561099c57600080fd5b506102a7600435602435611705565b3480156109b757600080fd5b506104d2600160a060020a03600435166118f3565b3480156109d857600080fd5b506104d2600160a060020a0360043516602435611908565b3480156109fc57600080fd5b506102a7600435611965565b348015610a1457600080fd5b50610a376024600480358281019290820135918135918201910135604435611984565b6040805192835260208301919091528051918290030190f35b348015610a5c57600080fd5b5061026a611b70565b348015610a7157600080fd5b506105a2600160a060020a0360043581169060243516604435606435611b7f565b348015610a9e57600080fd5b50604080516020600480358082013583810280860185019096528085526102a79536959394602494938501929182918501908490808284375094975050509235600160a060020a03169350611bcb92505050565b348015610afe57600080fd5b50610b0a600435611d4b565b6040805160ff9092168252519081900360200190f35b348015610b2c57600080fd5b506105a2600435611d68565b348015610b4457600080fd5b506102a7600435602435611d9e565b348015610b5f57600080fd5b506104d2600160a060020a0360043516602435611f9b565b348015610b8357600080fd5b506105a2600160a060020a0360043581169060243581169060443516611fce565b348015610bb057600080fd5b506102a7600435600160a060020a0360243516612018565b348015610bd457600080fd5b506102a76120cb565b348015610be957600080fd5b5061026a6120d2565b348015610bfe57600080fd5b506102a7600160a060020a03600435166120e1565b348015610c1f57600080fd5b506105a2600160a060020a0360043516612147565b348015610c4057600080fd5b506102a7600160a060020a03600435166024356121d2565b348015610c6457600080fd5b506102a7600435600160a060020a036024351661225a565b60009081526005602090815260408083205483526002909152902054600160a060020a031690565b6000805433600160a060020a03908116911614610cc057600080fd5b5060088054600160a060020a038316600160a060020a03199091161790556001919050565b60008083610cf33382611908565b15610db857610d018461236f565b6000868152600560209081526040808320848452600601909152808220805460ff1916600117905560085481517fa9612f7200000000000000000000000000000000000000000000000000000000815260048101849052600160a060020a038981166024830152604482018b9052925194965091169263a9612f729260648084019391929182900301818387803b158015610d9b57600080fd5b505af1158015610daf573d6000803e3d6000fd5b50505050600192505b505092915050565b6000610dd1878787878787336123d9565b90505b9695505050505050565b600160a060020a031660009081526003602052604090205490565b6000805433600160a060020a03908116911614610e1557600080fd5b50600160a060020a03166000908152600760205260409020805460ff19169055600190565b600082815260066020526040812054839033600160a060020a0390811691161415610e7e57610e7b610e6b8761236f565b8686610e768761236f565b61270e565b91505b50949350505050565b600083815260066020526040812054849033600160a060020a0390811691161415610ed557610ed2610eb889610dde565b610ec18961236f565b888888610ecd89610dde565b612924565b91505b509695505050505050565b6000610efd610eee85610dde565b610ef785610dde565b84612b2a565b949350505050565b600260205260009081526040902054600160a060020a031681565b600090815260056020526040902054151590565b600080610f403361236f565b9050610f4b83610dde565b811415610f6457610f5d613a99612b57565b9150610fb3565b610f6e33846112da565b15610f7e57610f5d613aa3612b57565b6000818152600260209081526040808320600160a060020a03871684526001908101909252909120805460ff19168217905591505b50919050565b6000610fcd610fc784610dde565b836110d5565b90505b92915050565b826000191684600160a060020a031686600160a060020a03167f8f1b83868d2ecc962fd90cfee71c9c52455fe10940937bc7571d90ba404c5c3b85856040518083815260200180602001828103825283818151815260200191508051906020019080838360005b8381101561105557818101518382015260200161103d565b50505050905090810190601f1680156110825780820380516001836020036101000a031916815260200191505b50935050505060405180910390a45050505050565b600083815260066020526040812054849033600160a060020a03908116911614156110cb576110c8610eb884610dde565b91505b5095945050505050565b6000908152600560208181526040808420948452939091019052205490565b6000805433600160a060020a039081169116148061112a5750600160a060020a03331660009081526007602052604090205460ff165b15610fd057600082815260066020526040902054600160a060020a0316156111555750613a98610fd0565b5060008181526006602052604090208054600160a060020a038416600160a060020a0319909116179055600192915050565b600080833361119682826112da565b156112d1576111a485610dde565b156111bb576111b4613aa4612b57565b93506112d1565b600260006111c888610dde565b81526020810191909152604001600090812054600160a060020a0316935085906002906111f489610dde565b815260208101919091526040016000208054600160a060020a031916600160a060020a039290921691909117905561122b86610dde565b600160a060020a038087166000818152600360205260408082209490945560085484517fea14457e0000000000000000000000000000000000000000000000000000000081528885166004820152602481019390935233841660448401529351939092169263ea14457e9260648084019391929182900301818387803b1580156112b457600080fd5b505af11580156112c8573d6000803e3d6000fd5b50505050600193505b50505092915050565b6000600260006112e985610dde565b815260208082019290925260409081016000908120600160a060020a038616825260010190925290205460ff16905092915050565b600090815260026020526040902054600160a060020a031690565b6000818152600560209081526040918290206002908101805484516000196001831615610100020190911692909204601f810184900484028301840190945283825260609391929091908301828280156113d45780601f106113a9576101008083540402835291602001916113d4565b820191906000526020600020905b8154815290600101906020018083116113b757829003601f168201915b50505050509050919050565b600660205260009081526040902054600160a060020a031681565b60015481565b60056020908152600091825260409182902080546001808301546002808501805488519481161561010002600019011691909104601f8101879004870284018701909752868352929590949192918301828280156114a05780601f10611475576101008083540402835291602001916114a0565b820191906000526020600020905b81548152906001019060200180831161148357829003601f168201915b5050505060038301805460408051602060026001851615610100026000190190941693909304601f81018490048402820184019092528181529495949350908301828280156115305780601f1061150557610100808354040283529160200191611530565b820191906000526020600020905b81548152906001019060200180831161151357829003601f168201915b505050506004830154600790930154919260ff80821693610100909204169150600160a060020a031687565b6000805433600160a060020a0390811691161461157857600080fd5b50600160a060020a03166000908152600760205260409020805460ff1916600190811790915590565b6040518190600160a060020a0380851691908616907f0de92ba2d86c482d7f947cc22a580692bb78d6277988023434905f44b8cd261a90600090a4505050565b604080518381529051600160a060020a0383169185917fd03c2206e12a8eb3553d780874e1a7941b9c67f3a726ce6edb4a9fd65e25ec989181900360200190a3505050565b60009081526005602052604090206001015490565b60008181526005602090815260409182902060030180548351601f60026101006001851615026000190190931692909204918201849004840281018401909452808452606093928301828280156113d45780601f106113a9576101008083540402835291602001916113d4565b60009081526005602052604090206004015460ff1690565b604080518381529051600160a060020a0383169185917fa4e2520a41c90422e37fc8ba7153c519a427a62ea5f494a14a218a7b9bceb6ca9181900360200190a3505050565b600080808315156117225761171b613a9a612b57565b9250610db8565b6000858152600560205260409020915061173b33610dde565b60008181526005840160205260409020549091508411156117615761171b613aa1612b57565b6000818152600583016020526040902054611782908563ffffffff612bda16565b600082815260058401602052604090205560018201546117a8908563ffffffff612bda16565b6001830155600085815260056020526040902060070154600160a060020a0316156118555760008581526005602052604080822060070154815160e060020a63f957b54702815260048101849052600160a060020a03338116602483015260448201899052606482018a90529251929091169263f957b5479260848084019382900301818387803b15801561183c57600080fd5b505af1158015611850573d6000803e3d6000fd5b505050505b600854600160a060020a031663c70bbc1386866118718561131e565b6040805160e060020a63ffffffff871602815260048101949094526024840192909252600160a060020a0316604483015251606480830192600092919082900301818387803b1580156118c357600080fd5b505af11580156118d7573d6000803e3d6000fd5b505050506118e88160008688612bec565b506001949350505050565b60076020526000908152604090205460ff1681565b60008061191484610dde565b905061191f83610f20565b8015610efd5750600083815260056020526040902054811480610efd5750600083815260056020908152604080832084845260060190915290205460ff16949350505050565b600480548290811061197357fe5b600091825260209091200154905081565b60008060008060008060008761199a3382611908565b15611b60578b8a146119ab57600080fd5b8815156119b757600080fd5b6119c03361236f565b955060009450600093505b8b841080156119dc57506201adb05a115b15611b58578a8a858181106119ed57fe5b9050602002013592508260001415611a1057611a0a613a9a612b57565b50611b4d565b82611a1b878b6110d5565b1015611a2c57611a0a613a9b612b57565b8c8c85818110611a3857fe5b90506020020135600160a060020a0316600160a060020a031633600160a060020a03161415611a6c57611a0a613a99612b57565b611a908d8d86818110611a7b57fe5b90506020020135600160a060020a031661236f565b9150611a9e8683858c612cc3565b600854600160a060020a031663515c1457338f8f88818110611abc57fe5b6040805160e060020a63ffffffff8816028152600160a060020a0395861660048201526020909202939093013593909316602484015250604482018d90526064820187905260a06084830152600060a48301819052905160e48084019382900301818387803b158015611b2e57600080fd5b505af1158015611b42573d6000803e3d6000fd5b505060019096019550505b6001909301926119cb565b600185975097505b5050505050509550959350505050565b600054600160a060020a031681565b6040805182815290518391600160a060020a0380871692908816917f859b1cddb4da93a04541d62c27d7d83aa8173a1b37bbccd3c60ceb4ee19ee13e919081900360200190a450505050565b6000805481908190819033600160a060020a03908116911614611bed57600080fd5b600092505b8551831015611d3f578583815181101515611c0957fe5b90602001906020020151915081600160a060020a03166370a08231306040518263ffffffff1660e060020a0281526004018082600160a060020a0316600160a060020a03168152602001915050602060405180830381600087803b158015611c7057600080fd5b505af1158015611c84573d6000803e3d6000fd5b505050506040513d6020811015611c9a57600080fd5b505190508015611d345781600160a060020a031663a9059cbb86836040518363ffffffff1660e060020a0281526004018083600160a060020a0316600160a060020a0316815260200182815260200192505050602060405180830381600087803b158015611d0757600080fd5b505af1158015611d1b573d6000803e3d6000fd5b505050506040513d6020811015611d3157600080fd5b50505b600190920191611bf2565b50600195945050505050565b600090815260056020526040902060040154610100900460ff1690565b6040805182815290517f2e36a7093f25f22bd4cbdeb6040174c3ba4c5fe8f1abc04e7c3c48f26c7413e09181900360200190a150565b600080600084611dae3382611908565b156112d157841515611dc5576111b4613a9a612b57565b6000868152600560205260409020600481015490935060ff161515611def576111b4613a9f612b57565b60018301548581011015611e08576111b4613aa0612b57565b611e1133610dde565b6000818152600585016020526040902054909250611e35908663ffffffff612dd916565b60008381526005850160205260409020556001830154611e5b908663ffffffff612dd916565b6001840155600086815260056020526040902060070154600160a060020a031615611f085760008681526005602052604080822060070154815160e060020a63f957b547028152600160a060020a03338116600483015260248201859052604482018a9052606482018b90529251929091169263f957b5479260848084019382900301818387803b158015611eef57600080fd5b505af1158015611f03573d6000803e3d6000fd5b505050505b600854600160a060020a031663abafaa168787611f248661131e565b6040805160e060020a63ffffffff871602815260048101949094526024840192909252600160a060020a0316604483015251606480830192600092919082900301818387803b158015611f7657600080fd5b505af1158015611f8a573d6000803e3d6000fd5b50505050611d3f6000838789612bec565b6000611fa682610f20565b8015610fcd5750611fb683610dde565b60008381526005602052604090205414905092915050565b60408051600160a060020a0383811682529151828516928616917f6c0468512076e943ed3d1c5aae1d6903c72162713d86aedd1381b3ac19e10cec919081900360200190a3505050565b600080836120263382611908565b15610db85761203484610dde565b6000868152600560209081526040808320848452600601909152808220805460ff1916905560085481517fa9612f72000000000000000000000000000000000000000000000000000000008152600160a060020a03898116600483015260248201859052604482018b9052925194965091169263a9612f729260648084019391929182900301818387803b158015610d9b57600080fd5b6004545b90565b600854600160a060020a031681565b600033826120ef82826112da565b156121405760006002600061210333610dde565b815260208082019290925260409081016000908120600160a060020a0389168252600190810190935220805460ff19169215159290921790915592505b5050919050565b60005433600160a060020a0390811691161461216257600080fd5b600160a060020a038116151561217757600080fd5b60008054604051600160a060020a03808516939216917f8be0079c531659141344cd1fd0a4f28419497f9722a3daafe3b4186f6b6457e091a360008054600160a060020a031916600160a060020a0392909216919091179055565b6000805433600160a060020a03908116911614806122085750600160a060020a03331660009081526007602052604090205460ff165b15610fd05761221682610f20565b15156122255750613aa5610fd0565b5060008181526005602052604090206007018054600160a060020a038416600160a060020a0319909116179055600192915050565b6000806000808561226b3382611f9b565b1561236557600160a060020a03861615156122925761228b613aa2612b57565b9450612365565b600087815260056020526040902093506122ab8661236f565b84549093508314156122c25761228b613a99612b57565b83546122cd9061131e565b838555600854604080517fa9612f72000000000000000000000000000000000000000000000000000000008152600160a060020a0380851660048301528a81166024830152604482018c9052915193955091169163a9612f729160648082019260009290919082900301818387803b15801561234857600080fd5b505af115801561235c573d6000803e3d6000fd5b50505050600194505b5050505092915050565b600160a060020a038116600090815260036020526040812054801515610fd057506001805481019081905560008181526002602090815260408083208054600160a060020a031916600160a060020a03881690811790915583526003909152902081905592915050565b600080548190819033600160a060020a03908116911614806124135750600160a060020a03331660009081526007602052604090205460ff165b156127015788158015612424575084155b1561243b57612434613a9e612b57565b9250612701565b6124448a610f20565b1561245457612434613a9d612b57565b61245d8461236f565b915033600160a060020a031684600160a060020a031614612486576124813361236f565b612488565b815b905060048a908060018154018082558091505090600182039060005260206000200160009091929091909150906000191690555060e0604051908101604052808281526020018a815260200189815260200188815260200186151581526020018760ff1681526020016000600160a060020a0316815250600560008c600019166000191681526020019081526020016000206000820151816000015560208201518160010155604082015181600201908051906020019061254a929190612def565b5060608201518051612566916003840191602090910190612def565b50608082015160048201805460a085015160ff166101000261ff001993151560ff19909216919091179290921691909117905560c09091015160079182018054600160a060020a03928316600160a060020a031990911617905560008c815260056020818152604080842088855280840183529084208f9055928f9052529091015416156126765760008a81526005602052604080822060070154815160e060020a63f957b54702815260048101849052600160a060020a038881166024830152604482018e9052606482018f90529251929091169263f957b5479260848084019382900301818387803b15801561265d57600080fd5b505af1158015612671573d6000803e3d6000fd5b505050505b600854600160a060020a031663abafaa168b8b6126928661131e565b6040805160e060020a63ffffffff871602815260048101949094526024840192909252600160a060020a0316604483015251606480830192600092919082900301818387803b1580156126e457600080fd5b505af11580156126f8573d6000803e3d6000fd5b50505050600192505b5050979650505050505050565b600061271983610f20565b15156127315761272a613aa5612b57565b9050610efd565b848214156127445761272a613a99612b57565b6000838152600560208181526040808420868552909201815281832088845260010190529020541580159061277857508315155b156127885761272a613aa9612b57565b6000838152600560208181526040808420868552909201815281832088845260010190529020849055600854600160a060020a031663d54c8c876127cb8461131e565b6127d48861131e565b6040805160e060020a63ffffffff8616028152600160a060020a03938416600482015291909216602482015260448101879052606481018890529051608480830192600092919082900301818387803b15801561283057600080fd5b505af1158015612844573d6000803e3d6000fd5b505050600084815260066020526040902054600160a060020a03161590506118e857600083815260066020526040902054600160a060020a0316632338508961288c8461131e565b6128958861131e565b876040518463ffffffff1660e060020a0281526004018084600160a060020a0316600160a060020a0316815260200183600160a060020a0316600160a060020a031681526020018281526020019350505050600060405180830381600087803b15801561290157600080fd5b505af1158015612915573d6000803e3d6000fd5b50505050506001949350505050565b60008587141561294057612939613a99612b57565b9050610dd4565b84151561295257612939613a9a612b57565b8461295d88866110d5565b101561296e57612939613a9b612b57565b818714158015612987575084612985888487612b2a565b105b1561299757612939613a9c612b57565b6129a387878787612cc3565b868214612a095760008481526005602081815260408084208b8552909201815281832085845260010190529020546129e1908663ffffffff612bda16565b60008581526005602081815260408084208c8552909201815281832086845260010190529020555b600854600160a060020a031663515c1457612a238961131e565b612a2c8961131e565b60405160e060020a63ffffffff8516028152600160a060020a03808416600483019081529083166024830152604482018a9052606482018b905260a060848301908152895160a484015289518b938d938c939092909160c40190602085019080838360005b83811015612aa9578181015183820152602001612a91565b50505050905090810190601f168015612ad65780820380516001836020036101000a031916815260200191505b509650505050505050600060405180830381600087803b158015612af957600080fd5b505af1158015612b0d573d6000803e3d6000fd5b50505050612b1d87878787612bec565b5060019695505050505050565b60009081526005602081815260408084209584529490910181528382209282526001909201909152205490565b600854604080517fdf26ca08000000000000000000000000000000000000000000000000000000008152600481018490529051600092600160a060020a03169163df26ca08916024808301928692919082900301818387803b158015612bbc57600080fd5b505af1158015612bd0573d6000803e3d6000fd5b5093949350505050565b600082821115612be657fe5b50900390565b600081815260066020526040902054600160a060020a031615612cbd57600081815260066020526040902054600160a060020a03166323de6651612c2f8661131e565b612c388661131e565b856040518463ffffffff1660e060020a0281526004018084600160a060020a0316600160a060020a0316815260200183600160a060020a0316600160a060020a031681526020018281526020019350505050600060405180830381600087803b158015612ca457600080fd5b505af1158015612cb8573d6000803e3d6000fd5b505050505b50505050565b60008181526005602081815260408084208885529092019052902054612cef908363ffffffff612bda16565b60008281526005602081815260408084208985529092019052808220929092558481522054612d1e9083612dd9565b600082815260056020818152604080842088855280840183529084209490945591849052905260070154600160a060020a031615612cbd5760008181526005602090815260408083206007015487845260029092528083205486845281842054825160e060020a63f957b547028152600160a060020a03928316600482015290821660248201526044810187905260648101869052915192169263f957b5479260848084019382900301818387803b158015612ca457600080fd5b600082820183811015612de857fe5b9392505050565b828054600181600116156101000203166002900490600052602060002090601f016020900481019282601f10612e3057805160ff1916838001178555612e5d565b82800160010185558215612e5d579182015b82811115612e5d578251825591602001919060010190612e42565b50612e69929150612e6d565b5090565b6120cf91905b80821115612e695760008155600101612e735600a165627a7a72305820df0b8ea7243fc99e82d502944448a6ad4c13be9c44a76ac251039c1674fdf28a0029",
  "source": "/**\n * Copyright 20172018, LaborX PTY\n * Licensed under the AGPL Version 3 license.\n */\n\npragma solidity ^0.4.21;\n\nimport \"../common/Object.sol\";\nimport \"./ChronoBankPlatformEmitter.sol\";\nimport \"../lib/SafeMath.sol\";\nimport \"./LXAssetListener.sol\";\n\n\ncontract ProxyEventsEmitter {\n    function emitTransfer(address _from, address _to, uint _value) public;\n    function emitApprove(address _from, address _spender, uint _value) public;\n}\n\n\n///  @title ChronoBank Platform.\n///\n///  The official ChronoBank assets platform powering TIME and LHT tokens, and possibly\n///  other unknown tokens needed later.\n///  Platform uses MultiEventsHistory contract to keep events, so that in case it needs to be redeployed\n///  at some point, all the events keep appearing at the same place.\n///\n///  Every asset is meant to be used through a proxy contract. Only one proxy contract have access\n///  rights for a particular asset.\n///\n///  Features: transfers, allowances, supply adjustments, lost wallet access recovery.\n///\n///  Note: all the non constant functions return false instead of throwing in case if state change\n/// didn't happen yet.\ncontract ChronoBankPlatform is Object, ChronoBankPlatformEmitter {\n    using SafeMath for uint;\n\n    uint constant CHRONOBANK_PLATFORM_SCOPE = 15000;\n    uint constant CHRONOBANK_PLATFORM_PROXY_ALREADY_EXISTS = CHRONOBANK_PLATFORM_SCOPE + 0;\n    uint constant CHRONOBANK_PLATFORM_CANNOT_APPLY_TO_ONESELF = CHRONOBANK_PLATFORM_SCOPE + 1;\n    uint constant CHRONOBANK_PLATFORM_INVALID_VALUE = CHRONOBANK_PLATFORM_SCOPE + 2;\n    uint constant CHRONOBANK_PLATFORM_INSUFFICIENT_BALANCE = CHRONOBANK_PLATFORM_SCOPE + 3;\n    uint constant CHRONOBANK_PLATFORM_NOT_ENOUGH_ALLOWANCE = CHRONOBANK_PLATFORM_SCOPE + 4;\n    uint constant CHRONOBANK_PLATFORM_ASSET_ALREADY_ISSUED = CHRONOBANK_PLATFORM_SCOPE + 5;\n    uint constant CHRONOBANK_PLATFORM_CANNOT_ISSUE_FIXED_ASSET_WITH_INVALID_VALUE = CHRONOBANK_PLATFORM_SCOPE + 6;\n    uint constant CHRONOBANK_PLATFORM_CANNOT_REISSUE_FIXED_ASSET = CHRONOBANK_PLATFORM_SCOPE + 7;\n    uint constant CHRONOBANK_PLATFORM_SUPPLY_OVERFLOW = CHRONOBANK_PLATFORM_SCOPE + 8;\n    uint constant CHRONOBANK_PLATFORM_NOT_ENOUGH_TOKENS = CHRONOBANK_PLATFORM_SCOPE + 9;\n    uint constant CHRONOBANK_PLATFORM_INVALID_NEW_OWNER = CHRONOBANK_PLATFORM_SCOPE + 10;\n    uint constant CHRONOBANK_PLATFORM_ALREADY_TRUSTED = CHRONOBANK_PLATFORM_SCOPE + 11;\n    uint constant CHRONOBANK_PLATFORM_SHOULD_RECOVER_TO_NEW_ADDRESS = CHRONOBANK_PLATFORM_SCOPE + 12;\n    uint constant CHRONOBANK_PLATFORM_ASSET_IS_NOT_ISSUED = CHRONOBANK_PLATFORM_SCOPE + 13;\n    uint constant CHRONOBANK_PLATFORM_INVALID_INVOCATION = CHRONOBANK_PLATFORM_SCOPE + 17;\n\n    /// @title Structure of a particular asset.\n    struct Asset {\n        uint owner;                       // Asset's owner id.\n        uint totalSupply;                 // Asset's total supply.\n        string name;                      // Asset's name, for information purposes.\n        string description;               // Asset's description, for information purposes.\n        bool isReissuable;                // Indicates if asset have dynamic or fixed supply.\n        uint8 baseUnit;                   // Proposed number of decimals.\n        mapping(uint => Wallet) wallets;  // Holders wallets.\n        mapping(uint => bool) partowners; // Part-owners of an asset; have less access rights than owner\n        address listener;  // token transfer listener\n    }\n\n    /// @title Structure of an asset holder wallet for particular asset.\n    struct Wallet {\n        uint balance;\n        mapping(uint => uint) allowance;\n    }\n\n    /// @title Structure of an asset holder.\n    struct Holder {\n        address addr;                    // Current address of the holder.\n        mapping(address => bool) trust;  // Addresses that are trusted with recovery proocedure.\n    }\n\n    /// @dev Iterable mapping pattern is used for holders.\n    uint public holdersCount;\n    mapping(uint => Holder) public holders;\n\n    /// @dev This is an access address mapping. Many addresses may have access to a single holder.\n    mapping(address => uint) holderIndex;\n\n    /// @dev List of symbols that exist in a platform\n    bytes32[] public symbols;\n\n    /// @dev Asset symbol to asset mapping.\n    mapping(bytes32 => Asset) public assets;\n\n    /// @dev Asset symbol to asset proxy mapping.\n    mapping(bytes32 => address) public proxies;\n\n    /// @dev Co-owners of a platform. Has less access rights than a root contract owner\n    mapping(address => bool) public partowners;\n\n    /// @dev Should use interface of the emitter, but address of events history.\n    address public eventsHistory;\n\n    /// @dev Emits Error event with specified error message.\n    /// Should only be used if no state changes happened.\n    /// @param _errorCode code of an error\n    function _error(uint _errorCode) internal returns (uint) {\n        ChronoBankPlatformEmitter(eventsHistory).emitError(_errorCode);\n        return _errorCode;\n    }\n\n    /// @dev Emits Error if called not by asset owner.\n    modifier onlyOwner(bytes32 _symbol) {\n        if (isOwner(msg.sender, _symbol)) {\n            _;\n        }\n    }\n\n    /// @dev UNAUTHORIZED if called not by one of symbol's partowners or owner\n    modifier onlyOneOfOwners(bytes32 _symbol) {\n        if (hasAssetRights(msg.sender, _symbol)) {\n            _;\n        }\n    }\n\n    /// @dev UNAUTHORIZED if called not by one of partowners or contract's owner\n    modifier onlyOneOfContractOwners() {\n        if (contractOwner == msg.sender || partowners[msg.sender]) {\n            _;\n        }\n    }\n\n    /// @dev Emits Error if called not by asset proxy.\n    modifier onlyProxy(bytes32 _symbol) {\n        if (proxies[_symbol] == msg.sender) {\n            _;\n        }\n    }\n\n    /// @dev Emits Error if _from doesn't trust _to.\n    modifier checkTrust(address _from, address _to) {\n        if (isTrusted(_from, _to)) {\n            _;\n        }\n    }\n\n    /// @notice Adds a co-owner of a contract. Might be more than one co-owner\n    /// @dev Allowed to only contract onwer\n    /// @param _partowner a co-owner of a contract\n    /// @return result code of an operation\n    function addPartOwner(address _partowner) onlyContractOwner public returns (uint) {\n        partowners[_partowner] = true;\n        return OK;\n    }\n\n    /// @notice Removes a co-owner of a contract\n    /// @dev Should be performed only by root contract owner\n    /// @param _partowner a co-owner of a contract\n    /// @return result code of an operation\n    function removePartOwner(address _partowner) onlyContractOwner public returns (uint) {\n        delete partowners[_partowner];\n        return OK;\n    }\n\n    /// @notice Sets EventsHistory contract address.\n    /// @dev Can be set only by owner.\n    /// @param _eventsHistory MultiEventsHistory contract address.\n    /// @return success.\n    function setupEventsHistory(address _eventsHistory) onlyContractOwner public returns (uint errorCode) {\n        eventsHistory = _eventsHistory;\n        return OK;\n    }\n\n    /// @notice Provides a cheap way to get number of symbols registered in a platform\n    /// @return number of symbols\n    function symbolsCount() public view returns (uint) {\n        return symbols.length;\n    }\n\n    /// @notice Check asset existance.\n    /// @param _symbol asset symbol.\n    /// @return asset existance.\n    function isCreated(bytes32 _symbol) public view returns (bool) {\n        return assets[_symbol].owner != 0;\n    }\n\n    /// @notice Returns asset decimals.\n    /// @param _symbol asset symbol.\n    /// @return asset decimals.\n    function baseUnit(bytes32 _symbol) public view returns (uint8) {\n        return assets[_symbol].baseUnit;\n    }\n\n    /// @notice Returns asset name.\n    /// @param _symbol asset symbol.\n    /// @return asset name.\n    function name(bytes32 _symbol) public view returns (string) {\n        return assets[_symbol].name;\n    }\n\n    /// @notice Returns asset description.\n    /// @param _symbol asset symbol.\n    /// @return asset description.\n    function description(bytes32 _symbol) public view returns (string) {\n        return assets[_symbol].description;\n    }\n\n    /// @notice Returns asset reissuability.\n    /// @param _symbol asset symbol.\n    /// @return asset reissuability.\n    function isReissuable(bytes32 _symbol) public view returns (bool) {\n        return assets[_symbol].isReissuable;\n    }\n\n    /// @notice Returns asset owner address.\n    /// @param _symbol asset symbol.\n    /// @return asset owner address.\n    function owner(bytes32 _symbol) public view returns (address) {\n        return holders[assets[_symbol].owner].addr;\n    }\n\n    /// @notice Check if specified address has asset owner rights.\n    /// @param _owner address to check.\n    /// @param _symbol asset symbol.\n    /// @return owner rights availability.\n    function isOwner(address _owner, bytes32 _symbol) public view returns (bool) {\n        return isCreated(_symbol) && (assets[_symbol].owner == getHolderId(_owner));\n    }\n\n    /// @notice Checks if a specified address has asset owner or co-owner rights.\n    /// @param _owner address to check.\n    /// @param _symbol asset symbol.\n    /// @return owner rights availability.\n    function hasAssetRights(address _owner, bytes32 _symbol) public view returns (bool) {\n        uint holderId = getHolderId(_owner);\n        return isCreated(_symbol) && (assets[_symbol].owner == holderId || assets[_symbol].partowners[holderId]);\n    }\n\n    /// @notice Returns asset total supply.\n    /// @param _symbol asset symbol.\n    /// @return asset total supply.\n    function totalSupply(bytes32 _symbol) public view returns (uint) {\n        return assets[_symbol].totalSupply;\n    }\n\n    /// @notice Returns asset balance for a particular holder.\n    /// @param _holder holder address.\n    /// @param _symbol asset symbol.\n    /// @return holder balance.\n    function balanceOf(address _holder, bytes32 _symbol) public view returns (uint) {\n        return _balanceOf(getHolderId(_holder), _symbol);\n    }\n\n    /// @notice Returns asset balance for a particular holder id.\n    /// @param _holderId holder id.\n    /// @param _symbol asset symbol.\n    /// @return holder balance.\n    function _balanceOf(uint _holderId, bytes32 _symbol) public view returns (uint) {\n        return assets[_symbol].wallets[_holderId].balance;\n    }\n\n    /// @notice Returns current address for a particular holder id.\n    /// @param _holderId holder id.\n    /// @return holder address.\n    function _address(uint _holderId) public view returns (address) {\n        return holders[_holderId].addr;\n    }\n\n    /// @notice Adds a co-owner for an asset with provided symbol.\n    /// @dev Should be performed by a contract owner or its co-owners\n    /// @param _symbol asset's symbol\n    /// @param _partowner a co-owner of an asset\n    /// @return errorCode result code of an operation\n    function addAssetPartOwner(bytes32 _symbol, address _partowner) onlyOneOfOwners(_symbol) public returns (uint) {\n        uint holderId = _createHolderId(_partowner);\n        assets[_symbol].partowners[holderId] = true;\n        ChronoBankPlatformEmitter(eventsHistory).emitOwnershipChange(0x0, _partowner, _symbol);\n        return OK;\n    }\n\n    /// @notice Removes a co-owner for an asset with provided symbol.\n    /// @dev Should be performed by a contract owner or its co-owners\n    /// @param _symbol asset's symbol\n    /// @param _partowner a co-owner of an asset\n    /// @return errorCode result code of an operation\n    function removeAssetPartOwner(bytes32 _symbol, address _partowner) onlyOneOfOwners(_symbol) public returns (uint) {\n        uint holderId = getHolderId(_partowner);\n        delete assets[_symbol].partowners[holderId];\n        ChronoBankPlatformEmitter(eventsHistory).emitOwnershipChange(_partowner, 0x0, _symbol);\n        return OK;\n    }\n\n    /// @notice Sets Proxy contract address for a particular asset.\n    /// @dev Can be set only once for each asset and only by contract owner.\n    /// @param _proxyAddress Proxy contract address.\n    /// @param _symbol asset symbol.\n    /// @return success.\n    function setProxy(address _proxyAddress, bytes32 _symbol) public onlyOneOfContractOwners returns (uint) {\n        if (proxies[_symbol] != 0x0) {\n            return CHRONOBANK_PLATFORM_PROXY_ALREADY_EXISTS;\n        }\n\n        proxies[_symbol] = _proxyAddress;\n        return OK;\n    }\n\n    /// @notice Sets Proxy contract address for a particular asset.\n    /// @dev Can be set only once for each asset and only by contract owner.\n    /// @param _listener Token Listener contract address.\n    /// @param _symbol asset symbol.\n    /// @return success.\n    function setListener(address _listener, bytes32 _symbol) public onlyOneOfContractOwners returns (uint) {\n        if (!isCreated(_symbol)) {\n            return CHRONOBANK_PLATFORM_ASSET_IS_NOT_ISSUED;\n        }\n\n        assets[_symbol].listener = _listener;\n        return OK;\n    }\n\n    /// @notice Performes asset transfer for multiple destinations\n    /// @param addresses list of addresses to receive some amount\n    /// @param values list of asset amounts for according addresses\n    /// @param _symbol asset symbol\n    /// @return {\n    ///     \"errorCode\": \"resultCode of an operation\",\n    ///     \"count\": \"an amount of succeeded transfers\"\n    /// }\n    function massTransfer(address[] addresses, uint[] values, bytes32 _symbol)\n    onlyOneOfOwners(_symbol)\n    external\n    returns (uint errorCode, uint count)\n    {\n        require(addresses.length == values.length);\n        require(_symbol != 0x0);\n\n        uint senderId = _createHolderId(msg.sender);\n\n        uint success = 0;\n        for(uint idx = 0; idx < addresses.length && gasleft() > 110000; idx++) {\n            uint value = values[idx];\n\n            if (value == 0) {\n                _error(CHRONOBANK_PLATFORM_INVALID_VALUE);\n                continue;\n            }\n\n            if (_balanceOf(senderId, _symbol) < value) {\n                _error(CHRONOBANK_PLATFORM_INSUFFICIENT_BALANCE);\n                continue;\n            }\n\n            if (msg.sender == addresses[idx]) {\n                _error(CHRONOBANK_PLATFORM_CANNOT_APPLY_TO_ONESELF);\n                continue;\n            }\n\n            uint holderId = _createHolderId(addresses[idx]);\n\n            _transferDirect(senderId, holderId, value, _symbol);\n            ChronoBankPlatformEmitter(eventsHistory).emitTransfer(msg.sender, addresses[idx], _symbol, value, \"\");\n\n            success++;\n        }\n\n        return (OK, success);\n    }\n\n    /// @dev Transfers asset balance between holders wallets.\n    /// @param _fromId holder id to take from.\n    /// @param _toId holder id to give to.\n    /// @param _value amount to transfer.\n    /// @param _symbol asset symbol.\n    function _transferDirect(\n        uint _fromId,\n        uint _toId,\n        uint _value,\n        bytes32 _symbol\n    )\n    internal\n    {\n        assets[_symbol].wallets[_fromId].balance = assets[_symbol].wallets[_fromId].balance.sub(_value);\n        assets[_symbol].wallets[_toId].balance = assets[_symbol].wallets[_toId].balance.add(_value);\n\n        if (assets[_symbol].listener != address(0x0)) {\n            LXAssetListener(assets[_symbol].listener).onTransfer(holders[_fromId].addr, holders[_toId].addr, _value, _symbol);\n        }\n    }\n\n    /// @dev Transfers asset balance between holders wallets.\n    /// Performs sanity checks and takes care of allowances adjustment.\n    ///\n    /// @param _fromId holder id to take from.\n    /// @param _toId holder id to give to.\n    /// @param _value amount to transfer.\n    /// @param _symbol asset symbol.\n    /// @param _reference transfer comment to be included in a Transfer event.\n    /// @param _senderId transfer initiator holder id.\n    ///\n    /// @return success.\n    function _transfer(\n        uint _fromId,\n        uint _toId,\n        uint _value,\n        bytes32 _symbol,\n        string _reference,\n        uint _senderId\n    )\n    internal\n    returns (uint)\n    {\n        // Should not allow to send to oneself.\n        if (_fromId == _toId) {\n            return _error(CHRONOBANK_PLATFORM_CANNOT_APPLY_TO_ONESELF);\n        }\n        // Should have positive value.\n        if (_value == 0) {\n            return _error(CHRONOBANK_PLATFORM_INVALID_VALUE);\n        }\n        // Should have enough balance.\n        if (_balanceOf(_fromId, _symbol) < _value) {\n            return _error(CHRONOBANK_PLATFORM_INSUFFICIENT_BALANCE);\n        }\n        // Should have enough allowance.\n        if (_fromId != _senderId && _allowance(_fromId, _senderId, _symbol) < _value) {\n            return _error(CHRONOBANK_PLATFORM_NOT_ENOUGH_ALLOWANCE);\n        }\n\n        _transferDirect(_fromId, _toId, _value, _symbol);\n        // Adjust allowance.\n        if (_fromId != _senderId) {\n            assets[_symbol].wallets[_fromId].allowance[_senderId] = assets[_symbol].wallets[_fromId].allowance[_senderId].sub(_value);\n        }\n        // Internal Out Of Gas/Throw: revert this transaction too;\n        // Call Stack Depth Limit reached: n/a after HF 4;\n        // Recursive Call: safe, all changes already made.\n        ChronoBankPlatformEmitter(eventsHistory).emitTransfer(_address(_fromId), _address(_toId), _symbol, _value, _reference);\n        _proxyTransferEvent(_fromId, _toId, _value, _symbol);\n        return OK;\n    }\n\n    /// @dev Transfers asset balance between holders wallets.\n    /// Can only be called by asset proxy.\n    ///\n    /// @param _to holder address to give to.\n    /// @param _value amount to transfer.\n    /// @param _symbol asset symbol.\n    /// @param _reference transfer comment to be included in a Transfer event.\n    /// @param _sender transfer initiator address.\n    ///\n    /// @return success.\n    function proxyTransferWithReference(\n        address _to,\n        uint _value,\n        bytes32 _symbol,\n        string _reference,\n        address _sender\n    )\n    onlyProxy(_symbol)\n    public\n    returns (uint)\n    {\n        return _transfer(getHolderId(_sender), _createHolderId(_to), _value, _symbol, _reference, getHolderId(_sender));\n    }\n\n    /// @dev Ask asset Proxy contract to emit ERC20 compliant Transfer event.\n    /// @param _fromId holder id to take from.\n    /// @param _toId holder id to give to.\n    /// @param _value amount to transfer.\n    /// @param _symbol asset symbol.\n    function _proxyTransferEvent(uint _fromId, uint _toId, uint _value, bytes32 _symbol) internal {\n        if (proxies[_symbol] != 0x0) {\n            // Internal Out Of Gas/Throw: revert this transaction too;\n            // Call Stack Depth Limit reached: n/a after HF 4;\n            // Recursive Call: safe, all changes already made.\n            ProxyEventsEmitter(proxies[_symbol]).emitTransfer(_address(_fromId), _address(_toId), _value);\n        }\n    }\n\n    /// @notice Returns holder id for the specified address.\n    /// @param _holder holder address.\n    /// @return holder id.\n    function getHolderId(address _holder) public view returns (uint) {\n        return holderIndex[_holder];\n    }\n\n    /// @dev Returns holder id for the specified address, creates it if needed.\n    /// @param _holder holder address.\n    /// @return holder id.\n    function _createHolderId(address _holder) internal returns (uint) {\n        uint holderId = holderIndex[_holder];\n        if (holderId == 0) {\n            holderId = ++holdersCount;\n            holders[holderId].addr = _holder;\n            holderIndex[_holder] = holderId;\n        }\n        return holderId;\n    }\n\n    /// @notice Issues new asset token on the platform.\n    ///\n    /// Tokens issued with this call go straight to contract owner.\n    /// Each symbol can be issued only once, and only by contract owner.\n    ///\n    /// @param _symbol asset symbol.\n    /// @param _value amount of tokens to issue immediately.\n    /// @param _name name of the asset.\n    /// @param _description description for the asset.\n    /// @param _baseUnit number of decimals.\n    /// @param _isReissuable dynamic or fixed supply.\n    ///\n    /// @return success.\n    function issueAsset(\n        bytes32 _symbol,\n        uint _value,\n        string _name,\n        string _description,\n        uint8 _baseUnit,\n        bool _isReissuable\n    )\n    public\n    returns (uint)\n    {\n        return issueAsset(_symbol, _value, _name, _description, _baseUnit, _isReissuable, msg.sender);\n    }\n\n    /// @notice Issues new asset token on the platform.\n    ///\n    /// Tokens issued with this call go straight to contract owner.\n    /// Each symbol can be issued only once, and only by contract owner.\n    ///\n    /// @param _symbol asset symbol.\n    /// @param _value amount of tokens to issue immediately.\n    /// @param _name name of the asset.\n    /// @param _description description for the asset.\n    /// @param _baseUnit number of decimals.\n    /// @param _isReissuable dynamic or fixed supply.\n    /// @param _account address where issued balance will be held\n    ///\n    /// @return success.\n    function issueAsset(\n        bytes32 _symbol,\n        uint _value,\n        string _name,\n        string _description,\n        uint8 _baseUnit,\n        bool _isReissuable,\n        address _account\n    )\n    onlyOneOfContractOwners\n    internal // TODO: fix `Invalid number of arguments to Solidity function` in truffle\n    returns (uint)\n    {\n        // Should have positive value if supply is going to be fixed.\n        if (_value == 0 && !_isReissuable) {\n            return _error(CHRONOBANK_PLATFORM_CANNOT_ISSUE_FIXED_ASSET_WITH_INVALID_VALUE);\n        }\n        // Should not be issued yet.\n        if (isCreated(_symbol)) {\n            return _error(CHRONOBANK_PLATFORM_ASSET_ALREADY_ISSUED);\n        }\n        uint holderId = _createHolderId(_account);\n        uint creatorId = _account == msg.sender ? holderId : _createHolderId(msg.sender);\n\n        symbols.push(_symbol);\n        assets[_symbol] = Asset(creatorId, _value, _name, _description, _isReissuable, _baseUnit, address(0x0));\n        assets[_symbol].wallets[holderId].balance = _value;\n\n        if (assets[_symbol].listener != address(0x0)) {\n            LXAssetListener(assets[_symbol].listener).onTransfer(address(0x0), _account, _value, _symbol);\n        }\n\n        // Internal Out Of Gas/Throw: revert this transaction too;\n        // Call Stack Depth Limit reached: n/a after HF 4;\n        // Recursive Call: safe, all changes already made.\n        ChronoBankPlatformEmitter(eventsHistory).emitIssue(_symbol, _value, _address(holderId));\n        return OK;\n    }\n\n    /// @notice Issues additional asset tokens if the asset have dynamic supply.\n    ///\n    /// Tokens issued with this call go straight to asset owner.\n    /// Can only be called by asset owner.\n    ///\n    /// @param _symbol asset symbol.\n    /// @param _value amount of additional tokens to issue.\n    ///\n    /// @return success.\n    function reissueAsset(bytes32 _symbol, uint _value) onlyOneOfOwners(_symbol) public returns (uint) {\n        // Should have positive value.\n        if (_value == 0) {\n            return _error(CHRONOBANK_PLATFORM_INVALID_VALUE);\n        }\n        Asset storage asset = assets[_symbol];\n        // Should have dynamic supply.\n        if (!asset.isReissuable) {\n            return _error(CHRONOBANK_PLATFORM_CANNOT_REISSUE_FIXED_ASSET);\n        }\n        // Resulting total supply should not overflow.\n        if (asset.totalSupply + _value < asset.totalSupply) {\n            return _error(CHRONOBANK_PLATFORM_SUPPLY_OVERFLOW);\n        }\n        uint holderId = getHolderId(msg.sender);\n        asset.wallets[holderId].balance = asset.wallets[holderId].balance.add(_value);\n        asset.totalSupply = asset.totalSupply.add(_value);\n\n        if (assets[_symbol].listener != address(0x0)) {\n            LXAssetListener(assets[_symbol].listener).onTransfer(msg.sender, address(0x0), _value, _symbol);\n        }\n\n        // Internal Out Of Gas/Throw: revert this transaction too;\n        // Call Stack Depth Limit reached: n/a after HF 4;\n        // Recursive Call: safe, all changes already made.\n        ChronoBankPlatformEmitter(eventsHistory).emitIssue(_symbol, _value, _address(holderId));\n        _proxyTransferEvent(0, holderId, _value, _symbol);\n        return OK;\n    }\n\n    /// @notice Destroys specified amount of senders asset tokens.\n    ///\n    /// @param _symbol asset symbol.\n    /// @param _value amount of tokens to destroy.\n    ///\n    /// @return success.\n    function revokeAsset(bytes32 _symbol, uint _value) public returns (uint) {\n        // Should have positive value.\n        if (_value == 0) {\n            return _error(CHRONOBANK_PLATFORM_INVALID_VALUE);\n        }\n        Asset storage asset = assets[_symbol];\n        uint holderId = getHolderId(msg.sender);\n        // Should have enough tokens.\n        if (asset.wallets[holderId].balance < _value) {\n            return _error(CHRONOBANK_PLATFORM_NOT_ENOUGH_TOKENS);\n        }\n        asset.wallets[holderId].balance = asset.wallets[holderId].balance.sub(_value);\n        asset.totalSupply = asset.totalSupply.sub(_value);\n\n        if (assets[_symbol].listener != address(0x0)) {\n            LXAssetListener(assets[_symbol].listener).onTransfer(address(0x0), msg.sender, _value, _symbol);\n        }\n\n        // Internal Out Of Gas/Throw: revert this transaction too;\n        // Call Stack Depth Limit reached: n/a after HF 4;\n        // Recursive Call: safe, all changes already made.\n        ChronoBankPlatformEmitter(eventsHistory).emitRevoke(_symbol, _value, _address(holderId));\n        _proxyTransferEvent(holderId, 0, _value, _symbol);\n        return OK;\n    }\n\n    /// @notice Passes asset ownership to specified address.\n    ///\n    /// Only ownership is changed, balances are not touched.\n    /// Can only be called by asset owner.\n    ///\n    /// @param _symbol asset symbol.\n    /// @param _newOwner address to become a new owner.\n    ///\n    /// @return success.\n    function changeOwnership(bytes32 _symbol, address _newOwner) onlyOwner(_symbol) public returns (uint) {\n        if (_newOwner == 0x0) {\n            return _error(CHRONOBANK_PLATFORM_INVALID_NEW_OWNER);\n        }\n\n        Asset storage asset = assets[_symbol];\n        uint newOwnerId = _createHolderId(_newOwner);\n        // Should pass ownership to another holder.\n        if (asset.owner == newOwnerId) {\n            return _error(CHRONOBANK_PLATFORM_CANNOT_APPLY_TO_ONESELF);\n        }\n        address oldOwner = _address(asset.owner);\n        asset.owner = newOwnerId;\n        // Internal Out Of Gas/Throw: revert this transaction too;\n        // Call Stack Depth Limit reached: n/a after HF 4;\n        // Recursive Call: safe, all changes already made.\n        ChronoBankPlatformEmitter(eventsHistory).emitOwnershipChange(oldOwner, _newOwner, _symbol);\n        return OK;\n    }\n\n    /// @notice Check if specified holder trusts an address with recovery procedure.\n    /// @param _from truster.\n    /// @param _to trustee.\n    /// @return trust existance.\n    function isTrusted(address _from, address _to) public view returns (bool) {\n        return holders[getHolderId(_from)].trust[_to];\n    }\n\n    /// @notice Trust an address to perform recovery procedure for the caller.\n    /// @param _to trustee.\n    /// @return success.\n    function trust(address _to) public returns (uint) {\n        uint fromId = _createHolderId(msg.sender);\n        // Should trust to another address.\n        if (fromId == getHolderId(_to)) {\n            return _error(CHRONOBANK_PLATFORM_CANNOT_APPLY_TO_ONESELF);\n        }\n        // Should trust to yet untrusted.\n        if (isTrusted(msg.sender, _to)) {\n            return _error(CHRONOBANK_PLATFORM_ALREADY_TRUSTED);\n        }\n\n        holders[fromId].trust[_to] = true;\n        return OK;\n    }\n\n    /// @notice Revoke trust to perform recovery procedure from an address.\n    /// @param _to trustee.\n    /// @return success.\n    function distrust(address _to) checkTrust(msg.sender, _to) public returns (uint) {\n        holders[getHolderId(msg.sender)].trust[_to] = false;\n        return OK;\n    }\n\n    /// @notice Perform recovery procedure.\n    ///\n    /// This function logic is actually more of an addAccess(uint _holderId, address _to).\n    /// It grants another address access to recovery subject wallets.\n    /// Can only be called by trustee of recovery subject.\n    ///\n    /// @param _from holder address to recover from.\n    /// @param _to address to grant access to.\n    ///\n    /// @return success.\n    function recover(address _from, address _to) checkTrust(_from, msg.sender) public returns (uint errorCode) {\n        // Should recover to previously unused address.\n        if (getHolderId(_to) != 0) {\n            return _error(CHRONOBANK_PLATFORM_SHOULD_RECOVER_TO_NEW_ADDRESS);\n        }\n        // We take current holder address because it might not equal _from.\n        // It is possible to recover from any old holder address, but event should have the current one.\n        address from = holders[getHolderId(_from)].addr;\n        holders[getHolderId(_from)].addr = _to;\n        holderIndex[_to] = getHolderId(_from);\n        // Internal Out Of Gas/Throw: revert this transaction too;\n        // Call Stack Depth Limit reached: revert this transaction too;\n        // Recursive Call: safe, all changes already made.\n        ChronoBankPlatformEmitter(eventsHistory).emitRecovery(from, _to, msg.sender);\n        return OK;\n    }\n\n    /// @dev Sets asset spending allowance for a specified spender.\n    ///\n    /// Note: to revoke allowance, one needs to set allowance to 0.\n    ///\n    /// @param _spenderId holder id to set allowance for.\n    /// @param _value amount to allow.\n    /// @param _symbol asset symbol.\n    /// @param _senderId approve initiator holder id.\n    ///\n    /// @return success.\n    function _approve(\n        uint _spenderId,\n        uint _value,\n        bytes32 _symbol,\n        uint _senderId\n    )\n    internal\n    returns (uint)\n    {\n        // Asset should exist.\n        if (!isCreated(_symbol)) {\n            return _error(CHRONOBANK_PLATFORM_ASSET_IS_NOT_ISSUED);\n        }\n        // Should allow to another holder.\n        if (_senderId == _spenderId) {\n            return _error(CHRONOBANK_PLATFORM_CANNOT_APPLY_TO_ONESELF);\n        }\n\n        // Double Spend Attack checkpoint\n        if (assets[_symbol].wallets[_senderId].allowance[_spenderId] != 0 && _value != 0) {\n            return _error(CHRONOBANK_PLATFORM_INVALID_INVOCATION);\n        }\n\n        assets[_symbol].wallets[_senderId].allowance[_spenderId] = _value;\n\n        // Internal Out Of Gas/Throw: revert this transaction too;\n        // Call Stack Depth Limit reached: revert this transaction too;\n        // Recursive Call: safe, all changes already made.\n        ChronoBankPlatformEmitter(eventsHistory).emitApprove(_address(_senderId), _address(_spenderId), _symbol, _value);\n        if (proxies[_symbol] != 0x0) {\n            // Internal Out Of Gas/Throw: revert this transaction too;\n            // Call Stack Depth Limit reached: n/a after HF 4;\n            // Recursive Call: safe, all changes already made.\n            ProxyEventsEmitter(proxies[_symbol]).emitApprove(_address(_senderId), _address(_spenderId), _value);\n        }\n        return OK;\n    }\n\n    /// @dev Sets asset spending allowance for a specified spender.\n    ///\n    /// Can only be called by asset proxy.\n    ///\n    /// @param _spender holder address to set allowance to.\n    /// @param _value amount to allow.\n    /// @param _symbol asset symbol.\n    /// @param _sender approve initiator address.\n    ///\n    /// @return success.\n    function proxyApprove(\n        address _spender,\n        uint _value,\n        bytes32 _symbol,\n        address _sender\n    )\n    onlyProxy(_symbol)\n    public\n    returns (uint)\n    {\n        return _approve(_createHolderId(_spender), _value, _symbol, _createHolderId(_sender));\n    }\n\n    /// @notice Performs allowance transfer of asset balance between holders wallets.\n    ///\n    /// @dev Can only be called by asset proxy.\n    ///\n    /// @param _from holder address to take from.\n    /// @param _to holder address to give to.\n    /// @param _value amount to transfer.\n    /// @param _symbol asset symbol.\n    /// @param _reference transfer comment to be included in a Transfer event.\n    /// @param _sender allowance transfer initiator address.\n    ///\n    /// @return success.\n    function proxyTransferFromWithReference(\n        address _from,\n        address _to,\n        uint _value,\n        bytes32 _symbol,\n        string _reference,\n        address _sender\n    )\n    onlyProxy(_symbol)\n    public\n    returns (uint)\n    {\n        return _transfer(getHolderId(_from), _createHolderId(_to), _value, _symbol, _reference, getHolderId(_sender));\n    }\n\n    /// @dev Returns asset allowance from one holder to another.\n    /// @param _from holder that allowed spending.\n    /// @param _spender holder that is allowed to spend.\n    /// @param _symbol asset symbol.\n    /// @return holder to spender allowance.\n    function allowance(address _from, address _spender, bytes32 _symbol) public view returns (uint) {\n        return _allowance(getHolderId(_from), getHolderId(_spender), _symbol);\n    }\n\n    /// @dev Returns asset allowance from one holder to another.\n    /// @param _fromId holder id that allowed spending.\n    /// @param _toId holder id that is allowed to spend.\n    /// @param _symbol asset symbol.\n    /// @return holder to spender allowance.\n    function _allowance(uint _fromId, uint _toId, bytes32 _symbol) internal view returns (uint) {\n        return assets[_symbol].wallets[_fromId].allowance[_toId];\n    }\n}\n",
  "sourcePath": "/Users/ahiatsevich/Development/chronobank/LXsidechain-sc/contracts/platform/ChronoBankPlatform.sol",
  "compiler": {
    "name": "solc",
    "version": "0.4.23+commit.124ca40d.Emscripten.clang"
  },
  "schemaVersion": "2.0.0",
  "updatedAt": "2018-05-29T13:51:30.395Z"
}