{
  "contractName": "ChronoBankAssetWithFee",
  "abi": [
    {
      "constant": false,
      "inputs": [
        {
          "name": "_proxy",
          "type": "address"
        }
      ],
      "name": "init",
      "outputs": [
        {
          "name": "",
          "type": "bool"
        }
      ],
      "payable": false,
      "stateMutability": "nonpayable",
      "type": "function"
    },
    {
      "constant": false,
      "inputs": [
        {
          "name": "_symbol",
          "type": "bytes32"
        }
      ],
      "name": "emitUnpaused",
      "outputs": [],
      "payable": false,
      "stateMutability": "nonpayable",
      "type": "function"
    },
    {
      "constant": false,
      "inputs": [
        {
          "name": "_symbol",
          "type": "bytes32"
        },
        {
          "name": "_restricted",
          "type": "address"
        }
      ],
      "name": "emitRestricted",
      "outputs": [],
      "payable": false,
      "stateMutability": "nonpayable",
      "type": "function"
    },
    {
      "constant": false,
      "inputs": [],
      "name": "unpause",
      "outputs": [
        {
          "name": "",
          "type": "bool"
        }
      ],
      "payable": false,
      "stateMutability": "nonpayable",
      "type": "function"
    },
    {
      "constant": true,
      "inputs": [],
      "name": "feeAddress",
      "outputs": [
        {
          "name": "",
          "type": "address"
        }
      ],
      "payable": false,
      "stateMutability": "view",
      "type": "function"
    },
    {
      "constant": true,
      "inputs": [],
      "name": "paused",
      "outputs": [
        {
          "name": "",
          "type": "bool"
        }
      ],
      "payable": false,
      "stateMutability": "view",
      "type": "function"
    },
    {
      "constant": false,
      "inputs": [
        {
          "name": "_to",
          "type": "address"
        },
        {
          "name": "_value",
          "type": "uint256"
        },
        {
          "name": "_reference",
          "type": "string"
        },
        {
          "name": "_sender",
          "type": "address"
        }
      ],
      "name": "__transferWithReference",
      "outputs": [
        {
          "name": "",
          "type": "bool"
        }
      ],
      "payable": false,
      "stateMutability": "nonpayable",
      "type": "function"
    },
    {
      "constant": false,
      "inputs": [
        {
          "name": "_spender",
          "type": "address"
        },
        {
          "name": "_value",
          "type": "uint256"
        },
        {
          "name": "_sender",
          "type": "address"
        }
      ],
      "name": "__approve",
      "outputs": [
        {
          "name": "",
          "type": "bool"
        }
      ],
      "payable": false,
      "stateMutability": "nonpayable",
      "type": "function"
    },
    {
      "constant": false,
      "inputs": [
        {
          "name": "_symbol",
          "type": "bytes32"
        }
      ],
      "name": "emitPaused",
      "outputs": [],
      "payable": false,
      "stateMutability": "nonpayable",
      "type": "function"
    },
    {
      "constant": true,
      "inputs": [],
      "name": "feePercent",
      "outputs": [
        {
          "name": "",
          "type": "uint32"
        }
      ],
      "payable": false,
      "stateMutability": "view",
      "type": "function"
    },
    {
      "constant": false,
      "inputs": [],
      "name": "pause",
      "outputs": [
        {
          "name": "",
          "type": "bool"
        }
      ],
      "payable": false,
      "stateMutability": "nonpayable",
      "type": "function"
    },
    {
      "constant": false,
      "inputs": [
        {
          "name": "_symbol",
          "type": "bytes32"
        },
        {
          "name": "_unrestricted",
          "type": "address"
        }
      ],
      "name": "emitUnrestricted",
      "outputs": [],
      "payable": false,
      "stateMutability": "nonpayable",
      "type": "function"
    },
    {
      "constant": false,
      "inputs": [
        {
          "name": "_restricted",
          "type": "address[]"
        }
      ],
      "name": "restrict",
      "outputs": [
        {
          "name": "",
          "type": "bool"
        }
      ],
      "payable": false,
      "stateMutability": "nonpayable",
      "type": "function"
    },
    {
      "constant": true,
      "inputs": [],
      "name": "contractOwner",
      "outputs": [
        {
          "name": "",
          "type": "address"
        }
      ],
      "payable": false,
      "stateMutability": "view",
      "type": "function"
    },
    {
      "constant": true,
      "inputs": [],
      "name": "proxy",
      "outputs": [
        {
          "name": "",
          "type": "address"
        }
      ],
      "payable": false,
      "stateMutability": "view",
      "type": "function"
    },
    {
      "constant": false,
      "inputs": [
        {
          "name": "_from",
          "type": "address"
        },
        {
          "name": "_to",
          "type": "address"
        },
        {
          "name": "_value",
          "type": "uint256"
        },
        {
          "name": "_reference",
          "type": "string"
        },
        {
          "name": "_sender",
          "type": "address"
        }
      ],
      "name": "__transferFromWithReference",
      "outputs": [
        {
          "name": "",
          "type": "bool"
        }
      ],
      "payable": false,
      "stateMutability": "nonpayable",
      "type": "function"
    },
    {
      "constant": false,
      "inputs": [
        {
          "name": "_unrestricted",
          "type": "address[]"
        }
      ],
      "name": "unrestrict",
      "outputs": [
        {
          "name": "",
          "type": "bool"
        }
      ],
      "payable": false,
      "stateMutability": "nonpayable",
      "type": "function"
    },
    {
      "constant": true,
      "inputs": [],
      "name": "eventsHistory",
      "outputs": [
        {
          "name": "",
          "type": "address"
        }
      ],
      "payable": false,
      "stateMutability": "view",
      "type": "function"
    },
    {
      "constant": false,
      "inputs": [
        {
          "name": "",
          "type": "bytes"
        },
        {
          "name": "",
          "type": "address"
        }
      ],
      "name": "__process",
      "outputs": [],
      "payable": true,
      "stateMutability": "payable",
      "type": "function"
    },
    {
      "constant": false,
      "inputs": [
        {
          "name": "newOwner",
          "type": "address"
        }
      ],
      "name": "transferOwnership",
      "outputs": [],
      "payable": false,
      "stateMutability": "nonpayable",
      "type": "function"
    },
    {
      "constant": true,
      "inputs": [
        {
          "name": "",
          "type": "address"
        }
      ],
      "name": "blacklist",
      "outputs": [
        {
          "name": "",
          "type": "bool"
        }
      ],
      "payable": false,
      "stateMutability": "view",
      "type": "function"
    },
    {
      "anonymous": false,
      "inputs": [
        {
          "indexed": true,
          "name": "previousOwner",
          "type": "address"
        },
        {
          "indexed": true,
          "name": "newOwner",
          "type": "address"
        }
      ],
      "name": "OwnershipTransferred",
      "type": "event"
    },
    {
      "anonymous": false,
      "inputs": [
        {
          "indexed": true,
          "name": "symbol",
          "type": "bytes32"
        },
        {
          "indexed": false,
          "name": "restricted",
          "type": "address"
        }
      ],
      "name": "Restricted",
      "type": "event"
    },
    {
      "anonymous": false,
      "inputs": [
        {
          "indexed": true,
          "name": "symbol",
          "type": "bytes32"
        },
        {
          "indexed": false,
          "name": "unrestricted",
          "type": "address"
        }
      ],
      "name": "Unrestricted",
      "type": "event"
    },
    {
      "anonymous": false,
      "inputs": [
        {
          "indexed": true,
          "name": "symbol",
          "type": "bytes32"
        }
      ],
      "name": "Paused",
      "type": "event"
    },
    {
      "anonymous": false,
      "inputs": [
        {
          "indexed": true,
          "name": "symbol",
          "type": "bytes32"
        }
      ],
      "name": "Unpaused",
      "type": "event"
    },
    {
      "constant": false,
      "inputs": [
        {
          "name": "_feeAddress",
          "type": "address"
        },
        {
          "name": "_feePercent",
          "type": "uint32"
        }
      ],
      "name": "setupFee",
      "outputs": [
        {
          "name": "",
          "type": "bool"
        }
      ],
      "payable": false,
      "stateMutability": "nonpayable",
      "type": "function"
    },
    {
      "constant": false,
      "inputs": [
        {
          "name": "_feeAddress",
          "type": "address"
        }
      ],
      "name": "setFeeAddress",
      "outputs": [
        {
          "name": "",
          "type": "bool"
        }
      ],
      "payable": false,
      "stateMutability": "nonpayable",
      "type": "function"
    },
    {
      "constant": false,
      "inputs": [
        {
          "name": "_feePercent",
          "type": "uint32"
        }
      ],
      "name": "setFee",
      "outputs": [],
      "payable": false,
      "stateMutability": "nonpayable",
      "type": "function"
    },
    {
      "constant": true,
      "inputs": [
        {
          "name": "_value",
          "type": "uint256"
        }
      ],
      "name": "calculateFee",
      "outputs": [
        {
          "name": "",
          "type": "uint256"
        }
      ],
      "payable": false,
      "stateMutability": "view",
      "type": "function"
    }
  ],
  "bytecode": "0x608060405260028054600160a860020a03191661010033600160a060020a031602179055611ae1806100326000396000f30060806040526004361061012f5763ffffffff60e060020a60003504166319ab453c81146101345780631ab971ab1461016957806322ccf67814610189578063339d8b45146101a15780633f4ba83a146101c557806341275358146101da5780635c975abb1461020b5780636a630ee7146102205780637b7054c8146102945780637df5fd35146102bf5780637fd6f15c146102d75780638456cb59146103055780638705fcd41461031a5780638c8f48801461033b57806399a5d7471461035f578063ae8800fa14610389578063be57771a146103b3578063ce606ee0146103d3578063ec556889146103e8578063ec698a28146103fd578063ee47af0014610477578063f07629f814610497578063f2d6e0ab146104ac578063f2fde38b14610503578063f9f92be414610524575b600080fd5b34801561014057600080fd5b50610155600160a060020a0360043516610545565b604080519115158252519081900360200190f35b34801561017557600080fd5b5061018763ffffffff60043516610590565b005b34801561019557600080fd5b506101876004356105f8565b3480156101ad57600080fd5b50610187600435600160a060020a0360243516610626565b3480156101d157600080fd5b50610155610669565b3480156101e657600080fd5b506101ef610815565b60408051600160a060020a039092168252519081900360200190f35b34801561021757600080fd5b50610155610824565b34801561022c57600080fd5b50604080516020600460443581810135601f8101849004840285018401909552848452610155948235600160a060020a031694602480359536959460649492019190819084018382808284375094975050509235600160a060020a0316935061082d92505050565b3480156102a057600080fd5b50610155600160a060020a03600435811690602435906044351661085c565b3480156102cb57600080fd5b50610187600435610889565b3480156102e357600080fd5b506102ec6108b7565b6040805163ffffffff9092168252519081900360200190f35b34801561031157600080fd5b506101556108db565b34801561032657600080fd5b50610155600160a060020a0360043516610a81565b34801561034757600080fd5b50610187600435600160a060020a0360243516610af4565b34801561036b57600080fd5b50610377600435610b37565b60408051918252519081900360200190f35b34801561039557600080fd5b50610155600160a060020a036004351663ffffffff60243516610b81565b3480156103bf57600080fd5b506101556004803560248101910135610bb6565b3480156103df57600080fd5b506101ef610dac565b3480156103f457600080fd5b506101ef610dc0565b34801561040957600080fd5b50604080516020601f60643560048181013592830184900484028501840190955281845261015594600160a060020a03813581169560248035909216956044359536956084940191819084018382808284375094975050509235600160a060020a03169350610dcf92505050565b34801561048357600080fd5b506101556004803560248101910135610e00565b3480156104a357600080fd5b506101ef610fe4565b6040805160206004803580820135601f810184900484028501840190955284845261018794369492936024939284019190819084018382808284375094975050509235600160a060020a0316935061012f92505050565b34801561050f57600080fd5b50610187600160a060020a0360043516611181565b34801561053057600080fd5b50610155600160a060020a036004351661122a565b60008054600160a060020a03161561055f5750600061058b565b506000805473ffffffffffffffffffffffffffffffffffffffff1916600160a060020a03831617905560015b919050565b60025433600160a060020a0390811661010090920416146105b057600080fd5b6003805463ffffffff909216740100000000000000000000000000000000000000000277ffffffff000000000000000000000000000000000000000019909216919091179055565b60405181907fd05bfc2250abb0f8fd265a54c53a24359c5484af63cad2e4ce87c78ab751395a90600090a250565b60408051600160a060020a0383168152905183917fd097e4d83d4e07fdd04ead2330f40bccf48350dd3f12caf1e36ef45049494c17919081900360200190a25050565b60008054604080517f49752baf00000000000000000000000000000000000000000000000000000000815290518392600160a060020a0316916349752baf91600480830192602092919082900301818787803b1580156106c857600080fd5b505af11580156106dc573d6000803e3d6000fd5b505050506040513d60208110156106f257600080fd5b5051600080546040805160e060020a63cb4e75bb0281529051939450600160a060020a038086169463ccc11f119433949092169263cb4e75bb9260048083019360209390929083900390910190829087803b15801561075057600080fd5b505af1158015610764573d6000803e3d6000fd5b505050506040513d602081101561077a57600080fd5b50516040805160e060020a63ffffffff8616028152600160a060020a03909316600484015260248301919091525160448083019260209291908290030181600087803b1580156107c957600080fd5b505af11580156107dd573d6000803e3d6000fd5b505050506040513d60208110156107f357600080fd5b505115610811576002805460ff1916905561080c61123f565b600191505b5090565b600354600160a060020a031681565b60025460ff1681565b6000805433600160a060020a03908116911614156108545761085185858585611329565b90505b949350505050565b6000805433600160a060020a03908116911614156108825761087f84848461134c565b90505b9392505050565b60405181907f0cb09dc71d57eeec2046f6854976717e4874a3cf2d6ddeddde337e5b6de6ba3190600090a250565b60035474010000000000000000000000000000000000000000900463ffffffff1681565b60008054604080517f49752baf00000000000000000000000000000000000000000000000000000000815290518392600160a060020a0316916349752baf91600480830192602092919082900301818787803b15801561093a57600080fd5b505af115801561094e573d6000803e3d6000fd5b505050506040513d602081101561096457600080fd5b5051600080546040805160e060020a63cb4e75bb0281529051939450600160a060020a038086169463ccc11f119433949092169263cb4e75bb9260048083019360209390929083900390910190829087803b1580156109c257600080fd5b505af11580156109d6573d6000803e3d6000fd5b505050506040513d60208110156109ec57600080fd5b50516040805160e060020a63ffffffff8616028152600160a060020a03909316600484015260248301919091525160448083019260209291908290030181600087803b158015610a3b57600080fd5b505af1158015610a4f573d6000803e3d6000fd5b505050506040513d6020811015610a6557600080fd5b505115610811576002805460ff1916600117905561080c611447565b60025460009033600160a060020a039081166101009092041614610aa457600080fd5b600354600160a060020a0383811691161415610ac25750600061058b565b5060038054600160a060020a03831673ffffffffffffffffffffffffffffffffffffffff199091161790556001919050565b60408051600160a060020a0383168152905183917f791b5fd6715e4832fb6052f31b1eba08447cceeced1bf87aeb13c242b7cef492919081900360200190a25050565b60035460009074010000000000000000000000000000000000000000900463ffffffff168202612710810615610b6e576001610b71565b60005b60ff166127108204019392505050565b60025460009033600160a060020a039081166101009092041614610ba457600080fd5b610bad82610590565b61088283610a81565b6000806000806000809054906101000a9004600160a060020a0316600160a060020a03166349752baf6040518163ffffffff1660e060020a028152600401602060405180830381600087803b158015610c0e57600080fd5b505af1158015610c22573d6000803e3d6000fd5b505050506040513d6020811015610c3857600080fd5b5051600080546040805160e060020a63cb4e75bb0281529051939450600160a060020a038086169463ccc11f119433949092169263cb4e75bb9260048083019360209390929083900390910190829087803b158015610c9657600080fd5b505af1158015610caa573d6000803e3d6000fd5b505050506040513d6020811015610cc057600080fd5b50516040805160e060020a63ffffffff8616028152600160a060020a03909316600484015260248301919091525160448083019260209291908290030181600087803b158015610d0f57600080fd5b505af1158015610d23573d6000803e3d6000fd5b505050506040513d6020811015610d3957600080fd5b505115610da357600092505b84831015610d9e57858584818110610d5957fe5b60209081029290920135600160a060020a0316600081815260019384905260409020805460ff1916909317909255509150610d93826114af565b600190920191610d45565b600193505b50505092915050565b6002546101009004600160a060020a031681565b600054600160a060020a031681565b6000805433600160a060020a0390811691161415610df757610df486868686866115a9565b90505b95945050505050565b6000806000806000809054906101000a9004600160a060020a0316600160a060020a03166349752baf6040518163ffffffff1660e060020a028152600401602060405180830381600087803b158015610e5857600080fd5b505af1158015610e6c573d6000803e3d6000fd5b505050506040513d6020811015610e8257600080fd5b5051600080546040805160e060020a63cb4e75bb0281529051939450600160a060020a038086169463ccc11f119433949092169263cb4e75bb9260048083019360209390929083900390910190829087803b158015610ee057600080fd5b505af1158015610ef4573d6000803e3d6000fd5b505050506040513d6020811015610f0a57600080fd5b50516040805160e060020a63ffffffff8616028152600160a060020a03909316600484015260248301919091525160448083019260209291908290030181600087803b158015610f5957600080fd5b505af1158015610f6d573d6000803e3d6000fd5b505050506040513d6020811015610f8357600080fd5b505115610da357600092505b84831015610d9e57858584818110610fa357fe5b60209081029290920135600160a060020a0316600081815260019093526040909220805460ff19169055509150610fd9826115cd565b600190920191610f8f565b60008054604080517f49752baf00000000000000000000000000000000000000000000000000000000815290518392600160a060020a0316916349752baf91600480830192602092919082900301818787803b15801561104357600080fd5b505af1158015611057573d6000803e3d6000fd5b505050506040513d602081101561106d57600080fd5b5051604080517ff07629f80000000000000000000000000000000000000000000000000000000081529051919250600160a060020a03831691829163f07629f89160048083019260209291908290030181600087803b1580156110cf57600080fd5b505af11580156110e3573d6000803e3d6000fd5b505050506040513d60208110156110f957600080fd5b5051600160a060020a03161415611110573061117b565b80600160a060020a031663f07629f86040518163ffffffff1660e060020a028152600401602060405180830381600087803b15801561114e57600080fd5b505af1158015611162573d6000803e3d6000fd5b505050506040513d602081101561117857600080fd5b50515b91505090565b60025433600160a060020a0390811661010090920416146111a157600080fd5b600160a060020a03811615156111b657600080fd5b600254604051600160a060020a0380841692610100900416907f8be0079c531659141344cd1fd0a4f28419497f9722a3daafe3b4186f6b6457e090600090a360028054600160a060020a039092166101000274ffffffffffffffffffffffffffffffffffffffff0019909216919091179055565b60016020526000908152604090205460ff1681565b611247610fe4565b600160a060020a03166322ccf6786000809054906101000a9004600160a060020a0316600160a060020a031663cb4e75bb6040518163ffffffff1660e060020a028152600401602060405180830381600087803b1580156112a757600080fd5b505af11580156112bb573d6000803e3d6000fd5b505050506040513d60208110156112d157600080fd5b50516040805160e060020a63ffffffff8516028152600481019290925251602480830192600092919082900301818387803b15801561130f57600080fd5b505af1158015611323573d6000803e3d6000fd5b50505050565b600061085185858585602060405190810160405280600015151515815250611635565b600160a060020a038316600090815260016020526040812054849060ff16151561143f57600160a060020a038316600090815260016020526040902054839060ff16151561143d5760008054604080517f7b7054c8000000000000000000000000000000000000000000000000000000008152600160a060020a038a81166004830152602482018a9052888116604483015291519190921692637b7054c892606480820193602093909283900390910190829087803b15801561140e57600080fd5b505af1158015611422573d6000803e3d6000fd5b505050506040513d602081101561143857600080fd5b505192505b505b509392505050565b61144f610fe4565b600160a060020a0316637df5fd356000809054906101000a9004600160a060020a0316600160a060020a031663cb4e75bb6040518163ffffffff1660e060020a028152600401602060405180830381600087803b1580156112a757600080fd5b6114b7610fe4565b600160a060020a031663339d8b456000809054906101000a9004600160a060020a0316600160a060020a031663cb4e75bb6040518163ffffffff1660e060020a028152600401602060405180830381600087803b15801561151757600080fd5b505af115801561152b573d6000803e3d6000fd5b505050506040513d602081101561154157600080fd5b50516040805160e060020a63ffffffff85160281526004810192909252600160a060020a038516602483015251604480830192600092919082900301818387803b15801561158e57600080fd5b505af11580156115a2573d6000803e3d6000fd5b5050505050565b6000610df4868686868660206040519081016040528060001515151581525061168a565b6115d5610fe4565b600160a060020a0316638c8f48806000809054906101000a9004600160a060020a0316600160a060020a031663cb4e75bb6040518163ffffffff1660e060020a028152600401602060405180830381600087803b15801561151757600080fd5b6000828584846116468484846116e1565b1561167d576116578a8a8a8a611750565b15158087528151909550158015611673575061167384846118cb565b1561167d57600080fd5b5050505095945050505050565b60008685848461169b8484846116e1565b156116d3576116ad8b8b8b8b8b611905565b151580875281519095501580156116c957506116c984846118cb565b156116d357600080fd5b505050509695505050505050565b60006116ed84846118cb565b15156116fb57506001610882565b60035461087f908590600160a060020a031661171686610b37565b60408051808201909152600f81527f5472616e73616374696f6e206665650000000000000000000000000000000000602082015286611905565b60025460009060ff16151561085457600160a060020a038516600090815260016020526040902054859060ff1615156118c257600160a060020a038316600090815260016020526040902054839060ff1615156118c057600080546040517f6a630ee7000000000000000000000000000000000000000000000000000000008152600160a060020a038a811660048301908152602483018b905288821660648401526080604484019081528a5160848501528a519290941694636a630ee7948d948d948d948d9490939260a4019160208701918190849084905b8381101561184257818101518382015260200161182a565b50505050905090810190601f16801561186f5780820380516001836020036101000a031916815260200191505b5095505050505050602060405180830381600087803b15801561189157600080fd5b505af11580156118a5573d6000803e3d6000fd5b505050506040513d60208110156118bb57600080fd5b505192505b505b50949350505050565b600354600090600160a060020a0316158015906118f65750600354600160a060020a03848116911614155b80156108825750501515919050565b60025460009060ff161515610df757600160a060020a038616600090815260016020526040902054869060ff161515611aab57600160a060020a038616600090815260016020526040902054869060ff161515611aa957600160a060020a038416600090815260016020526040902054849060ff161515611aa757600080546040517fec698a28000000000000000000000000000000000000000000000000000000008152600160a060020a038c8116600483019081528c82166024840152604483018c9052898216608484015260a0606484019081528b5160a48501528b51929094169463ec698a28948f948f948f948f948f949193919260c49092019160208701918190849084905b83811015611a28578181015183820152602001611a10565b50505050905090810190601f168015611a555780820380516001836020036101000a031916815260200191505b509650505050505050602060405180830381600087803b158015611a7857600080fd5b505af1158015611a8c573d6000803e3d6000fd5b505050506040513d6020811015611aa257600080fd5b505193505b505b505b50959450505050505600a165627a7a72305820e9ad8aa725d775d75a96f26c460a9c2b6a44826259ae74cc5145b29b7e7b10710029",
  "source": "/**\n * Copyright 20172018, LaborX PTY\n * Licensed under the AGPL Version 3 license.\n */\n\npragma solidity ^0.4.21;\n\n\nimport \"./ChronoBankAsset.sol\";\nimport \"../common/Owned.sol\";\n\n\n/// @title ChronoBank Asset With Fee implementation contract.\n///\n/// Asset implementation contract that takes percent fee on top of every transfer.\n/// Fee amount is always rounded up.\n///\n/// Note: all the non constant functions return false instead of throwing in case if state change\n/// didn't happen yet.\ncontract ChronoBankAssetWithFee is ChronoBankAsset, Owned {\n    \n    /// @dev Fee collecting address, immutable.\n    address public feeAddress;\n\n    /// @dev Fee percent, immutable. 1 is 0.01%, 10000 is 100%.\n    uint32 public feePercent;\n\n    /// @dev Allows the call if fee was successfully taken, throws if the call failed in the end.\n    modifier takeFee(address _from, uint _fromValue, address _sender, bool[1] memory _success) {\n        if (_transferFee(_from, _fromValue, _sender)) {\n            _;\n            if (!_success[0] && _subjectToFees(_from, _fromValue)) {\n                revert();\n            }\n        }\n    }\n\n    /// @notice Sets fee collecting address and fee percent.\n    /// @param _feeAddress fee collecting address.\n    /// @param _feePercent fee percent, 1 is 0.01%, 10000 is 100%.\n    /// @return success.\n    function setupFee(address _feeAddress, uint32 _feePercent) onlyContractOwner public returns (bool) {\n        setFee(_feePercent);\n        return setFeeAddress(_feeAddress);\n    }\n\n    /// @notice Sets fee address separate from setting fee percent value. Can be set only once\n    /// @param _feeAddress fee collecting address\n    /// @return result of the operation\n    function setFeeAddress(address _feeAddress) onlyContractOwner public returns (bool) {\n        if (feeAddress == _feeAddress) {\n            return false;\n        }\n\n        feeAddress = _feeAddress;\n        return true;\n    }\n\n    /// @notice Sets fee percent value. Can be changed multiple times\n    /// @param _feePercent fee percent, 1 is 0.01%, 10000 is 100%.\n    function setFee(uint32 _feePercent) onlyContractOwner public {\n        feePercent = _feePercent;\n    }\n\n    /// @notice Passes execution into modified function with function-modifier partially shared scope.\n    /// @return success.\n    function _transferWithReference(\n        address _to, \n        uint _value, \n        string _reference, \n        address _sender\n    ) \n    internal \n    returns (bool) \n    {\n        return _transferWithReference(_to, _value, _reference, _sender, [false]);\n    }\n\n    /// @dev Transfers asset balance from the specified sender to specified receiver adding specified comment.\n    ///\n    /// Will be executed only in case of successful fee payment from the sender.\n    ///\n    /// @param _to holder address to give to.\n    /// @param _value amount to transfer.\n    /// @param _reference transfer comment to be included in a platform's Transfer event.\n    /// @param _sender initial caller.\n    /// @param _success function-modifier shared scope, so that modifier knows the result of a call.\n    ///\n    /// @return success.\n    function _transferWithReference(\n        address _to, \n        uint _value, \n        string _reference, \n        address _sender, \n        bool[1] memory _success\n    ) \n    takeFee(_sender, _value, _sender, _success) \n    internal \n    returns (bool) \n    {\n        _success[0] = super._transferWithReference(_to, _value, _reference, _sender);\n        return _success[0];\n    }\n\n    /// @dev Passes execution into modified function with function-modifier partially shared scope.\n    /// @return success.\n    function _transferFromWithReference(\n        address _from, \n        address _to, \n        uint _value, \n        string _reference, \n        address _sender   \n    ) \n    internal \n    returns (bool) \n    {\n        return _transferFromWithReference(_from, _to, _value, _reference, _sender, [false]);\n    }\n\n    /// @dev Performs allowance transfer of asset balance from the specified payer to specified receiver adding specified comment.\n    ///\n    /// Will be executed only in case of successful fee payment from the payer.\n    ///\n    /// @param _from holder address to take from.\n    /// @param _to holder address to give to.\n    /// @param _value amount to transfer.\n    /// @param _reference transfer comment to be included in a platform's Transfer event.\n    /// @param _sender initial caller.\n    /// @param _success function-modifier shared scope, so that modifier knows the result of a call.\n    ///\n    /// @return success.\n    function _transferFromWithReference(\n        address _from, \n        address _to, \n        uint _value, \n        string _reference, \n        address _sender, \n        bool[1] memory _success\n    ) \n    takeFee(_from, _value, _sender, _success) \n    internal \n    returns (bool) \n    {\n        _success[0] = super._transferFromWithReference(_from, _to, _value, _reference, _sender);\n        return _success[0];\n    }\n\n    /// @dev Transfers fee from the specified payer to fee collecting address.\n    /// Will be executed only if payer and amount are subjects to fees.\n    /// @param _feeFrom payer to take fee from.\n    /// @param _fromValue amount to apply fee percent.\n    /// @param _sender initial caller.\n    /// @return success.\n    function _transferFee(address _feeFrom, uint _fromValue, address _sender) internal returns (bool) {\n        if (!_subjectToFees(_feeFrom, _fromValue)) {\n            return true;\n        }\n        \n        return super._transferFromWithReference(_feeFrom, feeAddress, calculateFee(_fromValue), \"Transaction fee\", _sender);\n    }\n\n    /// @dev Check if specified payer and amount are subjects to fees.\n    /// Fee is not taken if:\n    ///  - Fee collecting address is not set;\n    ///  - Payer is fee collecting address itself;\n    ///  - Amount equals 0;\n    /// @return true if fee needs to be taken.\n    function _subjectToFees(address _feeFrom, uint _fromValue) internal view returns (bool) {\n        return feeAddress != 0x0\n            && feeAddress != _feeFrom\n            && _fromValue != 0;\n    }\n\n    /// @notice Return fee that needs to be taken based on specified amount.\n    /// Fee amount is always rounded up.\n    /// @return fee amount.\n    function calculateFee(uint _value) public view returns (uint) {\n        uint feeRaw = _value * feePercent;\n        return (feeRaw / 10000) + (feeRaw % 10000 == 0 ? 0 : 1);\n    }\n}\n",
  "sourcePath": "/Users/ahiatsevich/Development/chronobank/LXsidechain-sc/contracts/platform/ChronoBankAssetWithFee.sol",
  "compiler": {
    "name": "solc",
    "version": "0.4.23+commit.124ca40d.Emscripten.clang"
  },
  "schemaVersion": "2.0.0",
  "updatedAt": "2018-05-29T13:47:05.560Z"
}