{
  "contractName": "ChronoBankAssetWithFeeProxy",
  "abi": [
    {
      "constant": true,
      "inputs": [],
      "name": "name",
      "outputs": [
        {
          "name": "",
          "type": "string"
        }
      ],
      "payable": false,
      "stateMutability": "view",
      "type": "function"
    },
    {
      "constant": false,
      "inputs": [
        {
          "name": "_spender",
          "type": "address"
        },
        {
          "name": "_value",
          "type": "uint256"
        }
      ],
      "name": "approve",
      "outputs": [
        {
          "name": "",
          "type": "bool"
        }
      ],
      "payable": false,
      "stateMutability": "nonpayable",
      "type": "function"
    },
    {
      "constant": false,
      "inputs": [],
      "name": "commitUpgrade",
      "outputs": [
        {
          "name": "",
          "type": "bool"
        }
      ],
      "payable": false,
      "stateMutability": "nonpayable",
      "type": "function"
    },
    {
      "constant": true,
      "inputs": [],
      "name": "getLatestVersion",
      "outputs": [
        {
          "name": "",
          "type": "address"
        }
      ],
      "payable": false,
      "stateMutability": "view",
      "type": "function"
    },
    {
      "constant": true,
      "inputs": [],
      "name": "totalSupply",
      "outputs": [
        {
          "name": "",
          "type": "uint256"
        }
      ],
      "payable": false,
      "stateMutability": "view",
      "type": "function"
    },
    {
      "constant": false,
      "inputs": [
        {
          "name": "_from",
          "type": "address"
        },
        {
          "name": "_spender",
          "type": "address"
        },
        {
          "name": "_value",
          "type": "uint256"
        }
      ],
      "name": "emitApprove",
      "outputs": [],
      "payable": false,
      "stateMutability": "nonpayable",
      "type": "function"
    },
    {
      "constant": false,
      "inputs": [
        {
          "name": "_from",
          "type": "address"
        },
        {
          "name": "_to",
          "type": "address"
        },
        {
          "name": "_value",
          "type": "uint256"
        }
      ],
      "name": "transferFrom",
      "outputs": [
        {
          "name": "",
          "type": "bool"
        }
      ],
      "payable": false,
      "stateMutability": "nonpayable",
      "type": "function"
    },
    {
      "constant": false,
      "inputs": [
        {
          "name": "_from",
          "type": "address"
        },
        {
          "name": "_to",
          "type": "address"
        },
        {
          "name": "_value",
          "type": "uint256"
        }
      ],
      "name": "emitTransfer",
      "outputs": [],
      "payable": false,
      "stateMutability": "nonpayable",
      "type": "function"
    },
    {
      "constant": true,
      "inputs": [],
      "name": "decimals",
      "outputs": [
        {
          "name": "",
          "type": "uint8"
        }
      ],
      "payable": false,
      "stateMutability": "view",
      "type": "function"
    },
    {
      "constant": true,
      "inputs": [],
      "name": "chronoBankPlatform",
      "outputs": [
        {
          "name": "",
          "type": "address"
        }
      ],
      "payable": false,
      "stateMutability": "view",
      "type": "function"
    },
    {
      "constant": true,
      "inputs": [],
      "name": "getPendingVersionTimestamp",
      "outputs": [
        {
          "name": "",
          "type": "uint256"
        }
      ],
      "payable": false,
      "stateMutability": "view",
      "type": "function"
    },
    {
      "constant": false,
      "inputs": [],
      "name": "purgeUpgrade",
      "outputs": [
        {
          "name": "",
          "type": "bool"
        }
      ],
      "payable": false,
      "stateMutability": "nonpayable",
      "type": "function"
    },
    {
      "constant": false,
      "inputs": [],
      "name": "optIn",
      "outputs": [
        {
          "name": "",
          "type": "bool"
        }
      ],
      "payable": false,
      "stateMutability": "nonpayable",
      "type": "function"
    },
    {
      "constant": false,
      "inputs": [
        {
          "name": "_to",
          "type": "address"
        },
        {
          "name": "_value",
          "type": "uint256"
        },
        {
          "name": "_reference",
          "type": "string"
        },
        {
          "name": "_sender",
          "type": "address"
        }
      ],
      "name": "__transferWithReference",
      "outputs": [
        {
          "name": "",
          "type": "bool"
        }
      ],
      "payable": false,
      "stateMutability": "nonpayable",
      "type": "function"
    },
    {
      "constant": true,
      "inputs": [
        {
          "name": "_owner",
          "type": "address"
        }
      ],
      "name": "balanceOf",
      "outputs": [
        {
          "name": "",
          "type": "uint256"
        }
      ],
      "payable": false,
      "stateMutability": "view",
      "type": "function"
    },
    {
      "constant": false,
      "inputs": [
        {
          "name": "_spender",
          "type": "address"
        },
        {
          "name": "_value",
          "type": "uint256"
        },
        {
          "name": "_sender",
          "type": "address"
        }
      ],
      "name": "__approve",
      "outputs": [
        {
          "name": "",
          "type": "bool"
        }
      ],
      "payable": false,
      "stateMutability": "nonpayable",
      "type": "function"
    },
    {
      "constant": true,
      "inputs": [],
      "name": "symbol",
      "outputs": [
        {
          "name": "",
          "type": "string"
        }
      ],
      "payable": false,
      "stateMutability": "view",
      "type": "function"
    },
    {
      "constant": true,
      "inputs": [],
      "name": "getPendingVersion",
      "outputs": [
        {
          "name": "",
          "type": "address"
        }
      ],
      "payable": false,
      "stateMutability": "view",
      "type": "function"
    },
    {
      "constant": false,
      "inputs": [
        {
          "name": "_to",
          "type": "address"
        },
        {
          "name": "_value",
          "type": "uint256"
        }
      ],
      "name": "transfer",
      "outputs": [
        {
          "name": "",
          "type": "bool"
        }
      ],
      "payable": false,
      "stateMutability": "nonpayable",
      "type": "function"
    },
    {
      "constant": false,
      "inputs": [
        {
          "name": "_to",
          "type": "address"
        },
        {
          "name": "_value",
          "type": "uint256"
        },
        {
          "name": "_reference",
          "type": "string"
        }
      ],
      "name": "transferWithReference",
      "outputs": [
        {
          "name": "",
          "type": "bool"
        }
      ],
      "payable": false,
      "stateMutability": "nonpayable",
      "type": "function"
    },
    {
      "constant": false,
      "inputs": [
        {
          "name": "_chronoBankPlatform",
          "type": "address"
        },
        {
          "name": "_symbol",
          "type": "string"
        },
        {
          "name": "_name",
          "type": "string"
        }
      ],
      "name": "init",
      "outputs": [
        {
          "name": "",
          "type": "bool"
        }
      ],
      "payable": false,
      "stateMutability": "nonpayable",
      "type": "function"
    },
    {
      "constant": false,
      "inputs": [
        {
          "name": "_newVersion",
          "type": "address"
        }
      ],
      "name": "proposeUpgrade",
      "outputs": [
        {
          "name": "",
          "type": "bool"
        }
      ],
      "payable": false,
      "stateMutability": "nonpayable",
      "type": "function"
    },
    {
      "constant": true,
      "inputs": [],
      "name": "smbl",
      "outputs": [
        {
          "name": "",
          "type": "bytes32"
        }
      ],
      "payable": false,
      "stateMutability": "view",
      "type": "function"
    },
    {
      "constant": true,
      "inputs": [
        {
          "name": "source",
          "type": "string"
        }
      ],
      "name": "stringToBytes32",
      "outputs": [
        {
          "name": "result",
          "type": "bytes32"
        }
      ],
      "payable": false,
      "stateMutability": "pure",
      "type": "function"
    },
    {
      "constant": false,
      "inputs": [],
      "name": "optOut",
      "outputs": [
        {
          "name": "",
          "type": "bool"
        }
      ],
      "payable": false,
      "stateMutability": "nonpayable",
      "type": "function"
    },
    {
      "constant": true,
      "inputs": [
        {
          "name": "_from",
          "type": "address"
        },
        {
          "name": "_spender",
          "type": "address"
        }
      ],
      "name": "allowance",
      "outputs": [
        {
          "name": "",
          "type": "uint256"
        }
      ],
      "payable": false,
      "stateMutability": "view",
      "type": "function"
    },
    {
      "constant": false,
      "inputs": [
        {
          "name": "_from",
          "type": "address"
        },
        {
          "name": "_to",
          "type": "address"
        },
        {
          "name": "_value",
          "type": "uint256"
        },
        {
          "name": "_reference",
          "type": "string"
        },
        {
          "name": "_sender",
          "type": "address"
        }
      ],
      "name": "__transferFromWithReference",
      "outputs": [
        {
          "name": "",
          "type": "bool"
        }
      ],
      "payable": false,
      "stateMutability": "nonpayable",
      "type": "function"
    },
    {
      "constant": true,
      "inputs": [
        {
          "name": "_sender",
          "type": "address"
        }
      ],
      "name": "getVersionFor",
      "outputs": [
        {
          "name": "",
          "type": "address"
        }
      ],
      "payable": false,
      "stateMutability": "view",
      "type": "function"
    },
    {
      "payable": true,
      "stateMutability": "payable",
      "type": "fallback"
    },
    {
      "anonymous": false,
      "inputs": [
        {
          "indexed": false,
          "name": "newVersion",
          "type": "address"
        }
      ],
      "name": "UpgradeProposal",
      "type": "event"
    },
    {
      "anonymous": false,
      "inputs": [
        {
          "indexed": true,
          "name": "from",
          "type": "address"
        },
        {
          "indexed": true,
          "name": "to",
          "type": "address"
        },
        {
          "indexed": false,
          "name": "value",
          "type": "uint256"
        }
      ],
      "name": "Transfer",
      "type": "event"
    },
    {
      "anonymous": false,
      "inputs": [
        {
          "indexed": true,
          "name": "from",
          "type": "address"
        },
        {
          "indexed": true,
          "name": "spender",
          "type": "address"
        },
        {
          "indexed": false,
          "name": "value",
          "type": "uint256"
        }
      ],
      "name": "Approval",
      "type": "event"
    }
  ],
  "bytecode": "0x608060405234801561001057600080fd5b5061174c806100206000396000f3006080604052600436106101695763ffffffff7c010000000000000000000000000000000000000000000000000000000060003504166306fdde038114610212578063095ea7b31461029c5780630ba12c83146102d45780630e6d1de9146102e957806318160ddd1461031a578063233850891461034157806323b872dd1461036d57806323de665114610397578063313ce567146103c157806349752baf146103ec5780634bfaf2e8146104015780634dfe950d146104165780635b48684e1461042b5780636a630ee71461044057806370a08231146104b45780637b7054c8146104d557806395d89b4114610500578063a883fb9014610515578063a9059cbb1461052a578063ac35caee1461054e578063b2b45df5146105b7578063c915fc931461065c578063cb4e75bb1461067d578063cfb5192814610692578063d4eec5a6146106eb578063dd62ed3e14610700578063ec698a2814610727578063fe8beb71146107a1575b6101716107c2565b604080517ff2d6e0ab00000000000000000000000000000000000000000000000000000000815233600160a060020a03818116602484015260048301938452366044840181905294169363f2d6e0ab9334936000939190819060640185858082843782019150509450505050506000604051808303818588803b1580156101f757600080fd5b505af115801561020b573d6000803e3d6000fd5b5050505050005b34801561021e57600080fd5b506102276107d3565b6040805160208082528351818301528351919283929083019185019080838360005b83811015610261578181015183820152602001610249565b50505050905090810190601f16801561028e5780820380516001836020036101000a031916815260200191505b509250505060405180910390f35b3480156102a857600080fd5b506102c0600160a060020a0360043516602435610861565b604080519115158252519081900360200190f35b3480156102e057600080fd5b506102c0610924565b3480156102f557600080fd5b506102fe610988565b60408051600160a060020a039092168252519081900360200190f35b34801561032657600080fd5b5061032f610997565b60408051918252519081900360200190f35b34801561034d57600080fd5b5061036b600160a060020a0360043581169060243516604435610a31565b005b34801561037957600080fd5b506102c0600160a060020a0360043581169060243516604435610a99565b3480156103a357600080fd5b5061036b600160a060020a0360043581169060243516604435610b74565b3480156103cd57600080fd5b506103d6610bdb565b6040805160ff9092168252519081900360200190f35b3480156103f857600080fd5b506102fe610c44565b34801561040d57600080fd5b5061032f610c53565b34801561042257600080fd5b506102c0610c59565b34801561043757600080fd5b506102c0610d35565b34801561044c57600080fd5b50604080516020600460443581810135601f81018490048402850184019095528484526102c0948235600160a060020a031694602480359536959460649492019190819084018382808284375094975050509235600160a060020a03169350610d6092505050565b3480156104c057600080fd5b5061032f600160a060020a0360043516610eb7565b3480156104e157600080fd5b506102c0600160a060020a036004358116906024359060443516610f61565b34801561050c57600080fd5b50610227611041565b34801561052157600080fd5b506102fe61109c565b34801561053657600080fd5b506102c0600160a060020a03600435166024356110ab565b34801561055a57600080fd5b50604080516020600460443581810135601f81018490048402850184019095528484526102c0948235600160a060020a03169460248035953695946064949201919081908401838280828437509497506110de9650505050505050565b3480156105c357600080fd5b5060408051602060046024803582810135601f81018590048502860185019096528585526102c0958335600160a060020a031695369560449491939091019190819084018382808284375050604080516020601f89358b018035918201839004830284018301909452808352979a9998810197919650918201945092508291508401838280828437509497506111019650505050505050565b34801561066857600080fd5b506102c0600160a060020a0360043516611176565b34801561068957600080fd5b5061032f6112e0565b34801561069e57600080fd5b506040805160206004803580820135601f810184900484028501840190955284845261032f9436949293602493928401919081908401838280828437509497506112e69650505050505050565b3480156106f757600080fd5b506102c06112ed565b34801561070c57600080fd5b5061032f600160a060020a036004358116906024351661134d565b34801561073357600080fd5b50604080516020601f6064356004818101359283018490048402850184019095528184526102c094600160a060020a03813581169560248035909216956044359536956084940191819084018382808284375094975050509235600160a060020a031693506113cb92505050565b3480156107ad57600080fd5b506102fe600160a060020a036004351661152c565b60006107cd3361152c565b90505b90565b6003805460408051602060026001851615610100026000190190941693909304601f810184900484028201840190925281815292918301828280156108595780601f1061082e57610100808354040283529160200191610859565b820191906000526020600020905b81548152906001019060200180831161083c57829003601f168201915b505050505081565b6000600160a060020a0383161561091e5761087a6107c2565b604080517f7b7054c8000000000000000000000000000000000000000000000000000000008152600160a060020a03868116600483015260248201869052338116604483015291519290911691637b7054c8916064808201926020929091908290030181600087803b1580156108ef57600080fd5b505af1158015610903573d6000803e3d6000fd5b505050506040513d602081101561091957600080fd5b505190505b92915050565b600654600090600160a060020a03161515610941575060006107d0565b426203f480600754011115610958575060006107d0565b506006805460058054600160a060020a0319908116600160a060020a038416179091551690556000600755600190565b600554600160a060020a031690565b600154600254604080517fb524abcf000000000000000000000000000000000000000000000000000000008152600481019290925251600092600160a060020a03169163b524abcf91602480830192602092919082900301818787803b158015610a0057600080fd5b505af1158015610a14573d6000803e3d6000fd5b505050506040513d6020811015610a2a57600080fd5b5051905090565b60015433600160a060020a0390811691161415610a945781600160a060020a031683600160a060020a03167f8c5be1e5ebec7d5bd14f71427d1e84f3dd0314c0f7b2291e5b200ac8c7c3b925836040518082815260200191505060405180910390a35b505050565b6000600160a060020a03831615610b6d57610ab26107c2565b604080517fec698a28000000000000000000000000000000000000000000000000000000008152600160a060020a038781166004830152868116602483015260448201869052338116608483015260a06064830152600060a48301819052925193169263ec698a289260e480840193602093929083900390910190829087803b158015610b3e57600080fd5b505af1158015610b52573d6000803e3d6000fd5b505050506040513d6020811015610b6857600080fd5b505190505b9392505050565b60015433600160a060020a0390811691161415610a945781600160a060020a031683600160a060020a03167fddf252ad1be2c89b69c2b068fc378daa952ba7f163c4a11628f55a4df523b3ef836040518082815260200191505060405180910390a3505050565b600154600254604080517fdc86e6f0000000000000000000000000000000000000000000000000000000008152600481019290925251600092600160a060020a03169163dc86e6f091602480830192602092919082900301818787803b158015610a0057600080fd5b600154600160a060020a031681565b60075490565b600154600254604080517fe96b462a000000000000000000000000000000000000000000000000000000008152600160a060020a03338116600483015260248201939093529051600093929092169163e96b462a9160448082019260209290919082900301818787803b158015610ccf57600080fd5b505af1158015610ce3573d6000803e3d6000fd5b505050506040513d6020811015610cf957600080fd5b5051156107d057600654600160a060020a03161515610d1a575060006107d0565b5060068054600160a060020a03191690556000600755600190565b600160a060020a03331660009081526008602052604090208054600160a060020a0319169055600190565b60008133600160a060020a0316610d768261152c565b600160a060020a03161415610eae57600180546002546040517f57a96dd0000000000000000000000000000000000000000000000000000000008152600160a060020a038a811660048301908152602483018b905260448301849052888216608484015260a0606484019081528a5160a48501528a5192909516946357a96dd0948d948d9491938d938d939192909160c490910190602086019080838360005b83811015610e2e578181015183820152602001610e16565b50505050905090810190601f168015610e5b5780820380516001836020036101000a031916815260200191505b509650505050505050602060405180830381600087803b158015610e7e57600080fd5b505af1158015610e92573d6000803e3d6000fd5b505050506040513d6020811015610ea857600080fd5b50511491505b50949350505050565b600154600254604080517f4d30b6be000000000000000000000000000000000000000000000000000000008152600160a060020a038581166004830152602482019390935290516000939290921691634d30b6be9160448082019260209290919082900301818787803b158015610f2d57600080fd5b505af1158015610f41573d6000803e3d6000fd5b505050506040513d6020811015610f5757600080fd5b505190505b919050565b60008133600160a060020a0316610f778261152c565b600160a060020a031614156110395760018054600254604080517f14712e2f000000000000000000000000000000000000000000000000000000008152600160a060020a038a81166004830152602482018a905260448201939093528783166064820152905191909216916314712e2f9160848083019260209291908290030181600087803b15801561100957600080fd5b505af115801561101d573d6000803e3d6000fd5b505050506040513d602081101561103357600080fd5b50511491505b509392505050565b6004805460408051602060026001851615610100026000190190941693909304601f810184900484028201840190925281815292918301828280156108595780601f1061082e57610100808354040283529160200191610859565b600654600160a060020a031690565b6000600160a060020a0383161561091e576110d78383602060405190810160405280600081525061157f565b905061091e565b6000600160a060020a03841615610b6d576110fa84848461157f565b9050610b6d565b600154600090600160a060020a03161561111d57506000610b6d565b60018054600160a060020a031916600160a060020a038616179055825161114b906004906020860190611688565b50611155836112e6565b600255815161116b906003906020850190611688565b506001949350505050565b600154600254604080517fe96b462a000000000000000000000000000000000000000000000000000000008152600160a060020a03338116600483015260248201939093529051600093929092169163e96b462a9160448082019260209290919082900301818787803b1580156111ec57600080fd5b505af1158015611200573d6000803e3d6000fd5b505050506040513d602081101561121657600080fd5b505115610f5c57600654600160a060020a03161561123657506000610f5c565b600160a060020a038216151561124e57506000610f5c565b600554600160a060020a03161515611283575060058054600160a060020a031916600160a060020a0383161790556001610f5c565b60068054600160a060020a038416600160a060020a031990911681179091554260075560408051918252517faf574319215a31df9b528258f1bdeef2b12b169dc85ff443a49373248c77493a9181900360200190a1506001919050565b60025481565b6020015190565b600160a060020a0333811660009081526008602052604081205490911615611317575060006107d0565b5060055433600160a060020a0390811660009081526008602052604090208054600160a060020a03191691909216179055600190565b600154600254604080517f1c8d5d38000000000000000000000000000000000000000000000000000000008152600160a060020a0386811660048301528581166024830152604482019390935290516000939290921691631c8d5d389160648082019260209290919082900301818787803b1580156108ef57600080fd5b60008133600160a060020a03166113e18261152c565b600160a060020a0316141561152257600180546002546040517f161ff662000000000000000000000000000000000000000000000000000000008152600160a060020a038b8116600483019081528b82166024840152604483018b90526064830184905288821660a484015260c0608484019081528a5160c48501528a51929095169463161ff662948e948e948e9492938e938e93909260e490910190602086019080838360005b838110156114a1578181015183820152602001611489565b50505050905090810190601f1680156114ce5780820380516001836020036101000a031916815260200191505b50975050505050505050602060405180830381600087803b1580156114f257600080fd5b505af1158015611506573d6000803e3d6000fd5b505050506040513d602081101561151c57600080fd5b50511491505b5095945050505050565b600160a060020a038082166000908152600860205260408120549091161561156e57600160a060020a038083166000908152600860205260409020541661091e565b5050600554600160a060020a031690565b60006115896107c2565b600160a060020a0316636a630ee7858585336040518563ffffffff167c01000000000000000000000000000000000000000000000000000000000281526004018085600160a060020a0316600160a060020a031681526020018481526020018060200183600160a060020a0316600160a060020a03168152602001828103825284818151815260200191508051906020019080838360005b83811015611639578181015183820152602001611621565b50505050905090810190601f1680156116665780820380516001836020036101000a031916815260200191505b5095505050505050602060405180830381600087803b158015610b3e57600080fd5b828054600181600116156101000203166002900490600052602060002090601f016020900481019282601f106116c957805160ff19168380011785556116f6565b828001600101855582156116f6579182015b828111156116f65782518255916020019190600101906116db565b50611702929150611706565b5090565b6107d091905b80821115611702576000815560010161170c5600a165627a7a723058201c43a74acf620f76c2ec5257e37ad80a7c157a4c3e72cad256c27abf3c542db40029",
  "source": "/**\n * Copyright 2017–2018, LaborX PTY\n * Licensed under the AGPL Version 3 license.\n */\n\npragma solidity ^0.4.11;\n\nimport \"./ChronoBankAssetProxy.sol\";\n\ncontract ChronoBankAssetWithFeeProxy is ChronoBankAssetProxy {\n\n}\n",
  "sourcePath": "/Users/ahiatsevich/Development/chronobank/LXsidechain-sc/contracts/platform/ChronoBankAssetWithFeeProxy.sol",
  "compiler": {
    "name": "solc",
    "version": "0.4.23+commit.124ca40d.Emscripten.clang"
  },
  "schemaVersion": "2.0.0",
  "updatedAt": "2018-05-29T13:47:05.562Z"
}