{
  "contractName": "ChronoBankPlatformEmitter",
  "abi": [
    {
      "constant": false,
      "inputs": [
        {
          "name": "_errorCode",
          "type": "uint256"
        }
      ],
      "name": "emitErrorCode",
      "outputs": [],
      "payable": false,
      "stateMutability": "nonpayable",
      "type": "function"
    },
    {
      "constant": true,
      "inputs": [],
      "name": "getEventsHistory",
      "outputs": [
        {
          "name": "",
          "type": "address"
        }
      ],
      "payable": false,
      "stateMutability": "view",
      "type": "function"
    },
    {
      "anonymous": false,
      "inputs": [
        {
          "indexed": true,
          "name": "from",
          "type": "address"
        },
        {
          "indexed": true,
          "name": "to",
          "type": "address"
        },
        {
          "indexed": true,
          "name": "symbol",
          "type": "bytes32"
        },
        {
          "indexed": false,
          "name": "value",
          "type": "uint256"
        },
        {
          "indexed": false,
          "name": "reference",
          "type": "string"
        }
      ],
      "name": "Transfer",
      "type": "event"
    },
    {
      "anonymous": false,
      "inputs": [
        {
          "indexed": true,
          "name": "symbol",
          "type": "bytes32"
        },
        {
          "indexed": false,
          "name": "value",
          "type": "uint256"
        },
        {
          "indexed": true,
          "name": "by",
          "type": "address"
        }
      ],
      "name": "Issue",
      "type": "event"
    },
    {
      "anonymous": false,
      "inputs": [
        {
          "indexed": true,
          "name": "symbol",
          "type": "bytes32"
        },
        {
          "indexed": false,
          "name": "value",
          "type": "uint256"
        },
        {
          "indexed": true,
          "name": "by",
          "type": "address"
        }
      ],
      "name": "Revoke",
      "type": "event"
    },
    {
      "anonymous": false,
      "inputs": [
        {
          "indexed": true,
          "name": "from",
          "type": "address"
        },
        {
          "indexed": true,
          "name": "to",
          "type": "address"
        },
        {
          "indexed": true,
          "name": "symbol",
          "type": "bytes32"
        }
      ],
      "name": "OwnershipChange",
      "type": "event"
    },
    {
      "anonymous": false,
      "inputs": [
        {
          "indexed": true,
          "name": "from",
          "type": "address"
        },
        {
          "indexed": true,
          "name": "spender",
          "type": "address"
        },
        {
          "indexed": true,
          "name": "symbol",
          "type": "bytes32"
        },
        {
          "indexed": false,
          "name": "value",
          "type": "uint256"
        }
      ],
      "name": "Approve",
      "type": "event"
    },
    {
      "anonymous": false,
      "inputs": [
        {
          "indexed": true,
          "name": "from",
          "type": "address"
        },
        {
          "indexed": true,
          "name": "to",
          "type": "address"
        },
        {
          "indexed": false,
          "name": "by",
          "type": "address"
        }
      ],
      "name": "Recovery",
      "type": "event"
    },
    {
      "anonymous": false,
      "inputs": [
        {
          "indexed": true,
          "name": "self",
          "type": "address"
        },
        {
          "indexed": false,
          "name": "errorCode",
          "type": "uint256"
        }
      ],
      "name": "ErrorCode",
      "type": "event"
    },
    {
      "constant": false,
      "inputs": [
        {
          "name": "_from",
          "type": "address"
        },
        {
          "name": "_to",
          "type": "address"
        },
        {
          "name": "_symbol",
          "type": "bytes32"
        },
        {
          "name": "_value",
          "type": "uint256"
        },
        {
          "name": "_reference",
          "type": "string"
        }
      ],
      "name": "emitTransfer",
      "outputs": [],
      "payable": false,
      "stateMutability": "nonpayable",
      "type": "function"
    },
    {
      "constant": false,
      "inputs": [
        {
          "name": "_symbol",
          "type": "bytes32"
        },
        {
          "name": "_value",
          "type": "uint256"
        },
        {
          "name": "_by",
          "type": "address"
        }
      ],
      "name": "emitIssue",
      "outputs": [],
      "payable": false,
      "stateMutability": "nonpayable",
      "type": "function"
    },
    {
      "constant": false,
      "inputs": [
        {
          "name": "_symbol",
          "type": "bytes32"
        },
        {
          "name": "_value",
          "type": "uint256"
        },
        {
          "name": "_by",
          "type": "address"
        }
      ],
      "name": "emitRevoke",
      "outputs": [],
      "payable": false,
      "stateMutability": "nonpayable",
      "type": "function"
    },
    {
      "constant": false,
      "inputs": [
        {
          "name": "_from",
          "type": "address"
        },
        {
          "name": "_to",
          "type": "address"
        },
        {
          "name": "_symbol",
          "type": "bytes32"
        }
      ],
      "name": "emitOwnershipChange",
      "outputs": [],
      "payable": false,
      "stateMutability": "nonpayable",
      "type": "function"
    },
    {
      "constant": false,
      "inputs": [
        {
          "name": "_from",
          "type": "address"
        },
        {
          "name": "_spender",
          "type": "address"
        },
        {
          "name": "_symbol",
          "type": "bytes32"
        },
        {
          "name": "_value",
          "type": "uint256"
        }
      ],
      "name": "emitApprove",
      "outputs": [],
      "payable": false,
      "stateMutability": "nonpayable",
      "type": "function"
    },
    {
      "constant": false,
      "inputs": [
        {
          "name": "_from",
          "type": "address"
        },
        {
          "name": "_to",
          "type": "address"
        },
        {
          "name": "_by",
          "type": "address"
        }
      ],
      "name": "emitRecovery",
      "outputs": [],
      "payable": false,
      "stateMutability": "nonpayable",
      "type": "function"
    }
  ],
  "bytecode": "0x608060405234801561001057600080fd5b506104e4806100206000396000f30060806040526004361061008d5763ffffffff7c0100000000000000000000000000000000000000000000000000000000600035041663515c145781146100925780638834277e1461010b578063a9612f7214610123578063abafaa161461014d578063c70bbc1314610174578063d54c8c871461019b578063ea14457e146101c8578063fff10aba146101f5575b600080fd5b34801561009e57600080fd5b50604080516020601f60843560048181013592830184900484028501840190955281845261010994600160a060020a0381358116956024803590921695604435956064359536959460a494939101919081908401838280828437509497506102269650505050505050565b005b34801561011757600080fd5b506101096004356102e7565b34801561012f57600080fd5b50610109600160a060020a0360043581169060243516604435610332565b34801561015957600080fd5b50610109600435602435600160a060020a0360443516610372565b34801561018057600080fd5b50610109600435602435600160a060020a03604435166103b7565b3480156101a757600080fd5b50610109600160a060020a03600435811690602435166044356064356103fc565b3480156101d457600080fd5b50610109600160a060020a0360043581169060243581169060443516610448565b34801561020157600080fd5b5061020a610492565b60408051600160a060020a039092168252519081900360200190f35b826000191684600160a060020a031686600160a060020a03167f8f1b83868d2ecc962fd90cfee71c9c52455fe10940937bc7571d90ba404c5c3b85856040518083815260200180602001828103825283818151815260200191508051906020019080838360005b838110156102a557818101518382015260200161028d565b50505050905090810190601f1680156102d25780820380516001836020036101000a031916815260200191505b50935050505060405180910390a45050505050565b6102ef6104b4565b600160a060020a03167f09e0713b45664e161c202b19bb4574ee83dfa056f9bfdee56847b3971d968221826040518082815260200191505060405180910390a250565b6040518190600160a060020a0380851691908616907f0de92ba2d86c482d7f947cc22a580692bb78d6277988023434905f44b8cd261a90600090a4505050565b604080518381529051600160a060020a0383169185917fd03c2206e12a8eb3553d780874e1a7941b9c67f3a726ce6edb4a9fd65e25ec989181900360200190a3505050565b604080518381529051600160a060020a0383169185917fa4e2520a41c90422e37fc8ba7153c519a427a62ea5f494a14a218a7b9bceb6ca9181900360200190a3505050565b6040805182815290518391600160a060020a0380871692908816917f859b1cddb4da93a04541d62c27d7d83aa8173a1b37bbccd3c60ceb4ee19ee13e919081900360200190a450505050565b60408051600160a060020a0383811682529151828516928616917f6c0468512076e943ed3d1c5aae1d6903c72162713d86aedd1381b3ac19e10cec919081900360200190a3505050565b60008054600160a060020a03168015156104ac57306104ae565b805b91505090565b33905600a165627a7a723058200ca7a5f8d48da27ac7a0ca54936ba501b38037cfbc67d6571bbc484bca61f3570029",
  "source": "/**\n * Copyright 2017–2018, LaborX PTY\n * Licensed under the AGPL Version 3 license.\n */\n\npragma solidity ^0.4.21;\n\n\nimport \"solidity-eventshistory-lib/contracts/MultiEventsHistoryAdapter.sol\";\n\n\n/// @title ChronoBank Platform Emitter.\n///\n/// Contains all the original event emitting function definitions and events.\n/// In case of new events needed later, additional emitters can be developed.\n/// All the functions is meant to be called using delegatecall.\ncontract ChronoBankPlatformEmitter is MultiEventsHistoryAdapter {\n\n    event Transfer(address indexed from, address indexed to, bytes32 indexed symbol, uint value, string reference);\n    event Issue(bytes32 indexed symbol, uint value, address indexed by);\n    event Revoke(bytes32 indexed symbol, uint value, address indexed by);\n    event OwnershipChange(address indexed from, address indexed to, bytes32 indexed symbol);\n    event Approve(address indexed from, address indexed spender, bytes32 indexed symbol, uint value);\n    event Recovery(address indexed from, address indexed to, address by);\n\n    function emitTransfer(address _from, address _to, bytes32 _symbol, uint _value, string _reference) public {\n        emit Transfer(_from, _to, _symbol, _value, _reference);\n    }\n\n    function emitIssue(bytes32 _symbol, uint _value, address _by) public {\n        emit Issue(_symbol, _value, _by);\n    }\n\n    function emitRevoke(bytes32 _symbol, uint _value, address _by) public {\n        emit Revoke(_symbol, _value, _by);\n    }\n\n    function emitOwnershipChange(address _from, address _to, bytes32 _symbol) public {\n        emit OwnershipChange(_from, _to, _symbol);\n    }\n\n    function emitApprove(address _from, address _spender, bytes32 _symbol, uint _value) public {\n        emit Approve(_from, _spender, _symbol, _value);\n    }\n\n    function emitRecovery(address _from, address _to, address _by) public {\n        emit Recovery(_from, _to, _by);\n    }\n}",
  "sourcePath": "/Users/alesanro/Documents/Projects/ChronoBank/LXsidechain-sc/contracts/platform/ChronoBankPlatformEmitter.sol",
  "compiler": {
    "name": "solc",
    "version": "0.4.24+commit.e67f0147.Emscripten.clang"
  },
  "schemaVersion": "2.0.1",
  "updatedAt": "2018-07-27T20:15:18.636Z"
}