{
  "contractName": "Deposits",
  "abi": [
    {
      "constant": false,
      "inputs": [],
      "name": "claimContractOwnership",
      "outputs": [
        {
          "name": "",
          "type": "bool"
        }
      ],
      "payable": false,
      "stateMutability": "nonpayable",
      "type": "function"
    },
    {
      "constant": false,
      "inputs": [
        {
          "name": "_to",
          "type": "address"
        }
      ],
      "name": "changeContractOwnership",
      "outputs": [
        {
          "name": "",
          "type": "bool"
        }
      ],
      "payable": false,
      "stateMutability": "nonpayable",
      "type": "function"
    },
    {
      "constant": true,
      "inputs": [],
      "name": "pendingContractOwner",
      "outputs": [
        {
          "name": "",
          "type": "address"
        }
      ],
      "payable": false,
      "stateMutability": "view",
      "type": "function"
    },
    {
      "constant": false,
      "inputs": [
        {
          "name": "tokens",
          "type": "address[]"
        }
      ],
      "name": "withdrawTokens",
      "outputs": [],
      "payable": false,
      "stateMutability": "nonpayable",
      "type": "function"
    },
    {
      "constant": false,
      "inputs": [
        {
          "name": "_eventsHistory",
          "type": "address"
        }
      ],
      "name": "setEventsHistory",
      "outputs": [],
      "payable": false,
      "stateMutability": "nonpayable",
      "type": "function"
    },
    {
      "constant": false,
      "inputs": [],
      "name": "withdrawEther",
      "outputs": [],
      "payable": false,
      "stateMutability": "nonpayable",
      "type": "function"
    },
    {
      "constant": true,
      "inputs": [],
      "name": "contractOwner",
      "outputs": [
        {
          "name": "",
          "type": "address"
        }
      ],
      "payable": false,
      "stateMutability": "view",
      "type": "function"
    },
    {
      "constant": false,
      "inputs": [
        {
          "name": "newOwner",
          "type": "address"
        }
      ],
      "name": "transferOwnership",
      "outputs": [
        {
          "name": "",
          "type": "bool"
        }
      ],
      "payable": false,
      "stateMutability": "nonpayable",
      "type": "function"
    },
    {
      "constant": true,
      "inputs": [],
      "name": "getEventsHistory",
      "outputs": [
        {
          "name": "",
          "type": "address"
        }
      ],
      "payable": false,
      "stateMutability": "view",
      "type": "function"
    },
    {
      "inputs": [
        {
          "name": "_store",
          "type": "address"
        },
        {
          "name": "_crate",
          "type": "bytes32"
        }
      ],
      "payable": false,
      "stateMutability": "nonpayable",
      "type": "constructor"
    },
    {
      "anonymous": false,
      "inputs": [
        {
          "indexed": true,
          "name": "previousOwner",
          "type": "address"
        },
        {
          "indexed": true,
          "name": "newOwner",
          "type": "address"
        }
      ],
      "name": "OwnershipTransferred",
      "type": "event"
    },
    {
      "constant": true,
      "inputs": [
        {
          "name": "_address",
          "type": "address"
        }
      ],
      "name": "depositBalance",
      "outputs": [
        {
          "name": "balance",
          "type": "uint256"
        }
      ],
      "payable": false,
      "stateMutability": "view",
      "type": "function"
    }
  ],
  "bytecode": "0x60806040523480156200001157600080fd5b506040516040806200131c83398101604052805160209091015160008054600160a060020a03191633179055818181816200005d6002838364010000000062000a6f6200021982021704565b505060048054600160a060020a0319163017905550620000af905060057f7368617265686f6c64657273000000000000000000000000000000000000000064010000000062000aa26200023f82021704565b620000ea600a7f6465706f7369747300000000000000000000000000000000000000000000000064010000000062000aac6200025882021704565b62000125600f7f6465706f736974734964436f756e74657200000000000000000000000000000064010000000062000ab66200026d82021704565b6200016060107f616d6f756e74730000000000000000000000000000000000000000000000000064010000000062000ac66200028882021704565b6200019b60117f74696d657374616d70730000000000000000000000000000000000000000000064010000000062000ac66200028882021704565b620001d660127f746f74616c53686172657353746f72616765000000000000000000000000000064010000000062000ab66200026d82021704565b6200021160137f736861726573436f6e747261637453746f72616765000000000000000000000064010000000062000ab66200026d82021704565b505062000561565b8254600160a060020a031916600160a060020a0392909216919091178255600190910155565b6200025482826401000000006200029d810204565b5050565b6200025482826401000000006200023f810204565b815462000284908264010000000062000549810204565b9055565b6200025482826401000000006200026d810204565b6040805160208082018490527f75696e742f636f756e7400000000000000000000000000000000000000000000828401528251602a818403018152604a9092019283905281516200035993869392909182918401908083835b60208310620003175780518252601f199092019160209182019101620002f6565b6001836020036101000a03801982511681845116808217855250505050505090500191505060405180910390206200026d640100000000026401000000009004565b6040805160208082018490527f75696e742f666972737400000000000000000000000000000000000000000000828401528251602a818403018152604a909201928390528151620003d5936001870193929091829184019080838360208310620003175780518252601f199092019160209182019101620002f6565b6040805160208082018490527f75696e742f6c61737400000000000000000000000000000000000000000000008284015282516029818403018152604990920192839052815162000451936002870193929091829184019080838360208310620003175780518252601f199092019160209182019101620002f6565b6040805160208082018490527f75696e742f6e657874000000000000000000000000000000000000000000000082840152825160298184030181526049909201928390528151620004cd936003870193929091829184019080838360208310620003175780518252601f199092019160209182019101620002f6565b6040805160208082018490527f75696e742f7072657600000000000000000000000000000000000000000000008284015282516029818403018152604990920192839052815162000254936004870193929091829184019080838360208310620003175780518252601f199092019160209182019101620002f6565b8115158062000556575080155b156200025457600080fd5b610dab80620005716000396000f30060806040526004361061008a5763ffffffff60e060020a6000350416634592cd1d811461008f578063557f4bc9146100b85780635aa77d3c146100d95780635ecb16cd1461010a5780636521afd7146101615780637362377b14610182578063956501bb14610197578063ce606ee0146101ca578063f2fde38b146101df578063fff10aba14610200575b600080fd5b34801561009b57600080fd5b506100a4610215565b604080519115158252519081900360200190f35b3480156100c457600080fd5b506100a4600160a060020a03600435166102a6565b3480156100e557600080fd5b506100ee610301565b60408051600160a060020a039092168252519081900360200190f35b34801561011657600080fd5b506040805160206004803580820135838102808601850190965280855261015f953695939460249493850192918291850190849080828437509497506103109650505050505050565b005b34801561016d57600080fd5b5061015f600160a060020a0360043516610496565b34801561018e57600080fd5b5061015f6104d5565b3480156101a357600080fd5b506101b8600160a060020a0360043516610532565b60408051918252519081900360200190f35b3480156101d657600080fd5b506100ee6105bc565b3480156101eb57600080fd5b506100a4600160a060020a03600435166105cb565b34801561020c57600080fd5b506100ee61066a565b600154600090600160a060020a03163314610232575060006102a3565b60015460008054604051600160a060020a0393841693909116917f8be0079c531659141344cd1fd0a4f28419497f9722a3daafe3b4186f6b6457e091a350600180546000805473ffffffffffffffffffffffffffffffffffffffff19908116600160a060020a038416179091551681555b90565b60008054600160a060020a03163314156102fc57600160a060020a03821615156102d2575060006102fc565b506001805473ffffffffffffffffffffffffffffffffffffffff1916600160a060020a0383161781555b919050565b600154600160a060020a031681565b60008054819081908190600160a060020a031633141561048f5760008054600160a060020a0316945092505b845183101561048f57848381518110151561035357fe5b6020908102909101810151604080517f70a082310000000000000000000000000000000000000000000000000000000081523060048201529051919450600160a060020a038516926370a08231926024808401938290030181600087803b1580156103bd57600080fd5b505af11580156103d1573d6000803e3d6000fd5b505050506040513d60208110156103e757600080fd5b5051905060008111156104845781600160a060020a031663a9059cbb85836040518363ffffffff1660e060020a0281526004018083600160a060020a0316600160a060020a0316815260200182815260200192505050602060405180830381600087803b15801561045757600080fd5b505af115801561046b573d6000803e3d6000fd5b505050506040513d602081101561048157600080fd5b50505b60019092019161033c565b5050505050565b600054600160a060020a03163314156104d2576004805473ffffffffffffffffffffffffffffffffffffffff1916600160a060020a0383161790555b50565b60008054600160a060020a03163314156104d25750303160008111156104d25760008054604051600160a060020a039091169183156108fc02918491818181858888f1935050505015801561052e573d6000803e3d6000fd5b5050565b600061053c610a48565b60008061055b6002600a600160a060020a03881663ffffffff61067916565b9250600091505b6105756002600a8563ffffffff61069616565b156105b4576105a36010866105936002600a8863ffffffff6106a316565b600292919063ffffffff6106b016565b938401936001909201919050610562565b505050919050565b600054600160a060020a031681565b60008054600160a060020a03163314156102fc57600160a060020a03821615156105f7575060006102fc565b60008054604051600160a060020a03808616939216917f8be0079c531659141344cd1fd0a4f28419497f9722a3daafe3b4186f6b6457e091a35060008054600160a060020a03831673ffffffffffffffffffffffffffffffffffffffff1991821617909155600180549091168155919050565b600454600160a060020a031690565b610681610a48565b61068c8484846106d0565b90505b9392505050565b600061068c8484846106e3565b600061068c8484846106f0565b60006106c78585600160a060020a038616856106fd565b95945050505050565b6106d8610a48565b61068c84848461078b565b600061068c8484846107a9565b600061068c8484846107e6565b60408051602080820185905281830184905282518083038401815260609092019283905281516000936106c7938993899391929182918401908083835b602083106107595780518252601f19909201916020918201910161073a565b6001836020036101000a038019825116818451168082178552505050505050905001915050604051809103902061082f565b610793610a48565b61068c8484846107a483838361093f565b6109ac565b60008160200151600014806107cf57506107cd8484846060015185604001516109cc565b155b156107dc5750600061068f565b5060019392505050565b60006107f38484846107a9565b15156107fe57600080fd5b5060408101516060820151610817908590859084610a08565b60408301526020909101805160001901905292915050565b825460018401548354604080516020808201939093528082018690528151808203830181526060909101918290528051600095600160a060020a0316946337d9d7fc9490939182918401908083835b6020831061089d5780518252601f19909201916020918201910161087e565b51815160209384036101000a60001901801990921691161790526040805192909401829003822063ffffffff891660e060020a028352600483019790975260248201969096529151604480840196955090935091839003909101905081600087803b15801561090b57600080fd5b505af115801561091f573d6000803e3d6000fd5b505050506040513d602081101561093557600080fd5b5051949350505050565b825460018401548354604080516020808201939093528082018690528151808203830181526060909101918290528051600095600160a060020a0316946353aa3f5e9490939182918401908083836020831061089d5780518252601f19909201916020918201910161087e565b6109b4610a48565b6106c7836109c687876001018761082f565b84610a19565b600081158015906106c757506109e7858560030185856106fd565b1515806106c75750816109fe86600287018661082f565b1495945050505050565b60006106c7858560030185856106fd565b610a21610a48565b50604080516080810182528281526020810192909252810191909152606081019190915290565b60408051608081018252600080825260208201819052918101829052606081019190915290565b825473ffffffffffffffffffffffffffffffffffffffff1916600160a060020a0392909216919091178255600190910155565b61052e8282610adc565b61052e8282610aa2565b8154610ac29082610d69565b9055565b61052e8282610ab6565b8154610ac29082610d69565b6040805160208082018490527f75696e742f636f756e7400000000000000000000000000000000000000000000828401528251602a818403018152604a909201928390528151610b8593869392909182918401908083835b60208310610b535780518252601f199092019160209182019101610b34565b6001836020036101000a0380198251168184511680821785525050505050509050019150506040518091039020610ab6565b6040805160208082018490527f75696e742f666972737400000000000000000000000000000000000000000000828401528251602a818403018152604a909201928390528151610bfe936001870193929091829184019080838360208310610b535780518252601f199092019160209182019101610b34565b6040805160208082018490527f75696e742f6c617374000000000000000000000000000000000000000000000082840152825160298184030181526049909201928390528151610c77936002870193929091829184019080838360208310610b535780518252601f199092019160209182019101610b34565b6040805160208082018490527f75696e742f6e657874000000000000000000000000000000000000000000000082840152825160298184030181526049909201928390528151610cf0936003870193929091829184019080838360208310610b535780518252601f199092019160209182019101610b34565b6040805160208082018490527f75696e742f7072657600000000000000000000000000000000000000000000008284015282516029818403018152604990920192839052815161052e936004870193929091829184019080838360208310610b535780518252601f199092019160209182019101610b34565b81151580610d75575080155b1561052e57600080fd00a165627a7a723058206b22f980e8a1bbeb19f8d1c2c0038e9a025da391822ccabbf1037edf47c1bbb60029",
  "source": "/**\n * Copyright 2017–2018, LaborX PTY\n * Licensed under the AGPL Version 3 license.\n */\n\npragma solidity ^0.4.23;\n\n\nimport \"../common/BaseManager.sol\";\n\n\ncontract Deposits is BaseManager {\n    StorageInterface.OrderedAddressesSet internal shareholders;\n    StorageInterface.UIntOrderedSetMapping internal deposits;\n    StorageInterface.UInt internal depositsIdCounter;\n    StorageInterface.AddressUIntUIntMapping internal amounts;\n    StorageInterface.AddressUIntUIntMapping internal timestamps;\n    StorageInterface.UInt internal totalSharesStorage;\n    StorageInterface.Address internal sharesContractStorage;\n\n    constructor(Storage _store, bytes32 _crate)\n    public\n    BaseManager(_store, _crate)\n    {\n        shareholders.init(\"shareholders\");\n        deposits.init(\"deposits\");\n        depositsIdCounter.init(\"depositsIdCounter\");\n        amounts.init(\"amounts\");\n        timestamps.init(\"timestamps\");\n        totalSharesStorage.init(\"totalSharesStorage\");\n        sharesContractStorage.init(\"sharesContractStorage\");\n    }\n\n    /**\n     * Returns shares amount deposited by a particular shareholder.\n     *\n     * @param _address shareholder address.\n     *\n     * @return shares amount.\n     */\n    function depositBalance(address _address)\n    public\n    view\n    returns (uint balance)\n    {\n        StorageInterface.Iterator memory iterator = store.listIterator(deposits, bytes32(_address));\n        for(uint i = 0; store.canGetNextWithIterator(deposits, iterator); i++) {\n            uint _cur_amount = store.get(amounts, _address, store.getNextWithIterator(deposits, iterator));\n            balance += _cur_amount;\n        }\n        return balance;\n    }\n\n}\n",
  "sourcePath": "/Users/alesanro/Documents/Projects/ChronoBank/LXsidechain-sc/contracts/rewards/Deposits.sol",
  "compiler": {
    "name": "solc",
    "version": "0.4.24+commit.e67f0147.Emscripten.clang"
  },
  "schemaVersion": "2.0.1",
  "updatedAt": "2018-07-27T20:15:18.638Z"
}