{
  "contractName": "ERC20DepositStorage",
  "abi": [
    {
      "constant": false,
      "inputs": [],
      "name": "claimContractOwnership",
      "outputs": [
        {
          "name": "",
          "type": "bool"
        }
      ],
      "payable": false,
      "stateMutability": "nonpayable",
      "type": "function"
    },
    {
      "constant": false,
      "inputs": [
        {
          "name": "_to",
          "type": "address"
        }
      ],
      "name": "changeContractOwnership",
      "outputs": [
        {
          "name": "",
          "type": "bool"
        }
      ],
      "payable": false,
      "stateMutability": "nonpayable",
      "type": "function"
    },
    {
      "constant": true,
      "inputs": [],
      "name": "pendingContractOwner",
      "outputs": [
        {
          "name": "",
          "type": "address"
        }
      ],
      "payable": false,
      "stateMutability": "view",
      "type": "function"
    },
    {
      "constant": false,
      "inputs": [
        {
          "name": "tokens",
          "type": "address[]"
        }
      ],
      "name": "withdrawTokens",
      "outputs": [],
      "payable": false,
      "stateMutability": "nonpayable",
      "type": "function"
    },
    {
      "constant": false,
      "inputs": [],
      "name": "withdrawEther",
      "outputs": [],
      "payable": false,
      "stateMutability": "nonpayable",
      "type": "function"
    },
    {
      "constant": true,
      "inputs": [],
      "name": "contractOwner",
      "outputs": [
        {
          "name": "",
          "type": "address"
        }
      ],
      "payable": false,
      "stateMutability": "view",
      "type": "function"
    },
    {
      "constant": false,
      "inputs": [
        {
          "name": "newOwner",
          "type": "address"
        }
      ],
      "name": "transferOwnership",
      "outputs": [
        {
          "name": "",
          "type": "bool"
        }
      ],
      "payable": false,
      "stateMutability": "nonpayable",
      "type": "function"
    },
    {
      "inputs": [
        {
          "name": "_store",
          "type": "address"
        },
        {
          "name": "_crate",
          "type": "bytes32"
        }
      ],
      "payable": false,
      "stateMutability": "nonpayable",
      "type": "constructor"
    },
    {
      "anonymous": false,
      "inputs": [
        {
          "indexed": true,
          "name": "previousOwner",
          "type": "address"
        },
        {
          "indexed": true,
          "name": "newOwner",
          "type": "address"
        }
      ],
      "name": "OwnershipTransferred",
      "type": "event"
    },
    {
      "constant": false,
      "inputs": [
        {
          "name": "_sharesContract",
          "type": "address"
        }
      ],
      "name": "setSharesContract",
      "outputs": [],
      "payable": false,
      "stateMutability": "nonpayable",
      "type": "function"
    },
    {
      "constant": true,
      "inputs": [],
      "name": "getSharesContract",
      "outputs": [
        {
          "name": "",
          "type": "address"
        }
      ],
      "payable": false,
      "stateMutability": "view",
      "type": "function"
    },
    {
      "constant": true,
      "inputs": [
        {
          "name": "_token",
          "type": "address"
        }
      ],
      "name": "totalShares",
      "outputs": [
        {
          "name": "",
          "type": "uint256"
        }
      ],
      "payable": false,
      "stateMutability": "view",
      "type": "function"
    },
    {
      "constant": true,
      "inputs": [
        {
          "name": "_token",
          "type": "address"
        }
      ],
      "name": "shareholdersCount",
      "outputs": [
        {
          "name": "",
          "type": "uint256"
        }
      ],
      "payable": false,
      "stateMutability": "view",
      "type": "function"
    },
    {
      "constant": true,
      "inputs": [
        {
          "name": "_token",
          "type": "address"
        },
        {
          "name": "_depositor",
          "type": "address"
        }
      ],
      "name": "depositBalance",
      "outputs": [
        {
          "name": "_balance",
          "type": "uint256"
        }
      ],
      "payable": false,
      "stateMutability": "view",
      "type": "function"
    },
    {
      "constant": true,
      "inputs": [
        {
          "name": "_token",
          "type": "address"
        },
        {
          "name": "_depositor",
          "type": "address"
        }
      ],
      "name": "lockedDepositBalance",
      "outputs": [
        {
          "name": "_balance",
          "type": "uint256"
        }
      ],
      "payable": false,
      "stateMutability": "view",
      "type": "function"
    },
    {
      "constant": true,
      "inputs": [
        {
          "name": "_token",
          "type": "address"
        },
        {
          "name": "_key",
          "type": "bytes32"
        }
      ],
      "name": "lockedDepositBalanceWithKey",
      "outputs": [
        {
          "name": "_balance",
          "type": "uint256"
        }
      ],
      "payable": false,
      "stateMutability": "view",
      "type": "function"
    },
    {
      "constant": false,
      "inputs": [
        {
          "name": "_token",
          "type": "address"
        },
        {
          "name": "_target",
          "type": "address"
        },
        {
          "name": "_amount",
          "type": "uint256"
        }
      ],
      "name": "depositFor",
      "outputs": [],
      "payable": false,
      "stateMutability": "nonpayable",
      "type": "function"
    },
    {
      "constant": false,
      "inputs": [
        {
          "name": "_token",
          "type": "address"
        },
        {
          "name": "_target",
          "type": "bytes32"
        },
        {
          "name": "_amount",
          "type": "uint256"
        }
      ],
      "name": "unsafeLock",
      "outputs": [],
      "payable": false,
      "stateMutability": "nonpayable",
      "type": "function"
    },
    {
      "constant": false,
      "inputs": [
        {
          "name": "_token",
          "type": "address"
        },
        {
          "name": "_target",
          "type": "address"
        },
        {
          "name": "_amount",
          "type": "uint256"
        }
      ],
      "name": "lock",
      "outputs": [],
      "payable": false,
      "stateMutability": "nonpayable",
      "type": "function"
    },
    {
      "constant": false,
      "inputs": [
        {
          "name": "_token",
          "type": "address"
        },
        {
          "name": "_target",
          "type": "bytes32"
        },
        {
          "name": "_amount",
          "type": "uint256"
        }
      ],
      "name": "unsafeUnlock",
      "outputs": [],
      "payable": false,
      "stateMutability": "nonpayable",
      "type": "function"
    },
    {
      "constant": false,
      "inputs": [
        {
          "name": "_token",
          "type": "address"
        },
        {
          "name": "_target",
          "type": "address"
        },
        {
          "name": "_amount",
          "type": "uint256"
        }
      ],
      "name": "unlock",
      "outputs": [],
      "payable": false,
      "stateMutability": "nonpayable",
      "type": "function"
    },
    {
      "constant": false,
      "inputs": [
        {
          "name": "_token",
          "type": "address"
        },
        {
          "name": "_account",
          "type": "address"
        },
        {
          "name": "_amount",
          "type": "uint256"
        },
        {
          "name": "_totalBalance",
          "type": "uint256"
        }
      ],
      "name": "withdrawShares",
      "outputs": [],
      "payable": false,
      "stateMutability": "nonpayable",
      "type": "function"
    }
  ],
  "bytecode": "0x60806040523480156200001157600080fd5b50604051604080620033aa83398101604052805160209091015160008054600160a060020a0319163317905581816200005b60028383640100000000620025d9620003db82021704565b5062000099905060047f7368617265686f6c6465727300000000000000000000000000000000000000006401000000006200260c6200040182021704565b620000d460097f6465706f73697473000000000000000000000000000000000000000000000000640100000000620026166200041a82021704565b6200010f600e7f6465706f736974734964436f756e746572000000000000000000000000000000640100000000620026206200042f82021704565b6200014a600f7f616d6f756e747300000000000000000000000000000000000000000000000000640100000000620026306200044a82021704565b6200018560107f74696d657374616d707300000000000000000000000000000000000000000000640100000000620026306200044a82021704565b620001c060117f746f74616c53686172657353746f726167650000000000000000000000000000640100000000620026206200042f82021704565b620001fb60127f736861726573436f6e747261637453746f726167650000000000000000000000640100000000620026206200042f82021704565b6200023660137f7368617265686f6c646572735f76320000000000000000000000000000000000640100000000620026166200041a82021704565b6200027160187f6465706f736974734964436f756e746572735f76320000000000000000000000640100000000620026306200044a82021704565b620002ac60197f616d6f756e747300000000000000000000000000000000000000000000000000640100000000620026206200042f82021704565b620002e7601a7f74696d657374616d707300000000000000000000000000000000000000000000640100000000620026206200042f82021704565b62000322601b7f746f74616c53686172657353746f726167655f76320000000000000000000000640100000000620026306200044a82021704565b6200035d601c7f736861726573436f6e74726163747353746f726167655f763200000000000000640100000000620026706200045f82021704565b62000398601f7f6c696d6974416d6f756e747353746f726167655f763200000000000000000000640100000000620026306200044a82021704565b620003d360207f6c6f636b65644465706f7369747353746f726167655f76320000000000000000640100000000620026206200042f82021704565b5050620008a9565b8254600160a060020a031916600160a060020a0392909216919091178255600190910155565b62000416828264010000000062000474810204565b5050565b62000416828264010000000062000401810204565b815462000446908264010000000062000720810204565b9055565b6200041682826401000000006200042f810204565b62000416828264010000000062000738810204565b6040805160208082018490527f75696e742f636f756e7400000000000000000000000000000000000000000000828401528251602a818403018152604a9092019283905281516200053093869392909182918401908083835b60208310620004ee5780518252601f199092019160209182019101620004cd565b6001836020036101000a03801982511681845116808217855250505050505090500191505060405180910390206200042f640100000000026401000000009004565b6040805160208082018490527f75696e742f666972737400000000000000000000000000000000000000000000828401528251602a818403018152604a909201928390528151620005ac936001870193929091829184019080838360208310620004ee5780518252601f199092019160209182019101620004cd565b6040805160208082018490527f75696e742f6c61737400000000000000000000000000000000000000000000008284015282516029818403018152604990920192839052815162000628936002870193929091829184019080838360208310620004ee5780518252601f199092019160209182019101620004cd565b6040805160208082018490527f75696e742f6e657874000000000000000000000000000000000000000000000082840152825160298184030181526049909201928390528151620006a4936003870193929091829184019080838360208310620004ee5780518252601f199092019160209182019101620004cd565b6040805160208082018490527f75696e742f7072657600000000000000000000000000000000000000000000008284015282516029818403018152604990920192839052815162000416936004870193929091829184019080838360208310620004ee5780518252601f199092019160209182019101620004cd565b811515806200072d575080155b156200041657600080fd5b6040805160208082018490527f636f756e7400000000000000000000000000000000000000000000000000000082840152825160258184030181526045909201928390528151620007b1938693929091829184019080838360208310620004ee5780518252601f199092019160209182019101620004cd565b6040805160208082018490527f696e646578657300000000000000000000000000000000000000000000000000828401528251602781840301815260479092019283905281516200082d936001870193929091829184019080838360208310620004ee5780518252601f199092019160209182019101620004cd565b6040805160208082018490527f76616c75657300000000000000000000000000000000000000000000000000008284015282516026818403018152604690920192839052815162000416936002870193929091829184019080838360208310620004ee5780518252601f199092019160209182019101620004cd565b612af180620008b96000396000f3006080604052600436106100f85763ffffffff60e060020a60003504166305633be281146100fd5780630a57ce3b146101365780630e7ae6a2146101595780634592cd1d14610180578063557f4bc9146101a957806359508f8f146101ca5780635aa77d3c146101f45780635ecb16cd14610225578063644964751461027a5780636ab3c700146102a75780637362377b146102c85780637750c9f0146102dd5780638f5a15b614610307578063ad5c590b1461032e578063b07ca36014610355578063b3db428b14610379578063bf6b874e146103a3578063c61f44b8146103c4578063ce606ee0146103d9578063f2fde38b146103ee575b600080fd5b34801561010957600080fd5b50610124600160a060020a036004358116906024351661040f565b60408051918252519081900360200190f35b34801561014257600080fd5b50610157600160a060020a036004351661042b565b005b34801561016557600080fd5b50610124600160a060020a03600435811690602435166105f5565b34801561018c57600080fd5b50610195610710565b604080519115158252519081900360200190f35b3480156101b557600080fd5b50610195600160a060020a03600435166107a1565b3480156101d657600080fd5b50610157600160a060020a03600435811690602435166044356107fc565b34801561020057600080fd5b50610209610974565b60408051600160a060020a039092168252519081900360200190f35b34801561023157600080fd5b5060408051602060048035808201358381028086018501909652808552610157953695939460249493850192918291850190849080828437509497506109839650505050505050565b34801561028657600080fd5b50610157600160a060020a0360043581169060243516604435606435610b09565b3480156102b357600080fd5b50610124600160a060020a0360043516610e54565b3480156102d457600080fd5b50610157610ebc565b3480156102e957600080fd5b50610157600160a060020a0360043581169060243516604435610f18565b34801561031357600080fd5b50610157600160a060020a0360043516602435604435611094565b34801561033a57600080fd5b50610157600160a060020a0360043516602435604435611247565b34801561036157600080fd5b50610124600160a060020a03600435166024356113e9565b34801561038557600080fd5b50610157600160a060020a0360043581169060243516604435611408565b3480156103af57600080fd5b50610124600160a060020a0360043516611757565b3480156103d057600080fd5b506102096117a9565b3480156103e557600080fd5b506102096117c2565b3480156103fa57600080fd5b50610195600160a060020a03600435166117d1565b600061042483600160a060020a0384166113e9565b9392505050565b6002546040805160e060020a63481c6a750281529051600092600160a060020a03169163481c6a7591600480830192602092919082900301818787803b15801561047457600080fd5b505af1158015610488573d6000803e3d6000fd5b505050506040513d602081101561049e57600080fd5b50516003546040805160e060020a635cb8dd09028152336004820152602481019290925251600160a060020a0390921691635cb8dd09916044808201926020929091908290030181600087803b1580156104f757600080fd5b505af115801561050b573d6000803e3d6000fd5b505050506040513d602081101561052157600080fd5b5051905080151561057e576040805160e560020a62461bcd0281526020600482015260306024820152600080516020612aa68339815191526044820152600080516020612a86833981519152606482015290519081900360840190fd5b600160a060020a03821615156105de576040805160e560020a62461bcd02815260206004820152601e60248201527f4e6f207368617265732061646472657373206973207370656369666965640000604482015290519081900360640190fd5b6105f1600260128463ffffffff61187016565b5050565b60008061060a6002601263ffffffff61190016565b600160a060020a038581169116146106f45783836040516020018083600160a060020a0316600160a060020a03166c0100000000000000000000000002815260140182600160a060020a0316600160a060020a03166c01000000000000000000000000028152601401925050506040516020818303038152906040526040518082805190602001908083835b602083106106b55780518252601f199092019160209182019101610696565b6001836020036101000a038019825116818451168082178552505050505050905001915050604051809103902090506106ed816119a7565b9150610709565b610706600160a060020a0384166119a7565b91505b5092915050565b600154600090600160a060020a0316331461072d5750600061079e565b60015460008054604051600160a060020a0393841693909116917f8be0079c531659141344cd1fd0a4f28419497f9722a3daafe3b4186f6b6457e091a350600180546000805473ffffffffffffffffffffffffffffffffffffffff19908116600160a060020a038416179091551681555b90565b60008054600160a060020a03163314156107f757600160a060020a03821615156107cd575060006107f7565b506001805473ffffffffffffffffffffffffffffffffffffffff1916600160a060020a0383161781555b919050565b6002546040805160e060020a63481c6a750281529051600092600160a060020a03169163481c6a7591600480830192602092919082900301818787803b15801561084557600080fd5b505af1158015610859573d6000803e3d6000fd5b505050506040513d602081101561086f57600080fd5b50516003546040805160e060020a635cb8dd09028152336004820152602481019290925251600160a060020a0390921691635cb8dd09916044808201926020929091908290030181600087803b1580156108c857600080fd5b505af11580156108dc573d6000803e3d6000fd5b505050506040513d60208110156108f257600080fd5b5051905080151561094f576040805160e560020a62461bcd0281526020600482015260306024820152600080516020612aa68339815191526044820152600080516020612a86833981519152606482015290519081900360840190fd5b61096384600160a060020a03851684611247565b61096e848484611408565b50505050565b600154600160a060020a031681565b60008054819081908190600160a060020a0316331415610b025760008054600160a060020a0316945092505b8451831015610b025784838151811015156109c657fe5b6020908102909101810151604080517f70a082310000000000000000000000000000000000000000000000000000000081523060048201529051919450600160a060020a038516926370a08231926024808401938290030181600087803b158015610a3057600080fd5b505af1158015610a44573d6000803e3d6000fd5b505050506040513d6020811015610a5a57600080fd5b505190506000811115610af75781600160a060020a031663a9059cbb85836040518363ffffffff1660e060020a0281526004018083600160a060020a0316600160a060020a0316815260200182815260200192505050602060405180830381600087803b158015610aca57600080fd5b505af1158015610ade573d6000803e3d6000fd5b505050506040513d6020811015610af457600080fd5b50505b6001909201916109af565b5050505050565b600080600080600080600260000160009054906101000a9004600160a060020a0316600160a060020a031663481c6a756040518163ffffffff1660e060020a028152600401602060405180830381600087803b158015610b6857600080fd5b505af1158015610b7c573d6000803e3d6000fd5b505050506040513d6020811015610b9257600080fd5b50516003546040805160e060020a635cb8dd09028152336004820152602481019290925251600160a060020a0390921691635cb8dd09916044808201926020929091908290030181600087803b158015610beb57600080fd5b505af1158015610bff573d6000803e3d6000fd5b505050506040513d6020811015610c1557600080fd5b50519050801515610c72576040805160e560020a62461bcd0281526020600482015260306024820152600080516020612aa68339815191526044820152600080516020612a86833981519152606482015290519081900360840190fd5b861515610c7e57610e48565b610c906002601263ffffffff61190016565b600160a060020a03168a600160a060020a03161415610d1557610cbc600160a060020a038a1689611a36565b9550851515610cd857610cd8600260048b63ffffffff611ab916565b610cea6002601163ffffffff611ad216565b9450610d106011610d01878b63ffffffff611b4616565b6002919063ffffffff611b5816565b610e48565b89896040516020018083600160a060020a0316600160a060020a03166c0100000000000000000000000002815260140182600160a060020a0316600160a060020a03166c01000000000000000000000000028152601401925050506040516020818303038152906040526040518082805190602001908083835b60208310610dae5780518252601f199092019160209182019101610d8f565b6001836020036101000a03801982511681845116808217855250505050505090500191505060405180910390209350610de78489611a36565b9250821515610e0d57610e0d60026013600160a060020a038d168c63ffffffff611bd316565b610e206002601b8c63ffffffff611be816565b9150610e48601b8b610e38858c63ffffffff611b4616565b600292919063ffffffff611c0616565b50505050505050505050565b6000610e686002601263ffffffff61190016565b600160a060020a031682600160a060020a03161415610e9a57610e936002600463ffffffff611c1b16565b90506107f7565b610eb660026013600160a060020a03851663ffffffff611c2716565b92915050565b60008054600160a060020a0316331415610f15575030316000811115610f155760008054604051600160a060020a039091169183156108fc02918491818181858888f193505050501580156105f1573d6000803e3d6000fd5b50565b6002546040805160e060020a63481c6a750281529051600092600160a060020a03169163481c6a7591600480830192602092919082900301818787803b158015610f6157600080fd5b505af1158015610f75573d6000803e3d6000fd5b505050506040513d6020811015610f8b57600080fd5b50516003546040805160e060020a635cb8dd09028152336004820152602481019290925251600160a060020a0390921691635cb8dd09916044808201926020929091908290030181600087803b158015610fe457600080fd5b505af1158015610ff8573d6000803e3d6000fd5b505050506040513d602081101561100e57600080fd5b5051905080151561106b576040805160e560020a62461bcd0281526020600482015260306024820152600080516020612aa68339815191526044820152600080516020612a86833981519152606482015290519081900360840190fd5b61107f84600160a060020a03851684611094565b61096e84848461108f88886105f5565b610b09565b600080600260000160009054906101000a9004600160a060020a0316600160a060020a031663481c6a756040518163ffffffff1660e060020a028152600401602060405180830381600087803b1580156110ed57600080fd5b505af1158015611101573d6000803e3d6000fd5b505050506040513d602081101561111757600080fd5b50516003546040805160e060020a635cb8dd09028152336004820152602481019290925251600160a060020a0390921691635cb8dd09916044808201926020929091908290030181600087803b15801561117057600080fd5b505af1158015611184573d6000803e3d6000fd5b505050506040513d602081101561119a57600080fd5b505190508015156111f7576040805160e560020a62461bcd0281526020600482015260306024820152600080516020612aa68339815191526044820152600080516020612a86833981519152606482015290519081900360840190fd5b6112146002602086600160a060020a03891663ffffffff611c3416565b9150610b02602085600160a060020a038816611236868863ffffffff611ccb16565b60029392919063ffffffff611cda16565b600080600260000160009054906101000a9004600160a060020a0316600160a060020a031663481c6a756040518163ffffffff1660e060020a028152600401602060405180830381600087803b1580156112a057600080fd5b505af11580156112b4573d6000803e3d6000fd5b505050506040513d60208110156112ca57600080fd5b50516003546040805160e060020a635cb8dd09028152336004820152602481019290925251600160a060020a0390921691635cb8dd09916044808201926020929091908290030181600087803b15801561132357600080fd5b505af1158015611337573d6000803e3d6000fd5b505050506040513d602081101561134d57600080fd5b505190508015156113aa576040805160e560020a62461bcd0281526020600482015260306024820152600080516020612aa68339815191526044820152600080516020612a86833981519152606482015290519081900360840190fd5b6113c76002602086600160a060020a03891663ffffffff611c3416565b9150610b02602085600160a060020a038816611236868863ffffffff611b4616565b60006104246002602084600160a060020a03871663ffffffff611c3416565b6002546040805160e060020a63481c6a750281529051600092839283928392600160a060020a03169163481c6a7591600480830192602092919082900301818787803b15801561145757600080fd5b505af115801561146b573d6000803e3d6000fd5b505050506040513d602081101561148157600080fd5b50516003546040805160e060020a635cb8dd09028152336004820152602481019290925251600160a060020a0390921691635cb8dd09916044808201926020929091908290030181600087803b1580156114da57600080fd5b505af11580156114ee573d6000803e3d6000fd5b505050506040513d602081101561150457600080fd5b50519050801515611561576040805160e560020a62461bcd0281526020600482015260306024820152600080516020612aa68339815191526044820152600080516020612a86833981519152606482015290519081900360840190fd5b6115736002601263ffffffff61190016565b600160a060020a031687600160a060020a0316141561160b5761159f600260048863ffffffff611d6516565b6115b16002600e63ffffffff611ad216565b60010193506115c96002600e8663ffffffff611b5816565b6115dd600160a060020a0387168587611d79565b6115ef6002601163ffffffff611ad216565b92506116066011610d01878663ffffffff611ccb16565b61174e565b61162860026013600160a060020a038a168963ffffffff611db716565b86866040516020018083600160a060020a0316600160a060020a03166c0100000000000000000000000002815260140182600160a060020a0316600160a060020a03166c01000000000000000000000000028152601401925050506040516020818303038152906040526040518082805190602001908083835b602083106116c15780518252601f1990920191602091820191016116a2565b5181516020939093036101000a6000190180199091169216919091179052604051920182900390912094506116ff9250600291506018905084611dcc565b600101935061171860026018848763ffffffff611dd916565b611723828587611d79565b6117366002601b8963ffffffff611be816565b925061174e601b88610e38888763ffffffff611ccb16565b50505050505050565b600061176b6002601263ffffffff61190016565b600160a060020a031682600160a060020a0316141561179657610e936002601163ffffffff611ad216565b610eb66002601b8463ffffffff611be816565b60006117bd6002601263ffffffff61190016565b905090565b600054600160a060020a031681565b60008054600160a060020a03163314156107f757600160a060020a03821615156117fd575060006107f7565b60008054604051600160a060020a03808616939216917f8be0079c531659141344cd1fd0a4f28419497f9722a3daafe3b4186f6b6457e091a35060008054600160a060020a03831673ffffffffffffffffffffffffffffffffffffffff1991821617909155600180549091168155919050565b825460018401548354604080517f79a7cfee00000000000000000000000000000000000000000000000000000000815260048101939093526024830191909152600160a060020a03848116604484015290519216916379a7cfee9160648082019260009290919082900301818387803b1580156118ec57600080fd5b505af115801561174e573d6000803e3d6000fd5b815460018301548254604080517fd3a396860000000000000000000000000000000000000000000000000000000081526004810193909352602483019190915251600092600160a060020a03169163d3a3968691604480830192602092919082900301818787803b15801561197457600080fd5b505af1158015611988573d6000803e3d6000fd5b505050506040513d602081101561199e57600080fd5b50519392505050565b60006119b16125b2565b6000806119c7600260098763ffffffff611de516565b9250600091505b6119e1600260098563ffffffff611df816565b15611a2e57611a0f6019866119ff600260098863ffffffff611e0516565b600292919063ffffffff611c3416565b9050611a21848263ffffffff611ccb16565b93508160010191506119ce565b505050919050565b6000611a406125b2565b6000611a55600260098763ffffffff611de516565b9150611a6082611e12565b92505b611a76600260098463ffffffff611df816565b15611ab157611a8e600260098463ffffffff611e0516565b9050611a9c85828686611e19565b94509250831515611aac57611ab1565b611a63565b505092915050565b611acd8383600160a060020a038416611ea2565b505050565b815460018301548254604080517f53aa3f5e0000000000000000000000000000000000000000000000000000000081526004810193909352602483019190915251600092600160a060020a0316916353aa3f5e91604480830192602092919082900301818787803b15801561197457600080fd5b600082821115611b5257fe5b50900390565b825460018401548354604080517f53e7168b000000000000000000000000000000000000000000000000000000008152600481019390935260248301919091526044820184905251600160a060020a03909216916353e7168b9160648082019260009290919082900301818387803b1580156118ec57600080fd5b61096e848484600160a060020a038516611ece565b6000611bfe8484600160a060020a038516611eda565b949350505050565b61096e8484600160a060020a03851684611fea565b600061042483836120ed565b6000611bfe84848461211a565b6040805160208082018590528183018490528251808303840181526060909201928390528151600093611cc2938993899391929182918401908083835b60208310611c905780518252601f199092019160209182019101611c71565b6001836020036101000a0380198251168184511680821785525050505050509050019150506040518091039020611eda565b95945050505050565b60008282018381101561042457fe5b6040805160208082018690528183018590528251808303840181526060909201928390528151610b029389938993909282918401908083835b60208310611d325780518252601f199092019160209182019101611d13565b6001836020036101000a038019825116818451168082178552505050505050905001915050604051809103902084611fea565b611acd8383600160a060020a038416612127565b611d8d60026009858563ffffffff61215316565b611da26002601985858563ffffffff611cda16565b611acd6002601a85854263ffffffff611cda16565b61096e848484600160a060020a03851661215b565b6000611bfe848484611eda565b61096e84848484611fea565b611ded6125b2565b611bfe848484612167565b6000611bfe84848461217a565b6000611bfe848484612187565b6020015190565b60008080611e3160026019898963ffffffff611c3416565b905080851015611e5e57611e5260198888611236858a63ffffffff611b4616565b83925060009150611e98565b611e7260026009898963ffffffff61219416565b611e8384600163ffffffff611b4616565b611e93868363ffffffff611b4616565b925092505b5094509492505050565b611acd83837f6f7264657265645f736574000000000000000000000000000000000000000000846121a0565b61096e848484846121a0565b825460018401548354604080516020808201939093528082018690528151808203830181526060909101918290528051600095600160a060020a0316946337d9d7fc9490939182918401908083835b60208310611f485780518252601f199092019160209182019101611f29565b51815160209384036101000a60001901801990921691161790526040805192909401829003822063ffffffff891660e060020a028352600483019790975260248201969096529151604480840196955090935091839003909101905081600087803b158015611fb657600080fd5b505af1158015611fca573d6000803e3d6000fd5b505050506040513d6020811015611fe057600080fd5b5051949350505050565b835460018501548454604080516020808201939093528082018790528151808203830181526060909101918290528051600160a060020a039095169463a14ff85794939192918291908401908083835b602083106120595780518252601f19909201916020918201910161203a565b5181516020939093036101000a60001901801990911692169190911790526040805191909301819003812063ffffffff881660e060020a02825260048201969096526024810195909552506044840187905251606480850194600094509192509082900301818387803b1580156120cf57600080fd5b505af11580156120e3573d6000803e3d6000fd5b5050505050505050565b600061042483837f6f7264657265645f7365740000000000000000000000000000000000000000006122a0565b6000611bfe8484846122a0565b611acd83837f6f7264657265645f736574000000000000000000000000000000000000000000846122ad565b61096e848484845b61096e848484846122ad565b61216f6125b2565b611bfe848484612370565b6000611bfe84848461238e565b6000611bfe8484846123cb565b61096e84848484611ece565b6121ac84848484612414565b15156121b75761096e565b6121e38484600301846121cf88886004018888611c34565b6121de89896003018989611c34565b612450565b61220a8484600401846121fb88886003018888611c34565b6121de89896004018989611c34565b612218848460010184611eda565b81141561223c5761223c84846001018461223788886003018888611c34565b611fea565b61224a848460020184611eda565b8114156122695761226984846002018461223788886004018888611c34565b61227884846003018484612463565b61228784846004018484612463565b61096e848484600161229a848484612477565b036124e4565b6000611bfe848484612477565b8015156122b957600080fd5b6122c584848484612414565b156122cf5761096e565b6122da8484846122a0565b15156122ef576122ef84846001018484611fea565b6122fd848460020184611eda565b156123375761231f848460030184612319888860020188611eda565b85612450565b612337848460040184846121de898960020189611eda565b612348846003850184846000612450565b61235784846002018484611fea565b61096e848484612368838383612477565b6001016124e4565b6123786125b2565b611bfe848484612389838383612477565b612552565b60008160200151600014806123b457506123b2848484606001518560400151612414565b155b156123c157506000610424565b5060019392505050565b60006123d884848461238e565b15156123e357600080fd5b50604081015160608201516123fc908590859084612572565b60408301526020909101805160001901905292915050565b60008115801590611cc2575061242f85856003018585611c34565b151580611cc2575081612446866002870186611eda565b1495945050505050565b8115610b0257610b028585858585611cda565b801561096e5761096e848484846000611cda565b825460018401548354604080516020808201939093528082018690528151808203830181526060909101918290528051600095600160a060020a0316946353aa3f5e94909391829184019080838360208310611f485780518252601f199092019160209182019101611f29565b835460018501548454604080516020808201939093528082018790528151808203830181526060909101918290528051600160a060020a03909516946353e7168b9493919291829190840190808383602083106120595780518252601f19909201916020918201910161203a565b61255a6125b2565b611cc28361256c878760010187611eda565b84612583565b6000611cc285856003018585611c34565b61258b6125b2565b50604080516080810182528281526020810192909252810191909152606081019190915290565b60408051608081018252600080825260208201819052918101829052606081019190915290565b825473ffffffffffffffffffffffffffffffffffffffff1916600160a060020a0392909216919091178255600190910155565b6105f1828261267a565b6105f1828261260c565b815461262c9082612907565b9055565b6105f18282612620565b815461262c9082612907565b6105f1828261260c565b6105f18282612620565b815461262c9082612907565b6105f18282612620565b6105f1828261291d565b6040805160208082018490527f75696e742f636f756e7400000000000000000000000000000000000000000000828401528251602a818403018152604a90920192839052815161272393869392909182918401908083835b602083106126f15780518252601f1990920191602091820191016126d2565b6001836020036101000a0380198251168184511680821785525050505050509050019150506040518091039020612620565b6040805160208082018490527f75696e742f666972737400000000000000000000000000000000000000000000828401528251602a818403018152604a90920192839052815161279c9360018701939290918291840190808383602083106126f15780518252601f1990920191602091820191016126d2565b6040805160208082018490527f75696e742f6c6173740000000000000000000000000000000000000000000000828401528251602981840301815260499092019283905281516128159360028701939290918291840190808383602083106126f15780518252601f1990920191602091820191016126d2565b6040805160208082018490527f75696e742f6e65787400000000000000000000000000000000000000000000008284015282516029818403018152604990920192839052815161288e9360038701939290918291840190808383602083106126f15780518252601f1990920191602091820191016126d2565b6040805160208082018490527f75696e742f707265760000000000000000000000000000000000000000000000828401528251602981840301815260499092019283905281516105f19360048701939290918291840190808383602083106126f15780518252601f1990920191602091820191016126d2565b81151580612913575080155b156105f157600080fd5b6040805160208082018490527f636f756e74000000000000000000000000000000000000000000000000000000828401528251602581840301815260459092019283905281516129939386939290918291840190808383602083106126f15780518252601f1990920191602091820191016126d2565b6040805160208082018490527f696e64657865730000000000000000000000000000000000000000000000000082840152825160278184030181526047909201928390528151612a0c9360018701939290918291840190808383602083106126f15780518252601f1990920191602091820191016126d2565b6040805160208082018490527f76616c7565730000000000000000000000000000000000000000000000000000828401528251602681840301815260469092019283905281516105f19360028701939290918291840190808383602083106126f15780518252601f1990920191602091820191016126d256006f20706572666f726d20612063616c6c000000000000000000000000000000004f6e6c792054696d65486f6c6465722073686f756c642062652061626c652074a165627a7a723058209205b6d148e71eea732f161d44a17653431beb401a67928d1db25ce7a070cc280029",
  "source": "/**\n * Copyright 20172018, LaborX PTY\n * Licensed under the AGPL Version 3 license.\n */\n\npragma solidity ^0.4.23;\n\n\nimport \"solidity-shared-lib/contracts/Owned.sol\";\nimport \"solidity-storage-lib/contracts/StorageAdapter.sol\";\nimport \"../lib/SafeMath.sol\";\n\n\n/// @title ERC20 Deposit storage.\n///\n/// Contract intends to keep track deposits records.\n/// Supports old and new versions of Deposits and utilized by TimeHolder\n/// to resolve deposit versions.\ncontract ERC20DepositStorage is Owned, StorageAdapter {\n\n    using SafeMath for uint;\n\n    /** Storage keys */\n\n    StorageInterface.OrderedAddressesSet private shareholders;\n    StorageInterface.UIntOrderedSetMapping private deposits;\n    StorageInterface.UInt private depositsIdCounter;\n    StorageInterface.AddressUIntUIntMapping private amounts;\n    StorageInterface.AddressUIntUIntMapping private timestamps;\n    StorageInterface.UInt private totalSharesStorage;\n    StorageInterface.Address private sharesContractStorage;\n\n    StorageInterface.AddressOrderedSetMapping private shareholders_v2;\n    StorageInterface.Bytes32UIntMapping private depositsIdCounters_v2;\n    StorageInterface.Mapping private amounts_v2; // mapping(bytes32(key)=>mapping(bytes32(idx)=>uint(amount))) // to TimeHolder\n    StorageInterface.Mapping private timestamps_v2; // mapping(bytes32(key)=>mapping(bytes32(idx)=>uint(time))) // to TimeHolder\n    StorageInterface.AddressUIntMapping private totalSharesStorage_v2;\n    StorageInterface.AddressesSet private sharesTokenStorage_v2;\n    StorageInterface.AddressUIntMapping private limitsStorage_v2;\n\n    /// Lock mining balance functionality\n\n    /// @dev Locked amount of tokens by a user\n    StorageInterface.Mapping lockedDepositsStorage_v2; // (user => token (or key in some cases) => locked amount)\n\n    /// @dev Restricts access to functions only for TimeHolder sender\n    modifier onlyTimeHolder {\n        bool permitted = store.store.manager().isAllowed(msg.sender, store.crate);\n        require(permitted, \"Only TimeHolder should be able to perform a call\");\n        _;\n    }\n\n    constructor(Storage _store, bytes32 _crate)\n    public\n    StorageAdapter(_store, _crate)\n    {\n        shareholders.init(\"shareholders\");\n        deposits.init(\"deposits\");\n        depositsIdCounter.init(\"depositsIdCounter\");\n        amounts.init(\"amounts\");\n        timestamps.init(\"timestamps\");\n        totalSharesStorage.init(\"totalSharesStorage\");\n        sharesContractStorage.init(\"sharesContractStorage\");\n\n        shareholders_v2.init(\"shareholders_v2\");\n        depositsIdCounters_v2.init(\"depositsIdCounters_v2\");\n        amounts_v2.init(\"amounts\");\n        timestamps_v2.init(\"timestamps\");\n        totalSharesStorage_v2.init(\"totalSharesStorage_v2\");\n        sharesTokenStorage_v2.init(\"sharesContractsStorage_v2\");\n        limitsStorage_v2.init(\"limitAmountsStorage_v2\");\n        lockedDepositsStorage_v2.init(\"lockedDepositsStorage_v2\");\n    }\n\n    /// @notice Sets shares token address as default token address. Used for supporting TIME tokens\n    /// @dev Allowed only for TimeHolder call\n    ///\n    /// @param _sharesContract TIME token address\n    function setSharesContract(address _sharesContract)\n    public\n    onlyTimeHolder\n    {\n        require(_sharesContract != 0x0, \"No shares address is specified\");\n        store.set(sharesContractStorage, _sharesContract);\n    }\n\n    /// @notice Gets address of shares contract\n    function getSharesContract()\n    public\n    view\n    returns (address)\n    {\n        return store.get(sharesContractStorage);\n    }\n\n    /// @notice Gets total number of deposited tokens provided as parameter\n    /// @param _token token address to get info\n    function totalShares(address _token)\n    public\n    view\n    returns (uint)\n    {\n        if (_token == store.get(sharesContractStorage)) {\n            return store.get(totalSharesStorage);\n        }\n\n        return store.get(totalSharesStorage_v2, _token);\n    }\n\n    /// @notice Number of shareholders for provided token\n    /// @return number of shareholders\n    function shareholdersCount(address _token)\n    public\n    view\n    returns (uint)\n    {\n        if (_token == store.get(sharesContractStorage)) {\n            return store.count(shareholders);\n        }\n\n        return store.count(shareholders_v2, bytes32(_token));\n    }\n\n    /// @notice Gets token amount deposited by a particular shareholder.\n    ///\n    /// @param _token token that was deposited\n    /// @param _depositor shareholder address.\n    ///\n    /// @return shares amount.\n    function depositBalance(address _token, address _depositor)\n    public\n    view\n    returns (uint _balance)\n    {\n        if (_token != store.get(sharesContractStorage)) {\n            bytes32 _key = keccak256(abi.encodePacked(_token, _depositor));\n            return _depositBalance(_key);\n        }\n\n        return _depositBalance(bytes32(_depositor));\n    }\n\n    /// @notice TODO:\n    function lockedDepositBalance(address _token, address _depositor)\n    public\n    view\n    returns (uint _balance) {\n        _balance = lockedDepositBalanceWithKey(_token, bytes32(_depositor));\n    }\n    \n    /// @notice TODO:\n    function lockedDepositBalanceWithKey(address _token, bytes32 _key)\n    public\n    view\n    returns (uint _balance) {\n        _balance = uint(store.get(lockedDepositsStorage_v2, _key, bytes32(_token)));\n    }\n\n    /// @notice Deposits for a _target for provided _amount of specified tokens\n    /// @dev Allowed only for TimeHolder call\n    ///\n    /// @param _token token to deposit. Should be in a whitelist\n    /// @param _target deposit destination\n    /// @param _amount amount of deposited tokens\n    function depositFor(address _token, address _target, uint _amount)\n    public\n    onlyTimeHolder\n    {\n        uint id;\n        uint prevAmount;\n\n        if (_token == store.get(sharesContractStorage)) {\n            store.add(shareholders, _target);\n\n            id = store.get(depositsIdCounter) + 1;\n            store.set(depositsIdCounter, id);\n            _addDeposit(bytes32(_target), bytes32(id), _amount);\n\n            prevAmount = store.get(totalSharesStorage);\n            store.set(totalSharesStorage, _amount.add(prevAmount));\n        } else {\n            store.add(shareholders_v2, bytes32(_token), _target);\n\n            bytes32 key = keccak256(abi.encodePacked(_token, _target));\n\n            id = store.get(depositsIdCounters_v2, key) + 1;\n            store.set(depositsIdCounters_v2, key, id);\n            _addDeposit(key, bytes32(id), _amount);\n\n            prevAmount = store.get(totalSharesStorage_v2, _token);\n            store.set(totalSharesStorage_v2, _token, _amount.add(prevAmount));\n        }\n    }\n\n    function unsafeLock(address _token, bytes32 _target, uint _amount)\n    public \n    onlyTimeHolder\n    {\n        uint _total = uint(store.get(lockedDepositsStorage_v2, _target, bytes32(_token)));\n        store.set(lockedDepositsStorage_v2, _target, bytes32(_token), bytes32(_total.add(_amount)));\n    }\n\n    function lock(address _token, address _target, uint _amount)\n    public\n    onlyTimeHolder\n    {\n        unsafeLock(_token, bytes32(_target), _amount);\n        withdrawShares(_token, _target, _amount, depositBalance(_token, _target));\n    }\n\n    function unsafeUnlock(address _token, bytes32 _target, uint _amount)\n    public\n    onlyTimeHolder\n    {\n        uint _total = uint(store.get(lockedDepositsStorage_v2, _target, bytes32(_token)));\n        store.set(lockedDepositsStorage_v2, _target, bytes32(_token), bytes32(_total.sub(_amount)));\n    }\n\n    function unlock(address _token, address _target, uint _amount)\n    public\n    onlyTimeHolder\n    {\n        unsafeUnlock(_token, bytes32(_target), _amount);\n        depositFor(_token, _target, _amount);\n    }\n\n    /// @notice Withdraws tokens back to provided account\n    /// @dev Allowed only for TimeHolder call\n    ///\n    /// @param _token token address\n    /// @param _account token recepient\n    /// @param _amount number of tokens to withdraw\n    /// @param _totalBalance total balance of shares\n    function withdrawShares(address _token, address _account, uint _amount, uint _totalBalance)\n    public\n    onlyTimeHolder\n    {\n        if (_totalBalance == 0) {\n            return;\n        }\n\n        if (_token == store.get(sharesContractStorage)) {\n            uint deposits_count_left_v1 = _withdrawShares(bytes32(_account), _amount);\n\n            if (deposits_count_left_v1 == 0) {\n                store.remove(shareholders, _account);\n            }\n\n            uint prevAmount_v1 = store.get(totalSharesStorage);\n            store.set(totalSharesStorage, prevAmount_v1.sub(_amount));\n        } else {\n            bytes32 _key = keccak256(abi.encodePacked(_token, _account));\n            uint deposits_count_left_v2 = _withdrawShares(_key, _amount);\n\n            if (deposits_count_left_v2 == 0) {\n                store.remove(shareholders_v2, bytes32(_token), _account);\n            }\n\n            uint prevAmount_v2 = store.get(totalSharesStorage_v2, _token);\n            store.set(totalSharesStorage_v2, _token, prevAmount_v2.sub(_amount));\n        }\n    }\n\n    /// @dev Iterates through deposits and calculates a sum\n    function _depositBalance(bytes32 _key)\n    private\n    view\n    returns (uint _balance)\n    {\n        StorageInterface.Iterator memory iterator = store.listIterator(deposits, _key);\n        for (uint i = 0; store.canGetNextWithIterator(deposits, iterator); ++i) {\n            uint _cur_amount = uint(store.get(amounts_v2, _key, bytes32(store.getNextWithIterator(deposits, iterator))));\n            _balance = _balance.add(_cur_amount);\n        }\n    }\n\n    /// @dev Saves deposit data with provided key\n    ///\n    /// @param _key might be a compositeKey or an account address\n    /// @param _id index of deposit\n    /// @param _amount amount of tokens to deposit\n    function _addDeposit(bytes32 _key, bytes32 _id, uint _amount)\n    private\n    {\n        store.add(deposits, _key, uint(_id));\n        store.set(amounts_v2, _key, _id, bytes32(_amount));\n        store.set(timestamps_v2, _key, _id, bytes32(now));\n    }\n\n    /// @dev Withdraws tokens for provided keys\n    ///\n    /// @param _key might be a compositeKey or an account address\n    /// @param _amount amount of tokens to withdraw\n    ///\n    /// @return _deposits_count_left amount of tokens that is left on deposits\n    function _withdrawShares(bytes32 _key, uint _amount)\n    private\n    returns (uint _deposits_count_left)\n    {\n        StorageInterface.Iterator memory iterator = store.listIterator(deposits, _key);\n        _deposits_count_left = iterator.count();\n        while (store.canGetNextWithIterator(deposits, iterator)) {\n            uint _id = store.getNextWithIterator(deposits, iterator);\n            (_deposits_count_left, _amount) = _withdrawSharesFromDepositV2(_key, _id, _amount, _deposits_count_left);\n            if (_amount == 0) {\n                break;\n            }\n        }\n    } \n\n    /// @dev Withdraws shares from one of made deposits.\n    ///\n    /// @param _key composite key from keccak256(symbol, user)\n    /// @param _id deposit key\n    /// @param _amount deposit amount to withdraw\n    /// @param _depositsLeft number of deposits left\n    ///\n    /// @return {\n    ///   updated deposits left,\n    ///   updated amount left,\n    /// }\n    function _withdrawSharesFromDepositV2(bytes32 _key, uint _id, uint _amount, uint _depositsLeft)\n    private\n    returns (uint, uint)\n    {\n        uint _cur_amount = uint(store.get(amounts_v2, _key, bytes32(_id)));\n        if (_amount < _cur_amount) {\n            store.set(amounts_v2, _key, bytes32(_id), bytes32(_cur_amount.sub(_amount)));\n            return (_depositsLeft, 0);\n        }\n\n        store.remove(deposits, _key, _id);\n        return (_depositsLeft.sub(1), _amount.sub(_cur_amount));\n    }\n}\n",
  "sourcePath": "/Users/alesanro/Documents/Projects/ChronoBank/LXsidechain-sc/contracts/timeholder/ERC20DepositStorage.sol",
  "compiler": {
    "name": "solc",
    "version": "0.4.24+commit.e67f0147.Emscripten.clang"
  },
  "schemaVersion": "2.0.1",
  "updatedAt": "2018-07-27T20:29:06.206Z"
}