{
  "contractName": "FakeCoin",
  "abi": [
    {
      "constant": true,
      "inputs": [],
      "name": "name",
      "outputs": [
        {
          "name": "",
          "type": "string"
        }
      ],
      "payable": false,
      "stateMutability": "view",
      "type": "function"
    },
    {
      "constant": true,
      "inputs": [],
      "name": "decimals",
      "outputs": [
        {
          "name": "",
          "type": "uint256"
        }
      ],
      "payable": false,
      "stateMutability": "view",
      "type": "function"
    },
    {
      "constant": true,
      "inputs": [
        {
          "name": "",
          "type": "address"
        }
      ],
      "name": "balanceOf",
      "outputs": [
        {
          "name": "",
          "type": "uint256"
        }
      ],
      "payable": false,
      "stateMutability": "view",
      "type": "function"
    },
    {
      "constant": true,
      "inputs": [],
      "name": "symbol",
      "outputs": [
        {
          "name": "",
          "type": "string"
        }
      ],
      "payable": false,
      "stateMutability": "view",
      "type": "function"
    },
    {
      "inputs": [
        {
          "name": "_symbol",
          "type": "string"
        },
        {
          "name": "_name",
          "type": "string"
        },
        {
          "name": "_decimals",
          "type": "uint256"
        }
      ],
      "payable": false,
      "stateMutability": "nonpayable",
      "type": "constructor"
    },
    {
      "anonymous": false,
      "inputs": [
        {
          "indexed": true,
          "name": "from",
          "type": "address"
        },
        {
          "indexed": true,
          "name": "to",
          "type": "address"
        },
        {
          "indexed": false,
          "name": "value",
          "type": "uint256"
        }
      ],
      "name": "Transfer",
      "type": "event"
    },
    {
      "constant": false,
      "inputs": [
        {
          "name": "_to",
          "type": "address"
        },
        {
          "name": "_value",
          "type": "uint256"
        }
      ],
      "name": "mint",
      "outputs": [],
      "payable": false,
      "stateMutability": "nonpayable",
      "type": "function"
    },
    {
      "constant": false,
      "inputs": [
        {
          "name": "_to",
          "type": "address"
        },
        {
          "name": "_value",
          "type": "uint256"
        }
      ],
      "name": "transfer",
      "outputs": [
        {
          "name": "",
          "type": "bool"
        }
      ],
      "payable": false,
      "stateMutability": "nonpayable",
      "type": "function"
    },
    {
      "constant": false,
      "inputs": [
        {
          "name": "_from",
          "type": "address"
        },
        {
          "name": "_to",
          "type": "address"
        },
        {
          "name": "_value",
          "type": "uint256"
        }
      ],
      "name": "transferFrom",
      "outputs": [
        {
          "name": "",
          "type": "bool"
        }
      ],
      "payable": false,
      "stateMutability": "nonpayable",
      "type": "function"
    },
    {
      "constant": true,
      "inputs": [
        {
          "name": "_holder",
          "type": "address"
        },
        {
          "name": "_spender",
          "type": "address"
        }
      ],
      "name": "allowance",
      "outputs": [
        {
          "name": "",
          "type": "uint256"
        }
      ],
      "payable": false,
      "stateMutability": "view",
      "type": "function"
    }
  ],
  "bytecode": "0x608060405234801561001057600080fd5b5060405161058738038061058783398101604090815281516020808401519284015191840180519094939093019261004e916000919086019061006e565b50815161006290600190602085019061006e565b50600255506101099050565b828054600181600116156101000203166002900490600052602060002090601f016020900481019282601f106100af57805160ff19168380011785556100dc565b828001600101855582156100dc579182015b828111156100dc5782518255916020019190600101906100c1565b506100e89291506100ec565b5090565b61010691905b808211156100e857600081556001016100f2565b90565b61046f806101186000396000f30060806040526004361061008d5763ffffffff7c010000000000000000000000000000000000000000000000000000000060003504166306fdde03811461009257806323b872dd1461011c578063313ce5671461015a57806340c10f191461018157806370a08231146101a757806395d89b41146101c8578063a9059cbb146101dd578063dd62ed3e14610201575b600080fd5b34801561009e57600080fd5b506100a7610228565b6040805160208082528351818301528351919283929083019185019080838360005b838110156100e15781810151838201526020016100c9565b50505050905090810190601f16801561010e5780820380516001836020036101000a031916815260200191505b509250505060405180910390f35b34801561012857600080fd5b50610146600160a060020a03600435811690602435166044356102b5565b604080519115158252519081900360200190f35b34801561016657600080fd5b5061016f61034f565b60408051918252519081900360200190f35b34801561018d57600080fd5b506101a5600160a060020a0360043516602435610355565b005b3480156101b357600080fd5b5061016f600160a060020a03600435166103ad565b3480156101d457600080fd5b506100a76103bf565b3480156101e957600080fd5b50610146600160a060020a036004351660243561041a565b34801561020d57600080fd5b5061016f600160a060020a0360043581169060243516610427565b60018054604080516020600284861615610100026000190190941693909304601f810184900484028201840190925281815292918301828280156102ad5780601f10610282576101008083540402835291602001916102ad565b820191906000526020600020905b81548152906001019060200180831161029057829003601f168201915b505050505081565b600160a060020a0383166000908152600460205260408120548211156102dd57506000610348565b600160a060020a03808516600081815260046020908152604080832080548890039055938716808352918490208054870190558351868152935191937fddf252ad1be2c89b69c2b068fc378daa952ba7f163c4a11628f55a4df523b3ef929081900390910190a35060015b9392505050565b60025481565b600160a060020a0382166000818152600460209081526040918290208054850190558151848152915130927fddf252ad1be2c89b69c2b068fc378daa952ba7f163c4a11628f55a4df523b3ef92908290030190a35050565b60046020526000908152604090205481565b6000805460408051602060026001851615610100026000190190941693909304601f810184900484028201840190925281815292918301828280156102ad5780601f10610282576101008083540402835291602001916102ad565b60006103483384846102b5565b50600160a060020a0316600090815260046020526040902054905600a165627a7a723058203b73cf8abc06c5fe16fac9565befcfbd06214430b1e1d7e96029ac608a5c693e0029",
  "source": "/**\n * Copyright 2017–2018, LaborX PTY\n * Licensed under the AGPL Version 3 license.\n */\n\npragma solidity ^0.4.23;\n\n\n// For testing purposes\ncontract FakeCoin {\n    string public symbol;\n    string public name;\n    uint public decimals;\n    uint totalSupply;\n\n    event Transfer(address indexed from, address indexed to, uint256 value);\n\n    mapping (address => uint) public balanceOf;\n\n    function FakeCoin(string _symbol, string _name, uint _decimals)\n    public\n    {\n        symbol = _symbol;\n        name = _name;\n        decimals = _decimals;\n    }\n\n    function mint(address _to, uint _value) public {\n        balanceOf[_to] += _value;\n        totalSupply != _value;\n        emit Transfer(this, _to, _value);\n    }\n\n    function transfer(address _to, uint _value) public returns (bool) {\n        return transferFrom(msg.sender, _to, _value);\n    }\n\n    function transferFrom(address _from, address _to, uint _value) public returns (bool) {\n        if (balanceOf[_from] < _value) {\n            return false;\n        }\n        balanceOf[_from] -= _value;\n        balanceOf[_to] += _value;\n        emit Transfer(_from, _to, _value);\n        return true;\n    }\n\n    function allowance(address _holder, address _spender) public view returns (uint) {\n        return balanceOf[_holder];\n    }\n}\n",
  "sourcePath": "/Users/alesanro/Documents/Projects/ChronoBank/LXsidechain-sc/contracts/helper/FakeCoin.sol",
  "compiler": {
    "name": "solc",
    "version": "0.4.24+commit.e67f0147.Emscripten.clang"
  },
  "schemaVersion": "2.0.1",
  "updatedAt": "2018-07-27T20:15:18.609Z"
}