{
  "contractName": "LXBlockRewardTestable",
  "abi": [
    {
      "constant": true,
      "inputs": [],
      "name": "dataProvider",
      "outputs": [
        {
          "name": "",
          "type": "address"
        }
      ],
      "payable": false,
      "stateMutability": "view",
      "type": "function"
    },
    {
      "constant": false,
      "inputs": [
        {
          "name": "_dataProvider",
          "type": "address"
        }
      ],
      "name": "setDataProvider",
      "outputs": [],
      "payable": false,
      "stateMutability": "nonpayable",
      "type": "function"
    },
    {
      "constant": true,
      "inputs": [],
      "name": "contractOwner",
      "outputs": [
        {
          "name": "",
          "type": "address"
        }
      ],
      "payable": false,
      "stateMutability": "view",
      "type": "function"
    },
    {
      "constant": false,
      "inputs": [
        {
          "name": "newOwner",
          "type": "address"
        }
      ],
      "name": "transferOwnership",
      "outputs": [],
      "payable": false,
      "stateMutability": "nonpayable",
      "type": "function"
    },
    {
      "constant": false,
      "inputs": [
        {
          "name": "benefactors",
          "type": "address[]"
        },
        {
          "name": "kind",
          "type": "uint16[]"
        }
      ],
      "name": "reward",
      "outputs": [
        {
          "name": "",
          "type": "address[]"
        },
        {
          "name": "",
          "type": "uint256[]"
        }
      ],
      "payable": false,
      "stateMutability": "nonpayable",
      "type": "function"
    },
    {
      "inputs": [
        {
          "name": "_owner",
          "type": "address"
        }
      ],
      "payable": false,
      "stateMutability": "nonpayable",
      "type": "constructor"
    },
    {
      "anonymous": false,
      "inputs": [
        {
          "indexed": true,
          "name": "previousOwner",
          "type": "address"
        },
        {
          "indexed": true,
          "name": "newOwner",
          "type": "address"
        }
      ],
      "name": "OwnershipTransferred",
      "type": "event"
    }
  ],
  "bytecode": "0x608060405234801561001057600080fd5b50604051602080610559833981016040525160008054600160a060020a03191633600160a060020a039081169190911790915581908116151561005257600080fd5b60008054600160a060020a03909216600160a060020a0319909216919091179055506104d6806100836000396000f30060806040526004361061006c5763ffffffff7c0100000000000000000000000000000000000000000000000000000000600035041663b334ed868114610071578063cc01f875146100a2578063ce606ee0146100c5578063f2fde38b146100da578063f91c2898146100fb575b600080fd5b34801561007d57600080fd5b506100866101c0565b60408051600160a060020a039092168252519081900360200190f35b3480156100ae57600080fd5b506100c3600160a060020a03600435166101cf565b005b3480156100d157600080fd5b50610086610219565b3480156100e657600080fd5b506100c3600160a060020a0360043516610228565b34801561010757600080fd5b5061012760246004803582810192908201359181359182019101356102c0565b604051808060200180602001838103835285818151815260200191508051906020019060200280838360005b8381101561016b578181015183820152602001610153565b50505050905001838103825284818151815260200191508051906020019060200280838360005b838110156101aa578181015183820152602001610192565b5050505090500194505050505060405180910390f35b600154600160a060020a031681565b60005433600160a060020a039081169116146101ea57600080fd5b6001805473ffffffffffffffffffffffffffffffffffffffff1916600160a060020a0392909216919091179055565b600054600160a060020a031681565b60005433600160a060020a0390811691161461024357600080fd5b600160a060020a038116151561025857600080fd5b60008054604051600160a060020a03808516939216917f8be0079c531659141344cd1fd0a4f28419497f9722a3daafe3b4186f6b6457e091a36000805473ffffffffffffffffffffffffffffffffffffffff1916600160a060020a0392909216919091179055565b60608080600033600160a060020a031673fffffffffffffffffffffffffffffffffffffffe146102ef57600080fd5b8685146102fb57600080fd5b604080518881526020808a02820101909152878015610324578160200160208202803883390190505b509150600090505b815181101561046757600154600160a060020a03161561044457600154600160a060020a03166321670f2289898481811061036357fe5b90506020020135600160a060020a0316888885818110151561038157fe5b9050602002013561ffff166040518363ffffffff167c01000000000000000000000000000000000000000000000000000000000281526004018083600160a060020a0316600160a060020a031681526020018261ffff16815260200192505050602060405180830381600087803b1580156103fb57600080fd5b505af115801561040f573d6000803e3d6000fd5b505050506040513d602081101561042557600080fd5b5051825183908390811061043557fe5b6020908102909101015261045f565b6000828281518110151561045457fe5b602090810290910101525b60010161032c565b87878382828080602002602001604051908101604052809392919081815260200183836020028082843750949b50949950505050505050505050945094925050505600a165627a7a72305820edee7c7b208cd4436893b127e59c24513de91eeb95baecf577ad8469dcaa12d80029",
  "source": "/**\n * Copyright 2017–2018, LaborX PTY\n * Licensed under the AGPL Version 3 license.\n */\n\npragma solidity ^0.4.23;\n\nimport \"../genesis/blockreward/LXBlockReward.sol\";\n\ncontract LXBlockRewardTestable is LXBlockReward {\n    constructor(address _owner)\n    LXBlockReward(_owner)\n    public {        \n    }\n}\n",
  "sourcePath": "/Users/ahiatsevich/Development/chronobank/LXsidechain-sc/contracts/helper/LXBlockRewardTestable.sol",
  "compiler": {
    "name": "solc",
    "version": "0.4.23+commit.124ca40d.Emscripten.clang"
  },
  "schemaVersion": "2.0.0",
  "updatedAt": "2018-05-29T13:51:30.353Z"
}