{
  "contractName": "LXBlockReward",
  "abi": [
    {
      "constant": false,
      "inputs": [],
      "name": "claimContractOwnership",
      "outputs": [
        {
          "name": "",
          "type": "bool"
        }
      ],
      "payable": false,
      "stateMutability": "nonpayable",
      "type": "function"
    },
    {
      "constant": false,
      "inputs": [
        {
          "name": "_to",
          "type": "address"
        }
      ],
      "name": "changeContractOwnership",
      "outputs": [
        {
          "name": "",
          "type": "bool"
        }
      ],
      "payable": false,
      "stateMutability": "nonpayable",
      "type": "function"
    },
    {
      "constant": true,
      "inputs": [],
      "name": "pendingContractOwner",
      "outputs": [
        {
          "name": "",
          "type": "address"
        }
      ],
      "payable": false,
      "stateMutability": "view",
      "type": "function"
    },
    {
      "constant": false,
      "inputs": [
        {
          "name": "tokens",
          "type": "address[]"
        }
      ],
      "name": "withdrawTokens",
      "outputs": [],
      "payable": false,
      "stateMutability": "nonpayable",
      "type": "function"
    },
    {
      "constant": false,
      "inputs": [],
      "name": "withdrawEther",
      "outputs": [],
      "payable": false,
      "stateMutability": "nonpayable",
      "type": "function"
    },
    {
      "constant": true,
      "inputs": [],
      "name": "dataProvider",
      "outputs": [
        {
          "name": "",
          "type": "address"
        }
      ],
      "payable": false,
      "stateMutability": "view",
      "type": "function"
    },
    {
      "constant": true,
      "inputs": [],
      "name": "contractOwner",
      "outputs": [
        {
          "name": "",
          "type": "address"
        }
      ],
      "payable": false,
      "stateMutability": "view",
      "type": "function"
    },
    {
      "constant": false,
      "inputs": [
        {
          "name": "newOwner",
          "type": "address"
        }
      ],
      "name": "transferOwnership",
      "outputs": [
        {
          "name": "",
          "type": "bool"
        }
      ],
      "payable": false,
      "stateMutability": "nonpayable",
      "type": "function"
    },
    {
      "inputs": [
        {
          "name": "_owner",
          "type": "address"
        }
      ],
      "payable": false,
      "stateMutability": "nonpayable",
      "type": "constructor"
    },
    {
      "anonymous": false,
      "inputs": [
        {
          "indexed": true,
          "name": "previousOwner",
          "type": "address"
        },
        {
          "indexed": true,
          "name": "newOwner",
          "type": "address"
        }
      ],
      "name": "OwnershipTransferred",
      "type": "event"
    },
    {
      "constant": false,
      "inputs": [
        {
          "name": "benefactors",
          "type": "address[]"
        },
        {
          "name": "kind",
          "type": "uint16[]"
        }
      ],
      "name": "reward",
      "outputs": [
        {
          "name": "",
          "type": "address[]"
        },
        {
          "name": "",
          "type": "uint256[]"
        }
      ],
      "payable": false,
      "stateMutability": "nonpayable",
      "type": "function"
    },
    {
      "constant": false,
      "inputs": [
        {
          "name": "_dataProvider",
          "type": "address"
        }
      ],
      "name": "setDataProvider",
      "outputs": [],
      "payable": false,
      "stateMutability": "nonpayable",
      "type": "function"
    }
  ],
  "bytecode": "0x608060405234801561001057600080fd5b506040516020806108f0833981016040525160008054600160a060020a03191633179055600160a060020a038116151561004957600080fd5b60008054600160a060020a03909216600160a060020a0319909216919091179055610877806100796000396000f30060806040526004361061008a5763ffffffff60e060020a6000350416634592cd1d811461008f578063557f4bc9146100b85780635aa77d3c146100d95780635ecb16cd1461010a5780637362377b14610161578063b334ed8614610176578063cc01f8751461018b578063ce606ee0146101ac578063f2fde38b146101c1578063f91c2898146101e2575b600080fd5b34801561009b57600080fd5b506100a46102a7565b604080519115158252519081900360200190f35b3480156100c457600080fd5b506100a4600160a060020a0360043516610338565b3480156100e557600080fd5b506100ee610393565b60408051600160a060020a039092168252519081900360200190f35b34801561011657600080fd5b506040805160206004803580820135838102808601850190965280855261015f953695939460249493850192918291850190849080828437509497506103a29650505050505050565b005b34801561016d57600080fd5b5061015f610528565b34801561018257600080fd5b506100ee610586565b34801561019757600080fd5b5061015f600160a060020a0360043516610595565b3480156101b857600080fd5b506100ee6105d5565b3480156101cd57600080fd5b506100a4600160a060020a03600435166105e4565b3480156101ee57600080fd5b5061020e6024600480358281019290820135918135918201910135610683565b604051808060200180602001838103835285818151815260200191508051906020019060200280838360005b8381101561025257818101518382015260200161023a565b50505050905001838103825284818151815260200191508051906020019060200280838360005b83811015610291578181015183820152602001610279565b5050505090500194505050505060405180910390f35b600154600090600160a060020a031633146102c457506000610335565b60015460008054604051600160a060020a0393841693909116917f8be0079c531659141344cd1fd0a4f28419497f9722a3daafe3b4186f6b6457e091a350600180546000805473ffffffffffffffffffffffffffffffffffffffff19908116600160a060020a038416179091551681555b90565b60008054600160a060020a031633141561038e57600160a060020a03821615156103645750600061038e565b506001805473ffffffffffffffffffffffffffffffffffffffff1916600160a060020a0383161781555b919050565b600154600160a060020a031681565b60008054819081908190600160a060020a03163314156105215760008054600160a060020a0316945092505b84518310156105215784838151811015156103e557fe5b6020908102909101810151604080517f70a082310000000000000000000000000000000000000000000000000000000081523060048201529051919450600160a060020a038516926370a08231926024808401938290030181600087803b15801561044f57600080fd5b505af1158015610463573d6000803e3d6000fd5b505050506040513d602081101561047957600080fd5b5051905060008111156105165781600160a060020a031663a9059cbb85836040518363ffffffff1660e060020a0281526004018083600160a060020a0316600160a060020a0316815260200182815260200192505050602060405180830381600087803b1580156104e957600080fd5b505af11580156104fd573d6000803e3d6000fd5b505050506040513d602081101561051357600080fd5b50505b6001909201916103ce565b5050505050565b60008054600160a060020a03163314156105835750303160008111156105835760008054604051600160a060020a039091169183156108fc02918491818181858888f19350505050158015610581573d6000803e3d6000fd5b505b50565b600254600160a060020a031681565b600054600160a060020a03163314156105835760028054600160a060020a03831673ffffffffffffffffffffffffffffffffffffffff1990911617905550565b600054600160a060020a031681565b60008054600160a060020a031633141561038e57600160a060020a03821615156106105750600061038e565b60008054604051600160a060020a03808616939216917f8be0079c531659141344cd1fd0a4f28419497f9722a3daafe3b4186f6b6457e091a35060008054600160a060020a03831673ffffffffffffffffffffffffffffffffffffffff1991821617909155600180549091168155919050565b6060808060003373fffffffffffffffffffffffffffffffffffffffe146106a957600080fd5b8685146106b557600080fd5b604080518881526020808a028201019091528780156106de578160200160208202803883390190505b509150600090505b815181101561080857600254600160a060020a0316156107e557600254600160a060020a03166321670f2289898481811061071d57fe5b90506020020135600160a060020a0316888885818110151561073b57fe5b9050602002013561ffff166040518363ffffffff1660e060020a0281526004018083600160a060020a0316600160a060020a031681526020018261ffff16815260200192505050602060405180830381600087803b15801561079c57600080fd5b505af11580156107b0573d6000803e3d6000fd5b505050506040513d60208110156107c657600080fd5b505182518390839081106107d657fe5b60209081029091010152610800565b600082828151811015156107f557fe5b602090810290910101525b6001016106e6565b87878382828080602002602001604051908101604052809392919081815260200183836020028082843750949b50949950505050505050505050945094925050505600a165627a7a723058207bb855fa2d52496b03818d20c016281bc7f22808ccf9b24cebba97f2a6bbc1de0029",
  "source": "/**\n * Copyright 2017–2018, LaborX PTY\n * Licensed under the AGPL Version 3 license.\n */\n\npragma solidity ^0.4.23;\n\nimport \"solidity-shared-lib/contracts/Owned.sol\";\nimport \"./IBlockReward.sol\";\nimport \"../../validators/LXValidatorManager.sol\";\n\n\ncontract LXBlockReward is IBlockReward, Owned {\n    address constant SYSTEM_ADDRESS = 0xffffFFFfFFffffffffffffffFfFFFfffFFFfFFfE;\n    address public dataProvider;\n\n    modifier onlySystem {\n        require(msg.sender == SYSTEM_ADDRESS);\n        _;\n    }\n\n    constructor(address _owner) public {\n        require(_owner != 0x0);\n        contractOwner = _owner;\n    }\n\n    // produce rewards for the given benefactors, with corresponding reward codes.\n    // only callable by `SYSTEM_ADDRESS`\n    function reward(address[] benefactors, uint16[] kind)\n    external\n    onlySystem\n    returns (address[], uint256[])\n    {\n        require(benefactors.length == kind.length);\n\n        uint256[] memory rewards = new uint256[](benefactors.length);\n\n        for (uint i = 0; i < rewards.length; i++) {\n            if (dataProvider != 0x0) {\n                rewards[i] = LXValidatorManager(dataProvider).reward(benefactors[i], kind[i]);\n            } else {\n                rewards[i] = 0;\n            }\n        }\n\n        return (benefactors, rewards);\n    }\n\n    function setDataProvider(address _dataProvider) onlyContractOwner external {\n        dataProvider = _dataProvider;\n    }\n}\n",
  "sourcePath": "/Users/alesanro/Documents/Projects/ChronoBank/LXsidechain-sc/contracts/genesis/blockreward/LXBlockReward.sol",
  "compiler": {
    "name": "solc",
    "version": "0.4.24+commit.e67f0147.Emscripten.clang"
  },
  "schemaVersion": "2.0.1",
  "updatedAt": "2018-07-27T20:29:51.003Z"
}