{
  "contractName": "LXValidatorSetDelegate",
  "abi": [
    {
      "constant": false,
      "inputs": [],
      "name": "claimContractOwnership",
      "outputs": [
        {
          "name": "",
          "type": "bool"
        }
      ],
      "payable": false,
      "stateMutability": "nonpayable",
      "type": "function"
    },
    {
      "constant": false,
      "inputs": [
        {
          "name": "_to",
          "type": "address"
        }
      ],
      "name": "changeContractOwnership",
      "outputs": [
        {
          "name": "",
          "type": "bool"
        }
      ],
      "payable": false,
      "stateMutability": "nonpayable",
      "type": "function"
    },
    {
      "constant": true,
      "inputs": [],
      "name": "pendingContractOwner",
      "outputs": [
        {
          "name": "",
          "type": "address"
        }
      ],
      "payable": false,
      "stateMutability": "view",
      "type": "function"
    },
    {
      "constant": false,
      "inputs": [
        {
          "name": "tokens",
          "type": "address[]"
        }
      ],
      "name": "withdrawTokens",
      "outputs": [],
      "payable": false,
      "stateMutability": "nonpayable",
      "type": "function"
    },
    {
      "constant": false,
      "inputs": [],
      "name": "withdrawEther",
      "outputs": [],
      "payable": false,
      "stateMutability": "nonpayable",
      "type": "function"
    },
    {
      "constant": true,
      "inputs": [],
      "name": "validatorSet",
      "outputs": [
        {
          "name": "",
          "type": "address"
        }
      ],
      "payable": false,
      "stateMutability": "view",
      "type": "function"
    },
    {
      "constant": true,
      "inputs": [],
      "name": "contractOwner",
      "outputs": [
        {
          "name": "",
          "type": "address"
        }
      ],
      "payable": false,
      "stateMutability": "view",
      "type": "function"
    },
    {
      "constant": false,
      "inputs": [
        {
          "name": "newOwner",
          "type": "address"
        }
      ],
      "name": "transferOwnership",
      "outputs": [
        {
          "name": "",
          "type": "bool"
        }
      ],
      "payable": false,
      "stateMutability": "nonpayable",
      "type": "function"
    },
    {
      "inputs": [
        {
          "name": "_validatorSet",
          "type": "address"
        }
      ],
      "payable": false,
      "stateMutability": "nonpayable",
      "type": "constructor"
    },
    {
      "anonymous": false,
      "inputs": [
        {
          "indexed": true,
          "name": "previousOwner",
          "type": "address"
        },
        {
          "indexed": true,
          "name": "newOwner",
          "type": "address"
        }
      ],
      "name": "OwnershipTransferred",
      "type": "event"
    },
    {
      "constant": false,
      "inputs": [],
      "name": "initiateChange",
      "outputs": [],
      "payable": false,
      "stateMutability": "nonpayable",
      "type": "function"
    },
    {
      "constant": false,
      "inputs": [],
      "name": "iinalizeChange",
      "outputs": [],
      "payable": false,
      "stateMutability": "nonpayable",
      "type": "function"
    },
    {
      "constant": false,
      "inputs": [
        {
          "name": "",
          "type": "address"
        }
      ],
      "name": "addValidator",
      "outputs": [],
      "payable": false,
      "stateMutability": "nonpayable",
      "type": "function"
    },
    {
      "constant": false,
      "inputs": [
        {
          "name": "",
          "type": "address"
        }
      ],
      "name": "removeValidator",
      "outputs": [],
      "payable": false,
      "stateMutability": "nonpayable",
      "type": "function"
    },
    {
      "constant": false,
      "inputs": [
        {
          "name": "",
          "type": "uint256"
        }
      ],
      "name": "setRecentBlocks",
      "outputs": [],
      "payable": false,
      "stateMutability": "nonpayable",
      "type": "function"
    },
    {
      "constant": false,
      "inputs": [
        {
          "name": "",
          "type": "address"
        },
        {
          "name": "",
          "type": "uint256"
        },
        {
          "name": "",
          "type": "bytes"
        }
      ],
      "name": "reportMalicious",
      "outputs": [],
      "payable": false,
      "stateMutability": "nonpayable",
      "type": "function"
    },
    {
      "constant": false,
      "inputs": [
        {
          "name": "",
          "type": "address"
        },
        {
          "name": "",
          "type": "uint256"
        }
      ],
      "name": "reportBenign",
      "outputs": [],
      "payable": false,
      "stateMutability": "nonpayable",
      "type": "function"
    }
  ],
  "bytecode": "0x608060405234801561001057600080fd5b50604051602080610791833981016040525160008054600160a060020a0319908116331790915560028054600160a060020a03909316929091169190911790556107328061005f6000396000f3006080604052600436106100da5763ffffffff7c010000000000000000000000000000000000000000000000000000000060003504166340a141ff81146100df5780634592cd1d146101025780634d238c8e146100df578063557f4bc91461012b5780635aa77d3c1461014c5780635ecb16cd1461017d5780637362377b146101d25780638c90ac07146101e75780639426e226146101ff578063b327374814610214578063c476dd4014610229578063c64a01b914610214578063ce606ee014610292578063d69f13bb146102a7578063f2fde38b146102cb575b600080fd5b3480156100eb57600080fd5b50610100600160a060020a03600435166102ec565b005b34801561010e57600080fd5b50610117610306565b604080519115158252519081900360200190f35b34801561013757600080fd5b50610117600160a060020a0360043516610397565b34801561015857600080fd5b506101616103f2565b60408051600160a060020a039092168252519081900360200190f35b34801561018957600080fd5b5060408051602060048035808201358381028086018501909652808552610100953695939460249493850192918291850190849080828437509497506104019650505050505050565b3480156101de57600080fd5b506101006105a0565b3480156101f357600080fd5b506101006004356102ec565b34801561020b57600080fd5b506101616105fd565b34801561022057600080fd5b5061010061060c565b34801561023557600080fd5b50604080516020600460443581810135601f8101849004840285018401909552848452610100948235600160a060020a03169460248035953695946064949201919081908401838280828437509497506106259650505050505050565b34801561029e57600080fd5b50610161610641565b3480156102b357600080fd5b50610100600160a060020a0360043516602435610650565b3480156102d757600080fd5b50610117600160a060020a0360043516610667565b600254600160a060020a0316331461030357600080fd5b50565b600154600090600160a060020a0316331461032357506000610394565b60015460008054604051600160a060020a0393841693909116917f8be0079c531659141344cd1fd0a4f28419497f9722a3daafe3b4186f6b6457e091a350600180546000805473ffffffffffffffffffffffffffffffffffffffff19908116600160a060020a038416179091551681555b90565b60008054600160a060020a03163314156103ed57600160a060020a03821615156103c3575060006103ed565b506001805473ffffffffffffffffffffffffffffffffffffffff1916600160a060020a0383161781555b919050565b600154600160a060020a031681565b60008054819081908190600160a060020a03163314156105995760008054600160a060020a0316945092505b845183101561059957848381518110151561044457fe5b6020908102909101810151604080517f70a082310000000000000000000000000000000000000000000000000000000081523060048201529051919450600160a060020a038516926370a08231926024808401938290030181600087803b1580156104ae57600080fd5b505af11580156104c2573d6000803e3d6000fd5b505050506040513d60208110156104d857600080fd5b50519050600081111561058e5781600160a060020a031663a9059cbb85836040518363ffffffff167c01000000000000000000000000000000000000000000000000000000000281526004018083600160a060020a0316600160a060020a0316815260200182815260200192505050602060405180830381600087803b15801561056157600080fd5b505af1158015610575573d6000803e3d6000fd5b505050506040513d602081101561058b57600080fd5b50505b60019092019161042d565b5050505050565b60008054600160a060020a03163314156103035750303160008111156103035760008054604051600160a060020a039091169183156108fc02918491818181858888f193505050501580156105f9573d6000803e3d6000fd5b5050565b600254600160a060020a031681565b600254600160a060020a0316331461062357600080fd5b565b600254600160a060020a0316331461063c57600080fd5b505050565b600054600160a060020a031681565b600254600160a060020a031633146105f957600080fd5b60008054600160a060020a03163314156103ed57600160a060020a0382161515610693575060006103ed565b60008054604051600160a060020a03808616939216917f8be0079c531659141344cd1fd0a4f28419497f9722a3daafe3b4186f6b6457e091a35060008054600160a060020a03831673ffffffffffffffffffffffffffffffffffffffff19918216179091556001805490911681559190505600a165627a7a72305820538378a69a6ed6df84e6526287d5680d05d0e73d2aeef92a42836c12586034160029",
  "source": "/**\n* Copyright 2017–2018, LaborX PTY\n* Licensed under the AGPL Version 3 license.\n*/\n\npragma solidity ^0.4.23;\n\nimport \"solidity-shared-lib/contracts/Owned.sol\";\n\n\ncontract LXValidatorSetDelegate is Owned {\n    address public validatorSet;\n\n    modifier onlyValidatorSet() {\n        require(msg.sender == validatorSet);\n        _;\n    }\n\n    constructor(address _validatorSet)\n    public\n    {\n        validatorSet = _validatorSet;\n    }\n\n    function initiateChange()\n    public\n    onlyValidatorSet\n    {\n    }\n\n    function iinalizeChange()\n    public\n    onlyValidatorSet\n    {\n    }\n\n    function addValidator(address /*_validator*/)\n    public\n    onlyValidatorSet\n    {\n    }\n\n    function removeValidator(address /*_validator*/)\n    public\n    onlyValidatorSet\n    {\n    }\n\n    function setRecentBlocks(uint /*_recentBlocks*/)\n    public\n    onlyValidatorSet\n    {\n    }\n\n    function reportMalicious(address /*_validator*/, uint /*_blockNumber*/, bytes /*_proof*/)\n    public\n    onlyValidatorSet\n    {\n    }\n\n    function reportBenign(address /*_validator*/, uint /*_blockNumber*/)\n    public\n    onlyValidatorSet\n    {\n    }\n}\n",
  "sourcePath": "/Users/alesanro/Documents/Projects/ChronoBank/LXsidechain-sc/contracts/validators/LXValidatorSetDelegate.sol",
  "compiler": {
    "name": "solc",
    "version": "0.4.24+commit.e67f0147.Emscripten.clang"
  },
  "schemaVersion": "2.0.1",
  "updatedAt": "2018-07-27T20:15:18.670Z"
}