{
  "contractName": "LXValidatorManager",
  "abi": [
    {
      "constant": true,
      "inputs": [],
      "name": "shares",
      "outputs": [
        {
          "name": "",
          "type": "address"
        }
      ],
      "payable": false,
      "stateMutability": "view",
      "type": "function"
    },
    {
      "constant": true,
      "inputs": [],
      "name": "platform",
      "outputs": [
        {
          "name": "",
          "type": "address"
        }
      ],
      "payable": false,
      "stateMutability": "view",
      "type": "function"
    },
    {
      "constant": true,
      "inputs": [],
      "name": "validatorSet",
      "outputs": [
        {
          "name": "",
          "type": "address"
        }
      ],
      "payable": false,
      "stateMutability": "view",
      "type": "function"
    },
    {
      "constant": true,
      "inputs": [],
      "name": "k",
      "outputs": [
        {
          "name": "",
          "type": "uint256"
        }
      ],
      "payable": false,
      "stateMutability": "view",
      "type": "function"
    },
    {
      "constant": true,
      "inputs": [],
      "name": "contractOwner",
      "outputs": [
        {
          "name": "",
          "type": "address"
        }
      ],
      "payable": false,
      "stateMutability": "view",
      "type": "function"
    },
    {
      "constant": true,
      "inputs": [
        {
          "name": "",
          "type": "address"
        }
      ],
      "name": "authorised",
      "outputs": [
        {
          "name": "",
          "type": "bool"
        }
      ],
      "payable": false,
      "stateMutability": "view",
      "type": "function"
    },
    {
      "constant": true,
      "inputs": [],
      "name": "eventsHistory",
      "outputs": [
        {
          "name": "",
          "type": "address"
        }
      ],
      "payable": false,
      "stateMutability": "view",
      "type": "function"
    },
    {
      "constant": false,
      "inputs": [
        {
          "name": "newOwner",
          "type": "address"
        }
      ],
      "name": "transferOwnership",
      "outputs": [],
      "payable": false,
      "stateMutability": "nonpayable",
      "type": "function"
    },
    {
      "inputs": [
        {
          "name": "_validatorSet",
          "type": "address"
        },
        {
          "name": "_platform",
          "type": "address"
        },
        {
          "name": "_shares",
          "type": "address"
        }
      ],
      "payable": false,
      "stateMutability": "nonpayable",
      "type": "constructor"
    },
    {
      "anonymous": false,
      "inputs": [
        {
          "indexed": true,
          "name": "previousOwner",
          "type": "address"
        },
        {
          "indexed": true,
          "name": "newOwner",
          "type": "address"
        }
      ],
      "name": "OwnershipTransferred",
      "type": "event"
    },
    {
      "constant": false,
      "inputs": [
        {
          "name": "_eventsHistory",
          "type": "address"
        }
      ],
      "name": "setupEventsHistory",
      "outputs": [],
      "payable": false,
      "stateMutability": "nonpayable",
      "type": "function"
    },
    {
      "constant": false,
      "inputs": [
        {
          "name": "_k",
          "type": "uint256"
        }
      ],
      "name": "setupRewardCoefficient",
      "outputs": [],
      "payable": false,
      "stateMutability": "nonpayable",
      "type": "function"
    },
    {
      "constant": false,
      "inputs": [
        {
          "name": "_validator",
          "type": "address"
        }
      ],
      "name": "removeValidator",
      "outputs": [],
      "payable": false,
      "stateMutability": "nonpayable",
      "type": "function"
    },
    {
      "constant": false,
      "inputs": [],
      "name": "finalizeChange",
      "outputs": [],
      "payable": false,
      "stateMutability": "nonpayable",
      "type": "function"
    },
    {
      "constant": false,
      "inputs": [
        {
          "name": "_from",
          "type": "address"
        },
        {
          "name": "_to",
          "type": "address"
        },
        {
          "name": "_value",
          "type": "uint256"
        },
        {
          "name": "_symbol",
          "type": "bytes32"
        }
      ],
      "name": "onTransfer",
      "outputs": [],
      "payable": false,
      "stateMutability": "nonpayable",
      "type": "function"
    },
    {
      "constant": true,
      "inputs": [
        {
          "name": "_someone",
          "type": "address"
        }
      ],
      "name": "isPending",
      "outputs": [
        {
          "name": "",
          "type": "bool"
        }
      ],
      "payable": false,
      "stateMutability": "view",
      "type": "function"
    },
    {
      "constant": true,
      "inputs": [
        {
          "name": "_someone",
          "type": "address"
        }
      ],
      "name": "isValidator",
      "outputs": [
        {
          "name": "",
          "type": "bool"
        }
      ],
      "payable": false,
      "stateMutability": "view",
      "type": "function"
    },
    {
      "constant": true,
      "inputs": [],
      "name": "getPending",
      "outputs": [
        {
          "name": "",
          "type": "address[]"
        }
      ],
      "payable": false,
      "stateMutability": "view",
      "type": "function"
    },
    {
      "constant": true,
      "inputs": [],
      "name": "getValidators",
      "outputs": [
        {
          "name": "",
          "type": "address[]"
        }
      ],
      "payable": false,
      "stateMutability": "view",
      "type": "function"
    },
    {
      "constant": true,
      "inputs": [
        {
          "name": "_benefactor",
          "type": "address"
        },
        {
          "name": "_kind",
          "type": "uint256"
        }
      ],
      "name": "reward",
      "outputs": [
        {
          "name": "",
          "type": "uint256"
        }
      ],
      "payable": false,
      "stateMutability": "view",
      "type": "function"
    }
  ],
  "bytecode": "0x6080604052633b9aca0060015534801561001857600080fd5b50604051606080610dd983398101604090815281516020830151919092015160008054600160a060020a03191633600160a060020a03908116919091179091558316151561006557600080fd5b600160a060020a038216151561007a57600080fd5b600160a060020a038116151561008f57600080fd5b60048054600160a060020a03948516600160a060020a031991821617909155600580549385169382169390931790925560068054919093169116179055610cfe806100db6000396000f3006080604052600436106100fb5763ffffffff7c010000000000000000000000000000000000000000000000000000000060003504166302927d20811461010057806303314efa1461012357806311ae9ed21461015457806321670f22146101b957806340a141ff146101ef5780634bde38c8146102105780635d5a1e1d14610225578063752862111461023d5780639426e22614610252578063a00745b614610267578063b4f40c611461029c578063b7ab4db5146102b1578063ce606ee0146102c6578063d6eb1bbf146102db578063f07629f8146102fc578063f2fde38b14610311578063f957b54714610332578063facd743b1461035f575b600080fd5b34801561010c57600080fd5b50610121600160a060020a0360043516610380565b005b34801561012f57600080fd5b506101386103ca565b60408051600160a060020a039092168252519081900360200190f35b34801561016057600080fd5b506101696103d9565b60408051602080825283518183015283519192839290830191858101910280838360005b838110156101a557818101518382015260200161018d565b505050509050019250505060405180910390f35b3480156101c557600080fd5b506101dd600160a060020a036004351660243561043c565b60408051918252519081900360200190f35b3480156101fb57600080fd5b50610121600160a060020a0360043516610503565b34801561021c57600080fd5b50610138610557565b34801561023157600080fd5b50610121600435610566565b34801561024957600080fd5b50610121610586565b34801561025e57600080fd5b506101386105cc565b34801561027357600080fd5b50610288600160a060020a03600435166105db565b604080519115158252519081900360200190f35b3480156102a857600080fd5b506101dd6105f9565b3480156102bd57600080fd5b506101696105ff565b3480156102d257600080fd5b5061013861065f565b3480156102e757600080fd5b50610288600160a060020a036004351661066e565b34801561030857600080fd5b50610138610683565b34801561031d57600080fd5b50610121600160a060020a0360043516610692565b34801561033e57600080fd5b50610121600160a060020a036004358116906024351660443560643561072a565b34801561036b57600080fd5b50610288600160a060020a036004351661077e565b60005433600160a060020a0390811691161461039b57600080fd5b6007805473ffffffffffffffffffffffffffffffffffffffff1916600160a060020a0392909216919091179055565b600654600160a060020a031681565b6060600980548060200260200160405190810160405280929190818152602001828054801561043157602002820191906000526020600020905b8154600160a060020a03168152600190910190602001808311610413575b505050505090505b90565b600080821561044e57600091506104fc565b600654604080517f70a08231000000000000000000000000000000000000000000000000000000008152600160a060020a038781166004830152915191909216916370a082319160248083019260209291908290030181600087803b1580156104b657600080fd5b505af11580156104ca573d6000803e3d6000fd5b505050506040513d60208110156104e057600080fd5b50516001549091506104f990829063ffffffff61083116565b91505b5092915050565b60005433600160a060020a03908116911614806105385750600160a060020a03331660009081526003602052604090205460ff165b151561054357600080fd5b61054c8161085c565b6105546109c7565b50565b600554600160a060020a031681565b60005433600160a060020a0390811691161461058157600080fd5b600155565b60045433600160a060020a03908116911614806105b1575060005433600160a060020a039081169116145b15156105bc57600080fd5b6009805461055491600891610c0e565b600454600160a060020a031681565b600160a060020a03166000908152600a602052604090205460ff1690565b60015481565b6060600880548060200260200160405190810160405280929190818152602001828054801561043157602002820191906000526020600020908154600160a060020a03168152600190910190602001808311610413575050505050905090565b600054600160a060020a031681565b60036020526000908152604090205460ff1681565b600754600160a060020a031681565b60005433600160a060020a039081169116146106ad57600080fd5b600160a060020a03811615156106c257600080fd5b60008054604051600160a060020a03808516939216917f8be0079c531659141344cd1fd0a4f28419497f9722a3daafe3b4186f6b6457e091a36000805473ffffffffffffffffffffffffffffffffffffffff1916600160a060020a0392909216919091179055565b600554600090819033600160a060020a0390811691161461074a57600080fd5b61075386610a3d565b915061075e85610a3d565b905081806107695750805b15610776576107766109c7565b505050505050565b600160a060020a0381166000908152600a602052604081205460ff16801561082b575060048054604080517fb3f05b970000000000000000000000000000000000000000000000000000000081529051600160a060020a039092169263b3f05b979282820192602092908290030181600087803b1580156107fe57600080fd5b505af1158015610812573d6000803e3d6000fd5b505050506040513d602081101561082857600080fd5b50515b92915050565b600082820283158061084d575082848281151561084a57fe5b04145b151561085557fe5b9392505050565b600160a060020a0381166000908152600a6020526040902054819060ff16156109c35760098054600019810190811061089157fe5b6000918252602080832090910154600160a060020a038581168452600a9092526040909220600101546009805492909316929181106108cc57fe5b6000918252602080832091909101805473ffffffffffffffffffffffffffffffffffffffff1916600160a060020a039485161790559184168152600a91829052604081206001015460098054919392918490811061092657fe5b6000918252602080832090910154600160a060020a0316835282019290925260400190206001015560098054600019810190811061096057fe5b6000918252602090912001805473ffffffffffffffffffffffffffffffffffffffff191690556009805490610999906000198301610c5e565b50600160a060020a0382166000908152600a602052604081206001810191909155805460ff191690555b5050565b60048054604080517fb32737480000000000000000000000000000000000000000000000000000000081529051600160a060020a039092169263b327374892828201926000929082900301818387803b158015610a2357600080fd5b505af1158015610a37573d6000803e3d6000fd5b50505050565b600080600160a060020a0383161515610a595760009150610b6b565b600160a060020a03831660009081526002602052604090205460ff1615610a835760009150610b6b565b600654604080517f70a08231000000000000000000000000000000000000000000000000000000008152600160a060020a038681166004830152915191909216916370a082319160248083019260209291908290030181600087803b158015610aeb57600080fd5b505af1158015610aff573d6000803e3d6000fd5b505050506040513d6020811015610b1557600080fd5b50519050600081118015610b2f5750610b2d836105db565b155b15610b4657610b3d83610b71565b60019150610b6b565b80158015610b585750610b58836105db565b15610b6b57610b668361085c565b600191505b50919050565b600160a060020a0381166000908152600a6020526040902054819060ff1615156109c35750600160a060020a03166000818152600a60205260408120805460ff1916600190811782556009805492820183905590820181559091527f6e1540171b6c0c960b71a7020d9f60077f6af931a8bbf590da0223dacf75c7af01805473ffffffffffffffffffffffffffffffffffffffff19169091179055565b828054828255906000526020600020908101928215610c4e5760005260206000209182015b82811115610c4e578254825591600101919060010190610c33565b50610c5a929150610c87565b5090565b815481835581811115610c8257600083815260209020610c82918101908301610cb8565b505050565b61043991905b80821115610c5a57805473ffffffffffffffffffffffffffffffffffffffff19168155600101610c8d565b61043991905b80821115610c5a5760008155600101610cbe5600a165627a7a723058205cc57aac9400c3d1ab1a8f52df9bcece74a54072a42bcee26b1f9ab37c3170d00029",
  "source": "/**\n * Copyright 2017–2018, LaborX PTY\n * Licensed under the AGPL Version 3 license.\n */\n\npragma solidity ^0.4.23;\n\nimport \"../common/Owned.sol\";\nimport \"../genesis/validatorset/ILXValidatorSet.sol\";\nimport \"../platform/LXAssetListener.sol\";\nimport \"../common/ERC20.sol\";\nimport \"../platform/ChronoBankPlatform.sol\";\nimport \"../platform/ChronoBankAssetProxyInterface.sol\";\nimport \"../lib/SafeMath.sol\";\n\ncontract LXValidatorManager is Owned, LXAssetListener {\n    using SafeMath for uint;\n\n    struct AddressStatus {\n        bool isIn;\n        uint index;\n    }\n\n    enum RewardKind {\n\t\tAuthor, /// Reward attributed to the block author.\n        DUMMY1,\n        DUMMY2,\n\t\tEmptyStep /// Reward attributed to the author(s) of empty step(s) included in the block (AuthorityRound engine).\n\t}\n\n    // 10 LTH / 100 TIME\n    uint constant DEFAULT_REWARD_COEFFICIENT = (10 * (10**18)) / (100 * (10**8));\n    uint public k = DEFAULT_REWARD_COEFFICIENT;\n\n    // address => (type => value)\n    mapping (address => bool) rewardBlacklist;\n    mapping (address => bool) public authorised;\n\n    address public validatorSet;\n    ChronoBankPlatform public platform;\n    ChronoBankAssetProxyInterface public shares;\n    address public eventsHistory;\n\n    // Current list of addresses entitled to participate in the consensus.\n    address[] validators;\n    address[] pending;\n    mapping(address => AddressStatus) pendingStatus;\n\n    modifier onlyAuthorised {\n        require(msg.sender == contractOwner || authorised[msg.sender]);\n        _;\n    }\n\n    modifier onlyPlatform() {\n        require(platform == msg.sender);\n        _;\n    }\n\n    modifier onlyValidatorSet {\n        require(msg.sender == validatorSet || msg.sender == contractOwner);\n        _;\n    }\n\n    modifier onlyPending(address _someone) {\n        if(pendingStatus[_someone].isIn)\n        _;\n    }\n\n    modifier onlyNotPending(address _someone) {\n        if(!pendingStatus[_someone].isIn)\n        _;\n    }\n\n    constructor(address _validatorSet, address _platform, address _shares)\n    public\n    {\n        require(_validatorSet != 0x0);\n        require(_platform != 0x0);\n        require(_shares != 0x0);\n\n        validatorSet = _validatorSet;\n        platform = ChronoBankPlatform(_platform);\n        shares = ChronoBankAssetProxyInterface(_shares);\n    }\n\n    function setupEventsHistory(address _eventsHistory)\n    public\n    onlyContractOwner\n    {\n        eventsHistory = _eventsHistory;\n    }\n\n    function setupRewardCoefficient(uint _k)\n    public\n    onlyContractOwner\n    {\n        k = _k;\n    }\n\n    function addValidator(address _validator)\n    private\n    onlyAuthorised\n    {\n        _addValidator(_validator);\n        initiateChange();\n    }\n\n    // Remove a validator.\n    function removeValidator(address _validator)\n    public\n    onlyAuthorised\n    {\n        _removeValidator(_validator);\n        initiateChange();\n    }\n\n    // callback from validatorSet\n    function finalizeChange()\n    public\n    onlyValidatorSet\n    {\n        validators = pending;\n    }\n\n    function initiateChange()\n    private\n    {\n        ILXValidatorSet(validatorSet).initiateChange();\n    }\n\n    function onTransfer(address _from, address _to, uint _value, bytes32 _symbol)\n    public\n    onlyPlatform()\n    {\n        bool updatedFrom = _updateValidator(_from);\n        bool updatedTo = _updateValidator(_to);\n\n        if (updatedFrom || updatedTo) {\n            initiateChange();\n        }\n    }\n\n    function isPending(address _someone)\n    public\n    view\n    returns (bool)\n    {\n        return pendingStatus[_someone].isIn;\n    }\n\n    function isValidator(address _someone)\n    public\n    view\n    returns (bool)\n    {\n        return pendingStatus[_someone].isIn && ILXValidatorSet(validatorSet).finalized();\n    }\n\n    function getPending()\n    public\n    view\n    returns (address [])\n    {\n        return pending;\n    }\n\n    function getValidators()\n    public\n    view\n    returns (address [])\n    {\n        return validators;\n    }\n\n    function reward(address _benefactor, uint _kind)\n    public\n    view\n    returns (uint)\n    {\n        if (_kind != uint(RewardKind.Author)) {\n            return 0;\n        }\n\n        uint balance = shares.balanceOf(_benefactor);\n        return balance.mul(k);\n    }\n\n    function _updateValidator(address _someone)\n    private\n    returns (bool updated)\n    {\n        if (_someone == address(0x0)) {\n            return false;\n        }\n\n        if (rewardBlacklist[_someone]) {\n            return false;\n        }\n\n        uint balance = shares.balanceOf(_someone);\n\n        if (balance > 0 && !isPending(_someone)) {\n            _addValidator(_someone);\n            updated = true;\n        } else if (balance == 0 && isPending(_someone)) {\n            _removeValidator(_someone);\n            updated = true;\n        }\n    }\n\n    function _addValidator(address _validator)\n    private\n    onlyNotPending(_validator)\n    {\n        pendingStatus[_validator].isIn = true;\n        pendingStatus[_validator].index = pending.length;\n        pending.push(_validator);\n    }\n\n    // Remove a validator.\n    function _removeValidator(address _validator)\n    private\n    onlyPending(_validator)\n    {\n        pending[pendingStatus[_validator].index] = pending[pending.length - 1];\n        pendingStatus[pending[pendingStatus[_validator].index]].index = pendingStatus[_validator].index;\n        delete pending[pending.length - 1];\n        pending.length--;\n\n        delete pendingStatus[_validator].index;\n        pendingStatus[_validator].isIn = false;\n    }\n}\n",
  "sourcePath": "/Users/ahiatsevich/Development/chronobank/LXsidechain-sc/contracts/validators/LXValidatorManager.sol",
  "compiler": {
    "name": "solc",
    "version": "0.4.23+commit.124ca40d.Emscripten.clang"
  },
  "schemaVersion": "2.0.0",
  "updatedAt": "2018-05-29T13:51:30.332Z"
}