{
  "contractName": "LXValidatorSetTestable",
  "abi": [
    {
      "constant": true,
      "inputs": [],
      "name": "recentBlocks",
      "outputs": [
        {
          "name": "",
          "type": "uint256"
        }
      ],
      "payable": false,
      "stateMutability": "view",
      "type": "function"
    },
    {
      "constant": true,
      "inputs": [],
      "name": "backendAddress",
      "outputs": [
        {
          "name": "",
          "type": "address"
        }
      ],
      "payable": false,
      "stateMutability": "view",
      "type": "function"
    },
    {
      "constant": true,
      "inputs": [],
      "name": "getPending",
      "outputs": [
        {
          "name": "",
          "type": "address[]"
        }
      ],
      "payable": false,
      "stateMutability": "view",
      "type": "function"
    },
    {
      "constant": false,
      "inputs": [],
      "name": "finalizeChange",
      "outputs": [],
      "payable": false,
      "stateMutability": "nonpayable",
      "type": "function"
    },
    {
      "constant": false,
      "inputs": [
        {
          "name": "_recentBlocks",
          "type": "uint256"
        }
      ],
      "name": "setRecentBlocks",
      "outputs": [],
      "payable": false,
      "stateMutability": "nonpayable",
      "type": "function"
    },
    {
      "constant": false,
      "inputs": [],
      "name": "initiateChange",
      "outputs": [],
      "payable": false,
      "stateMutability": "nonpayable",
      "type": "function"
    },
    {
      "constant": true,
      "inputs": [],
      "name": "finalized",
      "outputs": [
        {
          "name": "",
          "type": "bool"
        }
      ],
      "payable": false,
      "stateMutability": "view",
      "type": "function"
    },
    {
      "constant": true,
      "inputs": [],
      "name": "getValidators",
      "outputs": [
        {
          "name": "",
          "type": "address[]"
        }
      ],
      "payable": false,
      "stateMutability": "view",
      "type": "function"
    },
    {
      "constant": false,
      "inputs": [
        {
          "name": "_validator",
          "type": "address"
        },
        {
          "name": "_blockNumber",
          "type": "uint256"
        },
        {
          "name": "_proof",
          "type": "bytes"
        }
      ],
      "name": "reportMalicious",
      "outputs": [],
      "payable": false,
      "stateMutability": "nonpayable",
      "type": "function"
    },
    {
      "constant": true,
      "inputs": [],
      "name": "contractOwner",
      "outputs": [
        {
          "name": "",
          "type": "address"
        }
      ],
      "payable": false,
      "stateMutability": "view",
      "type": "function"
    },
    {
      "constant": false,
      "inputs": [
        {
          "name": "_validator",
          "type": "address"
        },
        {
          "name": "_blockNumber",
          "type": "uint256"
        }
      ],
      "name": "reportBenign",
      "outputs": [],
      "payable": false,
      "stateMutability": "nonpayable",
      "type": "function"
    },
    {
      "constant": false,
      "inputs": [
        {
          "name": "_backend",
          "type": "address"
        }
      ],
      "name": "setBackend",
      "outputs": [],
      "payable": false,
      "stateMutability": "nonpayable",
      "type": "function"
    },
    {
      "constant": false,
      "inputs": [
        {
          "name": "newOwner",
          "type": "address"
        }
      ],
      "name": "transferOwnership",
      "outputs": [],
      "payable": false,
      "stateMutability": "nonpayable",
      "type": "function"
    },
    {
      "inputs": [
        {
          "name": "_owner",
          "type": "address"
        }
      ],
      "payable": false,
      "stateMutability": "nonpayable",
      "type": "constructor"
    },
    {
      "payable": true,
      "stateMutability": "payable",
      "type": "fallback"
    },
    {
      "anonymous": false,
      "inputs": [
        {
          "indexed": true,
          "name": "reporter",
          "type": "address"
        },
        {
          "indexed": true,
          "name": "reported",
          "type": "address"
        },
        {
          "indexed": true,
          "name": "malicious",
          "type": "bool"
        }
      ],
      "name": "Report",
      "type": "event"
    },
    {
      "anonymous": false,
      "inputs": [
        {
          "indexed": false,
          "name": "current_set",
          "type": "address[]"
        }
      ],
      "name": "ChangeFinalized",
      "type": "event"
    },
    {
      "anonymous": false,
      "inputs": [
        {
          "indexed": true,
          "name": "_parent_hash",
          "type": "bytes32"
        },
        {
          "indexed": false,
          "name": "_new_set",
          "type": "address[]"
        }
      ],
      "name": "InitiateChange",
      "type": "event"
    },
    {
      "anonymous": false,
      "inputs": [
        {
          "indexed": true,
          "name": "previousOwner",
          "type": "address"
        },
        {
          "indexed": true,
          "name": "newOwner",
          "type": "address"
        }
      ],
      "name": "OwnershipTransferred",
      "type": "event"
    }
  ],
  "bytecode": "0x6080604052601460015534801561001557600080fd5b50604051602080610a1b833981016040525160008054600160a060020a03191633600160a060020a039081169190911790915581908116151561005757600080fd5b60008054600160a060020a03909216600160a060020a031990921691909117905550610993806100886000396000f3006080604052600436106100ab5763ffffffff60e060020a6000350416630c85780581146100f15780630d72d57f1461011857806311ae9ed21461014957806375286211146101ae5780638c90ac07146101c5578063b3273748146101dd578063b3f05b97146101f2578063b7ab4db51461021b578063c476dd4014610230578063ce606ee014610299578063d69f13bb146102ae578063da7fc24f146102d2578063f2fde38b146102f3575b60006100b5610314565b905060405136810160405236600082376000803683856127105a03f46040513d81016040523d6000823e81600181146100ed57600080fd5b3d82f35b3480156100fd57600080fd5b50610106610329565b60408051918252519081900360200190f35b34801561012457600080fd5b5061012d61032f565b60408051600160a060020a039092168252519081900360200190f35b34801561015557600080fd5b5061015e610343565b60408051602080825283518183015283519192839290830191858101910280838360005b8381101561019a578181015183820152602001610182565b505050509050019250505060405180910390f35b3480156101ba57600080fd5b506101c3610442565b005b3480156101d157600080fd5b506101c3600435610584565b3480156101e957600080fd5b506101c36105a4565b3480156101fe57600080fd5b5061020761064e565b604080519115158252519081900360200190f35b34801561022757600080fd5b5061015e610657565b34801561023c57600080fd5b50604080516020600460443581810135601f81018490048402850184019095528484526101c3948235600160a060020a03169460248035953695946064949201919081908401838280828437509497506106c39650505050505050565b3480156102a557600080fd5b5061012d61073b565b3480156102ba57600080fd5b506101c3600160a060020a036004351660243561074a565b3480156102de57600080fd5b506101c3600160a060020a036004351661087f565b3480156102ff57600080fd5b506101c3600160a060020a03600435166108cf565b6002546101009004600160a060020a03165b90565b60015481565b6002546101009004600160a060020a031681565b6002546060906101009004600160a060020a03161561032657600260019054906101000a9004600160a060020a0316600160a060020a03166311ae9ed26040518163ffffffff1660e060020a028152600401600060405180830381600087803b1580156103af57600080fd5b505af11580156103c3573d6000803e3d6000fd5b505050506040513d6000823e601f3d908101601f1916820160405260208110156103ec57600080fd5b81019080805164010000000081111561040457600080fd5b8201602081018481111561041757600080fd5b815185602082028301116401000000008211171561043457600080fd5b509094506103269350505050565b33600160a060020a031673fffffffffffffffffffffffffffffffffffffffe141580610470575060025460ff165b151561047b57600080fd5b6002546101009004600160a060020a0316156104fd57600260019054906101000a9004600160a060020a0316600160a060020a031663752862116040518163ffffffff1660e060020a028152600401600060405180830381600087803b1580156104e457600080fd5b505af11580156104f8573d6000803e3d6000fd5b505050505b6002805460ff191660011790557f8564cd629b15f47dc310d45bcbfc9bcf5420b0d51bf0659a16c67f91d2763253610533610657565b60408051602080825283518183015283519192839290830191858101910280838360005b8381101561056f578181015183820152602001610557565b505050509050019250505060405180910390a1565b60005433600160a060020a0390811691161461059f57600080fd5b600155565b60025433600160a060020a0390811661010090920416146105c457600080fd5b6002805460ff191690556000194301407f55252fa6eee4741b4e24a74a70e9c11fd2c2281df8d6ea13126ff845f7825c896105fd610343565b60408051602080825283518183015283519192839290830191858101910280838360005b83811015610639578181015183820152602001610621565b505050509050019250505060405180910390a2565b60025460ff1681565b6002546060906101009004600160a060020a03161561032657600260019054906101000a9004600160a060020a0316600160a060020a031663b7ab4db56040518163ffffffff1660e060020a028152600401600060405180830381600087803b1580156103af57600080fd5b60005433600160a060020a039081169116146106de57600080fd5b600154829081014311156106f157600080fd5b6001151584600160a060020a031633600160a060020a03167f32c78b6140c46745a46e88cd883707d70dbd2f06d13dd76fe5f499c01290da4f60405160405180910390a450505050565b600054600160a060020a031681565b60005433600160a060020a0390811691161461076557600080fd5b60025482906101009004600160a060020a03161580159061081c5750600254604080517ffacd743b000000000000000000000000000000000000000000000000000000008152600160a060020a03848116600483015291516101009093049091169163facd743b916024808201926020929091908290030181600087803b1580156107ef57600080fd5b505af1158015610803573d6000803e3d6000fd5b505050506040513d602081101561081957600080fd5b50515b1561087a576001548290810143111561083457600080fd5b6000151584600160a060020a031633600160a060020a03167f32c78b6140c46745a46e88cd883707d70dbd2f06d13dd76fe5f499c01290da4f60405160405180910390a4505b505050565b60005433600160a060020a0390811691161461089a57600080fd5b60028054600160a060020a039092166101000274ffffffffffffffffffffffffffffffffffffffff0019909216919091179055565b60005433600160a060020a039081169116146108ea57600080fd5b600160a060020a03811615156108ff57600080fd5b60008054604051600160a060020a03808516939216917f8be0079c531659141344cd1fd0a4f28419497f9722a3daafe3b4186f6b6457e091a36000805473ffffffffffffffffffffffffffffffffffffffff1916600160a060020a03929092169190911790555600a165627a7a72305820cdf4de825afa0ac531177a0facd383d38141bd66518405aecfc85c40f9bfeaf70029",
  "source": "//! Copyright 2017 Peter Czaban, Parity Technologies Ltd.\n//!\n//! Licensed under the Apache License, Version 2.0 (the \"License\");\n//! you may not use this file except in compliance with the License.\n//! You may obtain a copy of the License at\n//!\n//!     http://www.apache.org/licenses/LICENSE-2.0\n//!\n//! Unless required by applicable law or agreed to in writing, software\n//! distributed under the License is distributed on an \"AS IS\" BASIS,\n//! WITHOUT WARRANTIES OR CONDITIONS OF ANY KIND, either express or implied.\n//! See the License for the specific language governing permissions and\n//! limitations under the License.\n\npragma solidity ^0.4.23;\n\nimport \"../genesis/validatorset/LXValidatorSet.sol\";\n\n// Owner can add or remove validators.\n\ncontract LXValidatorSetTestable is LXValidatorSet {\n\n    constructor(address _owner)\n    LXValidatorSet(_owner)\n    public {\n    \n    }\n}\n",
  "sourcePath": "/Users/ahiatsevich/Development/chronobank/LXsidechain-sc/contracts/helper/LXValidatorSetTestable.sol",
  "compiler": {
    "name": "solc",
    "version": "0.4.23+commit.124ca40d.Emscripten.clang"
  },
  "schemaVersion": "2.0.0",
  "updatedAt": "2018-05-29T13:51:30.352Z"
}