{
  "contractName": "LXValidatorManager",
  "abi": [
    {
      "constant": false,
      "inputs": [],
      "name": "claimContractOwnership",
      "outputs": [
        {
          "name": "",
          "type": "bool"
        }
      ],
      "payable": false,
      "stateMutability": "nonpayable",
      "type": "function"
    },
    {
      "constant": true,
      "inputs": [],
      "name": "DEFAULT_REWARD_COEFFICIENT",
      "outputs": [
        {
          "name": "",
          "type": "uint256"
        }
      ],
      "payable": false,
      "stateMutability": "view",
      "type": "function"
    },
    {
      "constant": true,
      "inputs": [],
      "name": "version",
      "outputs": [
        {
          "name": "",
          "type": "string"
        }
      ],
      "payable": false,
      "stateMutability": "view",
      "type": "function"
    },
    {
      "constant": false,
      "inputs": [
        {
          "name": "_to",
          "type": "address"
        }
      ],
      "name": "changeContractOwnership",
      "outputs": [
        {
          "name": "",
          "type": "bool"
        }
      ],
      "payable": false,
      "stateMutability": "nonpayable",
      "type": "function"
    },
    {
      "constant": true,
      "inputs": [],
      "name": "pendingContractOwner",
      "outputs": [
        {
          "name": "",
          "type": "address"
        }
      ],
      "payable": false,
      "stateMutability": "view",
      "type": "function"
    },
    {
      "constant": false,
      "inputs": [
        {
          "name": "tokens",
          "type": "address[]"
        }
      ],
      "name": "withdrawTokens",
      "outputs": [],
      "payable": false,
      "stateMutability": "nonpayable",
      "type": "function"
    },
    {
      "constant": false,
      "inputs": [],
      "name": "withdrawEther",
      "outputs": [],
      "payable": false,
      "stateMutability": "nonpayable",
      "type": "function"
    },
    {
      "constant": false,
      "inputs": [
        {
          "name": "_errorCode",
          "type": "uint256"
        }
      ],
      "name": "emitErrorCode",
      "outputs": [],
      "payable": false,
      "stateMutability": "nonpayable",
      "type": "function"
    },
    {
      "constant": true,
      "inputs": [],
      "name": "contractOwner",
      "outputs": [
        {
          "name": "",
          "type": "address"
        }
      ],
      "payable": false,
      "stateMutability": "view",
      "type": "function"
    },
    {
      "constant": false,
      "inputs": [
        {
          "name": "newOwner",
          "type": "address"
        }
      ],
      "name": "transferOwnership",
      "outputs": [
        {
          "name": "",
          "type": "bool"
        }
      ],
      "payable": false,
      "stateMutability": "nonpayable",
      "type": "function"
    },
    {
      "constant": true,
      "inputs": [],
      "name": "getEventsHistory",
      "outputs": [
        {
          "name": "",
          "type": "address"
        }
      ],
      "payable": false,
      "stateMutability": "view",
      "type": "function"
    },
    {
      "inputs": [
        {
          "name": "_storage",
          "type": "address"
        },
        {
          "name": "_crate",
          "type": "bytes32"
        }
      ],
      "payable": false,
      "stateMutability": "nonpayable",
      "type": "constructor"
    },
    {
      "anonymous": false,
      "inputs": [
        {
          "indexed": true,
          "name": "self",
          "type": "address"
        },
        {
          "indexed": true,
          "name": "validator",
          "type": "address"
        }
      ],
      "name": "ValidatorAdded",
      "type": "event"
    },
    {
      "anonymous": false,
      "inputs": [
        {
          "indexed": true,
          "name": "self",
          "type": "address"
        },
        {
          "indexed": true,
          "name": "validator",
          "type": "address"
        }
      ],
      "name": "ValidatorRemoved",
      "type": "event"
    },
    {
      "anonymous": false,
      "inputs": [
        {
          "indexed": true,
          "name": "self",
          "type": "address"
        },
        {
          "indexed": false,
          "name": "errorCode",
          "type": "uint256"
        }
      ],
      "name": "ErrorCode",
      "type": "event"
    },
    {
      "anonymous": false,
      "inputs": [
        {
          "indexed": true,
          "name": "previousOwner",
          "type": "address"
        },
        {
          "indexed": true,
          "name": "newOwner",
          "type": "address"
        }
      ],
      "name": "OwnershipTransferred",
      "type": "event"
    },
    {
      "constant": false,
      "inputs": [
        {
          "name": "_validatorSet",
          "type": "address"
        },
        {
          "name": "_timeHolder",
          "type": "address"
        },
        {
          "name": "_shares",
          "type": "address"
        }
      ],
      "name": "init",
      "outputs": [
        {
          "name": "",
          "type": "bool"
        }
      ],
      "payable": false,
      "stateMutability": "nonpayable",
      "type": "function"
    },
    {
      "constant": true,
      "inputs": [
        {
          "name": "_address",
          "type": "address"
        }
      ],
      "name": "rewardsBlacklist",
      "outputs": [
        {
          "name": "",
          "type": "bool"
        }
      ],
      "payable": false,
      "stateMutability": "view",
      "type": "function"
    },
    {
      "constant": true,
      "inputs": [
        {
          "name": "_address",
          "type": "address"
        }
      ],
      "name": "authorized",
      "outputs": [
        {
          "name": "",
          "type": "bool"
        }
      ],
      "payable": false,
      "stateMutability": "view",
      "type": "function"
    },
    {
      "constant": true,
      "inputs": [],
      "name": "validatorSet",
      "outputs": [
        {
          "name": "",
          "type": "address"
        }
      ],
      "payable": false,
      "stateMutability": "view",
      "type": "function"
    },
    {
      "constant": true,
      "inputs": [],
      "name": "timeHolder",
      "outputs": [
        {
          "name": "",
          "type": "address"
        }
      ],
      "payable": false,
      "stateMutability": "view",
      "type": "function"
    },
    {
      "constant": true,
      "inputs": [],
      "name": "shares",
      "outputs": [
        {
          "name": "",
          "type": "address"
        }
      ],
      "payable": false,
      "stateMutability": "view",
      "type": "function"
    },
    {
      "constant": true,
      "inputs": [
        {
          "name": "_idx",
          "type": "uint256"
        }
      ],
      "name": "validators",
      "outputs": [
        {
          "name": "",
          "type": "address"
        }
      ],
      "payable": false,
      "stateMutability": "view",
      "type": "function"
    },
    {
      "constant": true,
      "inputs": [],
      "name": "getValidators",
      "outputs": [
        {
          "name": "_validators",
          "type": "address[]"
        }
      ],
      "payable": false,
      "stateMutability": "view",
      "type": "function"
    },
    {
      "constant": true,
      "inputs": [
        {
          "name": "_idx",
          "type": "uint256"
        }
      ],
      "name": "pending",
      "outputs": [
        {
          "name": "",
          "type": "address"
        }
      ],
      "payable": false,
      "stateMutability": "view",
      "type": "function"
    },
    {
      "constant": true,
      "inputs": [],
      "name": "getPending",
      "outputs": [
        {
          "name": "_pending",
          "type": "address[]"
        }
      ],
      "payable": false,
      "stateMutability": "view",
      "type": "function"
    },
    {
      "constant": false,
      "inputs": [
        {
          "name": "_eventsHistory",
          "type": "address"
        }
      ],
      "name": "setupEventsHistory",
      "outputs": [],
      "payable": false,
      "stateMutability": "nonpayable",
      "type": "function"
    },
    {
      "constant": false,
      "inputs": [
        {
          "name": "_k",
          "type": "uint256"
        }
      ],
      "name": "setupRewardCoefficient",
      "outputs": [],
      "payable": false,
      "stateMutability": "nonpayable",
      "type": "function"
    },
    {
      "constant": false,
      "inputs": [
        {
          "name": "_timeHolder",
          "type": "address"
        }
      ],
      "name": "setTimeHolder",
      "outputs": [],
      "payable": false,
      "stateMutability": "nonpayable",
      "type": "function"
    },
    {
      "constant": false,
      "inputs": [
        {
          "name": "_validator",
          "type": "address"
        }
      ],
      "name": "addValidator",
      "outputs": [],
      "payable": false,
      "stateMutability": "nonpayable",
      "type": "function"
    },
    {
      "constant": false,
      "inputs": [
        {
          "name": "_validator",
          "type": "address"
        }
      ],
      "name": "removeValidator",
      "outputs": [],
      "payable": false,
      "stateMutability": "nonpayable",
      "type": "function"
    },
    {
      "constant": false,
      "inputs": [],
      "name": "finalizeChange",
      "outputs": [],
      "payable": false,
      "stateMutability": "nonpayable",
      "type": "function"
    },
    {
      "constant": true,
      "inputs": [
        {
          "name": "_someone",
          "type": "address"
        }
      ],
      "name": "isPending",
      "outputs": [
        {
          "name": "",
          "type": "bool"
        }
      ],
      "payable": false,
      "stateMutability": "view",
      "type": "function"
    },
    {
      "constant": true,
      "inputs": [
        {
          "name": "_someone",
          "type": "address"
        }
      ],
      "name": "isValidator",
      "outputs": [
        {
          "name": "",
          "type": "bool"
        }
      ],
      "payable": false,
      "stateMutability": "view",
      "type": "function"
    },
    {
      "constant": true,
      "inputs": [
        {
          "name": "_benefactor",
          "type": "address"
        },
        {
          "name": "_kind",
          "type": "uint256"
        }
      ],
      "name": "reward",
      "outputs": [
        {
          "name": "",
          "type": "uint256"
        }
      ],
      "payable": false,
      "stateMutability": "view",
      "type": "function"
    },
    {
      "constant": false,
      "inputs": [
        {
          "name": "_validator",
          "type": "address"
        }
      ],
      "name": "emitValidatorAdded",
      "outputs": [],
      "payable": false,
      "stateMutability": "nonpayable",
      "type": "function"
    },
    {
      "constant": false,
      "inputs": [
        {
          "name": "_validator",
          "type": "address"
        }
      ],
      "name": "emitValidatorRemoved",
      "outputs": [],
      "payable": false,
      "stateMutability": "nonpayable",
      "type": "function"
    }
  ],
  "bytecode": "0x60c0604052600660808190527f76302e302e31000000000000000000000000000000000000000000000000000060a0908152620000409160119190620004b6565b503480156200004e57600080fd5b50604051604080620025db83398101604052805160209091015160008054600160a060020a031916331790558181620000986002838364010000000062001e306200027b82021704565b50620000d6905060057f6b53746f7261676500000000000000000000000000000000000000000000000064010000000062001e63620002a182021704565b6200011160067f726577617264426c61636b6c69737453746f726167650000000000000000000064010000000062001e73620002bc82021704565b6200014c60077f617574686f726973656453746f7261676500000000000000000000000000000064010000000062001e73620002bc82021704565b6200018760087f76616c696461746f7253657453746f726167650000000000000000000000000064010000000062001e63620002a182021704565b620001c260097f74696d65486f6c64657253746f7261676500000000000000000000000000000064010000000062001e63620002a182021704565b620001fd600a7f73686172657353746f726167650000000000000000000000000000000000000064010000000062001e63620002a182021704565b62000238600b7f76616c696461746f727353746f7261676500000000000000000000000000000064010000000062001e89620002d582021704565b62000273600e7f70656e64696e6753746f7261676500000000000000000000000000000000000064010000000062001e89620002d582021704565b50506200055b565b8254600160a060020a031916600160a060020a0392909216919091178255600190910155565b8154620002b89082640100000000620002ea810204565b9055565b620002d18282640100000000620002a1810204565b5050565b620002d1828264010000000062000302810204565b81151580620002f7575080155b15620002d157600080fd5b6040805160208082018490527f636f756e7400000000000000000000000000000000000000000000000000000082840152825160258184030181526045909201928390528151620003be93869392909182918401908083835b602083106200037c5780518252601f1990920191602091820191016200035b565b6001836020036101000a0380198251168184511680821785525050505050509050019150506040518091039020620002a1640100000000026401000000009004565b6040805160208082018490527f696e646578657300000000000000000000000000000000000000000000000000828401528251602781840301815260479092019283905281516200043a9360018701939290918291840190808383602083106200037c5780518252601f1990920191602091820191016200035b565b6040805160208082018490527f76616c756573000000000000000000000000000000000000000000000000000082840152825160268184030181526046909201928390528151620002d19360028701939290918291840190808383602083106200037c5780518252601f1990920191602091820191016200035b565b828054600181600116156101000203166002900490600052602060002090601f016020900481019282601f10620004f957805160ff191683800117855562000529565b8280016001018555821562000529579182015b82811115620005295782518255916020019190600101906200050c565b50620005379291506200053b565b5090565b6200055891905b8082111562000537576000815560010162000542565b90565b612070806200056b6000396000f30060806040526004361061017c5763ffffffff60e060020a60003504166302927d20811461018157806303314efa146101a457806311ae9ed2146101d5578063184b95591461023a5780631b735ca61461027b578063213bb4441461029c57806321670f22146102bd57806335aa2e44146102f357806340a141ff1461030b5780634592cd1d1461032c5780634d238c8e146103415780635418c2191461036257806354fd4d5014610377578063557f4bc9146104015780635aa77d3c146104225780635d5a1e1d146104375780635ecb16cd1461044f5780637362377b146104a457806375286211146104b95780638834277e146104ce5780639426e226146104e65780639f80785a146104fb578063a00745b614610510578063af6e623814610531578063b61349a214610549578063b7ab4db51461056a578063b91816111461057f578063ce606ee0146105a0578063f2fde38b146105b5578063facd743b146105d6578063feae2d9f146105f7578063fff10aba14610618575b600080fd5b34801561018d57600080fd5b506101a2600160a060020a036004351661062d565b005b3480156101b057600080fd5b506101b9610677565b60408051600160a060020a039092168252519081900360200190f35b3480156101e157600080fd5b506101ea610691565b60408051602080825283518183015283519192839290830191858101910280838360005b8381101561022657818101518382015260200161020e565b505050509050019250505060405180910390f35b34801561024657600080fd5b50610267600160a060020a03600435811690602435811690604435166106a5565b604080519115158252519081900360200190f35b34801561028757600080fd5b506101a2600160a060020a03600435166108a0565b3480156102a857600080fd5b506101a2600160a060020a0360043516610930565b3480156102c957600080fd5b506102e1600160a060020a036004351660243561097a565b60408051918252519081900360200190f35b3480156102ff57600080fd5b506101b9600435610a5b565b34801561031757600080fd5b506101a2600160a060020a0360043516610a78565b34801561033857600080fd5b50610267610ab1565b34801561034d57600080fd5b506101a2600160a060020a0360043516610b41565b34801561036e57600080fd5b506102e1610b87565b34801561038357600080fd5b5061038c610b8f565b6040805160208082528351818301528351919283929083019185019080838360005b838110156103c65781810151838201526020016103ae565b50505050905090810190601f1680156103f35780820380516001836020036101000a031916815260200191505b509250505060405180910390f35b34801561040d57600080fd5b50610267600160a060020a0360043516610c1d565b34801561042e57600080fd5b506101b9610c79565b34801561044357600080fd5b506101a2600435610c88565b34801561045b57600080fd5b50604080516020600480358082013583810280860185019096528085526101a295369593946024949385019291829185019084908082843750949750610cc39650505050505050565b3480156104b057600080fd5b506101a2610e49565b3480156104c557600080fd5b506101a2610ea2565b3480156104da57600080fd5b506101a2600435610ee0565b3480156104f257600080fd5b506101b9610f2b565b34801561050757600080fd5b506101b9610f3f565b34801561051c57600080fd5b50610267600160a060020a0360043516610f53565b34801561053d57600080fd5b506101b9600435610f68565b34801561055557600080fd5b506101a2600160a060020a0360043516610f7d565b34801561057657600080fd5b506101ea610fc7565b34801561058b57600080fd5b50610267600160a060020a0360043516610fdb565b3480156105ac57600080fd5b506101b9610ff0565b3480156105c157600080fd5b50610267600160a060020a0360043516610fff565b3480156105e257600080fd5b50610267600160a060020a036004351661109e565b34801561060357600080fd5b50610267600160a060020a0360043516611127565b34801561062457600080fd5b506101b961113c565b600054600160a060020a031633148061064a575061064a33610fdb565b151561065557600080fd5b600160a060020a038116151561066a57600080fd5b61067381611160565b5050565b600061068b6002600a63ffffffff61119116565b90505b90565b606061068b6002600e63ffffffff61123816565b6000805481908190600160a060020a031633141561089757600160a060020a03861615156106d257600080fd5b600160a060020a03851615156106e757600080fd5b600160a060020a03841615156106fc57600080fd5b61070e6002600a63ffffffff61119116565b600160a060020a03161561075057600160a060020a0384166107386002600a63ffffffff61119116565b600160a060020a03161461074b57600080fd5b610763565b6107636002600a8663ffffffff61125316565b6107756002600563ffffffff6112ec16565b15156107925761079260026005633b9aca0063ffffffff61136016565b6107a46002600863ffffffff61119116565b9150600160a060020a038216158015906107d0575085600160a060020a031682600160a060020a031614155b156107ea576107ea6002600784600063ffffffff6113db16565b6107fc6002600963ffffffff61119116565b9050600160a060020a03811615801590610828575084600160a060020a031681600160a060020a031614155b15610842576108426002600783600063ffffffff6113db16565b610855600260088863ffffffff61125316565b610868600260098763ffffffff61125316565b61087d6002600788600163ffffffff6113db16565b6108926002600787600163ffffffff6113db16565b600192505b50509392505050565b600054600160a060020a03163314806108bd57506108bd33610fdb565b15156108c857600080fd5b600160a060020a03811615156108dd57600080fd5b61090560076108f46002600963ffffffff61119116565b60029190600063ffffffff6113db16565b610918600260098363ffffffff61125316565b61092d6002600783600163ffffffff6113db16565b50565b80600160a060020a03166109426113fe565b600160a060020a03167f05fc5214912b853ccaaaeaf238daf240b8c6ae70c0f18ec215d5088f8f49d78160405160405180910390a350565b600080821561098c5760009150610a54565b610994610f3f565b600160a060020a03166388d43b916109b46002600a63ffffffff61119116565b6040805160e060020a63ffffffff8516028152600160a060020a03928316600482015291881660248301525160448083019260209291908290030181600087803b158015610a0157600080fd5b505af1158015610a15573d6000803e3d6000fd5b505050506040513d6020811015610a2b57600080fd5b50519050610a51610a446002600563ffffffff6112ec16565b829063ffffffff61140216565b91505b5092915050565b6000610a706002600b8463ffffffff61142616565b90505b919050565b600054600160a060020a0316331480610a955750610a9533610fdb565b1515610aa057600080fd5b610aa98161143b565b61092d6114db565b600154600090600160a060020a03163314610ace5750600061068e565b60015460008054604051600160a060020a0393841693909116917f8be0079c531659141344cd1fd0a4f28419497f9722a3daafe3b4186f6b6457e091a350600180546000805473ffffffffffffffffffffffffffffffffffffffff19908116600160a060020a0384161790915516815590565b600054600160a060020a0316331480610b5e5750610b5e33610fdb565b1515610b6957600080fd5b600160a060020a0381161515610b7e57600080fd5b610aa981611534565b633b9aca0081565b6011805460408051602060026001851615610100026000190190941693909304601f81018490048402820184019092528181529291830182828015610c155780601f10610bea57610100808354040283529160200191610c15565b820191906000526020600020905b815481529060010190602001808311610bf857829003601f168201915b505050505081565b60008054600160a060020a0316331415610a7357600160a060020a0382161515610c4957506000610a73565b5060018054600160a060020a03831673ffffffffffffffffffffffffffffffffffffffff19909116178155919050565b600154600160a060020a031681565b600054600160a060020a0316331480610ca55750610ca533610fdb565b1515610cb057600080fd5b61092d600260058363ffffffff61136016565b60008054819081908190600160a060020a0316331415610e425760008054600160a060020a0316945092505b8451831015610e42578483815181101515610d0657fe5b6020908102909101810151604080517f70a082310000000000000000000000000000000000000000000000000000000081523060048201529051919450600160a060020a038516926370a08231926024808401938290030181600087803b158015610d7057600080fd5b505af1158015610d84573d6000803e3d6000fd5b505050506040513d6020811015610d9a57600080fd5b505190506000811115610e375781600160a060020a031663a9059cbb85836040518363ffffffff1660e060020a0281526004018083600160a060020a0316600160a060020a0316815260200182815260200192505050602060405180830381600087803b158015610e0a57600080fd5b505af1158015610e1e573d6000803e3d6000fd5b505050506040513d6020811015610e3457600080fd5b50505b600190920191610cef565b5050505050565b60008054600160a060020a031633141561092d57503031600081111561092d5760008054604051600160a060020a039091169183156108fc02918491818181858888f19350505050158015610673573d6000803e3d6000fd5b600054600160a060020a0316331480610ebf5750610ebf33610fdb565b1515610eca57600080fd5b610ede6002600e600b63ffffffff6115b916565b565b610ee86113fe565b600160a060020a03167f09e0713b45664e161c202b19bb4574ee83dfa056f9bfdee56847b3971d968221826040518082815260200191505060405180910390a250565b600061068b6002600863ffffffff61119116565b600061068b6002600963ffffffff61119116565b6000610a706002600e8463ffffffff6115c916565b6000610a706002600e8463ffffffff61142616565b80600160a060020a0316610f8f6113fe565b600160a060020a03167f8064a302796c89446a96d63470b5b036212da26bd2debe5bec73e0170a9a5e8360405160405180910390a350565b606061068b6002600b63ffffffff61123816565b6000610a70600260078463ffffffff6115df16565b600054600160a060020a031681565b60008054600160a060020a0316331415610a7357600160a060020a038216151561102b57506000610a73565b60008054604051600160a060020a03808616939216917f8be0079c531659141344cd1fd0a4f28419497f9722a3daafe3b4186f6b6457e091a35060008054600160a060020a03831673ffffffffffffffffffffffffffffffffffffffff1991821617909155600180549091168155919050565b60006110a982610f53565b8015610a7057506110b8610f2b565b600160a060020a031663b3f05b976040518163ffffffff1660e060020a028152600401602060405180830381600087803b1580156110f557600080fd5b505af1158015611109573d6000803e3d6000fd5b505050506040513d602081101561111f57600080fd5b505192915050565b6000610a70600260068463ffffffff6115df16565b600454600090600160a060020a0316801515611158573061115a565b805b91505090565b60048054600160a060020a03831673ffffffffffffffffffffffffffffffffffffffff199091161790556001919050565b815460018301548254604080517fd3a396860000000000000000000000000000000000000000000000000000000081526004810193909352602483019190915251600092600160a060020a03169163d3a3968691604480830192602092919082900301818787803b15801561120557600080fd5b505af1158015611219573d6000803e3d6000fd5b505050506040513d602081101561122f57600080fd5b50519392505050565b606061124c61124784846115fd565b611613565b9392505050565b825460018401548354604080517f79a7cfee00000000000000000000000000000000000000000000000000000000815260048101939093526024830191909152600160a060020a03848116604484015290519216916379a7cfee9160648082019260009290919082900301818387803b1580156112cf57600080fd5b505af11580156112e3573d6000803e3d6000fd5b50505050505050565b815460018301548254604080517f53aa3f5e0000000000000000000000000000000000000000000000000000000081526004810193909352602483019190915251600092600160a060020a0316916353aa3f5e91604480830192602092919082900301818787803b15801561120557600080fd5b825460018401548354604080517f53e7168b000000000000000000000000000000000000000000000000000000008152600481019390935260248301919091526044820184905251600160a060020a03909216916353e7168b9160648082019260009290919082900301818387803b1580156112cf57600080fd5b6113f88484600160a060020a0385166113f385611699565b6116b3565b50505050565b3390565b600082820283158061141e575082848281151561141b57fe5b04145b151561124c57fe5b60006114338484846117b6565b949350505050565b8061144581610f53565b156106735761145d6002600e8463ffffffff6117cd16565b6114656117e1565b600160a060020a031663213bb444836040518263ffffffff1660e060020a0281526004018082600160a060020a0316600160a060020a03168152602001915050600060405180830381600087803b1580156114bf57600080fd5b505af11580156114d3573d6000803e3d6000fd5b505050505050565b6114e3610f2b565b600160a060020a031663b32737486040518163ffffffff1660e060020a028152600401600060405180830381600087803b15801561152057600080fd5b505af11580156113f8573d6000803e3d6000fd5b8061153e81610f53565b1515610673576115576002600e8463ffffffff6117eb16565b61155f6117e1565b600160a060020a031663b61349a2836040518263ffffffff1660e060020a0281526004018082600160a060020a0316600160a060020a03168152602001915050600060405180830381600087803b1580156114bf57600080fd5b6115c48383836117ff565b505050565b60006114338484600160a060020a038516611919565b60006114336115f88585600160a060020a038616611930565b611a40565b606061124c838360ea60020a621cd95d02611a45565b60608060008351604051908082528060200260200182016040528015611643578160200160208202803883390190505b509150600090505b8351811015610a5457838181518110151561166257fe5b60209081029091010151825183908390811061167a57fe5b600160a060020a0390921660209283029091019091015260010161164b565b6000816116a75760006116aa565b60015b60ff1692915050565b835460018501548454604080516020808201939093528082018790528151808203830181526060909101918290528051600160a060020a039095169463a14ff85794939192918291908401908083835b602083106117225780518252601f199092019160209182019101611703565b5181516020939093036101000a60001901801990911692169190911790526040805191909301819003812063ffffffff881660e060020a02825260048201969096526024810195909552506044840187905251606480850194600094509192509082900301818387803b15801561179857600080fd5b505af11580156117ac573d6000803e3d6000fd5b5050505050505050565b6000611433848460ea60020a621cd95d0285611abd565b6115c48383600160a060020a038416611ada565b600061068b61113c565b6115c48383600160a060020a038416611aef565b600060606000806000806118138988611b04565b95508560405190808252806020026020018201604052801561183f578160200160208202803883390190505b50945060009250600093505b8584101561189b5761185e8988866117b6565b915061186b898984611919565b151561189057845160018401938391879190811061188557fe5b602090810290910101525b83600101935061184b565b6118a58989611b04565b9050600093505b808410156118d4576118c989886118c48c8c896117b6565b611aef565b8360010193506118ac565b600093505b8284101561190e57611903898887878151811015156118f457fe5b90602001906020020151611ada565b8360010193506118d9565b505050505050505050565b6000611433848460ea60020a621cd95d0285611b1a565b825460018401548354604080516020808201939093528082018690528151808203830181526060909101918290528051600095600160a060020a0316946337d9d7fc9490939182918401908083835b6020831061199e5780518252601f19909201916020918201910161197f565b51815160209384036101000a60001901801990921691161790526040805192909401829003822063ffffffff891660e060020a028352600483019790975260248201969096529151604480840196955090935091839003909101905081600087803b158015611a0c57600080fd5b505af1158015611a20573d6000803e3d6000fd5b505050506040513d6020811015611a3657600080fd5b5051949350505050565b151590565b6060600080611a55868686611b36565b915081604051908082528060200260200182016040528015611a81578160200160208202803883390190505b509250600090505b8181101561089757611a9d86868684611abd565b8382815181101515611aab57fe5b60209081029091010152600101611a89565b6000611ad185600286018560018601611b43565b95945050505050565b6115c4838360ea60020a621cd95d0284611bd1565b6115c4838360ea60020a621cd95d0284611c76565b600061124c838360ea60020a621cd95d02611b36565b6000611b2b85856001018585611b43565b151595945050505050565b6000611433848484611cca565b6040805160208082018590528183018490528251808303840181526060909201928390528151600093611ad1938993899391929182918401908083835b60208310611b9f5780518252601f199092019160209182019101611b80565b6001836020036101000a0380198251168184511680821785525050505050509050019150506040518091039020611930565b6000806000611be287878787611b1a565b1515611bed576112e3565b611bf8878787611b36565b9250611c0987600288018786611b43565b9150611c1a87876001018787611b43565b905082811015611c4457611c348760018801878585611d37565b611c448760028801878486611d37565b611c55876001880187876000611d37565b611c66876002880187866000611d37565b6112e38787876000198701611dc2565b6000611c8485858585611b1a565b15611c8e57610e42565b611c99858585611b36565b6001019050611cae8560028601858486611d37565b611cbe8560018601858585611d37565b610e4285858584611dc2565b825460018401548354604080516020808201939093528082018690528151808203830181526060909101918290528051600095600160a060020a0316946353aa3f5e9490939182918401908083836020831061199e5780518252601f19909201916020918201910161197f565b6040805160208082018690528183018590528251808303840181526060909201928390528151610e429389938993909282918401908083835b60208310611d8f5780518252601f199092019160209182019101611d70565b6001836020036101000a0380198251168184511680821785525050505050509050019150506040518091039020846116b3565b835460018501548454604080516020808201939093528082018790528151808203830181526060909101918290528051600160a060020a03909516946353e7168b9493919291829190840190808383602083106117225780518252601f199092019160209182019101611703565b825473ffffffffffffffffffffffffffffffffffffffff1916600160a060020a0392909216919091178255600190910155565b8154611e6f9082611e93565b9055565b6106738282611e63565b8154611e6f9082611e93565b6106738282611ea9565b81151580611e9f575080155b1561067357600080fd5b6040805160208082018490527f636f756e7400000000000000000000000000000000000000000000000000000082840152825160258184030181526045909201928390528151611f5293869392909182918401908083835b60208310611f205780518252601f199092019160209182019101611f01565b6001836020036101000a0380198251168184511680821785525050505050509050019150506040518091039020611e63565b6040805160208082018490527f696e64657865730000000000000000000000000000000000000000000000000082840152825160278184030181526047909201928390528151611fcb936001870193929091829184019080838360208310611f205780518252601f199092019160209182019101611f01565b6040805160208082018490527f76616c756573000000000000000000000000000000000000000000000000000082840152825160268184030181526046909201928390528151610673936002870193929091829184019080838360208310611f205780518252601f199092019160209182019101611f015600a165627a7a72305820717849fb01b7413c3453cf39c4c29153ecbd381a4e39a103dc92916e597e7c1c0029",
  "source": "/**\n* Copyright 20172018, LaborX PTY\n* Licensed under the AGPL Version 3 license.\n*/\n\npragma solidity ^0.4.23;\n\n\nimport \"solidity-shared-lib/contracts/Owned.sol\";\nimport \"solidity-storage-lib/contracts/StorageAdapter.sol\";\nimport \"solidity-eventshistory-lib/contracts/MultiEventsHistoryAdapter.sol\";\nimport { ERC20Interface as ERC20 } from \"solidity-shared-lib/contracts/ERC20Interface.sol\";\nimport \"../genesis/validatorset/ILXValidatorSet.sol\";\nimport \"../lib/SafeMath.sol\";\nimport \"../timeholder/TimeHolderInterface.sol\";\n\n\ncontract LXValidatorManager is Owned, StorageAdapter, MultiEventsHistoryAdapter {\n    using SafeMath for uint;\n\n    event ValidatorAdded(address indexed self, address indexed validator);\n    event ValidatorRemoved(address indexed self, address indexed validator);\n\n    enum RewardKind {\n        Author, /// Reward attributed to the block author.\n        DUMMY1,\n        DUMMY2,\n        EmptyStep /// Reward attributed to the author(s) of empty step(s) included in the block (AuthorityRound engine).\n    }\n\n    // 10 LTH / 100 TIME\n    uint constant public DEFAULT_REWARD_COEFFICIENT = (10 * (10**18)) / (100 * (10**8));\n\n    StorageInterface.UInt private kStorage;\n    StorageInterface.AddressBoolMapping private rewardBlacklistStorage;\n    StorageInterface.AddressBoolMapping private authorisedStorage;\n\n    StorageInterface.Address private validatorSetStorage;\n    StorageInterface.Address private timeHolderStorage;\n    StorageInterface.Address private sharesStorage;\n\n    StorageInterface.AddressesSet private validatorsStorage;\n    StorageInterface.AddressesSet private pendingStorage;\n\n    string public version = \"v0.0.1\";\n\n    modifier auth {\n        require(msg.sender == contractOwner || authorized(msg.sender));\n        _;\n    }\n\n    modifier onlyPending(address _someone) {\n        if (isPending(_someone)) {\n            _;\n        }\n    }\n\n    modifier onlyNotPending(address _someone) {\n        if (!isPending(_someone)) {\n            _;\n        }\n    }\n\n    constructor(Storage _storage, bytes32 _crate) StorageAdapter(_storage, _crate)\n    public\n    {\n        kStorage.init(\"kStorage\");\n        rewardBlacklistStorage.init(\"rewardBlacklistStorage\");\n        authorisedStorage.init(\"authorisedStorage\");\n        validatorSetStorage.init(\"validatorSetStorage\");\n        timeHolderStorage.init(\"timeHolderStorage\");\n        sharesStorage.init(\"sharesStorage\");\n        validatorsStorage.init(\"validatorsStorage\");\n        pendingStorage.init(\"pendingStorage\");\n    }\n\n    function init(address _validatorSet, address _timeHolder, address _shares)\n    external\n    onlyContractOwner\n    returns (bool)\n    {\n        require(_validatorSet != address(0x0));\n        require(_timeHolder != address(0x0));\n        require(_shares != address(0x0));\n\n        if (store.get(sharesStorage) != 0x0) {\n            require(store.get(sharesStorage) == _shares);\n        } else {\n            store.set(sharesStorage, _shares);\n        }\n\n        if (store.get(kStorage) == 0) {\n            store.set(kStorage, DEFAULT_REWARD_COEFFICIENT);\n        }\n\n        address _oldValidatorSet = store.get(validatorSetStorage);\n        if (_oldValidatorSet != 0x0 && _oldValidatorSet != _validatorSet) {\n            store.set(authorisedStorage, _oldValidatorSet, false);\n        }\n\n        address _oldTimeHolder = store.get(timeHolderStorage);\n        if (_oldTimeHolder != 0x0 && _oldTimeHolder != _timeHolder) {\n            store.set(authorisedStorage, _oldTimeHolder, false);\n        }\n\n        store.set(validatorSetStorage, _validatorSet);\n        store.set(timeHolderStorage, _timeHolder);\n\n        // TODO: rework auth\n        store.set(authorisedStorage, _validatorSet, true);\n        store.set(authorisedStorage, _timeHolder, true);\n\n        return true;\n    }\n\n    function rewardsBlacklist(address _address) \n    public \n    view \n    returns (bool) \n    {\n        return store.get(rewardBlacklistStorage, _address);\n    }\n\n    function authorized(address _address)\n    public\n    view\n    returns (bool)\n    {\n        return store.get(authorisedStorage, _address);\n    }\n\n    function validatorSet()\n    public\n    view \n    returns (ILXValidatorSet)\n    {\n        return ILXValidatorSet(store.get(validatorSetStorage));\n    }\n\n    function timeHolder()\n    public\n    view \n    returns (TimeHolderInterface)\n    {\n        return TimeHolderInterface(store.get(timeHolderStorage));\n    }\n\n    function shares()\n    public\n    view \n    returns (ERC20)\n    {\n        return ERC20(store.get(sharesStorage));\n    }\n\n    function validators(uint _idx)\n    public\n    view\n    returns (address)\n    {\n        return store.get(validatorsStorage, _idx);\n    }\n\n    function getValidators()\n    public\n    view\n    returns (address[] _validators)\n    {\n        _validators = store.get(validatorsStorage);\n    }\n\n    function pending(uint _idx)\n    public\n    view\n    returns (address)\n    {\n        return store.get(pendingStorage, _idx);\n    }\n\n    function getPending()\n    public\n    view\n    returns (address[] _pending)\n    {\n        _pending = store.get(pendingStorage);\n    }\n\n    function setupEventsHistory(address _eventsHistory)\n    public\n    auth\n    {\n        require(_eventsHistory != address(0x0));\n        _setEventsHistory(_eventsHistory);\n    }\n\n    function setupRewardCoefficient(uint _k)\n    public\n    auth\n    {\n        store.set(kStorage, _k);\n    }\n\n    function setTimeHolder(address _timeHolder)\n    public\n    auth\n    {\n        require(_timeHolder != 0x0);\n        store.set(authorisedStorage, store.get(timeHolderStorage), false);\n        store.set(timeHolderStorage, _timeHolder);\n        store.set(authorisedStorage, _timeHolder, true);\n    }\n\n    function addValidator(address _validator)\n    public\n    auth\n    {\n        require(_validator != address(0x0));\n\n        _addValidator(_validator);\n        initiateChange();\n    }\n\n    // Remove a validator.\n    function removeValidator(address _validator)\n    public\n    auth\n    {\n        _removeValidator(_validator);\n        initiateChange();\n    }\n\n    // callback from validatorSet\n    function finalizeChange()\n    public\n    auth\n    {\n        store.copy(pendingStorage, validatorsStorage);\n    }\n\n    function isPending(address _someone)\n    public\n    view\n    returns (bool)\n    {\n        return store.includes(pendingStorage, _someone);\n    }\n\n    function isValidator(address _someone)\n    public\n    view\n    returns (bool)\n    {\n        return isPending(_someone) && validatorSet().finalized();\n    }\n\n    function reward(address _benefactor, uint _kind)\n    public\n    view\n    returns (uint)\n    {\n        if (_kind != uint(RewardKind.Author)) {\n            return 0;\n        }\n\n        uint balance = timeHolder().getLockedDepositBalance(store.get(sharesStorage), _benefactor);\n        return balance.mul(store.get(kStorage));\n    }\n\n    function initiateChange()\n    private\n    {\n        validatorSet().initiateChange();\n    }\n\n    function _addValidator(address _validator)\n    private\n    onlyNotPending(_validator)\n    {\n        store.add(pendingStorage, _validator);\n\n        _emitter().emitValidatorAdded(_validator);\n    }\n\n    // Remove a validator.\n    function _removeValidator(address _validator)\n    private\n    onlyPending(_validator)\n    {\n        store.remove(pendingStorage, _validator);\n\n        _emitter().emitValidatorRemoved(_validator);\n    }\n\n    function _emitter()\n    private\n    view\n    returns (LXValidatorManager)\n    {\n        return LXValidatorManager(getEventsHistory());\n    }\n\n    function emitValidatorAdded(address _validator) public {\n        emit ValidatorAdded(_self(), _validator);\n    }\n\n    function emitValidatorRemoved(address _validator) public {\n        emit ValidatorRemoved(_self(), _validator);\n    }\n}\n",
  "sourcePath": "/Users/alesanro/Documents/Projects/ChronoBank/LXsidechain-sc/contracts/validators/LXValidatorManager.sol",
  "compiler": {
    "name": "solc",
    "version": "0.4.24+commit.e67f0147.Emscripten.clang"
  },
  "schemaVersion": "2.0.1",
  "updatedAt": "2018-07-27T20:29:51.015Z"
}