{
  "contractName": "LXValidatorSet",
  "abi": [
    {
      "constant": true,
      "inputs": [],
      "name": "recentBlocks",
      "outputs": [
        {
          "name": "",
          "type": "uint256"
        }
      ],
      "payable": false,
      "stateMutability": "view",
      "type": "function"
    },
    {
      "constant": true,
      "inputs": [],
      "name": "backendAddress",
      "outputs": [
        {
          "name": "",
          "type": "address"
        }
      ],
      "payable": false,
      "stateMutability": "view",
      "type": "function"
    },
    {
      "constant": false,
      "inputs": [],
      "name": "claimContractOwnership",
      "outputs": [
        {
          "name": "",
          "type": "bool"
        }
      ],
      "payable": false,
      "stateMutability": "nonpayable",
      "type": "function"
    },
    {
      "constant": false,
      "inputs": [
        {
          "name": "_to",
          "type": "address"
        }
      ],
      "name": "changeContractOwnership",
      "outputs": [
        {
          "name": "",
          "type": "bool"
        }
      ],
      "payable": false,
      "stateMutability": "nonpayable",
      "type": "function"
    },
    {
      "constant": true,
      "inputs": [],
      "name": "pendingContractOwner",
      "outputs": [
        {
          "name": "",
          "type": "address"
        }
      ],
      "payable": false,
      "stateMutability": "view",
      "type": "function"
    },
    {
      "constant": false,
      "inputs": [
        {
          "name": "tokens",
          "type": "address[]"
        }
      ],
      "name": "withdrawTokens",
      "outputs": [],
      "payable": false,
      "stateMutability": "nonpayable",
      "type": "function"
    },
    {
      "constant": false,
      "inputs": [],
      "name": "withdrawEther",
      "outputs": [],
      "payable": false,
      "stateMutability": "nonpayable",
      "type": "function"
    },
    {
      "constant": true,
      "inputs": [],
      "name": "finalized",
      "outputs": [
        {
          "name": "",
          "type": "bool"
        }
      ],
      "payable": false,
      "stateMutability": "view",
      "type": "function"
    },
    {
      "constant": true,
      "inputs": [],
      "name": "contractOwner",
      "outputs": [
        {
          "name": "",
          "type": "address"
        }
      ],
      "payable": false,
      "stateMutability": "view",
      "type": "function"
    },
    {
      "constant": true,
      "inputs": [],
      "name": "systemAddress",
      "outputs": [
        {
          "name": "",
          "type": "address"
        }
      ],
      "payable": false,
      "stateMutability": "view",
      "type": "function"
    },
    {
      "constant": false,
      "inputs": [
        {
          "name": "newOwner",
          "type": "address"
        }
      ],
      "name": "transferOwnership",
      "outputs": [
        {
          "name": "",
          "type": "bool"
        }
      ],
      "payable": false,
      "stateMutability": "nonpayable",
      "type": "function"
    },
    {
      "inputs": [
        {
          "name": "_owner",
          "type": "address"
        },
        {
          "name": "_system",
          "type": "address"
        }
      ],
      "payable": false,
      "stateMutability": "nonpayable",
      "type": "constructor"
    },
    {
      "payable": true,
      "stateMutability": "payable",
      "type": "fallback"
    },
    {
      "anonymous": false,
      "inputs": [
        {
          "indexed": true,
          "name": "reporter",
          "type": "address"
        },
        {
          "indexed": true,
          "name": "reported",
          "type": "address"
        },
        {
          "indexed": true,
          "name": "malicious",
          "type": "bool"
        }
      ],
      "name": "Report",
      "type": "event"
    },
    {
      "anonymous": false,
      "inputs": [
        {
          "indexed": false,
          "name": "current_set",
          "type": "address[]"
        }
      ],
      "name": "ChangeFinalized",
      "type": "event"
    },
    {
      "anonymous": false,
      "inputs": [
        {
          "indexed": true,
          "name": "_parent_hash",
          "type": "bytes32"
        },
        {
          "indexed": false,
          "name": "_new_set",
          "type": "address[]"
        }
      ],
      "name": "InitiateChange",
      "type": "event"
    },
    {
      "anonymous": false,
      "inputs": [
        {
          "indexed": true,
          "name": "previousOwner",
          "type": "address"
        },
        {
          "indexed": true,
          "name": "newOwner",
          "type": "address"
        }
      ],
      "name": "OwnershipTransferred",
      "type": "event"
    },
    {
      "constant": true,
      "inputs": [],
      "name": "getValidators",
      "outputs": [
        {
          "name": "",
          "type": "address[]"
        }
      ],
      "payable": false,
      "stateMutability": "view",
      "type": "function"
    },
    {
      "constant": true,
      "inputs": [],
      "name": "getPending",
      "outputs": [
        {
          "name": "",
          "type": "address[]"
        }
      ],
      "payable": false,
      "stateMutability": "view",
      "type": "function"
    },
    {
      "constant": false,
      "inputs": [],
      "name": "initiateChange",
      "outputs": [],
      "payable": false,
      "stateMutability": "nonpayable",
      "type": "function"
    },
    {
      "constant": false,
      "inputs": [],
      "name": "finalizeChange",
      "outputs": [],
      "payable": false,
      "stateMutability": "nonpayable",
      "type": "function"
    },
    {
      "constant": false,
      "inputs": [
        {
          "name": "_validator",
          "type": "address"
        },
        {
          "name": "_blockNumber",
          "type": "uint256"
        },
        {
          "name": "",
          "type": "bytes"
        }
      ],
      "name": "reportMalicious",
      "outputs": [],
      "payable": false,
      "stateMutability": "nonpayable",
      "type": "function"
    },
    {
      "constant": false,
      "inputs": [
        {
          "name": "_validator",
          "type": "address"
        },
        {
          "name": "_blockNumber",
          "type": "uint256"
        }
      ],
      "name": "reportBenign",
      "outputs": [],
      "payable": false,
      "stateMutability": "nonpayable",
      "type": "function"
    },
    {
      "constant": false,
      "inputs": [
        {
          "name": "_recentBlocks",
          "type": "uint256"
        }
      ],
      "name": "setRecentBlocks",
      "outputs": [],
      "payable": false,
      "stateMutability": "nonpayable",
      "type": "function"
    },
    {
      "constant": false,
      "inputs": [
        {
          "name": "_backend",
          "type": "address"
        }
      ],
      "name": "setBackend",
      "outputs": [],
      "payable": false,
      "stateMutability": "nonpayable",
      "type": "function"
    }
  ],
  "bytecode": "0x6080604052601460025534801561001557600080fd5b50604051604080610e8a83398101604052805160209091015160008054600160a060020a03191633179055600160a060020a038216151561005557600080fd5b600160a060020a038116151561006a57600080fd5b60008054600160a060020a03938416600160a060020a03199182161790915560048054929093169116179055610de5806100a56000396000f3006080604052600436106100ed5763ffffffff60e060020a6000350416630c85780581146101335780630d72d57f1461015a57806311ae9ed21461018b5780634592cd1d146101f0578063557f4bc9146102195780635aa77d3c1461023a5780635ecb16cd1461024f5780637362377b146102a657806375286211146102bb5780638c90ac07146102d0578063b3273748146102e8578063b3f05b97146102fd578063b7ab4db514610312578063c476dd4014610327578063ce606ee014610358578063d3e848f11461036d578063d69f13bb14610382578063da7fc24f146103a6578063f2fde38b146103c7575b60006100f76103e8565b905060405136810160405236600082376000803683856127105a03f46040513d81016040523d6000823e816001811461012f57600080fd5b3d82f35b34801561013f57600080fd5b506101486103fd565b60408051918252519081900360200190f35b34801561016657600080fd5b5061016f610403565b60408051600160a060020a039092168252519081900360200190f35b34801561019757600080fd5b506101a0610417565b60408051602080825283518183015283519192839290830191858101910280838360005b838110156101dc5781810151838201526020016101c4565b505050509050019250505060405180910390f35b3480156101fc57600080fd5b50610205610516565b604080519115158252519081900360200190f35b34801561022557600080fd5b50610205600160a060020a03600435166105a6565b34801561024657600080fd5b5061016f610601565b34801561025b57600080fd5b50604080516020600480358082013583810280860185019096528085526102a4953695939460249493850192918291850190849080828437509497506106109650505050505050565b005b3480156102b257600080fd5b506102a4610796565b3480156102c757600080fd5b506102a46107f4565b3480156102dc57600080fd5b506102a46004356109fc565b3480156102f457600080fd5b506102a4610a14565b34801561030957600080fd5b50610205610aba565b34801561031e57600080fd5b506101a0610ac3565b34801561033357600080fd5b506102a460048035600160a060020a0316906024803591604435918201910135610b2f565b34801561036457600080fd5b5061016f610b96565b34801561037957600080fd5b5061016f610ba5565b34801561038e57600080fd5b506102a4600160a060020a0360043516602435610bb4565b3480156103b257600080fd5b506102a4600160a060020a0360043516610cd5565b3480156103d357600080fd5b50610205600160a060020a0360043516610d1a565b6003546101009004600160a060020a03165b90565b60025481565b6003546101009004600160a060020a031681565b6003546060906101009004600160a060020a0316156103fa57600360019054906101000a9004600160a060020a0316600160a060020a03166311ae9ed26040518163ffffffff1660e060020a028152600401600060405180830381600087803b15801561048357600080fd5b505af1158015610497573d6000803e3d6000fd5b505050506040513d6000823e601f3d908101601f1916820160405260208110156104c057600080fd5b8101908080516401000000008111156104d857600080fd5b820160208101848111156104eb57600080fd5b815185602082028301116401000000008211171561050857600080fd5b509094506103fa9350505050565b600154600090600160a060020a03163314610533575060006103fa565b60015460008054604051600160a060020a0393841693909116917f8be0079c531659141344cd1fd0a4f28419497f9722a3daafe3b4186f6b6457e091a350600180546000805473ffffffffffffffffffffffffffffffffffffffff19908116600160a060020a0384161790915516815590565b60008054600160a060020a03163314156105fc57600160a060020a03821615156105d2575060006105fc565b506001805473ffffffffffffffffffffffffffffffffffffffff1916600160a060020a0383161781555b919050565b600154600160a060020a031681565b60008054819081908190600160a060020a031633141561078f5760008054600160a060020a0316945092505b845183101561078f57848381518110151561065357fe5b6020908102909101810151604080517f70a082310000000000000000000000000000000000000000000000000000000081523060048201529051919450600160a060020a038516926370a08231926024808401938290030181600087803b1580156106bd57600080fd5b505af11580156106d1573d6000803e3d6000fd5b505050506040513d60208110156106e757600080fd5b5051905060008111156107845781600160a060020a031663a9059cbb85836040518363ffffffff1660e060020a0281526004018083600160a060020a0316600160a060020a0316815260200182815260200192505050602060405180830381600087803b15801561075757600080fd5b505af115801561076b573d6000803e3d6000fd5b505050506040513d602081101561078157600080fd5b50505b60019092019161063c565b5050505050565b60008054600160a060020a03163314156107f15750303160008111156107f15760008054604051600160a060020a039091169183156108fc02918491818181858888f193505050501580156107ef573d6000803e3d6000fd5b505b50565b600454600160a060020a031633148015610811575060035460ff16155b151561081c57600080fd5b6003546101009004600160a060020a03161561089e57600360019054906101000a9004600160a060020a0316600160a060020a031663752862116040518163ffffffff1660e060020a028152600401600060405180830381600087803b15801561088557600080fd5b505af1158015610899573d6000803e3d6000fd5b505050505b6003805460ff19166001179055604080517fb7ab4db500000000000000000000000000000000000000000000000000000000815290517f8564cd629b15f47dc310d45bcbfc9bcf5420b0d51bf0659a16c67f91d276325391309163b7ab4db59160048082019260009290919082900301818387803b15801561091f57600080fd5b505af1158015610933573d6000803e3d6000fd5b505050506040513d6000823e601f3d908101601f19168201604052602081101561095c57600080fd5b81019080805164010000000081111561097457600080fd5b8201602081018481111561098757600080fd5b81518560208202830111640100000000821117156109a457600080fd5b5050604080516020808252835181830152835193965090945084935090830191818601910280838360005b838110156109e75781810151838201526020016109cf565b505050509050019250505060405180910390a1565b600054600160a060020a03163314156107f157600255565b6003546101009004600160a060020a03163314610a3057600080fd5b6003805460ff191690556000194301407f55252fa6eee4741b4e24a74a70e9c11fd2c2281df8d6ea13126ff845f7825c89610a69610417565b60408051602080825283518183015283519192839290830191858101910280838360005b83811015610aa5578181015183820152602001610a8d565b505050509050019250505060405180910390a2565b60035460ff1681565b6003546060906101009004600160a060020a0316156103fa57600360019054906101000a9004600160a060020a0316600160a060020a031663b7ab4db56040518163ffffffff1660e060020a028152600401600060405180830381600087803b15801561048357600080fd5b600054600160a060020a0316331415610b905760025483908101431115610b5557600080fd5b604051600190600160a060020a0387169033907f32c78b6140c46745a46e88cd883707d70dbd2f06d13dd76fe5f499c01290da4f90600090a4505b50505050565b600054600160a060020a031681565b600454600160a060020a031681565b600054600160a060020a03163314156107ef5760035482906101009004600160a060020a031615801590610c7e5750600354604080517ffacd743b000000000000000000000000000000000000000000000000000000008152600160a060020a03848116600483015291516101009093049091169163facd743b916024808201926020929091908290030181600087803b158015610c5157600080fd5b505af1158015610c65573d6000803e3d6000fd5b505050506040513d6020811015610c7b57600080fd5b50515b15610cd05760025482908101431115610c9657600080fd5b604051600090600160a060020a0386169033907f32c78b6140c46745a46e88cd883707d70dbd2f06d13dd76fe5f499c01290da4f908490a4505b505050565b600054600160a060020a03163314156107f15760038054600160a060020a0383166101000274ffffffffffffffffffffffffffffffffffffffff001990911617905550565b60008054600160a060020a03163314156105fc57600160a060020a0382161515610d46575060006105fc565b60008054604051600160a060020a03808616939216917f8be0079c531659141344cd1fd0a4f28419497f9722a3daafe3b4186f6b6457e091a35060008054600160a060020a03831673ffffffffffffffffffffffffffffffffffffffff19918216179091556001805490911681559190505600a165627a7a723058205a66c854e4123a43bb3aff580df1b5edb9cd56c4a132ae5f6f45810c237d46f30029",
  "source": "//! Copyright 2017 Peter Czaban, Parity Technologies Ltd.\n//!\n//! Licensed under the Apache License, Version 2.0 (the \"License\");\n//! you may not use this file except in compliance with the License.\n//! You may obtain a copy of the License at\n//!\n//!     http://www.apache.org/licenses/LICENSE-2.0\n//!\n//! Unless required by applicable law or agreed to in writing, software\n//! distributed under the License is distributed on an \"AS IS\" BASIS,\n//! WITHOUT WARRANTIES OR CONDITIONS OF ANY KIND, either express or implied.\n//! See the License for the specific language governing permissions and\n//! limitations under the License.\n\npragma solidity ^0.4.23;\n\nimport \"solidity-shared-lib/contracts/Owned.sol\";\nimport \"../../common/BaseRouter.sol\";\nimport \"./IValidatorSet.sol\";\nimport \"../../validators/LXValidatorManager.sol\";\n\n// Owner can add or remove validators.\n\ncontract LXValidatorSet is Owned, IValidatorSet, BaseRouter {\n    // EVENTS\n    event Report(address indexed reporter, address indexed reported, bool indexed malicious);\n    event ChangeFinalized(address[] current_set);\n\n    uint public recentBlocks = 20;\n\n    bool public finalized;\n    address public backendAddress;\n    address public systemAddress; // System address, used by the block sealer.\n\n    modifier only_system_and_not_finalized() {\n        require(msg.sender == systemAddress && !finalized);\n        _;\n    }\n\n    modifier onlyFinalized() {\n        require(finalized);\n        _;\n    }\n\n    modifier onlyValidator(address _someone) {\n        if (backendAddress != 0x0\n            && LXValidatorManager(backendAddress).isValidator(_someone)) { _; }\n    }\n\n    modifier onlyRecent(uint _blockNumber) {\n        require(block.number <= _blockNumber + recentBlocks);\n        _;\n    }\n\n    modifier onlyBackend {\n        require(msg.sender == backendAddress);\n        _;\n    }\n\n    constructor(address _owner, address _system) public {\n        require(_owner != 0x0);\n        require(_system != 0x0);\n\n        contractOwner = _owner;\n        systemAddress = _system;\n    }\n\n    // Called to determine the current set of validators.\n    function getValidators()\n    external\n    view\n    returns (address[])\n    {\n        if (backendAddress != 0x0) {\n            return LXValidatorManager(backendAddress).getValidators();\n        }\n    }\n\n    function getPending()\n    public\n    view\n    returns (address[])\n    {\n        if (backendAddress != 0x0) {\n            return LXValidatorManager(backendAddress).getPending();\n        }\n    }\n\n    // Log desire to change the current list.\n    function initiateChange()\n    public\n    onlyBackend\n    //onlyFinalized\n    {\n        finalized = false;\n        emit InitiateChange(blockhash(block.number - 1), getPending());\n    }\n\n    function finalizeChange()\n    external\n    only_system_and_not_finalized\n    {\n        if (backendAddress != 0x0) {\n            LXValidatorManager(backendAddress).finalizeChange();\n        }\n\n        finalized = true;\n        emit ChangeFinalized(this.getValidators());\n    }\n\n    // MISBEHAVIOUR HANDLING\n\n    // Called when a validator should be removed.\n    function reportMalicious(address _validator, uint _blockNumber, bytes /*_proof*/)\n    external\n    onlyContractOwner\n    onlyRecent(_blockNumber)\n    {\n        // TODO: ahiatsevich - proof is not used\n        emit Report(msg.sender, _validator, true);\n    }\n\n    // Report that a validator has misbehaved in a benign way.\n    function reportBenign(address _validator, uint _blockNumber)\n    external\n    onlyContractOwner\n    onlyValidator(_validator)\n    onlyRecent(_blockNumber)\n    {\n        emit Report(msg.sender, _validator, false);\n    }\n\n    // EXTEND DEFAULT FUNCTIONALITY\n\n    function setRecentBlocks(uint _recentBlocks)\n    public\n    onlyContractOwner\n    {\n        recentBlocks = _recentBlocks;\n    }\n\n    function setBackend(address _backend)\n    public\n    onlyContractOwner\n    {\n        backendAddress = _backend;\n    }\n\n    function backend()\n    internal\n    view\n    returns (address)\n    {\n        return backendAddress;\n    }\n}\n",
  "sourcePath": "/Users/alesanro/Documents/Projects/ChronoBank/LXsidechain-sc/contracts/genesis/validatorset/LXValidatorSet.sol",
  "compiler": {
    "name": "solc",
    "version": "0.4.24+commit.e67f0147.Emscripten.clang"
  },
  "schemaVersion": "2.0.1",
  "updatedAt": "2018-07-27T20:29:51.021Z"
}