{
  "contractName": "LXValidatorSetDelegate",
  "abi": [
    {
      "constant": true,
      "inputs": [],
      "name": "validatorSet",
      "outputs": [
        {
          "name": "",
          "type": "address"
        }
      ],
      "payable": false,
      "stateMutability": "view",
      "type": "function"
    },
    {
      "constant": true,
      "inputs": [],
      "name": "contractOwner",
      "outputs": [
        {
          "name": "",
          "type": "address"
        }
      ],
      "payable": false,
      "stateMutability": "view",
      "type": "function"
    },
    {
      "constant": false,
      "inputs": [
        {
          "name": "newOwner",
          "type": "address"
        }
      ],
      "name": "transferOwnership",
      "outputs": [],
      "payable": false,
      "stateMutability": "nonpayable",
      "type": "function"
    },
    {
      "inputs": [
        {
          "name": "_validatorSet",
          "type": "address"
        }
      ],
      "payable": false,
      "stateMutability": "nonpayable",
      "type": "constructor"
    },
    {
      "anonymous": false,
      "inputs": [
        {
          "indexed": true,
          "name": "previousOwner",
          "type": "address"
        },
        {
          "indexed": true,
          "name": "newOwner",
          "type": "address"
        }
      ],
      "name": "OwnershipTransferred",
      "type": "event"
    },
    {
      "constant": false,
      "inputs": [],
      "name": "initiateChange",
      "outputs": [],
      "payable": false,
      "stateMutability": "nonpayable",
      "type": "function"
    },
    {
      "constant": false,
      "inputs": [],
      "name": "iinalizeChange",
      "outputs": [],
      "payable": false,
      "stateMutability": "nonpayable",
      "type": "function"
    },
    {
      "constant": false,
      "inputs": [
        {
          "name": "_validator",
          "type": "address"
        }
      ],
      "name": "addValidator",
      "outputs": [],
      "payable": false,
      "stateMutability": "nonpayable",
      "type": "function"
    },
    {
      "constant": false,
      "inputs": [
        {
          "name": "_validator",
          "type": "address"
        }
      ],
      "name": "removeValidator",
      "outputs": [],
      "payable": false,
      "stateMutability": "nonpayable",
      "type": "function"
    },
    {
      "constant": false,
      "inputs": [
        {
          "name": "_recentBlocks",
          "type": "uint256"
        }
      ],
      "name": "setRecentBlocks",
      "outputs": [],
      "payable": false,
      "stateMutability": "nonpayable",
      "type": "function"
    },
    {
      "constant": false,
      "inputs": [
        {
          "name": "_validator",
          "type": "address"
        },
        {
          "name": "_blockNumber",
          "type": "uint256"
        },
        {
          "name": "_proof",
          "type": "bytes"
        }
      ],
      "name": "reportMalicious",
      "outputs": [],
      "payable": false,
      "stateMutability": "nonpayable",
      "type": "function"
    },
    {
      "constant": false,
      "inputs": [
        {
          "name": "_validator",
          "type": "address"
        },
        {
          "name": "_blockNumber",
          "type": "uint256"
        }
      ],
      "name": "reportBenign",
      "outputs": [],
      "payable": false,
      "stateMutability": "nonpayable",
      "type": "function"
    }
  ],
  "bytecode": "0x608060405234801561001057600080fd5b506040516020806103a5833981016040525160008054600160a060020a03338116600160a060020a031992831617909255600180549290931691161790556103488061005d6000396000f3006080604052600436106100a35763ffffffff7c010000000000000000000000000000000000000000000000000000000060003504166340a141ff81146100a85780634d238c8e146100a85780638c90ac07146100cb5780639426e226146100e3578063b327374814610114578063c476dd4014610129578063c64a01b914610114578063ce606ee014610192578063d69f13bb146101a7578063f2fde38b146101cb575b600080fd5b3480156100b457600080fd5b506100c9600160a060020a03600435166101ec565b005b3480156100d757600080fd5b506100c96004356101ec565b3480156100ef57600080fd5b506100f861020a565b60408051600160a060020a039092168252519081900360200190f35b34801561012057600080fd5b506100c9610219565b34801561013557600080fd5b50604080516020600460443581810135601f81018490048402850184019095528484526100c9948235600160a060020a03169460248035953695946064949201919081908401838280828437509497506102369650505050505050565b34801561019e57600080fd5b506100f8610256565b3480156101b357600080fd5b506100c9600160a060020a0360043516602435610265565b3480156101d757600080fd5b506100c9600160a060020a0360043516610284565b60015433600160a060020a0390811691161461020757600080fd5b50565b600154600160a060020a031681565b60015433600160a060020a0390811691161461023457600080fd5b565b60015433600160a060020a0390811691161461025157600080fd5b505050565b600054600160a060020a031681565b60015433600160a060020a0390811691161461028057600080fd5b5050565b60005433600160a060020a0390811691161461029f57600080fd5b600160a060020a03811615156102b457600080fd5b60008054604051600160a060020a03808516939216917f8be0079c531659141344cd1fd0a4f28419497f9722a3daafe3b4186f6b6457e091a36000805473ffffffffffffffffffffffffffffffffffffffff1916600160a060020a03929092169190911790555600a165627a7a7230582092b4fd7541716365111feac14d03ffe5a79fc88267d6bebd891d7e1ba4e358250029",
  "source": "/**\n * Copyright 2017–2018, LaborX PTY\n * Licensed under the AGPL Version 3 license.\n */\n \npragma solidity ^0.4.23;\n\nimport \"../common/Owned.sol\";\n\ncontract LXValidatorSetDelegate is Owned {\n  address public validatorSet;\n\n  modifier onlyValidatorSet() {\n      require(msg.sender == validatorSet);\n      _;\n  }\n\n  function LXValidatorSetDelegate(address _validatorSet) public {\n    validatorSet = _validatorSet;\n  }\n\n  function initiateChange()\n  public\n  onlyValidatorSet\n  {\n  }\n\n  function iinalizeChange()\n  public\n  onlyValidatorSet\n  {\n  }\n\n  function addValidator(address _validator)\n  public\n  onlyValidatorSet\n  {\n  }\n\n  function removeValidator(address _validator)\n  public\n  onlyValidatorSet\n  {\n  }\n\n  function setRecentBlocks(uint _recentBlocks)\n  public\n  onlyValidatorSet\n  {\n  }\n\n  function reportMalicious(address _validator, uint _blockNumber, bytes _proof)\n  public\n  onlyValidatorSet\n  {\n  }\n\n  function reportBenign(address _validator, uint _blockNumber)\n  public\n  onlyValidatorSet\n  {\n  }\n}\n",
  "sourcePath": "/Users/ahiatsevich/Development/chronobank/LXsidechain-sc/contracts/validators/LXValidatorSetDelegate.sol",
  "compiler": {
    "name": "solc",
    "version": "0.4.23+commit.124ca40d.Emscripten.clang"
  },
  "schemaVersion": "2.0.0",
  "updatedAt": "2018-05-29T13:47:05.598Z"
}