{
  "contractName": "MultiEventsHistoryAdapter",
  "abi": [
    {
      "anonymous": false,
      "inputs": [
        {
          "indexed": true,
          "name": "self",
          "type": "address"
        },
        {
          "indexed": false,
          "name": "errorCode",
          "type": "uint256"
        }
      ],
      "name": "ErrorCode",
      "type": "event"
    },
    {
      "constant": true,
      "inputs": [],
      "name": "getEventsHistory",
      "outputs": [
        {
          "name": "",
          "type": "address"
        }
      ],
      "payable": false,
      "stateMutability": "view",
      "type": "function"
    },
    {
      "constant": false,
      "inputs": [
        {
          "name": "_errorCode",
          "type": "uint256"
        }
      ],
      "name": "emitErrorCode",
      "outputs": [],
      "payable": false,
      "stateMutability": "nonpayable",
      "type": "function"
    }
  ],
  "bytecode": "0x608060405234801561001057600080fd5b5061015f806100206000396000f30060806040526004361061004b5763ffffffff7c01000000000000000000000000000000000000000000000000000000006000350416638834277e8114610050578063fff10aba1461006a575b600080fd5b34801561005c57600080fd5b506100686004356100a8565b005b34801561007657600080fd5b5061007f610100565b6040805173ffffffffffffffffffffffffffffffffffffffff9092168252519081900360200190f35b6100b061012f565b73ffffffffffffffffffffffffffffffffffffffff167f09e0713b45664e161c202b19bb4574ee83dfa056f9bfdee56847b3971d968221826040518082815260200191505060405180910390a250565b6000805473ffffffffffffffffffffffffffffffffffffffff168015156101275730610129565b805b91505090565b33905600a165627a7a72305820aa521637a8d493886cd533019410a823fcfd9c4489a480f9167754028ae7ef380029",
  "source": "/**\n* Copyright 2017–2018, LaborX PTY\n* Licensed under the AGPL Version 3 license.\n*/\n\npragma solidity ^0.4.21;\n\n\n/**\n * @title General MultiEventsHistory user.\n */\ncontract MultiEventsHistoryAdapter {\n\n    address internal localEventsHistory;\n\n    event ErrorCode(address indexed self, uint errorCode);\n\n    function getEventsHistory() \n    public \n    view \n    returns (address) \n    {\n        address _eventsHistory = localEventsHistory;\n        return _eventsHistory != 0x0 ? _eventsHistory : this;\n    }\n\n    function emitErrorCode(uint _errorCode) public {\n        emit ErrorCode(_self(), _errorCode);\n    }\n\n    function _setEventsHistory(address _eventsHistory) internal returns (bool) {\n        localEventsHistory = _eventsHistory;\n        return true;\n    }\n\n    // It is address of MultiEventsHistory caller assuming we are inside of delegate call.\n    function _self() \n    internal \n    view \n    returns (address) \n    {\n        return msg.sender;\n    }\n\n    function _emitErrorCode(uint _errorCode) internal returns (uint) {\n        MultiEventsHistoryAdapter(getEventsHistory()).emitErrorCode(_errorCode);\n        return _errorCode;\n    }\n}\n",
  "sourcePath": "solidity-eventshistory-lib/contracts/MultiEventsHistoryAdapter.sol",
  "compiler": {
    "name": "solc",
    "version": "0.4.24+commit.e67f0147.Emscripten.clang"
  },
  "schemaVersion": "2.0.1",
  "updatedAt": "2018-07-27T20:28:25.806Z"
}