{
  "contractName": "MultiEventsHistory",
  "abi": [
    {
      "constant": true,
      "inputs": [],
      "name": "contractOwner",
      "outputs": [
        {
          "name": "",
          "type": "address"
        }
      ],
      "payable": false,
      "stateMutability": "view",
      "type": "function"
    },
    {
      "constant": false,
      "inputs": [
        {
          "name": "tokens",
          "type": "address[]"
        },
        {
          "name": "_to",
          "type": "address"
        }
      ],
      "name": "withdrawnTokens",
      "outputs": [
        {
          "name": "",
          "type": "uint256"
        }
      ],
      "payable": false,
      "stateMutability": "nonpayable",
      "type": "function"
    },
    {
      "constant": false,
      "inputs": [
        {
          "name": "newOwner",
          "type": "address"
        }
      ],
      "name": "transferOwnership",
      "outputs": [],
      "payable": false,
      "stateMutability": "nonpayable",
      "type": "function"
    },
    {
      "constant": true,
      "inputs": [
        {
          "name": "",
          "type": "address"
        }
      ],
      "name": "isAuthorized",
      "outputs": [
        {
          "name": "",
          "type": "bool"
        }
      ],
      "payable": false,
      "stateMutability": "view",
      "type": "function"
    },
    {
      "payable": false,
      "stateMutability": "nonpayable",
      "type": "fallback"
    },
    {
      "anonymous": false,
      "inputs": [
        {
          "indexed": true,
          "name": "previousOwner",
          "type": "address"
        },
        {
          "indexed": true,
          "name": "newOwner",
          "type": "address"
        }
      ],
      "name": "OwnershipTransferred",
      "type": "event"
    },
    {
      "constant": false,
      "inputs": [
        {
          "name": "_caller",
          "type": "address"
        }
      ],
      "name": "authorize",
      "outputs": [
        {
          "name": "",
          "type": "bool"
        }
      ],
      "payable": false,
      "stateMutability": "nonpayable",
      "type": "function"
    },
    {
      "constant": false,
      "inputs": [
        {
          "name": "_caller",
          "type": "address"
        }
      ],
      "name": "reject",
      "outputs": [],
      "payable": false,
      "stateMutability": "nonpayable",
      "type": "function"
    }
  ],
  "bytecode": "0x608060405260008054600160a060020a033316600160a060020a031990911617905561055e806100306000396000f30060806040526004361061005e5763ffffffff60e060020a600035041663ab0da5a981146100ce578063b6a5d7de146100ef578063ce606ee014610124578063d8f9659b14610155578063f2fde38b146101c7578063fe9fbb80146101e8575b34801561006a57600080fd5b50600160a060020a03331660009081526001602052604090205460ff161515610092576100cc565b33600160a060020a031660003660405180838380828437820191505092505050600060405180830381855af491505015156100cc57600080fd5b005b3480156100da57600080fd5b506100cc600160a060020a0360043516610209565b3480156100fb57600080fd5b50610110600160a060020a0360043516610267565b604080519115158252519081900360200190f35b34801561013057600080fd5b506101396102f6565b60408051600160a060020a039092168252519081900360200190f35b34801561016157600080fd5b50604080516020600480358082013583810280860185019096528085526101b59536959394602494938501929182918501908490808284375094975050509235600160a060020a0316935061030592505050565b60408051918252519081900360200190f35b3480156101d357600080fd5b506100cc600160a060020a0360043516610485565b3480156101f457600080fd5b50610110600160a060020a036004351661051d565b600160a060020a03331660009081526001602052604090205460ff168061023e575060005433600160a060020a039081169116145b1561026457600160a060020a0381166000908152600160205260409020805460ff191690555b50565b600160a060020a03331660009081526001602052604081205460ff168061029c575060005433600160a060020a039081169116145b156102f157600160a060020a03821660009081526001602052604090205460ff16156102ca575060006102f1565b50600160a060020a0381166000908152600160208190526040909120805460ff1916821790555b919050565b600054600160a060020a031681565b6000805481908190819033600160a060020a0390811691161461032757600080fd5b600092505b855183101561047957858381518110151561034357fe5b90602001906020020151915081600160a060020a03166370a08231306040518263ffffffff1660e060020a0281526004018082600160a060020a0316600160a060020a03168152602001915050602060405180830381600087803b1580156103aa57600080fd5b505af11580156103be573d6000803e3d6000fd5b505050506040513d60208110156103d457600080fd5b50519050801561046e5781600160a060020a031663a9059cbb86836040518363ffffffff1660e060020a0281526004018083600160a060020a0316600160a060020a0316815260200182815260200192505050602060405180830381600087803b15801561044157600080fd5b505af1158015610455573d6000803e3d6000fd5b505050506040513d602081101561046b57600080fd5b50505b60019092019161032c565b50600195945050505050565b60005433600160a060020a039081169116146104a057600080fd5b600160a060020a03811615156104b557600080fd5b60008054604051600160a060020a03808516939216917f8be0079c531659141344cd1fd0a4f28419497f9722a3daafe3b4186f6b6457e091a36000805473ffffffffffffffffffffffffffffffffffffffff1916600160a060020a0392909216919091179055565b60016020526000908152604090205460ff16815600a165627a7a723058200e9dd920b085cf6ce5b37e41c8156b75c4447bee23aac0d1d5e5107faed3cf560029",
  "source": "/**\n * Copyright 2017–2018, LaborX PTY\n * Licensed under the AGPL Version 3 license.\n */\n\npragma solidity ^0.4.11;\n\nimport \"../common/Object.sol\";\n\n/**\n * @title Events History universal multi contract.\n *\n * Contract serves as an Events storage for any type of contracts.\n * Events appear on this contract address but their definitions provided by calling contracts.\n *\n * Note: all the non constant functions return false instead of throwing in case if state change\n * didn't happen yet.\n */\ncontract MultiEventsHistory is Object {\n    // Authorized calling contracts.\n    mapping(address => bool) public isAuthorized;\n\n    modifier onlyAuthorized {\n        if(isAuthorized[msg.sender] || contractOwner == msg.sender) {\n            _;\n        }\n    }\n\n    /**\n     * Authorize new caller contract.\n     *\n     * @param _caller address of the new caller.\n     *\n     * @return success.\n     */\n    function authorize(address _caller) onlyAuthorized external returns (bool) {\n        if (isAuthorized[_caller]) {\n            return false;\n        }\n        isAuthorized[_caller] = true;\n        return true;\n    }\n\n    /**\n     * Reject access.\n     *\n     * @param _caller address of the caller.\n     */\n    function reject(address _caller) onlyAuthorized external {\n        delete isAuthorized[_caller];\n    }\n\n    /**\n     * Event emitting fallback.\n     *\n     * Can be and only called by authorized caller.\n     * Delegate calls back with provided msg.data to emit an event.\n     *\n     * Throws if call failed.\n     */\n    function () public {\n        if (!isAuthorized[msg.sender]) {\n            return;\n        }\n        // Internal Out Of Gas/Throw: revert this transaction too;\n        // Recursive Call: safe, all changes already made.\n        if (!msg.sender.delegatecall(msg.data)) {\n            revert();\n        }\n    }\n}\n",
  "sourcePath": "/Users/ahiatsevich/Development/chronobank/LXsidechain-sc/contracts/event/MultiEventsHistory.sol",
  "compiler": {
    "name": "solc",
    "version": "0.4.23+commit.124ca40d.Emscripten.clang"
  },
  "schemaVersion": "2.0.0",
  "updatedAt": "2018-05-29T13:51:30.322Z"
}