{
  "contractName": "Object",
  "abi": [
    {
      "constant": true,
      "inputs": [],
      "name": "contractOwner",
      "outputs": [
        {
          "name": "",
          "type": "address"
        }
      ],
      "payable": false,
      "stateMutability": "view",
      "type": "function"
    },
    {
      "constant": false,
      "inputs": [
        {
          "name": "newOwner",
          "type": "address"
        }
      ],
      "name": "transferOwnership",
      "outputs": [],
      "payable": false,
      "stateMutability": "nonpayable",
      "type": "function"
    },
    {
      "anonymous": false,
      "inputs": [
        {
          "indexed": true,
          "name": "previousOwner",
          "type": "address"
        },
        {
          "indexed": true,
          "name": "newOwner",
          "type": "address"
        }
      ],
      "name": "OwnershipTransferred",
      "type": "event"
    },
    {
      "constant": false,
      "inputs": [
        {
          "name": "tokens",
          "type": "address[]"
        },
        {
          "name": "_to",
          "type": "address"
        }
      ],
      "name": "withdrawnTokens",
      "outputs": [
        {
          "name": "",
          "type": "uint256"
        }
      ],
      "payable": false,
      "stateMutability": "nonpayable",
      "type": "function"
    }
  ],
  "bytecode": "0x608060405260008054600160a060020a033316600160a060020a031990911617905561035b806100306000396000f30060806040526004361061003d5763ffffffff60e060020a600035041663ce606ee08114610042578063d8f9659b14610073578063f2fde38b146100e5575b600080fd5b34801561004e57600080fd5b50610057610108565b60408051600160a060020a039092168252519081900360200190f35b34801561007f57600080fd5b50604080516020600480358082013583810280860185019096528085526100d39536959394602494938501929182918501908490808284375094975050509235600160a060020a0316935061011792505050565b60408051918252519081900360200190f35b3480156100f157600080fd5b50610106600160a060020a0360043516610297565b005b600054600160a060020a031681565b6000805481908190819033600160a060020a0390811691161461013957600080fd5b600092505b855183101561028b57858381518110151561015557fe5b90602001906020020151915081600160a060020a03166370a08231306040518263ffffffff1660e060020a0281526004018082600160a060020a0316600160a060020a03168152602001915050602060405180830381600087803b1580156101bc57600080fd5b505af11580156101d0573d6000803e3d6000fd5b505050506040513d60208110156101e657600080fd5b5051905080156102805781600160a060020a031663a9059cbb86836040518363ffffffff1660e060020a0281526004018083600160a060020a0316600160a060020a0316815260200182815260200192505050602060405180830381600087803b15801561025357600080fd5b505af1158015610267573d6000803e3d6000fd5b505050506040513d602081101561027d57600080fd5b50505b60019092019161013e565b50600195945050505050565b60005433600160a060020a039081169116146102b257600080fd5b600160a060020a03811615156102c757600080fd5b60008054604051600160a060020a03808516939216917f8be0079c531659141344cd1fd0a4f28419497f9722a3daafe3b4186f6b6457e091a36000805473ffffffffffffffffffffffffffffffffffffffff1916600160a060020a03929092169190911790555600a165627a7a72305820b4f34968ec43d52be331ecfb3925fc5ae7a8cbccb1103f9121ec5e74d456ed970029",
  "source": "/**\n * Copyright 2017–2018, LaborX PTY\n * Licensed under the AGPL Version 3 license.\n */\n\npragma solidity ^0.4.11;\n\nimport './Owned.sol';\nimport \"../common/ERC20.sol\";\n\n/**\n * @title Generic owned destroyable contract\n */\ncontract Object is Owned {\n    /**\n    *  Common result code. Means everything is fine.\n    */\n    uint constant OK = 1;\n\n    function withdrawnTokens(address[] tokens, address _to) onlyContractOwner public returns(uint) {\n        for(uint i=0;i<tokens.length;i++) {\n            address token = tokens[i];\n            uint balance = ERC20(token).balanceOf(this);\n            if(balance != 0) {\n                ERC20(token).transfer(_to,balance);\n            }\n        }\n        return OK;\n    }\n}\n",
  "sourcePath": "/Users/ahiatsevich/Development/chronobank/LXsidechain-sc/contracts/common/Object.sol",
  "compiler": {
    "name": "solc",
    "version": "0.4.23+commit.124ca40d.Emscripten.clang"
  },
  "schemaVersion": "2.0.0",
  "updatedAt": "2018-05-29T13:47:05.546Z"
}