{
  "contractName": "Object",
  "abi": [
    {
      "constant": false,
      "inputs": [],
      "name": "claimContractOwnership",
      "outputs": [
        {
          "name": "",
          "type": "bool"
        }
      ],
      "payable": false,
      "stateMutability": "nonpayable",
      "type": "function"
    },
    {
      "constant": false,
      "inputs": [
        {
          "name": "_to",
          "type": "address"
        }
      ],
      "name": "changeContractOwnership",
      "outputs": [
        {
          "name": "",
          "type": "bool"
        }
      ],
      "payable": false,
      "stateMutability": "nonpayable",
      "type": "function"
    },
    {
      "constant": true,
      "inputs": [],
      "name": "pendingContractOwner",
      "outputs": [
        {
          "name": "",
          "type": "address"
        }
      ],
      "payable": false,
      "stateMutability": "view",
      "type": "function"
    },
    {
      "constant": false,
      "inputs": [
        {
          "name": "tokens",
          "type": "address[]"
        }
      ],
      "name": "withdrawTokens",
      "outputs": [],
      "payable": false,
      "stateMutability": "nonpayable",
      "type": "function"
    },
    {
      "constant": false,
      "inputs": [],
      "name": "withdrawEther",
      "outputs": [],
      "payable": false,
      "stateMutability": "nonpayable",
      "type": "function"
    },
    {
      "constant": true,
      "inputs": [],
      "name": "contractOwner",
      "outputs": [
        {
          "name": "",
          "type": "address"
        }
      ],
      "payable": false,
      "stateMutability": "view",
      "type": "function"
    },
    {
      "constant": false,
      "inputs": [
        {
          "name": "newOwner",
          "type": "address"
        }
      ],
      "name": "transferOwnership",
      "outputs": [
        {
          "name": "",
          "type": "bool"
        }
      ],
      "payable": false,
      "stateMutability": "nonpayable",
      "type": "function"
    },
    {
      "anonymous": false,
      "inputs": [
        {
          "indexed": true,
          "name": "previousOwner",
          "type": "address"
        },
        {
          "indexed": true,
          "name": "newOwner",
          "type": "address"
        }
      ],
      "name": "OwnershipTransferred",
      "type": "event"
    }
  ],
  "bytecode": "0x608060405260008054600160a060020a03191633179055610576806100256000396000f3006080604052600436106100825763ffffffff7c01000000000000000000000000000000000000000000000000000000006000350416634592cd1d8114610087578063557f4bc9146100b05780635aa77d3c146100d15780635ecb16cd146101025780637362377b14610159578063ce606ee01461016e578063f2fde38b14610183575b600080fd5b34801561009357600080fd5b5061009c6101a4565b604080519115158252519081900360200190f35b3480156100bc57600080fd5b5061009c600160a060020a0360043516610235565b3480156100dd57600080fd5b506100e6610290565b60408051600160a060020a039092168252519081900360200190f35b34801561010e57600080fd5b50604080516020600480358082013583810280860185019096528085526101579536959394602494938501929182918501908490808284375094975061029f9650505050505050565b005b34801561016557600080fd5b5061015761043e565b34801561017a57600080fd5b506100e661049c565b34801561018f57600080fd5b5061009c600160a060020a03600435166104ab565b600154600090600160a060020a031633146101c157506000610232565b60015460008054604051600160a060020a0393841693909116917f8be0079c531659141344cd1fd0a4f28419497f9722a3daafe3b4186f6b6457e091a350600180546000805473ffffffffffffffffffffffffffffffffffffffff19908116600160a060020a038416179091551681555b90565b60008054600160a060020a031633141561028b57600160a060020a03821615156102615750600061028b565b506001805473ffffffffffffffffffffffffffffffffffffffff1916600160a060020a0383161781555b919050565b600154600160a060020a031681565b60008054819081908190600160a060020a03163314156104375760008054600160a060020a0316945092505b84518310156104375784838151811015156102e257fe5b6020908102909101810151604080517f70a082310000000000000000000000000000000000000000000000000000000081523060048201529051919450600160a060020a038516926370a08231926024808401938290030181600087803b15801561034c57600080fd5b505af1158015610360573d6000803e3d6000fd5b505050506040513d602081101561037657600080fd5b50519050600081111561042c5781600160a060020a031663a9059cbb85836040518363ffffffff167c01000000000000000000000000000000000000000000000000000000000281526004018083600160a060020a0316600160a060020a0316815260200182815260200192505050602060405180830381600087803b1580156103ff57600080fd5b505af1158015610413573d6000803e3d6000fd5b505050506040513d602081101561042957600080fd5b50505b6001909201916102cb565b5050505050565b60008054600160a060020a03163314156104995750303160008111156104995760008054604051600160a060020a039091169183156108fc02918491818181858888f19350505050158015610497573d6000803e3d6000fd5b505b50565b600054600160a060020a031681565b60008054600160a060020a031633141561028b57600160a060020a03821615156104d75750600061028b565b60008054604051600160a060020a03808616939216917f8be0079c531659141344cd1fd0a4f28419497f9722a3daafe3b4186f6b6457e091a35060008054600160a060020a03831673ffffffffffffffffffffffffffffffffffffffff19918216179091556001805490911681559190505600a165627a7a72305820664a473c429f0291439bfffc663ca92e61c21379a93a3e6b6258ff79ec90ad100029",
  "source": "/**\n * Copyright 2017–2018, LaborX PTY\n * Licensed under the AGPL Version 3 license.\n */\n\npragma solidity ^0.4.23;\n\n\nimport \"solidity-shared-lib/contracts/Owned.sol\";\n\n\n/**\n * @title Generic owned destroyable contract\n */\ncontract Object is Owned {\n    /**\n    *  Common result code. Means everything is fine.\n    */\n    uint constant OK = 1;\n}\n",
  "sourcePath": "/Users/alesanro/Documents/Projects/ChronoBank/LXsidechain-sc/contracts/common/Object.sol",
  "compiler": {
    "name": "solc",
    "version": "0.4.24+commit.e67f0147.Emscripten.clang"
  },
  "schemaVersion": "2.0.1",
  "updatedAt": "2018-07-27T20:15:18.607Z"
}