{
  "contractName": "Owned",
  "abi": [
    {
      "constant": true,
      "inputs": [],
      "name": "contractOwner",
      "outputs": [
        {
          "name": "",
          "type": "address"
        }
      ],
      "payable": false,
      "stateMutability": "view",
      "type": "function"
    },
    {
      "inputs": [],
      "payable": false,
      "stateMutability": "nonpayable",
      "type": "constructor"
    },
    {
      "anonymous": false,
      "inputs": [
        {
          "indexed": true,
          "name": "previousOwner",
          "type": "address"
        },
        {
          "indexed": true,
          "name": "newOwner",
          "type": "address"
        }
      ],
      "name": "OwnershipTransferred",
      "type": "event"
    },
    {
      "constant": false,
      "inputs": [
        {
          "name": "newOwner",
          "type": "address"
        }
      ],
      "name": "transferOwnership",
      "outputs": [],
      "payable": false,
      "stateMutability": "nonpayable",
      "type": "function"
    }
  ],
  "bytecode": "0x608060405234801561001057600080fd5b5060008054600160a060020a033316600160a060020a03199091161790556101778061003d6000396000f30060806040526004361061004b5763ffffffff7c0100000000000000000000000000000000000000000000000000000000600035041663ce606ee08114610050578063f2fde38b14610081575b600080fd5b34801561005c57600080fd5b506100656100a4565b60408051600160a060020a039092168252519081900360200190f35b34801561008d57600080fd5b506100a2600160a060020a03600435166100b3565b005b600054600160a060020a031681565b60005433600160a060020a039081169116146100ce57600080fd5b600160a060020a03811615156100e357600080fd5b60008054604051600160a060020a03808516939216917f8be0079c531659141344cd1fd0a4f28419497f9722a3daafe3b4186f6b6457e091a36000805473ffffffffffffffffffffffffffffffffffffffff1916600160a060020a03929092169190911790555600a165627a7a723058202b31e01da63c6f2eeb22fa0f492fa189e0476ae32feb0f74d67ee5296add5c790029",
  "source": "pragma solidity ^0.4.23;\n\n\n/**\n* @title Ownable\n* @dev The Ownable contract has an owner address, and provides basic authorization control\n* functions, this simplifies the implementation of \"user permissions\".\n*/\ncontract Owned {\n\taddress public contractOwner;\n\n\tevent OwnershipTransferred(address indexed previousOwner, address indexed newOwner);\n\n\t/**\n\t* @dev The Ownable constructor sets the original `owner` of the contract to the sender\n\t* account.\n\t*/\n\tconstructor() public {\n\t\tcontractOwner = msg.sender;\n\t}\n\n\t/**\n\t* @dev Throws if called by any account other than the owner.\n\t*/\n\n\tmodifier onlyContractOwner() {\n\t\trequire(msg.sender == contractOwner);\n\t\t_;\n\t}\n\n\t/**\n\t* @dev Allows the current owner to transfer control of the contract to a newOwner.\n\t* @param newOwner The address to transfer ownership to.\n\t*/\n\tfunction transferOwnership(address newOwner) public onlyContractOwner {\n\t\trequire(newOwner != address(0));\n\t\temit OwnershipTransferred(contractOwner, newOwner);\n\t\tcontractOwner = newOwner;\n\t}\n}\n",
  "sourcePath": "/Users/ahiatsevich/Development/chronobank/LXsidechain-sc/contracts/common/Owned.sol",
  "compiler": {
    "name": "solc",
    "version": "0.4.23+commit.124ca40d.Emscripten.clang"
  },
  "schemaVersion": "2.0.0",
  "updatedAt": "2018-05-29T13:47:05.546Z"
}