{
  "contractName": "RewardsEmitter",
  "abi": [
    {
      "constant": false,
      "inputs": [
        {
          "name": "_errorCode",
          "type": "uint256"
        }
      ],
      "name": "emitErrorCode",
      "outputs": [],
      "payable": false,
      "stateMutability": "nonpayable",
      "type": "function"
    },
    {
      "constant": true,
      "inputs": [],
      "name": "getEventsHistory",
      "outputs": [
        {
          "name": "",
          "type": "address"
        }
      ],
      "payable": false,
      "stateMutability": "view",
      "type": "function"
    },
    {
      "anonymous": false,
      "inputs": [
        {
          "indexed": false,
          "name": "addr",
          "type": "address"
        },
        {
          "indexed": false,
          "name": "amount",
          "type": "uint256"
        },
        {
          "indexed": false,
          "name": "total",
          "type": "uint256"
        }
      ],
      "name": "WithdrawnSuccess",
      "type": "event"
    },
    {
      "anonymous": false,
      "inputs": [
        {
          "indexed": false,
          "name": "addr",
          "type": "address"
        },
        {
          "indexed": false,
          "name": "amountReward",
          "type": "uint256"
        }
      ],
      "name": "WithdrawnRewardSuccess",
      "type": "event"
    },
    {
      "anonymous": false,
      "inputs": [
        {
          "indexed": false,
          "name": "_part",
          "type": "uint256"
        }
      ],
      "name": "DepositStored",
      "type": "event"
    },
    {
      "anonymous": false,
      "inputs": [],
      "name": "PeriodClosed",
      "type": "event"
    },
    {
      "anonymous": false,
      "inputs": [
        {
          "indexed": true,
          "name": "self",
          "type": "address"
        },
        {
          "indexed": false,
          "name": "errorCode",
          "type": "uint256"
        }
      ],
      "name": "ErrorCode",
      "type": "event"
    },
    {
      "constant": false,
      "inputs": [
        {
          "name": "addr",
          "type": "address"
        },
        {
          "name": "amount",
          "type": "uint256"
        }
      ],
      "name": "emitWithdrawnReward",
      "outputs": [],
      "payable": false,
      "stateMutability": "nonpayable",
      "type": "function"
    },
    {
      "constant": false,
      "inputs": [],
      "name": "emitPeriodClosed",
      "outputs": [],
      "payable": false,
      "stateMutability": "nonpayable",
      "type": "function"
    }
  ],
  "bytecode": "0x608060405234801561001057600080fd5b5061023b806100206000396000f3006080604052600436106100615763ffffffff7c01000000000000000000000000000000000000000000000000000000006000350416631d5e0d6d81146100665780638834277e14610099578063e29065d6146100b1578063fff10aba146100c6575b600080fd5b34801561007257600080fd5b5061009773ffffffffffffffffffffffffffffffffffffffff60043516602435610104565b005b3480156100a557600080fd5b50610097600435610159565b3480156100bd57600080fd5b506100976101b1565b3480156100d257600080fd5b506100db6101dc565b6040805173ffffffffffffffffffffffffffffffffffffffff9092168252519081900360200190f35b6040805173ffffffffffffffffffffffffffffffffffffffff841681526020810183905281517f67df9380edc0ab1841c8d72784f09679a2bb1f9d29105814e079b68f80ed8d47929181900390910190a15050565b61016161020b565b73ffffffffffffffffffffffffffffffffffffffff167f09e0713b45664e161c202b19bb4574ee83dfa056f9bfdee56847b3971d968221826040518082815260200191505060405180910390a250565b6040517f3a273a3330d1f4c56aa39bf2b3df76adde3fd94f62ce06e19d173e66af02fa6390600090a1565b6000805473ffffffffffffffffffffffffffffffffffffffff168015156102035730610205565b805b91505090565b33905600a165627a7a72305820d6315fe4acba16ff6bcc28941a0fccfa76c5f22b39bf70b432a8eac402bbdddb0029",
  "source": "/**\n * Copyright 2017–2018, LaborX PTY\n * Licensed under the AGPL Version 3 license.\n */\n\npragma solidity ^0.4.23;\n\nimport \"solidity-eventshistory-lib/contracts/MultiEventsHistoryAdapter.sol\";\n\n\ncontract RewardsEmitter is MultiEventsHistoryAdapter {\n    event WithdrawnSuccess(address addr, uint amount, uint total);\n    event WithdrawnRewardSuccess(address addr, uint amountReward);\n    event DepositStored(uint _part);\n    event PeriodClosed();\n\n    function emitWithdrawnReward(address addr, uint amount)\n    public\n    {\n        emit WithdrawnRewardSuccess(addr, amount);\n    }\n\n    function emitPeriodClosed()\n    public\n    {\n        emit PeriodClosed();\n    }\n}\n",
  "sourcePath": "/Users/alesanro/Documents/Projects/ChronoBank/LXsidechain-sc/contracts/rewards/RewardsEmitter.sol",
  "compiler": {
    "name": "solc",
    "version": "0.4.24+commit.e67f0147.Emscripten.clang"
  },
  "schemaVersion": "2.0.1",
  "updatedAt": "2018-07-27T20:15:18.654Z"
}