{
  "contractName": "RewardsWallet",
  "abi": [
    {
      "constant": false,
      "inputs": [],
      "name": "claimContractOwnership",
      "outputs": [
        {
          "name": "",
          "type": "bool"
        }
      ],
      "payable": false,
      "stateMutability": "nonpayable",
      "type": "function"
    },
    {
      "constant": false,
      "inputs": [
        {
          "name": "_to",
          "type": "address"
        }
      ],
      "name": "changeContractOwnership",
      "outputs": [
        {
          "name": "",
          "type": "bool"
        }
      ],
      "payable": false,
      "stateMutability": "nonpayable",
      "type": "function"
    },
    {
      "constant": true,
      "inputs": [],
      "name": "pendingContractOwner",
      "outputs": [
        {
          "name": "",
          "type": "address"
        }
      ],
      "payable": false,
      "stateMutability": "view",
      "type": "function"
    },
    {
      "constant": false,
      "inputs": [
        {
          "name": "tokens",
          "type": "address[]"
        }
      ],
      "name": "withdrawTokens",
      "outputs": [],
      "payable": false,
      "stateMutability": "nonpayable",
      "type": "function"
    },
    {
      "constant": false,
      "inputs": [],
      "name": "withdrawEther",
      "outputs": [],
      "payable": false,
      "stateMutability": "nonpayable",
      "type": "function"
    },
    {
      "constant": true,
      "inputs": [],
      "name": "rewards",
      "outputs": [
        {
          "name": "",
          "type": "address"
        }
      ],
      "payable": false,
      "stateMutability": "view",
      "type": "function"
    },
    {
      "constant": true,
      "inputs": [],
      "name": "contractOwner",
      "outputs": [
        {
          "name": "",
          "type": "address"
        }
      ],
      "payable": false,
      "stateMutability": "view",
      "type": "function"
    },
    {
      "constant": false,
      "inputs": [
        {
          "name": "newOwner",
          "type": "address"
        }
      ],
      "name": "transferOwnership",
      "outputs": [
        {
          "name": "",
          "type": "bool"
        }
      ],
      "payable": false,
      "stateMutability": "nonpayable",
      "type": "function"
    },
    {
      "payable": true,
      "stateMutability": "payable",
      "type": "fallback"
    },
    {
      "anonymous": false,
      "inputs": [
        {
          "indexed": false,
          "name": "sender",
          "type": "address"
        },
        {
          "indexed": false,
          "name": "value",
          "type": "uint256"
        }
      ],
      "name": "EthReceived",
      "type": "event"
    },
    {
      "anonymous": false,
      "inputs": [
        {
          "indexed": true,
          "name": "previousOwner",
          "type": "address"
        },
        {
          "indexed": true,
          "name": "newOwner",
          "type": "address"
        }
      ],
      "name": "OwnershipTransferred",
      "type": "event"
    },
    {
      "constant": false,
      "inputs": [
        {
          "name": "_rewards",
          "type": "address"
        }
      ],
      "name": "init",
      "outputs": [],
      "payable": false,
      "stateMutability": "nonpayable",
      "type": "function"
    },
    {
      "constant": false,
      "inputs": [
        {
          "name": "tokens",
          "type": "address[]"
        }
      ],
      "name": "destroy",
      "outputs": [],
      "payable": false,
      "stateMutability": "nonpayable",
      "type": "function"
    },
    {
      "constant": false,
      "inputs": [
        {
          "name": "_asset",
          "type": "address"
        },
        {
          "name": "_from",
          "type": "address"
        },
        {
          "name": "_amount",
          "type": "uint256"
        }
      ],
      "name": "deposit",
      "outputs": [
        {
          "name": "",
          "type": "bool"
        }
      ],
      "payable": false,
      "stateMutability": "nonpayable",
      "type": "function"
    },
    {
      "constant": false,
      "inputs": [
        {
          "name": "_asset",
          "type": "address"
        },
        {
          "name": "_to",
          "type": "address"
        },
        {
          "name": "_amount",
          "type": "uint256"
        }
      ],
      "name": "withdraw",
      "outputs": [
        {
          "name": "",
          "type": "bool"
        }
      ],
      "payable": false,
      "stateMutability": "nonpayable",
      "type": "function"
    },
    {
      "constant": false,
      "inputs": [
        {
          "name": "_to",
          "type": "address"
        },
        {
          "name": "_amount",
          "type": "uint256"
        }
      ],
      "name": "withdrawEth",
      "outputs": [
        {
          "name": "",
          "type": "bool"
        }
      ],
      "payable": false,
      "stateMutability": "nonpayable",
      "type": "function"
    }
  ],
  "bytecode": "0x608060405260008054600160a060020a03191633179055610a68806100256000396000f3006080604052600436106100ab5763ffffffff60e060020a60003504166319ab453c81146100f45780631b9a91a4146101175780634592cd1d1461014f578063557f4bc9146101645780635aa77d3c146101855780635ecb16cd146101b65780637362377b1461020b5780638340f549146102205780639ec5a8941461024a578063c6786e5a1461025f578063ce606ee0146102b4578063d9caed12146102c9578063f2fde38b146102f3575b600034116100b857600080fd5b6040805133815234602082015281517f85177f287940f2f05425a4029951af0e047a7f9c4eaa9a6e6917bcd869f86695929181900390910190a1005b34801561010057600080fd5b50610115600160a060020a0360043516610314565b005b34801561012357600080fd5b5061013b600160a060020a0360043516602435610368565b604080519115158252519081900360200190f35b34801561015b57600080fd5b5061013b610435565b34801561017057600080fd5b5061013b600160a060020a03600435166104c6565b34801561019157600080fd5b5061019a610521565b60408051600160a060020a039092168252519081900360200190f35b3480156101c257600080fd5b5060408051602060048035808201358381028086018501909652808552610115953695939460249493850192918291850190849080828437509497506105309650505050505050565b34801561021757600080fd5b506101156106b6565b34801561022c57600080fd5b5061013b600160a060020a0360043581169060243516604435610713565b34801561025657600080fd5b5061019a61085b565b34801561026b57600080fd5b50604080516020600480358082013583810280860185019096528085526101159536959394602494938501929182918501908490808284375094975061086a9650505050505050565b3480156102c057600080fd5b5061019a610889565b3480156102d557600080fd5b5061013b600160a060020a0360043581169060243516604435610898565b3480156102ff57600080fd5b5061013b600160a060020a036004351661099d565b600054600160a060020a031633141561036557600160a060020a038116151561033c57600080fd5b6002805473ffffffffffffffffffffffffffffffffffffffff1916600160a060020a0383161790555b50565b600254600090600160a060020a0316331461040a57604080517f08c379a000000000000000000000000000000000000000000000000000000000815260206004820152602f60248201527f5265776172647320636f6e74726163742073686f756c64206f6e6c792063616c60448201527f6c20746869732066756e6374696f6e0000000000000000000000000000000000606482015290519081900360840190fd5b604051600160a060020a0384169083156108fc029084906000818181858888f1979650505050505050565b600154600090600160a060020a03163314610452575060006104c3565b60015460008054604051600160a060020a0393841693909116917f8be0079c531659141344cd1fd0a4f28419497f9722a3daafe3b4186f6b6457e091a350600180546000805473ffffffffffffffffffffffffffffffffffffffff19908116600160a060020a038416179091551681555b90565b60008054600160a060020a031633141561051c57600160a060020a03821615156104f25750600061051c565b506001805473ffffffffffffffffffffffffffffffffffffffff1916600160a060020a0383161781555b919050565b600154600160a060020a031681565b60008054819081908190600160a060020a03163314156106af5760008054600160a060020a0316945092505b84518310156106af57848381518110151561057357fe5b6020908102909101810151604080517f70a082310000000000000000000000000000000000000000000000000000000081523060048201529051919450600160a060020a038516926370a08231926024808401938290030181600087803b1580156105dd57600080fd5b505af11580156105f1573d6000803e3d6000fd5b505050506040513d602081101561060757600080fd5b5051905060008111156106a45781600160a060020a031663a9059cbb85836040518363ffffffff1660e060020a0281526004018083600160a060020a0316600160a060020a0316815260200182815260200192505050602060405180830381600087803b15801561067757600080fd5b505af115801561068b573d6000803e3d6000fd5b505050506040513d60208110156106a157600080fd5b50505b60019092019161055c565b5050505050565b60008054600160a060020a03163314156103655750303160008111156103655760008054604051600160a060020a039091169183156108fc02918491818181858888f1935050505015801561070f573d6000803e3d6000fd5b5050565b600254600090600160a060020a031633146107b557604080517f08c379a000000000000000000000000000000000000000000000000000000000815260206004820152602f60248201527f5265776172647320636f6e74726163742073686f756c64206f6e6c792063616c60448201527f6c20746869732066756e6374696f6e0000000000000000000000000000000000606482015290519081900360840190fd5b604080517f23b872dd000000000000000000000000000000000000000000000000000000008152600160a060020a038581166004830152306024830152604482018590529151918616916323b872dd916064808201926020929091908290030181600087803b15801561082757600080fd5b505af115801561083b573d6000803e3d6000fd5b505050506040513d602081101561085157600080fd5b5051949350505050565b600254600160a060020a031681565b600054600160a060020a03163314156103655761088681610530565b33ff5b600054600160a060020a031681565b600254600090600160a060020a0316331461093a57604080517f08c379a000000000000000000000000000000000000000000000000000000000815260206004820152602f60248201527f5265776172647320636f6e74726163742073686f756c64206f6e6c792063616c60448201527f6c20746869732066756e6374696f6e0000000000000000000000000000000000606482015290519081900360840190fd5b83600160a060020a031663a9059cbb84846040518363ffffffff1660e060020a0281526004018083600160a060020a0316600160a060020a0316815260200182815260200192505050602060405180830381600087803b15801561082757600080fd5b60008054600160a060020a031633141561051c57600160a060020a03821615156109c95750600061051c565b60008054604051600160a060020a03808616939216917f8be0079c531659141344cd1fd0a4f28419497f9722a3daafe3b4186f6b6457e091a35060008054600160a060020a03831673ffffffffffffffffffffffffffffffffffffffff19918216179091556001805490911681559190505600a165627a7a723058206e097dc307278c6bda9af630b1c496454bcde393405bb78140fc58bc34f9883f0029",
  "source": "/**\n * Copyright 2017–2018, LaborX PTY\n * Licensed under the AGPL Version 3 license.\n */\n\npragma solidity ^0.4.23;\n\nimport \"../common/Object.sol\";\nimport { ERC20Interface as ERC20 } from \"solidity-shared-lib/contracts/ERC20Interface.sol\";\n\n\n/**\n* @title TimeHolder's wallet contract defines a basic implementation of DepositWalletInterface\n* to provide a way to store/deposit/withdraw tokens on this contract according to access rights.\n* Here deposit/withdraw are allowed only by TimeHolder contract.\n*\n* @dev Specifies a contract that helps in updating TimeHolder interface by delegating token's ownership\n* to TimeHolderWallet contract\n*/\ncontract RewardsWallet is Object {\n    event EthReceived(address sender, uint value);\n    address public rewards;\n\n    modifier onlyRewards {\n        require(msg.sender == rewards, \"Rewards contract should only call this function\");\n        _;\n    }\n\n    function init(address _rewards)\n    external\n    onlyContractOwner\n    {\n        require(_rewards != address(0x0));\n\n        rewards = _rewards;\n    }\n\n    /**\n    * Call `selfdestruct` when contract is not needed anymore. Also takes a list of tokens\n    * that can be associated and have an account for this contract\n    *\n    * @dev Allowed only for contract owner\n    *\n    * @param tokens an array of tokens addresses\n    *\n    * @return result code of an operation\n    */\n    function destroy(address[] tokens)\n    public\n    onlyContractOwner\n    {\n        withdrawTokens(tokens);\n        selfdestruct(msg.sender);\n    }\n\n    /**\n    * Deposits some amount of tokens on wallet's account using ERC20 tokens\n    *\n    * @dev Allowed only for rewards\n    *\n    * @param _asset an address of token\n    * @param _from an address of a sender who is willing to transfer her resources\n    * @param _amount an amount of tokens (resources) a sender wants to transfer\n    *\n    * @return `true` if all successfuly completed, `false` otherwise\n    */\n    function deposit(address _asset, address _from, uint256 _amount)\n    external\n    onlyRewards\n    returns (bool)\n    {\n        return ERC20(_asset).transferFrom(_from, this, _amount);\n    }\n\n    /**\n    * Withdraws some amount of tokens from wallet's account using ERC20 tokens\n    *\n    * @dev Allowed only for rewards\n    *\n    * @param _asset an address of token\n    * @param _to an address of a receiver who is willing to get stored resources\n    * @param _amount an amount of tokens (resources) a receiver wants to get\n    *\n    * @return `true` if all successfuly completed, `false` otherwise\n    */\n    function withdraw(address _asset, address _to, uint256 _amount)\n    external\n    onlyRewards\n    returns (bool)\n    {\n        return ERC20(_asset).transfer(_to, _amount);\n    }\n\n    function withdrawEth(address _to, uint256 _amount)\n    external\n    onlyRewards\n    returns (bool)\n    {\n        return _to.send(_amount);\n    }\n\n    function ()\n    external\n    payable\n    {\n        require(msg.value > 0);\n        emit EthReceived(msg.sender, msg.value);\n    }\n}\n",
  "sourcePath": "/Users/alesanro/Documents/Projects/ChronoBank/LXsidechain-sc/contracts/rewards/RewardsWallet.sol",
  "compiler": {
    "name": "solc",
    "version": "0.4.24+commit.e67f0147.Emscripten.clang"
  },
  "schemaVersion": "2.0.1",
  "updatedAt": "2018-07-27T20:29:21.000Z"
}