{
  "contractName": "Rewards",
  "abi": [
    {
      "constant": false,
      "inputs": [
        {
          "name": "addr",
          "type": "address"
        },
        {
          "name": "amount",
          "type": "uint256"
        }
      ],
      "name": "emitWithdrawnReward",
      "outputs": [],
      "payable": false,
      "stateMutability": "nonpayable",
      "type": "function"
    },
    {
      "constant": true,
      "inputs": [],
      "name": "ERROR_REWARD_NOT_FOUND",
      "outputs": [
        {
          "name": "",
          "type": "uint256"
        }
      ],
      "payable": false,
      "stateMutability": "view",
      "type": "function"
    },
    {
      "constant": false,
      "inputs": [],
      "name": "claimContractOwnership",
      "outputs": [
        {
          "name": "",
          "type": "bool"
        }
      ],
      "payable": false,
      "stateMutability": "nonpayable",
      "type": "function"
    },
    {
      "constant": false,
      "inputs": [
        {
          "name": "_to",
          "type": "address"
        }
      ],
      "name": "changeContractOwnership",
      "outputs": [
        {
          "name": "",
          "type": "bool"
        }
      ],
      "payable": false,
      "stateMutability": "nonpayable",
      "type": "function"
    },
    {
      "constant": true,
      "inputs": [],
      "name": "pendingContractOwner",
      "outputs": [
        {
          "name": "",
          "type": "address"
        }
      ],
      "payable": false,
      "stateMutability": "view",
      "type": "function"
    },
    {
      "constant": false,
      "inputs": [
        {
          "name": "tokens",
          "type": "address[]"
        }
      ],
      "name": "withdrawTokens",
      "outputs": [],
      "payable": false,
      "stateMutability": "nonpayable",
      "type": "function"
    },
    {
      "constant": false,
      "inputs": [
        {
          "name": "_eventsHistory",
          "type": "address"
        }
      ],
      "name": "setEventsHistory",
      "outputs": [],
      "payable": false,
      "stateMutability": "nonpayable",
      "type": "function"
    },
    {
      "constant": false,
      "inputs": [],
      "name": "withdrawEther",
      "outputs": [],
      "payable": false,
      "stateMutability": "nonpayable",
      "type": "function"
    },
    {
      "constant": false,
      "inputs": [
        {
          "name": "_errorCode",
          "type": "uint256"
        }
      ],
      "name": "emitErrorCode",
      "outputs": [],
      "payable": false,
      "stateMutability": "nonpayable",
      "type": "function"
    },
    {
      "constant": true,
      "inputs": [
        {
          "name": "_address",
          "type": "address"
        }
      ],
      "name": "depositBalance",
      "outputs": [
        {
          "name": "balance",
          "type": "uint256"
        }
      ],
      "payable": false,
      "stateMutability": "view",
      "type": "function"
    },
    {
      "constant": true,
      "inputs": [],
      "name": "ERROR_REWARD_NO_REWARDS_LEFT",
      "outputs": [
        {
          "name": "",
          "type": "uint256"
        }
      ],
      "payable": false,
      "stateMutability": "view",
      "type": "function"
    },
    {
      "constant": true,
      "inputs": [],
      "name": "ERROR_REWARD_CALCULATION_FAILED",
      "outputs": [
        {
          "name": "",
          "type": "uint256"
        }
      ],
      "payable": false,
      "stateMutability": "view",
      "type": "function"
    },
    {
      "constant": true,
      "inputs": [],
      "name": "ERROR_REWARD_CANNOT_CLOSE_PERIOD",
      "outputs": [
        {
          "name": "",
          "type": "uint256"
        }
      ],
      "payable": false,
      "stateMutability": "view",
      "type": "function"
    },
    {
      "constant": true,
      "inputs": [],
      "name": "contractOwner",
      "outputs": [
        {
          "name": "",
          "type": "address"
        }
      ],
      "payable": false,
      "stateMutability": "view",
      "type": "function"
    },
    {
      "constant": true,
      "inputs": [],
      "name": "ERROR_REWARD_TRANSFER_FAILED",
      "outputs": [
        {
          "name": "",
          "type": "uint256"
        }
      ],
      "payable": false,
      "stateMutability": "view",
      "type": "function"
    },
    {
      "constant": false,
      "inputs": [],
      "name": "emitPeriodClosed",
      "outputs": [],
      "payable": false,
      "stateMutability": "nonpayable",
      "type": "function"
    },
    {
      "constant": true,
      "inputs": [],
      "name": "ERROR_REWARD_REWARDS_ALREADY_REGISTERED",
      "outputs": [
        {
          "name": "",
          "type": "uint256"
        }
      ],
      "payable": false,
      "stateMutability": "view",
      "type": "function"
    },
    {
      "constant": false,
      "inputs": [
        {
          "name": "newOwner",
          "type": "address"
        }
      ],
      "name": "transferOwnership",
      "outputs": [
        {
          "name": "",
          "type": "bool"
        }
      ],
      "payable": false,
      "stateMutability": "nonpayable",
      "type": "function"
    },
    {
      "constant": true,
      "inputs": [],
      "name": "ERROR_REWARD_ALREADY_CALCULATED",
      "outputs": [
        {
          "name": "",
          "type": "uint256"
        }
      ],
      "payable": false,
      "stateMutability": "view",
      "type": "function"
    },
    {
      "constant": true,
      "inputs": [],
      "name": "ERROR_REWARD_INVALID_PERIOD",
      "outputs": [
        {
          "name": "",
          "type": "uint256"
        }
      ],
      "payable": false,
      "stateMutability": "view",
      "type": "function"
    },
    {
      "constant": true,
      "inputs": [],
      "name": "getEventsHistory",
      "outputs": [
        {
          "name": "",
          "type": "address"
        }
      ],
      "payable": false,
      "stateMutability": "view",
      "type": "function"
    },
    {
      "inputs": [
        {
          "name": "_store",
          "type": "address"
        },
        {
          "name": "_crate",
          "type": "bytes32"
        }
      ],
      "payable": false,
      "stateMutability": "nonpayable",
      "type": "constructor"
    },
    {
      "anonymous": false,
      "inputs": [
        {
          "indexed": false,
          "name": "addr",
          "type": "address"
        },
        {
          "indexed": false,
          "name": "amount",
          "type": "uint256"
        },
        {
          "indexed": false,
          "name": "total",
          "type": "uint256"
        }
      ],
      "name": "WithdrawnSuccess",
      "type": "event"
    },
    {
      "anonymous": false,
      "inputs": [
        {
          "indexed": false,
          "name": "addr",
          "type": "address"
        },
        {
          "indexed": false,
          "name": "amountReward",
          "type": "uint256"
        }
      ],
      "name": "WithdrawnRewardSuccess",
      "type": "event"
    },
    {
      "anonymous": false,
      "inputs": [
        {
          "indexed": false,
          "name": "_part",
          "type": "uint256"
        }
      ],
      "name": "DepositStored",
      "type": "event"
    },
    {
      "anonymous": false,
      "inputs": [],
      "name": "PeriodClosed",
      "type": "event"
    },
    {
      "anonymous": false,
      "inputs": [
        {
          "indexed": true,
          "name": "self",
          "type": "address"
        },
        {
          "indexed": false,
          "name": "errorCode",
          "type": "uint256"
        }
      ],
      "name": "ErrorCode",
      "type": "event"
    },
    {
      "anonymous": false,
      "inputs": [
        {
          "indexed": true,
          "name": "previousOwner",
          "type": "address"
        },
        {
          "indexed": true,
          "name": "newOwner",
          "type": "address"
        }
      ],
      "name": "OwnershipTransferred",
      "type": "event"
    },
    {
      "constant": false,
      "inputs": [
        {
          "name": "_wallet",
          "type": "address"
        },
        {
          "name": "_closeIntervalDays",
          "type": "uint256"
        }
      ],
      "name": "init",
      "outputs": [
        {
          "name": "",
          "type": "uint256"
        }
      ],
      "payable": false,
      "stateMutability": "nonpayable",
      "type": "function"
    },
    {
      "constant": false,
      "inputs": [
        {
          "name": "_eventsHistory",
          "type": "address"
        }
      ],
      "name": "setupEventsHistory",
      "outputs": [
        {
          "name": "errorCode",
          "type": "uint256"
        }
      ],
      "payable": false,
      "stateMutability": "nonpayable",
      "type": "function"
    },
    {
      "constant": true,
      "inputs": [],
      "name": "wallet",
      "outputs": [
        {
          "name": "",
          "type": "address"
        }
      ],
      "payable": false,
      "stateMutability": "view",
      "type": "function"
    },
    {
      "constant": true,
      "inputs": [],
      "name": "getCloseInterval",
      "outputs": [
        {
          "name": "",
          "type": "uint256"
        }
      ],
      "payable": false,
      "stateMutability": "view",
      "type": "function"
    },
    {
      "constant": false,
      "inputs": [
        {
          "name": "_closeInterval",
          "type": "uint256"
        }
      ],
      "name": "setCloseInterval",
      "outputs": [
        {
          "name": "",
          "type": "uint256"
        }
      ],
      "payable": false,
      "stateMutability": "nonpayable",
      "type": "function"
    },
    {
      "constant": true,
      "inputs": [],
      "name": "getMaxSharesTransfer",
      "outputs": [
        {
          "name": "",
          "type": "uint256"
        }
      ],
      "payable": false,
      "stateMutability": "view",
      "type": "function"
    },
    {
      "constant": false,
      "inputs": [
        {
          "name": "_maxSharesTransfer",
          "type": "uint256"
        }
      ],
      "name": "setMaxSharesTransfer",
      "outputs": [
        {
          "name": "",
          "type": "uint256"
        }
      ],
      "payable": false,
      "stateMutability": "nonpayable",
      "type": "function"
    },
    {
      "constant": true,
      "inputs": [],
      "name": "getRewardsLeft",
      "outputs": [
        {
          "name": "",
          "type": "uint256"
        }
      ],
      "payable": false,
      "stateMutability": "view",
      "type": "function"
    },
    {
      "constant": true,
      "inputs": [],
      "name": "periodsLength",
      "outputs": [
        {
          "name": "",
          "type": "uint256"
        }
      ],
      "payable": false,
      "stateMutability": "view",
      "type": "function"
    },
    {
      "constant": true,
      "inputs": [
        {
          "name": "_period",
          "type": "uint256"
        }
      ],
      "name": "periodUnique",
      "outputs": [
        {
          "name": "",
          "type": "uint256"
        }
      ],
      "payable": false,
      "stateMutability": "view",
      "type": "function"
    },
    {
      "constant": false,
      "inputs": [],
      "name": "closePeriod",
      "outputs": [
        {
          "name": "resultCode",
          "type": "uint256"
        }
      ],
      "payable": false,
      "stateMutability": "nonpayable",
      "type": "function"
    },
    {
      "constant": true,
      "inputs": [
        {
          "name": "_period",
          "type": "uint256"
        }
      ],
      "name": "getPeriodStartDate",
      "outputs": [
        {
          "name": "",
          "type": "uint256"
        }
      ],
      "payable": false,
      "stateMutability": "view",
      "type": "function"
    },
    {
      "constant": true,
      "inputs": [
        {
          "name": "_address",
          "type": "address"
        },
        {
          "name": "_period",
          "type": "uint256"
        }
      ],
      "name": "depositBalanceInPeriod",
      "outputs": [
        {
          "name": "",
          "type": "uint256"
        }
      ],
      "payable": false,
      "stateMutability": "view",
      "type": "function"
    },
    {
      "constant": true,
      "inputs": [
        {
          "name": "_period",
          "type": "uint256"
        }
      ],
      "name": "totalDepositInPeriod",
      "outputs": [
        {
          "name": "",
          "type": "uint256"
        }
      ],
      "payable": false,
      "stateMutability": "view",
      "type": "function"
    },
    {
      "constant": true,
      "inputs": [],
      "name": "lastPeriod",
      "outputs": [
        {
          "name": "",
          "type": "uint256"
        }
      ],
      "payable": false,
      "stateMutability": "view",
      "type": "function"
    },
    {
      "constant": true,
      "inputs": [],
      "name": "lastClosedPeriod",
      "outputs": [
        {
          "name": "",
          "type": "uint256"
        }
      ],
      "payable": false,
      "stateMutability": "view",
      "type": "function"
    },
    {
      "constant": true,
      "inputs": [
        {
          "name": "_period",
          "type": "uint256"
        }
      ],
      "name": "isClosed",
      "outputs": [
        {
          "name": "",
          "type": "bool"
        }
      ],
      "payable": false,
      "stateMutability": "view",
      "type": "function"
    },
    {
      "constant": true,
      "inputs": [
        {
          "name": "_period",
          "type": "uint256"
        }
      ],
      "name": "assetBalanceInPeriod",
      "outputs": [
        {
          "name": "",
          "type": "uint256"
        }
      ],
      "payable": false,
      "stateMutability": "view",
      "type": "function"
    },
    {
      "constant": true,
      "inputs": [
        {
          "name": "_address",
          "type": "address"
        },
        {
          "name": "_period",
          "type": "uint256"
        }
      ],
      "name": "isCalculatedFor",
      "outputs": [
        {
          "name": "",
          "type": "bool"
        }
      ],
      "payable": false,
      "stateMutability": "view",
      "type": "function"
    },
    {
      "constant": true,
      "inputs": [
        {
          "name": "_address",
          "type": "address"
        }
      ],
      "name": "rewardsFor",
      "outputs": [
        {
          "name": "",
          "type": "uint256"
        }
      ],
      "payable": false,
      "stateMutability": "view",
      "type": "function"
    },
    {
      "constant": false,
      "inputs": [],
      "name": "withdrawRewardTotal",
      "outputs": [
        {
          "name": "",
          "type": "uint256"
        }
      ],
      "payable": false,
      "stateMutability": "nonpayable",
      "type": "function"
    },
    {
      "constant": false,
      "inputs": [
        {
          "name": "_amount",
          "type": "uint256"
        }
      ],
      "name": "withdrawReward",
      "outputs": [
        {
          "name": "",
          "type": "uint256"
        }
      ],
      "payable": false,
      "stateMutability": "nonpayable",
      "type": "function"
    }
  ],
  "bytecode": "0x60806040523480156200001157600080fd5b5060405160408062002c7983398101604052805160209091015160008054600160a060020a031916331790558181818181816200005f60028383640100000000620020966200051d82021704565b505060048054600160a060020a0319163017905550620000b1905060057f7368617265686f6c646572730000000000000000000000000000000000000000640100000000620020c96200054382021704565b620000ec600a7f6465706f73697473000000000000000000000000000000000000000000000000640100000000620020d36200055c82021704565b62000127600f7f6465706f736974734964436f756e746572000000000000000000000000000000640100000000620020dd6200057182021704565b6200016260107f616d6f756e747300000000000000000000000000000000000000000000000000640100000000620020ed6200058c82021704565b6200019d60117f74696d657374616d707300000000000000000000000000000000000000000000640100000000620020ed6200058c82021704565b620001d860127f746f74616c53686172657353746f726167650000000000000000000000000000640100000000620020dd6200057182021704565b6200021360137f736861726573436f6e747261637453746f726167650000000000000000000000640100000000620020dd6200057182021704565b5062000251905060157f636c6f7365496e74657276616c00000000000000000000000000000000000000640100000000620020dd6200057182021704565b6200028c60167f6d61785368617265735472616e73666572000000000000000000000000000000640100000000620020dd6200057182021704565b620002c760177f7265776172647300000000000000000000000000000000000000000000000000640100000000620020ed6200058c82021704565b6200030260187f726577617264734c656674000000000000000000000000000000000000000000640100000000620020dd6200057182021704565b6200033d60197f706572696f647300000000000000000000000000000000000000000000000000640100000000620020dd6200057182021704565b62000378601c7f746f74616c536861726573000000000000000000000000000000000000000000640100000000620020ed6200058c82021704565b620003b3601e7f7368617265686f6c64657273436f756e74000000000000000000000000000000640100000000620020ed6200058c82021704565b620003ee601a7f636c6f7365640000000000000000000000000000000000000000000000000000640100000000620020ed6200058c82021704565b62000429601b7f7374617274446174650000000000000000000000000000000000000000000000640100000000620020ed6200058c82021704565b62000464601f7f617373657442616c616e63657300000000000000000000000000000000000000640100000000620020ed6200058c82021704565b6200049f60207f63616c63756c6174656400000000000000000000000000000000000000000000640100000000620020ed6200058c82021704565b620004da601d7f7368617265730000000000000000000000000000000000000000000000000000640100000000620020ed6200058c82021704565b6200051560217f7265776172647357616c6c657453746f72616765000000000000000000000000640100000000620020dd6200057182021704565b505062000865565b8254600160a060020a031916600160a060020a0392909216919091178255600190910155565b620005588282640100000000620005a1810204565b5050565b62000558828264010000000062000543810204565b81546200058890826401000000006200084d810204565b9055565b62000558828264010000000062000571810204565b6040805160208082018490527f75696e742f636f756e7400000000000000000000000000000000000000000000828401528251602a818403018152604a9092019283905281516200065d93869392909182918401908083835b602083106200061b5780518252601f199092019160209182019101620005fa565b6001836020036101000a038019825116818451168082178552505050505050905001915050604051809103902062000571640100000000026401000000009004565b6040805160208082018490527f75696e742f666972737400000000000000000000000000000000000000000000828401528251602a818403018152604a909201928390528151620006d99360018701939290918291840190808383602083106200061b5780518252601f199092019160209182019101620005fa565b6040805160208082018490527f75696e742f6c617374000000000000000000000000000000000000000000000082840152825160298184030181526049909201928390528151620007559360028701939290918291840190808383602083106200061b5780518252601f199092019160209182019101620005fa565b6040805160208082018490527f75696e742f6e657874000000000000000000000000000000000000000000000082840152825160298184030181526049909201928390528151620007d19360038701939290918291840190808383602083106200061b5780518252601f199092019160209182019101620005fa565b6040805160208082018490527f75696e742f70726576000000000000000000000000000000000000000000000082840152825160298184030181526049909201928390528151620005589360048701939290918291840190808383602083106200061b5780518252601f199092019160209182019101620005fa565b811515806200085a575080155b156200055857600080fd5b61240480620008756000396000f3006080604052600436106101f55763ffffffff60e060020a60003504166302927d2081146101fa578063123079171461022d5780631d5e0d6d146102425780631fd65e1414610268578063399ae7241461027d5780634592cd1d146102a1578063507a7328146102ca578063521eb273146102df578063523a3f0814610310578063557f4bc91461032857806357bd8522146103495780635aa77d3c146103615780635ecb16cd14610376578063601c0948146103cb5780636521afd7146103e35780636abe602d14610404578063719af584146104195780637362377b1461042e5780638632779c146104435780638834277e14610458578063896efbd614610470578063956501bb146104885780639a24159b146104a95780639a500ac4146104c15780639d3c7370146104d65780639d677bb2146104eb578063a4a7693414610500578063aef5466414610515578063b51f79021461052d578063cce53fc41461054e578063ce606ee014610572578063d340ef8a14610404578063d5309c6014610587578063d5c78a281461059f578063df90d0bb146105b7578063e29065d6146105cc578063f2cbe509146105e1578063f2fde38b146105f6578063f6acea0b14610617578063fa7333ca1461062c578063fe609e6314610641578063fe82b45814610665578063fff10aba1461067a575b600080fd5b34801561020657600080fd5b5061021b600160a060020a036004351661068f565b60408051918252519081900360200190f35b34801561023957600080fd5b5061021b6106cc565b34801561024e57600080fd5b50610266600160a060020a03600435166024356106e6565b005b34801561027457600080fd5b5061021b61072e565b34801561028957600080fd5b5061021b600160a060020a0360043516602435610734565b3480156102ad57600080fd5b506102b66107da565b604080519115158252519081900360200190f35b3480156102d657600080fd5b5061021b61086a565b3480156102eb57600080fd5b506102f4610992565b60408051600160a060020a039092168252519081900360200190f35b34801561031c57600080fd5b5061021b6004356109a6565b34801561033457600080fd5b506102b6600160a060020a03600435166109b8565b34801561035557600080fd5b5061021b600435610a14565b34801561036d57600080fd5b506102f4610a51565b34801561038257600080fd5b506040805160206004803580820135838102808601850190965280855261026695369593946024949385019291829185019084908082843750949750610a609650505050505050565b3480156103d757600080fd5b5061021b600435610be6565b3480156103ef57600080fd5b50610266600160a060020a0360043516610bfb565b34801561041057600080fd5b5061021b610c3a565b34801561042557600080fd5b5061021b610c4e565b34801561043a57600080fd5b50610266610c62565b34801561044f57600080fd5b5061021b610cbf565b34801561046457600080fd5b50610266600435610cfc565b34801561047c57600080fd5b5061021b600435610d47565b34801561049457600080fd5b5061021b600160a060020a0360043516610d76565b3480156104b557600080fd5b5061021b600435610e00565b3480156104cd57600080fd5b5061021b610e36565b3480156104e257600080fd5b5061021b610e3c565b3480156104f757600080fd5b5061021b610e50565b34801561050c57600080fd5b5061021b610e56565b34801561052157600080fd5b5061021b600435610e5c565b34801561053957600080fd5b5061021b600160a060020a0360043516610e71565b34801561055a57600080fd5b5061021b600160a060020a0360043516602435610e86565b34801561057e57600080fd5b506102f4610ec2565b34801561059357600080fd5b5061021b600435610ed1565b3480156105ab57600080fd5b506102b6600435610ef8565b3480156105c357600080fd5b5061021b610f0d565b3480156105d857600080fd5b50610266610f13565b3480156105ed57600080fd5b5061021b610f3e565b34801561060257600080fd5b506102b6600160a060020a0360043516610f44565b34801561062357600080fd5b5061021b610fe3565b34801561063857600080fd5b5061021b610fe9565b34801561064d57600080fd5b506102b6600160a060020a0360043516602435610fef565b34801561067157600080fd5b5061021b611005565b34801561068657600080fd5b506102f4611019565b60008054600160a060020a03163314156106c757600160a060020a03821615156106b857600080fd5b6106c18261103d565b50600190505b919050565b60006106e06002601863ffffffff61106e16565b90505b90565b60408051600160a060020a03841681526020810183905281517f67df9380edc0ab1841c8d72784f09679a2bb1f9d29105814e079b68f80ed8d47929181900390910190a15050565b61232881565b600080548190600160a060020a03163314156107d35761075c6002602163ffffffff61111516565b600160a060020a03161515610772576001610775565b60065b905061078a600260158563ffffffff61118916565b61079d600260218663ffffffff61122116565b600681146107ce576107ba6002601b60004263ffffffff61129d16565b6107ce60026016601e63ffffffff61118916565b600191505b5092915050565b600154600090600160a060020a031633146107f7575060006106e3565b60015460008054604051600160a060020a0393841693909116917f8be0079c531659141344cd1fd0a4f28419497f9722a3daafe3b4186f6b6457e091a350600180546000805473ffffffffffffffffffffffffffffffffffffffff19908116600160a060020a0384161790915516815590565b60008054819081908190600160a060020a031633141561098c5761088c610c3a565b9250426108a16002601563ffffffff61106e16565b62015180026108b96002601b8763ffffffff6112af16565b0111156108d2576108cb6123316112c4565b935061098c565b6108e46002601263ffffffff61106e16565b91506108f86002600563ffffffff61133416565b905061090e6002601c858563ffffffff61129d16565b6109226002601e858463ffffffff61129d16565b61092b83611340565b9350600184146109445761093e846112c4565b5061098c565b60019092019161095d600260198563ffffffff61118916565b6109716002601b854263ffffffff61129d16565b6109796113ce565b9350600184141561098c5761098c61155d565b50505090565b60006106e06002602163ffffffff61111516565b60006109b233836115b6565b92915050565b60008054600160a060020a03163314156106c757600160a060020a03821615156109e4575060006106c7565b5060018054600160a060020a03831673ffffffffffffffffffffffffffffffffffffffff19909116178155919050565b6000610a1e610c3a565b821415610a3e57610a376002600563ffffffff61133416565b90506106c7565b610a376002601e8463ffffffff6112af16565b600154600160a060020a031681565b60008054819081908190600160a060020a0316331415610bdf5760008054600160a060020a0316945092505b8451831015610bdf578483815181101515610aa357fe5b6020908102909101810151604080517f70a082310000000000000000000000000000000000000000000000000000000081523060048201529051919450600160a060020a038516926370a08231926024808401938290030181600087803b158015610b0d57600080fd5b505af1158015610b21573d6000803e3d6000fd5b505050506040513d6020811015610b3757600080fd5b505190506000811115610bd45781600160a060020a031663a9059cbb85836040518363ffffffff1660e060020a0281526004018083600160a060020a0316600160a060020a0316815260200182815260200192505050602060405180830381600087803b158015610ba757600080fd5b505af1158015610bbb573d6000803e3d6000fd5b505050506040513d6020811015610bd157600080fd5b50505b600190920191610a8c565b5050505050565b60006109b26002601f8463ffffffff6112af16565b600054600160a060020a0316331415610c37576004805473ffffffffffffffffffffffffffffffffffffffff1916600160a060020a0383161790555b50565b60006106e06002601963ffffffff61106e16565b60006106e033610c5d33610e71565b6115b6565b60008054600160a060020a0316331415610c37575030316000811115610c375760008054604051600160a060020a039091169183156108fc02918491818181858888f19350505050158015610cbb573d6000803e3d6000fd5b5050565b6000610cd36002601963ffffffff61106e16565b1515610ce257506123286106e3565b6001610cf66002601963ffffffff61106e16565b03905090565b610d04611738565b600160a060020a03167f09e0713b45664e161c202b19bb4574ee83dfa056f9bfdee56847b3971d968221826040518082815260200191505060405180910390a250565b60008054600160a060020a03163314156106c757610d6e600260168463ffffffff61118916565b506001919050565b6000610d8061206f565b600080610d9f6002600a600160a060020a03881663ffffffff61173c16565b9250600091505b610db96002600a8563ffffffff61174f16565b15610df857610de7601086610dd76002600a8863ffffffff61175c16565b600292919063ffffffff61176916565b938401936001909201919050610da6565b505050919050565b6000610e0a610c3a565b821415610e2357610a376002601263ffffffff61106e16565b6109b26002601c8463ffffffff6112af16565b61232d81565b60006106e06002601563ffffffff61106e16565b61233081565b61233181565b60006109b26002601b8463ffffffff6112af16565b60006109b2600260178463ffffffff61178916565b6000610e90610c3a565b821415610ea757610ea083610d76565b90506109b2565b610ebb6002601d848663ffffffff61179f16565b9392505050565b600054600160a060020a031681565b60008054600160a060020a03163314156106c757610d6e600260158463ffffffff61118916565b60006109b26002601a8463ffffffff6117b616565b61232e81565b6040517f3a273a3330d1f4c56aa39bf2b3df76adde3fd94f62ce06e19d173e66af02fa6390600090a1565b61233281565b60008054600160a060020a03163314156106c757600160a060020a0382161515610f70575060006106c7565b60008054604051600160a060020a03808616939216917f8be0079c531659141344cd1fd0a4f28419497f9722a3daafe3b4186f6b6457e091a35060008054600160a060020a03831673ffffffffffffffffffffffffffffffffffffffff1991821617909155600180549091168155919050565b61232f81565b61232c81565b6000610ebb60026020848663ffffffff6117c316565b60006106e06002601663ffffffff61106e16565b601454600090600160a060020a03168015156110355730611037565b805b91505090565b60148054600160a060020a03831673ffffffffffffffffffffffffffffffffffffffff199091161790556001919050565b815460018301548254604080517f53aa3f5e0000000000000000000000000000000000000000000000000000000081526004810193909352602483019190915251600092600160a060020a0316916353aa3f5e91604480830192602092919082900301818787803b1580156110e257600080fd5b505af11580156110f6573d6000803e3d6000fd5b505050506040513d602081101561110c57600080fd5b50519392505050565b815460018301548254604080517fd3a396860000000000000000000000000000000000000000000000000000000081526004810193909352602483019190915251600092600160a060020a03169163d3a3968691604480830192602092919082900301818787803b1580156110e257600080fd5b825460018401548354604080517f53e7168b000000000000000000000000000000000000000000000000000000008152600481019390935260248301919091526044820184905251600160a060020a03909216916353e7168b9160648082019260009290919082900301818387803b15801561120457600080fd5b505af1158015611218573d6000803e3d6000fd5b50505050505050565b825460018401548354604080517f79a7cfee00000000000000000000000000000000000000000000000000000000815260048101939093526024830191909152600160a060020a03848116604484015290519216916379a7cfee9160648082019260009290919082900301818387803b15801561120457600080fd5b6112a9848484846117e2565b50505050565b60006112bc8484846118e5565b949350505050565b60006112ce611019565b600160a060020a0316638834277e836040518263ffffffff1660e060020a02815260040180828152602001915050600060405180830381600087803b15801561131657600080fd5b505af115801561132a573d6000803e3d6000fd5b5093949350505050565b6000610ebb83836119f5565b60008080806113586002601f8763ffffffff6112af16565b925082156113725761136b6123326112c4565b9350610df8565b61137a610992565b600160a060020a03163191506113986002601863ffffffff61106e16565b90506113b06002601f8784860363ffffffff61129d16565b6113c3600260188463ffffffff61118916565b506001949350505050565b60008060006113db61206f565b6000806000806113e961206f565b600080548190600160a060020a031633141561155057611407610cbf565b9950611419611414610c3a565b610e5c565b985061142d6002600563ffffffff611a2216565b9750600094505b611447600260058a63ffffffff611a3416565b156115365761145f600260058a63ffffffff611a4116565b6000975093506114816002600a600160a060020a03871663ffffffff61173c16565b9250600095505b61149b6002600a8563ffffffff61174f16565b156114f6576114b36002600a8563ffffffff61175c16565b91506114c960026011868563ffffffff61176916565b90508881116114eb576114e660026010868563ffffffff61176916565b870196505b600190950194611488565b61150184888c611a4e565b9a5060018b14611516576115148b6112c4565b505b61152b6002601d8c878b63ffffffff611b1316565b600190940193611434565b61154b6002601a8c600163ffffffff611b2916565b60019a505b5050505050505050505090565b611565611019565b600160a060020a031663e29065d66040518163ffffffff1660e060020a028152600401600060405180830381600087803b1580156115a257600080fd5b505af11580156112a9573d6000803e3d6000fd5b60008080806115cd6002601863ffffffff61106e16565b15156115e5576115de61232d6112c4565b935061172f565b6115ed610992565b600160a060020a0316319250611601610992565b600160a060020a0316631b9a91a487876040518363ffffffff1660e060020a0281526004018083600160a060020a0316600160a060020a0316815260200182815260200192505050602060405180830381600087803b15801561166357600080fd5b505af1158015611677573d6000803e3d6000fd5b505050506040513d602081101561168d57600080fd5b505115156116a0576115de61232e6112c4565b6116a8610992565b600160a060020a031631915050808203806116c287610e71565b10156116cd57600080fd5b6116f8601787836116e66002848463ffffffff61178916565b6002939291900363ffffffff611b3516565b61172060188261170f60028363ffffffff61106e16565b60029291900363ffffffff61118916565b61172a8686611b4a565b600193505b50505092915050565b3390565b61174461206f565b6112bc848484611bd0565b60006112bc848484611a34565b60006112bc848484611a41565b60006117808585600160a060020a03861685611be3565b95945050505050565b60006112bc8484600160a060020a0385166118e5565b6000611780858585600160a060020a038616611be3565b60006112bc848484611c71565b60006117806117dd868686600160a060020a038716611be3565b611cde565b835460018501548454604080516020808201939093528082018790528151808203830181526060909101918290528051600160a060020a039095169463a14ff85794939192918291908401908083835b602083106118515780518252601f199092019160209182019101611832565b5181516020939093036101000a60001901801990911692169190911790526040805191909301819003812063ffffffff881660e060020a02825260048201969096526024810195909552506044840187905251606480850194600094509192509082900301818387803b1580156118c757600080fd5b505af11580156118db573d6000803e3d6000fd5b5050505050505050565b825460018401548354604080516020808201939093528082018690528151808203830181526060909101918290528051600095600160a060020a0316946337d9d7fc9490939182918401908083835b602083106119535780518252601f199092019160209182019101611934565b51815160209384036101000a60001901801990921691161790526040805192909401829003822063ffffffff891660e060020a028352600483019790975260248201969096529151604480840196955090935091839003909101905081600087803b1580156119c157600080fd5b505af11580156119d5573d6000803e3d6000fd5b505050506040513d60208110156119eb57600080fd5b5051949350505050565b6000610ebb83837f6f7264657265645f736574000000000000000000000000000000000000000000611ce3565b611a2a61206f565b610ebb8383611cf0565b60006112bc848484611d23565b60006112bc848484611d60565b600080808080611a676002601f8863ffffffff6112af16565b9350831515611a7a576123309450611b08565b611a8e60026020888b63ffffffff6117c316565b15611a9d5761232f9450611b08565b611ab06002601c8863ffffffff6112af16565b925082878502811515611abf57fe5b049150611ad5600260178a63ffffffff61178916565b9050611aed600260178a85850163ffffffff611b3516565b611b0360026020888b600163ffffffff611da916565b600194505b505050509392505050565b610bdf858585600160a060020a03861685611dc2565b6112a984848484611e4d565b6112a98484600160a060020a038516846117e2565b611b52611019565b600160a060020a0316631d5e0d6d83836040518363ffffffff1660e060020a0281526004018083600160a060020a0316600160a060020a0316815260200182815260200192505050600060405180830381600087803b158015611bb457600080fd5b505af1158015611bc8573d6000803e3d6000fd5b505050505050565b611bd861206f565b6112bc848484611f33565b6040805160208082018590528183018490528251808303840181526060909201928390528151600093611780938993899391929182918401908083835b60208310611c3f5780518252601f199092019160209182019101611c20565b6001836020036101000a03801982511681845116808217855250505050505090500191505060405180910390206118e5565b825460018401548354604080516020808201939093528082018690528151808203830181526060909101918290528051600095600160a060020a0316946398eaf11c949093918291840190808383602083106119535780518252601f199092019160209182019101611934565b151590565b60006112bc848484611f51565b611cf861206f565b610ebb83837f6f7264657265645f736574000000000000000000000000000000000000000000611f33565b6000816020015160001480611d495750611d47848484606001518560400151611fbe565b155b15611d5657506000610ebb565b5060019392505050565b6000611d6d848484611d23565b1515611d7857600080fd5b5060408101516060820151611d91908590859084611ffa565b60408301526020909101805160001901905292915050565b610bdf858585600160a060020a038616611dc28661200b565b6040805160208082018690528183018590528251808303840181526060909201928390528151610bdf9389938993909282918401908083835b60208310611e1a5780518252601f199092019160209182019101611dfb565b6001836020036101000a0380198251168184511680821785525050505050509050019150506040518091039020846117e2565b835460018501548454604080516020808201939093528082018790528151808203830181526060909101918290528051600160a060020a039095169463f0f53ee494939192918291908401908083835b60208310611ebc5780518252601f199092019160209182019101611e9d565b5181516020939093036101000a60001901801990911692169190911790526040805191909301819003812063ffffffff881660e060020a0282526004820196909652602481019590955250861515604485015251606480850194600094509192509082900301818387803b1580156118c757600080fd5b611f3b61206f565b6112bc848484611f4c838383611f51565b612025565b825460018401548354604080516020808201939093528082018690528151808203830181526060909101918290528051600095600160a060020a0316946353aa3f5e949093918291840190808383602083106119535780518252601f199092019160209182019101611934565b600081158015906117805750611fd985856003018585611be3565b151580611780575081611ff08660028701866118e5565b1495945050505050565b600061178085856003018585611be3565b60008161201957600061201c565b60015b60ff1692915050565b61202d61206f565b6117808361203f8787600101876118e5565b8461204861206f565b50604080516080810182528281526020810192909252810191909152606081019190915290565b60408051608081018252600080825260208201819052918101829052606081019190915290565b825473ffffffffffffffffffffffffffffffffffffffff1916600160a060020a0392909216919091178255600190910155565b610cbb8282612135565b610cbb82826120c9565b81546120e990826123c2565b9055565b610cbb82826120dd565b81546120e990826123c2565b610cbb82826120dd565b610cbb82826120dd565b610cbb82826120dd565b610cbb82826120dd565b610cbb82826120dd565b6040805160208082018490527f75696e742f636f756e7400000000000000000000000000000000000000000000828401528251602a818403018152604a9092019283905281516121de93869392909182918401908083835b602083106121ac5780518252601f19909201916020918201910161218d565b6001836020036101000a03801982511681845116808217855250505050505090500191505060405180910390206120dd565b6040805160208082018490527f75696e742f666972737400000000000000000000000000000000000000000000828401528251602a818403018152604a9092019283905281516122579360018701939290918291840190808383602083106121ac5780518252601f19909201916020918201910161218d565b6040805160208082018490527f75696e742f6c6173740000000000000000000000000000000000000000000000828401528251602981840301815260499092019283905281516122d09360028701939290918291840190808383602083106121ac5780518252601f19909201916020918201910161218d565b6040805160208082018490527f75696e742f6e6578740000000000000000000000000000000000000000000000828401528251602981840301815260499092019283905281516123499360038701939290918291840190808383602083106121ac5780518252601f19909201916020918201910161218d565b6040805160208082018490527f75696e742f70726576000000000000000000000000000000000000000000000082840152825160298184030181526049909201928390528151610cbb9360048701939290918291840190808383602083106121ac5780518252601f19909201916020918201910161218d565b811515806123ce575080155b15610cbb57600080fd00a165627a7a7230582008e85a4686a22b1777f36b56aae88db80c8c282e4efcf34a2cc9c945cd0c65900029",
  "source": "/**\n * Copyright 20172018, LaborX PTY\n * Licensed under the AGPL Version 3 license.\n */\n\npragma solidity ^0.4.23;\n\n\nimport { ERC20Interface as ERC20 } from \"solidity-shared-lib/contracts/ERC20Interface.sol\";\nimport \"./RewardsWallet.sol\";\nimport \"./RewardsEmitter.sol\";\nimport \"./Deposits.sol\";\n\n/**\n * @title Universal decentralized ERC20 tokens rewards contract.\n *\n * One ERC20 token serves as a shares, and any number of other ERC20 tokens serve as rewards(assets).\n * Rewards distribution are divided in periods, the only thing that shareholder needs to do in\n * order to take part in distribution is prove to rewards contract that he possess certain amount\n * of shares before period closes. Prove is made through allowing rewards contract to take shares\n * from the shareholder, and then depositing it through a call to rewards contract. Proof is needed\n * for every period.\n *\n * When calculating rewards distribution, resulting amount is always rounded down.\n *\n * In order to be able to deposit shares, user needs to create allowance for wallet contract, using\n * standard ERC20 approve() function, so that contract can take shares from the user, when user\n * makes a dpeosit.\n *\n * Users can withdraw their shares at any moment, but only remaining shares will be used for\n * rewards distribution.\n * Users can withdraw their accumulated rewards at any moment.\n *\n * State flow:\n *   1. Period closed, next period started;\n *   2. Reward assets registered for last closed preiod;\n *   3. Rewards distributed for closed period;\n *   4. Shares deposited into current period;\n *   5. Repeat.\n *\n * Note: all the non constant functions return false instead of throwing in case if state change\n * didn't happen yet.\n */\ncontract Rewards is Deposits, RewardsEmitter {\n\n    uint public constant ERROR_REWARD_NOT_FOUND = 9000;\n    uint public constant ERROR_REWARD_INVALID_PERIOD = 9004;\n    uint public constant ERROR_REWARD_NO_REWARDS_LEFT = 9005;\n    uint public constant ERROR_REWARD_TRANSFER_FAILED = 9006;\n    uint public constant ERROR_REWARD_ALREADY_CALCULATED = 9007;\n    uint public constant ERROR_REWARD_CALCULATION_FAILED = 9008;\n    uint public constant ERROR_REWARD_CANNOT_CLOSE_PERIOD = 9009;\n    uint public constant ERROR_REWARD_REWARDS_ALREADY_REGISTERED = 9010;\n\n    StorageInterface.UInt private closeInterval;\n    StorageInterface.UInt private maxSharesTransfer;\n    StorageInterface.AddressUIntMapping private rewards;\n    StorageInterface.UInt private rewardsLeft;\n    StorageInterface.UInt private periods;\n    StorageInterface.UIntBoolMapping private closed;\n    StorageInterface.UIntUIntMapping private startDate;\n    StorageInterface.UIntUIntMapping private totalShares;\n    StorageInterface.UIntAddressUIntMapping private shares;\n    StorageInterface.UIntUIntMapping private shareholdersCount;\n    StorageInterface.UIntUIntMapping private assetBalances;\n    StorageInterface.UIntAddressBoolMapping private calculated;\n\n    StorageInterface.Address private walletStorage;\n\n    constructor(Storage _store, bytes32 _crate)\n    public\n    Deposits(_store, _crate)\n    {\n        closeInterval.init(\"closeInterval\");\n        maxSharesTransfer.init(\"maxSharesTransfer\");\n        rewards.init(\"rewards\");\n        rewardsLeft.init(\"rewardsLeft\");\n        periods.init(\"periods\");\n        totalShares.init(\"totalShares\");\n        shareholdersCount.init(\"shareholdersCount\");\n        closed.init(\"closed\");\n        startDate.init(\"startDate\");\n        assetBalances.init(\"assetBalances\");\n        calculated.init(\"calculated\");\n        shares.init(\"shares\");\n        walletStorage.init(\"rewardsWalletStorage\");\n    }\n\n    /**\n     * Sets ContractManager contract and period minimum length.\n     * Starts the first period.\n     *\n     * @param _closeIntervalDays period minimum length, in days.\n     *\n     * @return result code, @see Errors\n     */\n    function init(address _wallet, uint _closeIntervalDays)\n    external\n    onlyContractOwner\n    returns (uint)\n    {\n        uint result = store.get(walletStorage) != 0x0 ? REINITIALIZED : OK;\n\n        store.set(closeInterval, _closeIntervalDays);\n        store.set(walletStorage, _wallet);\n\n        // do not update default values if reinitialization\n        if (REINITIALIZED != result) {\n            store.set(startDate, 0, now);\n            store.set(maxSharesTransfer, 30);\n        }\n\n        return OK;\n    }\n\n    /// @notice Sets EventsHistory contract address.\n    /// @dev Can be set only by owner.\n    /// @param _eventsHistory MultiEventsHistory contract address.\n    /// @return success.\n    function setupEventsHistory(address _eventsHistory) \n    external \n    onlyContractOwner \n    returns (uint errorCode) \n    {\n        require(_eventsHistory != 0x0);\n\n        _setEventsHistory(_eventsHistory);\n        return OK;\n    }\n\n    /**\n    * @dev Gets wallet address used to store tokens\n    *\n    * @return wallet address\n    */\n    function wallet()\n    public\n    view\n    returns (RewardsWallet)\n    {\n        return RewardsWallet(store.get(walletStorage));\n    }\n\n    function getCloseInterval()\n    public\n    view\n    returns (uint)\n    {\n        return store.get(closeInterval);\n    }\n\n    function setCloseInterval(uint _closeInterval)\n    public\n    onlyContractOwner\n    returns (uint)\n    {\n        store.set(closeInterval, _closeInterval);\n        return OK;\n    }\n\n    function getMaxSharesTransfer()\n    public\n    view\n    returns (uint)\n    {\n        return store.get(maxSharesTransfer);\n    }\n\n    function setMaxSharesTransfer(uint _maxSharesTransfer)\n    public\n    onlyContractOwner\n    returns (uint)\n    {\n        store.set(maxSharesTransfer, _maxSharesTransfer);\n        return OK;\n    }\n\n    function getRewardsLeft()\n    public\n    view\n    returns (uint)\n    {\n        return store.get(rewardsLeft);\n    }\n\n    function periodsLength()\n    public\n    view\n    returns (uint)\n    {\n        return store.get(periods);\n    }\n\n    function periodUnique(uint _period)\n    public\n    view\n    returns (uint)\n    {\n        if (_period == lastPeriod()) {\n            return store.count(shareholders);\n        } else {\n            return store.get(shareholdersCount, _period);\n        }\n    }\n\n    /**\n     * Close current active period and start the new period.\n     *\n     * Can only be done if period was active longer than minimum length.\n     *\n     * @return success.\n     */\n    function closePeriod()\n    public\n    onlyContractOwner\n    returns (uint resultCode)\n    {\n        uint period = lastPeriod();\n        if ((store.get(startDate, period) + (store.get(closeInterval) * 1 days)) > now) {\n            return _emitErrorCode(ERROR_REWARD_CANNOT_CLOSE_PERIOD);\n        }\n\n        uint _totalSharesPeriod = store.get(totalSharesStorage);\n        uint _shareholdersCount = store.count(shareholders);\n        store.set(totalShares, period, _totalSharesPeriod);\n        store.set(shareholdersCount, period, _shareholdersCount);\n\n        resultCode = registerAsset(period);\n        if (OK != resultCode) {\n            // do not interrupt, just emit an Event\n            _emitErrorCode(resultCode);\n            return resultCode;\n        }\n\n        store.set(periods, ++period);\n        store.set(startDate, period, now);\n\n        resultCode = storeDeposits();\n        if (resultCode == OK) {\n            _emitPeriodClosed();\n        }\n    }\n\n    function getPeriodStartDate(uint _period)\n    public\n    view\n    returns (uint)\n    {\n        return store.get(startDate, _period);\n    }\n\n    /**\n     * Returns proven amount of shares possessed by a shareholder in a period.\n     *\n     * @param _address shareholder address.\n     * @param _period period.\n     *\n     * @return shares amount.\n     */\n    function depositBalanceInPeriod(address _address, uint _period)\n    public\n    view\n    returns (uint)\n    {\n        if (_period == lastPeriod()) {\n            return depositBalance(_address);\n        }\n        return store.get(shares, _period, _address);\n    }\n\n    /**\n     * Returns total proven amount of shares possessed by shareholders in a period.\n     *\n     * @param _period period.\n     *\n     * @return shares amount.\n     */\n    function totalDepositInPeriod(uint _period)\n    public\n    view\n    returns (uint)\n    {\n        if (_period == lastPeriod()) {\n            return store.get(totalSharesStorage);\n        }\n        return store.get(totalShares,_period);\n    }\n\n    /**\n     * Returns current active period.\n     *\n     * @return period.\n     */\n    function lastPeriod()\n    public\n    view\n    returns (uint)\n    {\n        return store.get(periods);\n    }\n\n    /**\n     * Returns last closed period.\n     *\n     * @dev throws in case if there is no closed periods yet.\n     *\n     * @return period.\n     */\n    function lastClosedPeriod()\n    public\n    view\n    returns (uint)\n    {\n        if (store.get(periods) == 0) {\n            return ERROR_REWARD_NOT_FOUND;\n        }\n        return store.get(periods) - 1;\n    }\n\n    /**\n     * Check if period is closed or not.\n     *\n     * @param _period period.\n     *\n     * @return period closing state.\n     */\n    function isClosed(uint _period)\n    public\n    view\n    returns (bool)\n    {\n        return store.get(closed,_period);\n    }\n\n    /**\n     * Returns amount of accumulated rewards assets in a period.\n     * Always 0 for active period.\n     *\n     * @param _period period.\n     *\n     * @return assets amount.\n     */\n    function assetBalanceInPeriod(uint _period)\n    public\n    view\n    returns (uint)\n    {\n        return store.get(assetBalances, _period);\n    }\n\n    /**\n     * Check if shareholder have calculated rewards in a period.\n     *\n     * @param _address shareholder address.\n     * @param _period period.\n     *\n     * @return reward calculation state.\n     */\n    function isCalculatedFor(address _address, uint _period)\n    public\n    view\n    returns (bool)\n    {\n        return store.get(calculated, _period, _address);\n    }\n\n    /**\n     * Returns accumulated asset rewards available for withdrawal for shareholder.\n     *\n     * @param _address shareholder address.\n     *\n     * @return rewards amount.\n     */\n    function rewardsFor(address _address)\n    public\n    view\n    returns (uint)\n    {\n        return store.get(rewards, _address);\n    }\n\n    /**\n     * Withdraw accumulated reward of a specified rewards asset.\n     *\n     * Withdrawal is made for caller and total amount.\n     *\n     * @return success.\n     */\n    function withdrawRewardTotal()\n    external\n    returns (uint)\n    {\n        return withdrawRewardFor(msg.sender, rewardsFor(msg.sender));\n    }\n\n    /**\n     * Withdraw accumulated reward of a specified rewards asset.\n     *\n     * Withdrawal is made for caller and specified amount.\n     *\n     * @param _amount amount to withdraw.\n     *\n     * @return success.\n     */\n    function withdrawReward(uint _amount)\n    external\n    returns (uint)\n    {\n        return withdrawRewardFor(msg.sender, _amount);\n    }\n\n    /**\n    *  @return error code and still left shares. `sharesLeft` is actual only\n    *  if `errorCode` == OK, otherwise `sharesLeft` must be ignored.\n    */\n    function storeDeposits()\n    internal\n    onlyContractOwner\n    returns (uint result)\n    {\n        uint period = lastClosedPeriod();\n        uint period_end = getPeriodStartDate(lastPeriod());\n        StorageInterface.Iterator memory iterator = store.listIterator(shareholders);\n        uint amount;\n        uint j;\n        for (uint i = 0; store.canGetNextWithIterator(shareholders, iterator); i++) {\n            address shareholder = store.getNextWithIterator(shareholders, iterator);\n            amount = 0;\n            StorageInterface.Iterator memory iterator2 = store.listIterator(deposits, bytes32(shareholder));\n            for (j = 0; store.canGetNextWithIterator(deposits, iterator2); j++) {\n                uint id = store.getNextWithIterator(deposits, iterator2);\n                uint timestamp = store.get(timestamps, shareholder, id);\n                if (timestamp <= period_end) {\n                    amount += store.get(amounts, shareholder, id);\n                }\n            }\n\n            result = calculateRewardFor(shareholder, amount, period);\n            if (OK != result) {\n                _emitErrorCode(result);\n            }\n\n            store.set(shares, period, shareholder, amount);\n        }\n\n        store.set(closed, period, true);\n\n        return OK;\n    }\n\n    function registerAsset(uint _period)\n    internal\n    returns (uint)\n    {\n        uint period_balance = store.get(assetBalances, _period);\n        if (period_balance != 0) {\n            return _emitErrorCode(ERROR_REWARD_REWARDS_ALREADY_REGISTERED);\n        }\n\n        uint balance = address(wallet()).balance;\n        uint left = store.get(rewardsLeft);\n        store.set(assetBalances, _period, balance - left);\n        store.set(rewardsLeft, balance);\n\n        return OK;\n    }\n\n    function calculateRewardFor(address _address, uint _amount, uint _period)\n    internal\n    returns (uint)\n    {\n        uint assetBalance = store.get(assetBalances, _period);\n        if (assetBalance == 0) {\n            return ERROR_REWARD_CALCULATION_FAILED;\n        }\n\n        if (store.get(calculated, _period, _address)) {\n            return ERROR_REWARD_ALREADY_CALCULATED;\n        }\n\n        uint totalSharesPeriod = store.get(totalShares, _period);\n        uint reward = assetBalance * _amount / totalSharesPeriod;\n        uint cur_reward = store.get(rewards, _address);\n        store.set(rewards, _address, cur_reward + reward);\n        store.set(calculated, _period, _address, true);\n\n        return OK;\n    }\n\n    /**\n     * Withdraw accumulated reward of a specified rewards asset.\n     *\n     * Withdrawal is made for specified shareholder and specified amount.\n     *\n     * @param _address shareholder address to withdraw for.\n     * @param _amount amount to withdraw.\n     *\n     * @return success.\n     */\n    function withdrawRewardFor(address _address, uint _amount)\n    internal\n    returns (uint)\n    {\n        if (store.get(rewardsLeft) == 0) {\n            return _emitErrorCode(ERROR_REWARD_NO_REWARDS_LEFT);\n        }\n\n        // Assuming that transfer(amount) of unknown asset may not result in exactly\n        // amount being taken from rewards contract(i. e. fees taken) we check contracts\n        // balance before and after transfer, and proceed with the difference.\n        uint startBalance = address(wallet()).balance;\n        if (!wallet().withdrawEth(_address, _amount)) {\n            return _emitErrorCode(ERROR_REWARD_TRANSFER_FAILED);\n        }\n\n        uint endBalance = address(wallet()).balance;\n        uint diff = startBalance - endBalance;\n        if (rewardsFor(_address) < diff) {\n            revert();\n        }\n\n        store.set(rewards, _address, store.get(rewards, _address) - diff);\n        store.set(rewardsLeft, store.get(rewardsLeft) - diff);\n\n        _emitWithdrawnReward(_address, _amount);\n        return OK;\n    }\n\n    // Even emitter util functions\n\n    function _emitWithdrawnReward(address addr, uint amount)\n    internal\n    {\n        Rewards(getEventsHistory()).emitWithdrawnReward(addr, amount);\n    }\n\n    function _emitPeriodClosed()\n    internal\n    {\n        Rewards(getEventsHistory()).emitPeriodClosed();\n    }\n}\n",
  "sourcePath": "/Users/alesanro/Documents/Projects/ChronoBank/LXsidechain-sc/contracts/rewards/Rewards.sol",
  "compiler": {
    "name": "solc",
    "version": "0.4.24+commit.e67f0147.Emscripten.clang"
  },
  "schemaVersion": "2.0.1",
  "updatedAt": "2018-07-27T20:29:21.050Z"
}