{
  "contractName": "SHA256Helper",
  "abi": [
    {
      "constant": true,
      "inputs": [
        {
          "name": "_message",
          "type": "bytes"
        }
      ],
      "name": "calc_sha256",
      "outputs": [
        {
          "name": "",
          "type": "bytes32"
        }
      ],
      "payable": false,
      "stateMutability": "pure",
      "type": "function"
    }
  ],
  "bytecode": "0x608060405234801561001057600080fd5b5060f28061001f6000396000f300608060405260043610603e5763ffffffff7c0100000000000000000000000000000000000000000000000000000000600035041663b4fb04e381146043575b600080fd5b348015604e57600080fd5b50606060048035602481019101356072565b60408051918252519081900360200190f35b600060028383604051808383808284378201915050925050506020604051808303816000865af115801560a9573d6000803e3d6000fd5b5050506040513d602081101560bd57600080fd5b505193925050505600a165627a7a7230582089da13976cf8c64767bb579818418f7253c59321a2c29af3f8c865649a0cca7d0029",
  "source": "pragma solidity ^0.4.21;\n\ncontract SHA256Helper {\n    function calc_sha256(bytes _message) pure external returns (bytes32) {\n        return sha256(_message);\n    }\n}\n",
  "sourcePath": "/Users/ahiatsevich/Development/chronobank/LXsidechain-sc/contracts/helper/SHA256Helper.sol",
  "compiler": {
    "name": "solc",
    "version": "0.4.23+commit.124ca40d.Emscripten.clang"
  },
  "schemaVersion": "2.0.0",
  "updatedAt": "2018-05-29T13:47:05.549Z"
}