{
  "contractName": "TimeHolderWallet",
  "abi": [
    {
      "constant": false,
      "inputs": [],
      "name": "claimContractOwnership",
      "outputs": [
        {
          "name": "",
          "type": "bool"
        }
      ],
      "payable": false,
      "stateMutability": "nonpayable",
      "type": "function"
    },
    {
      "constant": false,
      "inputs": [
        {
          "name": "_to",
          "type": "address"
        }
      ],
      "name": "changeContractOwnership",
      "outputs": [
        {
          "name": "",
          "type": "bool"
        }
      ],
      "payable": false,
      "stateMutability": "nonpayable",
      "type": "function"
    },
    {
      "constant": true,
      "inputs": [],
      "name": "pendingContractOwner",
      "outputs": [
        {
          "name": "",
          "type": "address"
        }
      ],
      "payable": false,
      "stateMutability": "view",
      "type": "function"
    },
    {
      "constant": false,
      "inputs": [
        {
          "name": "tokens",
          "type": "address[]"
        }
      ],
      "name": "withdrawTokens",
      "outputs": [],
      "payable": false,
      "stateMutability": "nonpayable",
      "type": "function"
    },
    {
      "constant": false,
      "inputs": [],
      "name": "withdrawEther",
      "outputs": [],
      "payable": false,
      "stateMutability": "nonpayable",
      "type": "function"
    },
    {
      "constant": true,
      "inputs": [],
      "name": "timeHolder",
      "outputs": [
        {
          "name": "",
          "type": "address"
        }
      ],
      "payable": false,
      "stateMutability": "view",
      "type": "function"
    },
    {
      "constant": true,
      "inputs": [],
      "name": "contractOwner",
      "outputs": [
        {
          "name": "",
          "type": "address"
        }
      ],
      "payable": false,
      "stateMutability": "view",
      "type": "function"
    },
    {
      "constant": false,
      "inputs": [
        {
          "name": "newOwner",
          "type": "address"
        }
      ],
      "name": "transferOwnership",
      "outputs": [
        {
          "name": "",
          "type": "bool"
        }
      ],
      "payable": false,
      "stateMutability": "nonpayable",
      "type": "function"
    },
    {
      "anonymous": false,
      "inputs": [
        {
          "indexed": true,
          "name": "previousOwner",
          "type": "address"
        },
        {
          "indexed": true,
          "name": "newOwner",
          "type": "address"
        }
      ],
      "name": "OwnershipTransferred",
      "type": "event"
    },
    {
      "constant": false,
      "inputs": [
        {
          "name": "_timeHolder",
          "type": "address"
        }
      ],
      "name": "init",
      "outputs": [],
      "payable": false,
      "stateMutability": "nonpayable",
      "type": "function"
    },
    {
      "constant": false,
      "inputs": [
        {
          "name": "tokens",
          "type": "address[]"
        }
      ],
      "name": "destroy",
      "outputs": [],
      "payable": false,
      "stateMutability": "nonpayable",
      "type": "function"
    },
    {
      "constant": false,
      "inputs": [
        {
          "name": "_asset",
          "type": "address"
        },
        {
          "name": "_from",
          "type": "address"
        },
        {
          "name": "_amount",
          "type": "uint256"
        }
      ],
      "name": "deposit",
      "outputs": [
        {
          "name": "",
          "type": "bool"
        }
      ],
      "payable": false,
      "stateMutability": "nonpayable",
      "type": "function"
    },
    {
      "constant": false,
      "inputs": [
        {
          "name": "_asset",
          "type": "address"
        },
        {
          "name": "_to",
          "type": "address"
        },
        {
          "name": "_amount",
          "type": "uint256"
        }
      ],
      "name": "withdraw",
      "outputs": [
        {
          "name": "",
          "type": "bool"
        }
      ],
      "payable": false,
      "stateMutability": "nonpayable",
      "type": "function"
    },
    {
      "constant": false,
      "inputs": [
        {
          "name": "",
          "type": "address"
        },
        {
          "name": "",
          "type": "uint256"
        },
        {
          "name": "",
          "type": "bytes"
        }
      ],
      "name": "tokenFallback",
      "outputs": [],
      "payable": false,
      "stateMutability": "nonpayable",
      "type": "function"
    }
  ],
  "bytecode": "0x608060405260008054600160a060020a0319163317905561096d806100256000396000f3006080604052600436106100ab5763ffffffff60e060020a60003504166319ab453c81146100b05780634592cd1d146100d3578063557f4bc9146100fc5780635aa77d3c1461011d5780635ecb16cd1461014e5780637362377b146101a35780638340f549146101b85780639f80785a146101e2578063c0ee0b8a146101f7578063c6786e5a14610228578063ce606ee014610248578063d9caed121461025d578063f2fde38b14610287575b600080fd5b3480156100bc57600080fd5b506100d1600160a060020a03600435166102a8565b005b3480156100df57600080fd5b506100e86102fc565b604080519115158252519081900360200190f35b34801561010857600080fd5b506100e8600160a060020a036004351661038d565b34801561012957600080fd5b506101326103e8565b60408051600160a060020a039092168252519081900360200190f35b34801561015a57600080fd5b50604080516020600480358082013583810280860185019096528085526100d1953695939460249493850192918291850190849080828437509497506103f79650505050505050565b3480156101af57600080fd5b506100d161057d565b3480156101c457600080fd5b506100e8600160a060020a03600435811690602435166044356105da565b3480156101ee57600080fd5b50610132610722565b34801561020357600080fd5b506100d160048035600160a060020a0316906024803591604435918201910135610731565b34801561023457600080fd5b506100d16004803560248101910135610737565b34801561025457600080fd5b5061013261078e565b34801561026957600080fd5b506100e8600160a060020a036004358116906024351660443561079d565b34801561029357600080fd5b506100e8600160a060020a03600435166108a2565b600054600160a060020a03163314156102f957600160a060020a03811615156102d057600080fd5b6002805473ffffffffffffffffffffffffffffffffffffffff1916600160a060020a0383161790555b50565b600154600090600160a060020a031633146103195750600061038a565b60015460008054604051600160a060020a0393841693909116917f8be0079c531659141344cd1fd0a4f28419497f9722a3daafe3b4186f6b6457e091a350600180546000805473ffffffffffffffffffffffffffffffffffffffff19908116600160a060020a038416179091551681555b90565b60008054600160a060020a03163314156103e357600160a060020a03821615156103b9575060006103e3565b506001805473ffffffffffffffffffffffffffffffffffffffff1916600160a060020a0383161781555b919050565b600154600160a060020a031681565b60008054819081908190600160a060020a03163314156105765760008054600160a060020a0316945092505b845183101561057657848381518110151561043a57fe5b6020908102909101810151604080517f70a082310000000000000000000000000000000000000000000000000000000081523060048201529051919450600160a060020a038516926370a08231926024808401938290030181600087803b1580156104a457600080fd5b505af11580156104b8573d6000803e3d6000fd5b505050506040513d60208110156104ce57600080fd5b50519050600081111561056b5781600160a060020a031663a9059cbb85836040518363ffffffff1660e060020a0281526004018083600160a060020a0316600160a060020a0316815260200182815260200192505050602060405180830381600087803b15801561053e57600080fd5b505af1158015610552573d6000803e3d6000fd5b505050506040513d602081101561056857600080fd5b50505b600190920191610423565b5050505050565b60008054600160a060020a03163314156102f95750303160008111156102f95760008054604051600160a060020a039091169183156108fc02918491818181858888f193505050501580156105d6573d6000803e3d6000fd5b5050565b600254600090600160a060020a0316331461067c57604080517f08c379a000000000000000000000000000000000000000000000000000000000815260206004820152602260248201527f4f6e6c792054696d65486f6c6465722073686f756c64206d616b65206120636160448201527f6c6c000000000000000000000000000000000000000000000000000000000000606482015290519081900360840190fd5b604080517f23b872dd000000000000000000000000000000000000000000000000000000008152600160a060020a038581166004830152306024830152604482018590529151918616916323b872dd916064808201926020929091908290030181600087803b1580156106ee57600080fd5b505af1158015610702573d6000803e3d6000fd5b505050506040513d602081101561071857600080fd5b5051949350505050565b600254600160a060020a031681565b50505050565b600054600160a060020a03163314156105d657610780828280806020026020016040519081016040528093929190818152602001838360200280828437506103f7945050505050565b600054600160a060020a0316ff5b600054600160a060020a031681565b600254600090600160a060020a0316331461083f57604080517f08c379a000000000000000000000000000000000000000000000000000000000815260206004820152602260248201527f4f6e6c792054696d65486f6c6465722073686f756c64206d616b65206120636160448201527f6c6c000000000000000000000000000000000000000000000000000000000000606482015290519081900360840190fd5b83600160a060020a031663a9059cbb84846040518363ffffffff1660e060020a0281526004018083600160a060020a0316600160a060020a0316815260200182815260200192505050602060405180830381600087803b1580156106ee57600080fd5b60008054600160a060020a03163314156103e357600160a060020a03821615156108ce575060006103e3565b60008054604051600160a060020a03808616939216917f8be0079c531659141344cd1fd0a4f28419497f9722a3daafe3b4186f6b6457e091a35060008054600160a060020a03831673ffffffffffffffffffffffffffffffffffffffff19918216179091556001805490911681559190505600a165627a7a723058202a2a756ad9a6db7e009e528654fe765769708aa9f2878486f41ac63409c2e4cb0029",
  "source": "/**\n * Copyright 2017–2018, LaborX PTY\n * Licensed under the AGPL Version 3 license.\n */\n\npragma solidity ^0.4.23;\n\nimport \"../common/Object.sol\";\nimport \"../common/ERC223ReceivingContract.sol\";\nimport { ERC20Interface as ERC20 } from \"solidity-shared-lib/contracts/ERC20Interface.sol\";\n\n\n/**\n* @title TimeHolder's wallet contract defines a basic implementation of DepositWalletInterface\n* to provide a way to store/deposit/withdraw tokens on this contract according to access rights.\n* Here deposit/withdraw are allowed only by TimeHolder contract.\n*\n* @dev Specifies a contract that helps in updating TimeHolder interface by delegating token's ownership\n* to TimeHolderWallet contract\n*/\ncontract TimeHolderWallet is Object {\n    address public timeHolder;\n\n    modifier onlyTimeHolder {\n        require(msg.sender == timeHolder, \"Only TimeHolder should make a call\");\n        _;\n    }\n\n    function init(address _timeHolder)\n    external\n    onlyContractOwner\n    {\n        require(_timeHolder != address(0x0));\n\n        timeHolder = _timeHolder;\n    }\n\n    /**\n    * Call `selfdestruct` when contract is not needed anymore. Also takes a list of tokens\n    * that can be associated and have an account for this contract\n    *\n    * @dev Allowed only for contract owner\n    *\n    * @param tokens an array of tokens addresses\n    *\n    * @return result code of an operation\n    */\n    function destroy(address[] tokens)\n    external\n    onlyContractOwner\n    {\n        withdrawTokens(tokens);\n        selfdestruct(contractOwner);\n    }\n\n    /**\n    * Deposits some amount of tokens on wallet's account using ERC20 tokens\n    *\n    * @dev Allowed only for timeHolder\n    *\n    * @param _asset an address of token\n    * @param _from an address of a sender who is willing to transfer her resources\n    * @param _amount an amount of tokens (resources) a sender wants to transfer\n    *\n    * @return `true` if all successfuly completed, `false` otherwise\n    */\n    function deposit(address _asset, address _from, uint256 _amount)\n    external\n    onlyTimeHolder\n    returns (bool)\n    {\n        return ERC20(_asset).transferFrom(_from, this, _amount);\n    }\n\n    /**\n    * Withdraws some amount of tokens from wallet's account using ERC20 tokens\n    *\n    * @dev Allowed only for timeHolder\n    *\n    * @param _asset an address of token\n    * @param _to an address of a receiver who is willing to get stored resources\n    * @param _amount an amount of tokens (resources) a receiver wants to get\n    *\n    * @return `true` if all successfuly completed, `false` otherwise\n    */\n    function withdraw(address _asset, address _to, uint256 _amount)\n    external\n    onlyTimeHolder\n    returns (bool)\n    {\n        return ERC20(_asset).transfer(_to, _amount);\n    }\n\n    function tokenFallback(address, uint, bytes) external {\n        // do nothing but we know that we support all ERC20 and ERC223 tokens\n    }\n}\n",
  "sourcePath": "/Users/alesanro/Documents/Projects/ChronoBank/LXsidechain-sc/contracts/timeholder/TimeHolderWallet.sol",
  "compiler": {
    "name": "solc",
    "version": "0.4.24+commit.e67f0147.Emscripten.clang"
  },
  "schemaVersion": "2.0.1",
  "updatedAt": "2018-07-27T20:29:20.996Z"
}