{
  "contractName": "TimeHolderEmitter",
  "abi": [
    {
      "constant": false,
      "inputs": [
        {
          "name": "_errorCode",
          "type": "uint256"
        }
      ],
      "name": "emitErrorCode",
      "outputs": [],
      "payable": false,
      "stateMutability": "nonpayable",
      "type": "function"
    },
    {
      "constant": true,
      "inputs": [],
      "name": "getEventsHistory",
      "outputs": [
        {
          "name": "",
          "type": "address"
        }
      ],
      "payable": false,
      "stateMutability": "view",
      "type": "function"
    },
    {
      "anonymous": false,
      "inputs": [
        {
          "indexed": false,
          "name": "token",
          "type": "address"
        },
        {
          "indexed": false,
          "name": "amount",
          "type": "uint256"
        },
        {
          "indexed": false,
          "name": "miner",
          "type": "address"
        },
        {
          "indexed": false,
          "name": "sender",
          "type": "address"
        }
      ],
      "name": "MinerDeposited",
      "type": "event"
    },
    {
      "anonymous": false,
      "inputs": [
        {
          "indexed": false,
          "name": "from",
          "type": "address"
        },
        {
          "indexed": false,
          "name": "to",
          "type": "address"
        }
      ],
      "name": "PrimaryMinerChanged",
      "type": "event"
    },
    {
      "anonymous": false,
      "inputs": [
        {
          "indexed": false,
          "name": "token",
          "type": "address"
        },
        {
          "indexed": false,
          "name": "from",
          "type": "uint256"
        },
        {
          "indexed": false,
          "name": "to",
          "type": "uint256"
        }
      ],
      "name": "MiningDepositLimitsChanged",
      "type": "event"
    },
    {
      "anonymous": false,
      "inputs": [
        {
          "indexed": false,
          "name": "token",
          "type": "address"
        },
        {
          "indexed": false,
          "name": "amount",
          "type": "uint256"
        },
        {
          "indexed": false,
          "name": "user",
          "type": "address"
        }
      ],
      "name": "DepositLocked",
      "type": "event"
    },
    {
      "anonymous": false,
      "inputs": [
        {
          "indexed": false,
          "name": "token",
          "type": "address"
        },
        {
          "indexed": false,
          "name": "miner",
          "type": "address"
        },
        {
          "indexed": false,
          "name": "totalDepositLocked",
          "type": "uint256"
        }
      ],
      "name": "BecomeMiner",
      "type": "event"
    },
    {
      "anonymous": false,
      "inputs": [
        {
          "indexed": false,
          "name": "token",
          "type": "address"
        },
        {
          "indexed": false,
          "name": "miner",
          "type": "address"
        },
        {
          "indexed": false,
          "name": "depositUnlocked",
          "type": "uint256"
        }
      ],
      "name": "ResignMiner",
      "type": "event"
    },
    {
      "anonymous": false,
      "inputs": [
        {
          "indexed": false,
          "name": "token",
          "type": "address"
        },
        {
          "indexed": false,
          "name": "who",
          "type": "address"
        },
        {
          "indexed": false,
          "name": "amount",
          "type": "uint256"
        }
      ],
      "name": "Deposit",
      "type": "event"
    },
    {
      "anonymous": false,
      "inputs": [
        {
          "indexed": false,
          "name": "token",
          "type": "address"
        },
        {
          "indexed": false,
          "name": "who",
          "type": "address"
        },
        {
          "indexed": false,
          "name": "amount",
          "type": "uint256"
        },
        {
          "indexed": false,
          "name": "receiver",
          "type": "address"
        }
      ],
      "name": "WithdrawShares",
      "type": "event"
    },
    {
      "anonymous": false,
      "inputs": [
        {
          "indexed": false,
          "name": "token",
          "type": "address"
        }
      ],
      "name": "SharesWhiteListAdded",
      "type": "event"
    },
    {
      "anonymous": false,
      "inputs": [
        {
          "indexed": false,
          "name": "token",
          "type": "address"
        },
        {
          "indexed": false,
          "name": "limit",
          "type": "uint256"
        },
        {
          "indexed": true,
          "name": "isAdded",
          "type": "bool"
        }
      ],
      "name": "SharesWhiteListChanged",
      "type": "event"
    },
    {
      "anonymous": false,
      "inputs": [
        {
          "indexed": true,
          "name": "self",
          "type": "address"
        },
        {
          "indexed": false,
          "name": "errorCode",
          "type": "uint256"
        }
      ],
      "name": "ErrorCode",
      "type": "event"
    },
    {
      "constant": false,
      "inputs": [
        {
          "name": "from",
          "type": "address"
        },
        {
          "name": "to",
          "type": "address"
        }
      ],
      "name": "emitPrimaryMinerChanged",
      "outputs": [],
      "payable": false,
      "stateMutability": "nonpayable",
      "type": "function"
    },
    {
      "constant": false,
      "inputs": [
        {
          "name": "_token",
          "type": "address"
        },
        {
          "name": "_from",
          "type": "uint256"
        },
        {
          "name": "_to",
          "type": "uint256"
        }
      ],
      "name": "emitMiningDepositLimitsChanged",
      "outputs": [],
      "payable": false,
      "stateMutability": "nonpayable",
      "type": "function"
    },
    {
      "constant": false,
      "inputs": [
        {
          "name": "token",
          "type": "address"
        },
        {
          "name": "amount",
          "type": "uint256"
        },
        {
          "name": "miner",
          "type": "address"
        },
        {
          "name": "sender",
          "type": "address"
        }
      ],
      "name": "emitMinerDeposited",
      "outputs": [],
      "payable": false,
      "stateMutability": "nonpayable",
      "type": "function"
    },
    {
      "constant": false,
      "inputs": [
        {
          "name": "_token",
          "type": "address"
        },
        {
          "name": "_amount",
          "type": "uint256"
        },
        {
          "name": "_user",
          "type": "address"
        }
      ],
      "name": "emitDepositLocked",
      "outputs": [],
      "payable": false,
      "stateMutability": "nonpayable",
      "type": "function"
    },
    {
      "constant": false,
      "inputs": [
        {
          "name": "_token",
          "type": "address"
        },
        {
          "name": "_miner",
          "type": "address"
        },
        {
          "name": "_totalDepositLocked",
          "type": "uint256"
        }
      ],
      "name": "emitBecomeMiner",
      "outputs": [],
      "payable": false,
      "stateMutability": "nonpayable",
      "type": "function"
    },
    {
      "constant": false,
      "inputs": [
        {
          "name": "_token",
          "type": "address"
        },
        {
          "name": "_miner",
          "type": "address"
        },
        {
          "name": "_depositUnlocked",
          "type": "uint256"
        }
      ],
      "name": "emitResignMiner",
      "outputs": [],
      "payable": false,
      "stateMutability": "nonpayable",
      "type": "function"
    },
    {
      "constant": false,
      "inputs": [
        {
          "name": "token",
          "type": "address"
        },
        {
          "name": "who",
          "type": "address"
        },
        {
          "name": "amount",
          "type": "uint256"
        }
      ],
      "name": "emitDeposit",
      "outputs": [],
      "payable": false,
      "stateMutability": "nonpayable",
      "type": "function"
    },
    {
      "constant": false,
      "inputs": [
        {
          "name": "token",
          "type": "address"
        },
        {
          "name": "who",
          "type": "address"
        },
        {
          "name": "amount",
          "type": "uint256"
        },
        {
          "name": "receiver",
          "type": "address"
        }
      ],
      "name": "emitWithdrawShares",
      "outputs": [],
      "payable": false,
      "stateMutability": "nonpayable",
      "type": "function"
    },
    {
      "constant": false,
      "inputs": [
        {
          "name": "token",
          "type": "address"
        },
        {
          "name": "limit",
          "type": "uint256"
        },
        {
          "name": "isAdded",
          "type": "bool"
        }
      ],
      "name": "emitSharesWhiteListChanged",
      "outputs": [],
      "payable": false,
      "stateMutability": "nonpayable",
      "type": "function"
    }
  ],
  "bytecode": "0x608060405234801561001057600080fd5b506105ea806100206000396000f3006080604052600436106100ae5763ffffffff7c0100000000000000000000000000000000000000000000000000000000600035041663143f854381146100b3578063728994e7146100df57806377cffc70146101105780638834277e1461013b5780638b7711b414610153578063927a1ac71461017d57806392998345146101ae578063a5ca5522146101d8578063e2ba4f78146101ff578063e9112e9a14610226578063fff10aba1461024f575b600080fd5b3480156100bf57600080fd5b506100dd600160a060020a0360043581169060243516604435610280565b005b3480156100eb57600080fd5b506100dd600160a060020a0360043581169060243581169060443590606435166102cf565b34801561011c57600080fd5b506100dd600160a060020a036004358116906024359060443516610327565b34801561014757600080fd5b506100dd600435610376565b34801561015f57600080fd5b506100dd600160a060020a03600435811690602435166044356103c1565b34801561018957600080fd5b506100dd600160a060020a036004358116906024359060443581169060643516610410565b3480156101ba57600080fd5b506100dd600160a060020a0360043581169060243516604435610468565b3480156101e457600080fd5b506100dd600160a060020a03600435166024356044356104b7565b34801561020b57600080fd5b506100dd600160a060020a0360043581169060243516610505565b34801561023257600080fd5b506100dd600160a060020a0360043516602435604435151561054e565b34801561025b57600080fd5b50610264610598565b60408051600160a060020a039092168252519081900360200190f35b60408051600160a060020a0380861682528416602082015280820183905290517ff8b9d08f6ef1f77e3ca6db264378f6e1587202fb5b3a97281808502d29f6aac69181900360600190a1505050565b60408051600160a060020a03808716825280861660208301528183018590528316606082015290517f144845eeb484e3f074766eb65a15afd2889f6c747d90354396914e8365c6985a9181900360800190a150505050565b60408051600160a060020a0380861682526020820185905283168183015290517ff8da3f67900ecbbcbf464ddc3aac8cfb6f8f4d389e8f4daf39245b474bb9d0069181900360600190a1505050565b61037e6105ba565b600160a060020a03167f09e0713b45664e161c202b19bb4574ee83dfa056f9bfdee56847b3971d968221826040518082815260200191505060405180910390a250565b60408051600160a060020a0380861682528416602082015280820183905290517f5548c837ab068cf56a2c2479df0882a4922fd203edb7517321831d95078c5f629181900360600190a1505050565b60408051600160a060020a03808716825260208201869052808516828401528316606082015290517f480950d381dfb63ded3038889b0a72c5cb27d4edc534ded2b67c4eb755048fe59181900360800190a150505050565b60408051600160a060020a0380861682528416602082015280820183905290517f4591eed276a861c7644e317650244c397ceaffeaaf396af8afb08c09002afbee9181900360600190a1505050565b60408051600160a060020a03851681526020810184905280820183905290517f7be24371a03224387976fc7610f0539a1243ee7af1c962f698c36e26505c0a299181900360600190a1505050565b60408051600160a060020a0380851682528316602082015281517f057ac668be4c6eb3ed0b546e37fd869270a2c6c953f5e6720a6a22bf661497f0929181900390910190a15050565b60408051600160a060020a0385168152602081018490528151831515927f360225f74eacd06eefedf821b89c21c7c975b645503e5198c6a60a62f84e302b928290030190a2505050565b60008054600160a060020a03168015156105b257306105b4565b805b91505090565b33905600a165627a7a72305820644c035215eacd45854c238ec44706bd7b5f403eeeb0bd67d4fc830ddd3bb27a0029",
  "source": "/**\n * Copyright 2017–2018, LaborX PTY\n * Licensed under the AGPL Version 3 license.\n */\n\npragma solidity ^0.4.23;\n\n\nimport \"solidity-eventshistory-lib/contracts/MultiEventsHistoryAdapter.sol\";\n\n\n/// @title TimeHolder emitter.\n///\n/// Contains all the original event emitting function definitions and events.\n/// In case of new events needed later, additional emitters can be developed.\n/// All the functions is meant to be called using delegatecall.\ncontract TimeHolderEmitter is MultiEventsHistoryAdapter {\n\n    /// @dev Miner address were given a deposit from a user who make a deposit to TimeHolder\n    event MinerDeposited(address token, uint amount, address miner, address sender);\n\n    /// @dev Changed an address of primary miner\n    event PrimaryMinerChanged(address from, address to);\n\n    /// @dev Changed minimum amount of shares that should be locked to become a miner\n    event MiningDepositLimitsChanged(address token, uint from, uint to);\n\n    /// @dev Shares were locked for a purpose (usualy when a miner adds to a stack)\n    event DepositLocked(address token, uint amount, address user);\n\n    /// @dev Miner role is assigned\n    event BecomeMiner(address token, address miner, uint totalDepositLocked);\n\n    /// @dev Miner role is resigned\n    event ResignMiner(address token, address miner, uint depositUnlocked);\n\n    /// @dev User deposited into current period\n    event Deposit(address token, address who, uint amount);\n\n    /// @dev Shares withdrawn by a shareholder\n    event WithdrawShares(address token, address who, uint amount, address receiver);\n\n    /// @dev Shares is added to whitelist and start be available to use\n    event SharesWhiteListAdded(address token);\n\n    /// @dev Shares is removed from whitelist and stop being available to use\n    event SharesWhiteListChanged(address token, uint limit, bool indexed isAdded);\n\n    /* Emitting events */\n\n    function emitPrimaryMinerChanged(address from, address to)\n    public\n    {\n        emit PrimaryMinerChanged(from, to);\n    }\n\n    function emitMiningDepositLimitsChanged(address _token, uint _from, uint _to)\n    public\n    {\n        emit MiningDepositLimitsChanged(_token, _from, _to);\n    }\n\n    function emitMinerDeposited(address token, uint amount, address miner, address sender)\n    public\n    {\n        emit MinerDeposited(token, amount, miner, sender);\n    }\n\n    function emitDepositLocked(address _token, uint _amount, address _user)\n    public\n    {\n        emit DepositLocked(_token, _amount, _user);\n    }\n\n    function emitBecomeMiner(address _token, address _miner, uint _totalDepositLocked)\n    public\n    {\n        emit BecomeMiner(_token, _miner, _totalDepositLocked);\n    }\n\n    function emitResignMiner(address _token, address _miner, uint _depositUnlocked)\n    public\n    {\n        emit ResignMiner(_token, _miner, _depositUnlocked);\n    }\n\n    function emitDeposit(address token, address who, uint amount)\n    public\n    {\n        emit Deposit(token, who, amount);\n    }\n\n    function emitWithdrawShares(address token, address who, uint amount, address receiver) \n    public\n    {\n        emit WithdrawShares(token, who, amount, receiver);\n    }\n\n    function emitSharesWhiteListChanged(address token, uint limit, bool isAdded)\n    public\n    {\n        emit SharesWhiteListChanged(token, limit, isAdded);\n    }\n}\n",
  "sourcePath": "/Users/alesanro/Documents/Projects/ChronoBank/LXsidechain-sc/contracts/timeholder/TimeHolderEmitter.sol",
  "compiler": {
    "name": "solc",
    "version": "0.4.24+commit.e67f0147.Emscripten.clang"
  },
  "schemaVersion": "2.0.1",
  "updatedAt": "2018-07-27T20:15:18.665Z"
}