{
  "contractName": "TimeHolder",
  "abi": [
    {
      "constant": true,
      "inputs": [],
      "name": "ERROR_TIMEHOLDER_NOTHING_TO_UNLOCK",
      "outputs": [
        {
          "name": "",
          "type": "uint256"
        }
      ],
      "payable": false,
      "stateMutability": "view",
      "type": "function"
    },
    {
      "constant": false,
      "inputs": [
        {
          "name": "_token",
          "type": "address"
        },
        {
          "name": "_miner",
          "type": "address"
        },
        {
          "name": "_totalDepositLocked",
          "type": "uint256"
        }
      ],
      "name": "emitBecomeMiner",
      "outputs": [],
      "payable": false,
      "stateMutability": "nonpayable",
      "type": "function"
    },
    {
      "constant": true,
      "inputs": [],
      "name": "ERROR_TIMEHOLDER_LIMIT_EXCEEDED",
      "outputs": [
        {
          "name": "",
          "type": "uint256"
        }
      ],
      "payable": false,
      "stateMutability": "view",
      "type": "function"
    },
    {
      "constant": false,
      "inputs": [],
      "name": "claimContractOwnership",
      "outputs": [
        {
          "name": "",
          "type": "bool"
        }
      ],
      "payable": false,
      "stateMutability": "nonpayable",
      "type": "function"
    },
    {
      "constant": true,
      "inputs": [],
      "name": "ERROR_TIMEHOLDER_INSUFFICIENT_BALANCE",
      "outputs": [
        {
          "name": "",
          "type": "uint256"
        }
      ],
      "payable": false,
      "stateMutability": "view",
      "type": "function"
    },
    {
      "constant": false,
      "inputs": [
        {
          "name": "_to",
          "type": "address"
        }
      ],
      "name": "changeContractOwnership",
      "outputs": [
        {
          "name": "",
          "type": "bool"
        }
      ],
      "payable": false,
      "stateMutability": "nonpayable",
      "type": "function"
    },
    {
      "constant": true,
      "inputs": [],
      "name": "ERROR_TIMEHOLDER_INVALID_MINING_LIMIT",
      "outputs": [
        {
          "name": "",
          "type": "uint256"
        }
      ],
      "payable": false,
      "stateMutability": "view",
      "type": "function"
    },
    {
      "constant": true,
      "inputs": [],
      "name": "pendingContractOwner",
      "outputs": [
        {
          "name": "",
          "type": "address"
        }
      ],
      "payable": false,
      "stateMutability": "view",
      "type": "function"
    },
    {
      "constant": false,
      "inputs": [
        {
          "name": "tokens",
          "type": "address[]"
        }
      ],
      "name": "withdrawTokens",
      "outputs": [],
      "payable": false,
      "stateMutability": "nonpayable",
      "type": "function"
    },
    {
      "constant": true,
      "inputs": [],
      "name": "ERROR_TIMEHOLDER_TRANSFER_FAILED",
      "outputs": [
        {
          "name": "",
          "type": "uint256"
        }
      ],
      "payable": false,
      "stateMutability": "view",
      "type": "function"
    },
    {
      "constant": false,
      "inputs": [
        {
          "name": "_eventsHistory",
          "type": "address"
        }
      ],
      "name": "setEventsHistory",
      "outputs": [],
      "payable": false,
      "stateMutability": "nonpayable",
      "type": "function"
    },
    {
      "constant": false,
      "inputs": [
        {
          "name": "token",
          "type": "address"
        },
        {
          "name": "who",
          "type": "address"
        },
        {
          "name": "amount",
          "type": "uint256"
        },
        {
          "name": "receiver",
          "type": "address"
        }
      ],
      "name": "emitWithdrawShares",
      "outputs": [],
      "payable": false,
      "stateMutability": "nonpayable",
      "type": "function"
    },
    {
      "constant": false,
      "inputs": [],
      "name": "withdrawEther",
      "outputs": [],
      "payable": false,
      "stateMutability": "nonpayable",
      "type": "function"
    },
    {
      "constant": false,
      "inputs": [
        {
          "name": "_token",
          "type": "address"
        },
        {
          "name": "_amount",
          "type": "uint256"
        },
        {
          "name": "_user",
          "type": "address"
        }
      ],
      "name": "emitDepositLocked",
      "outputs": [],
      "payable": false,
      "stateMutability": "nonpayable",
      "type": "function"
    },
    {
      "constant": true,
      "inputs": [],
      "name": "ERROR_TIMEHOLDER_MINING_LIMIT_NOT_REACHED",
      "outputs": [
        {
          "name": "",
          "type": "uint256"
        }
      ],
      "payable": false,
      "stateMutability": "view",
      "type": "function"
    },
    {
      "constant": false,
      "inputs": [
        {
          "name": "_errorCode",
          "type": "uint256"
        }
      ],
      "name": "emitErrorCode",
      "outputs": [],
      "payable": false,
      "stateMutability": "nonpayable",
      "type": "function"
    },
    {
      "constant": false,
      "inputs": [
        {
          "name": "token",
          "type": "address"
        },
        {
          "name": "who",
          "type": "address"
        },
        {
          "name": "amount",
          "type": "uint256"
        }
      ],
      "name": "emitDeposit",
      "outputs": [],
      "payable": false,
      "stateMutability": "nonpayable",
      "type": "function"
    },
    {
      "constant": false,
      "inputs": [
        {
          "name": "token",
          "type": "address"
        },
        {
          "name": "amount",
          "type": "uint256"
        },
        {
          "name": "miner",
          "type": "address"
        },
        {
          "name": "sender",
          "type": "address"
        }
      ],
      "name": "emitMinerDeposited",
      "outputs": [],
      "payable": false,
      "stateMutability": "nonpayable",
      "type": "function"
    },
    {
      "constant": false,
      "inputs": [
        {
          "name": "_token",
          "type": "address"
        },
        {
          "name": "_miner",
          "type": "address"
        },
        {
          "name": "_depositUnlocked",
          "type": "uint256"
        }
      ],
      "name": "emitResignMiner",
      "outputs": [],
      "payable": false,
      "stateMutability": "nonpayable",
      "type": "function"
    },
    {
      "constant": false,
      "inputs": [
        {
          "name": "_token",
          "type": "address"
        },
        {
          "name": "_from",
          "type": "uint256"
        },
        {
          "name": "_to",
          "type": "uint256"
        }
      ],
      "name": "emitMiningDepositLimitsChanged",
      "outputs": [],
      "payable": false,
      "stateMutability": "nonpayable",
      "type": "function"
    },
    {
      "constant": true,
      "inputs": [],
      "name": "ERROR_TIMEHOLDER_ALREADY_MINER",
      "outputs": [
        {
          "name": "",
          "type": "uint256"
        }
      ],
      "payable": false,
      "stateMutability": "view",
      "type": "function"
    },
    {
      "constant": true,
      "inputs": [],
      "name": "ERROR_TIMEHOLDER_ALREADY_ADDED",
      "outputs": [
        {
          "name": "",
          "type": "uint256"
        }
      ],
      "payable": false,
      "stateMutability": "view",
      "type": "function"
    },
    {
      "constant": true,
      "inputs": [],
      "name": "ERROR_TIMEHOLDER_MINER_REQUIRED",
      "outputs": [
        {
          "name": "",
          "type": "uint256"
        }
      ],
      "payable": false,
      "stateMutability": "view",
      "type": "function"
    },
    {
      "constant": true,
      "inputs": [],
      "name": "contractOwner",
      "outputs": [
        {
          "name": "",
          "type": "address"
        }
      ],
      "payable": false,
      "stateMutability": "view",
      "type": "function"
    },
    {
      "constant": false,
      "inputs": [
        {
          "name": "from",
          "type": "address"
        },
        {
          "name": "to",
          "type": "address"
        }
      ],
      "name": "emitPrimaryMinerChanged",
      "outputs": [],
      "payable": false,
      "stateMutability": "nonpayable",
      "type": "function"
    },
    {
      "constant": false,
      "inputs": [
        {
          "name": "token",
          "type": "address"
        },
        {
          "name": "limit",
          "type": "uint256"
        },
        {
          "name": "isAdded",
          "type": "bool"
        }
      ],
      "name": "emitSharesWhiteListChanged",
      "outputs": [],
      "payable": false,
      "stateMutability": "nonpayable",
      "type": "function"
    },
    {
      "constant": false,
      "inputs": [
        {
          "name": "newOwner",
          "type": "address"
        }
      ],
      "name": "transferOwnership",
      "outputs": [
        {
          "name": "",
          "type": "bool"
        }
      ],
      "payable": false,
      "stateMutability": "nonpayable",
      "type": "function"
    },
    {
      "constant": true,
      "inputs": [],
      "name": "getEventsHistory",
      "outputs": [
        {
          "name": "",
          "type": "address"
        }
      ],
      "payable": false,
      "stateMutability": "view",
      "type": "function"
    },
    {
      "inputs": [
        {
          "name": "_store",
          "type": "address"
        },
        {
          "name": "_crate",
          "type": "bytes32"
        }
      ],
      "payable": false,
      "stateMutability": "nonpayable",
      "type": "constructor"
    },
    {
      "anonymous": false,
      "inputs": [
        {
          "indexed": false,
          "name": "token",
          "type": "address"
        },
        {
          "indexed": false,
          "name": "amount",
          "type": "uint256"
        },
        {
          "indexed": false,
          "name": "miner",
          "type": "address"
        },
        {
          "indexed": false,
          "name": "sender",
          "type": "address"
        }
      ],
      "name": "MinerDeposited",
      "type": "event"
    },
    {
      "anonymous": false,
      "inputs": [
        {
          "indexed": false,
          "name": "from",
          "type": "address"
        },
        {
          "indexed": false,
          "name": "to",
          "type": "address"
        }
      ],
      "name": "PrimaryMinerChanged",
      "type": "event"
    },
    {
      "anonymous": false,
      "inputs": [
        {
          "indexed": false,
          "name": "token",
          "type": "address"
        },
        {
          "indexed": false,
          "name": "from",
          "type": "uint256"
        },
        {
          "indexed": false,
          "name": "to",
          "type": "uint256"
        }
      ],
      "name": "MiningDepositLimitsChanged",
      "type": "event"
    },
    {
      "anonymous": false,
      "inputs": [
        {
          "indexed": false,
          "name": "token",
          "type": "address"
        },
        {
          "indexed": false,
          "name": "amount",
          "type": "uint256"
        },
        {
          "indexed": false,
          "name": "user",
          "type": "address"
        }
      ],
      "name": "DepositLocked",
      "type": "event"
    },
    {
      "anonymous": false,
      "inputs": [
        {
          "indexed": false,
          "name": "token",
          "type": "address"
        },
        {
          "indexed": false,
          "name": "miner",
          "type": "address"
        },
        {
          "indexed": false,
          "name": "totalDepositLocked",
          "type": "uint256"
        }
      ],
      "name": "BecomeMiner",
      "type": "event"
    },
    {
      "anonymous": false,
      "inputs": [
        {
          "indexed": false,
          "name": "token",
          "type": "address"
        },
        {
          "indexed": false,
          "name": "miner",
          "type": "address"
        },
        {
          "indexed": false,
          "name": "depositUnlocked",
          "type": "uint256"
        }
      ],
      "name": "ResignMiner",
      "type": "event"
    },
    {
      "anonymous": false,
      "inputs": [
        {
          "indexed": false,
          "name": "token",
          "type": "address"
        },
        {
          "indexed": false,
          "name": "who",
          "type": "address"
        },
        {
          "indexed": false,
          "name": "amount",
          "type": "uint256"
        }
      ],
      "name": "Deposit",
      "type": "event"
    },
    {
      "anonymous": false,
      "inputs": [
        {
          "indexed": false,
          "name": "token",
          "type": "address"
        },
        {
          "indexed": false,
          "name": "who",
          "type": "address"
        },
        {
          "indexed": false,
          "name": "amount",
          "type": "uint256"
        },
        {
          "indexed": false,
          "name": "receiver",
          "type": "address"
        }
      ],
      "name": "WithdrawShares",
      "type": "event"
    },
    {
      "anonymous": false,
      "inputs": [
        {
          "indexed": false,
          "name": "token",
          "type": "address"
        }
      ],
      "name": "SharesWhiteListAdded",
      "type": "event"
    },
    {
      "anonymous": false,
      "inputs": [
        {
          "indexed": false,
          "name": "token",
          "type": "address"
        },
        {
          "indexed": false,
          "name": "limit",
          "type": "uint256"
        },
        {
          "indexed": true,
          "name": "isAdded",
          "type": "bool"
        }
      ],
      "name": "SharesWhiteListChanged",
      "type": "event"
    },
    {
      "anonymous": false,
      "inputs": [
        {
          "indexed": true,
          "name": "self",
          "type": "address"
        },
        {
          "indexed": false,
          "name": "errorCode",
          "type": "uint256"
        }
      ],
      "name": "ErrorCode",
      "type": "event"
    },
    {
      "anonymous": false,
      "inputs": [
        {
          "indexed": true,
          "name": "previousOwner",
          "type": "address"
        },
        {
          "indexed": true,
          "name": "newOwner",
          "type": "address"
        }
      ],
      "name": "OwnershipTransferred",
      "type": "event"
    },
    {
      "constant": false,
      "inputs": [
        {
          "name": "_defaultToken",
          "type": "address"
        },
        {
          "name": "_wallet",
          "type": "address"
        },
        {
          "name": "_erc20DepositStorage",
          "type": "address"
        },
        {
          "name": "_validatorManager",
          "type": "address"
        }
      ],
      "name": "init",
      "outputs": [
        {
          "name": "",
          "type": "uint256"
        }
      ],
      "payable": false,
      "stateMutability": "nonpayable",
      "type": "function"
    },
    {
      "constant": false,
      "inputs": [
        {
          "name": "_eventsHistory",
          "type": "address"
        }
      ],
      "name": "setupEventsHistory",
      "outputs": [
        {
          "name": "errorCode",
          "type": "uint256"
        }
      ],
      "payable": false,
      "stateMutability": "nonpayable",
      "type": "function"
    },
    {
      "constant": false,
      "inputs": [
        {
          "name": "_from",
          "type": "address"
        },
        {
          "name": "_value",
          "type": "uint256"
        },
        {
          "name": "",
          "type": "bytes"
        }
      ],
      "name": "tokenFallback",
      "outputs": [],
      "payable": false,
      "stateMutability": "nonpayable",
      "type": "function"
    },
    {
      "constant": true,
      "inputs": [
        {
          "name": "_depositor",
          "type": "address"
        }
      ],
      "name": "depositBalance",
      "outputs": [
        {
          "name": "",
          "type": "uint256"
        }
      ],
      "payable": false,
      "stateMutability": "view",
      "type": "function"
    },
    {
      "constant": true,
      "inputs": [
        {
          "name": "_token",
          "type": "address"
        },
        {
          "name": "_depositor",
          "type": "address"
        }
      ],
      "name": "getDepositBalance",
      "outputs": [
        {
          "name": "_balance",
          "type": "uint256"
        }
      ],
      "payable": false,
      "stateMutability": "view",
      "type": "function"
    },
    {
      "constant": true,
      "inputs": [
        {
          "name": "_token",
          "type": "address"
        },
        {
          "name": "_depositor",
          "type": "address"
        }
      ],
      "name": "getLockedDepositBalance",
      "outputs": [
        {
          "name": "_balance",
          "type": "uint256"
        }
      ],
      "payable": false,
      "stateMutability": "view",
      "type": "function"
    },
    {
      "constant": true,
      "inputs": [
        {
          "name": "_token",
          "type": "address"
        },
        {
          "name": "_delegate",
          "type": "address"
        }
      ],
      "name": "getLockedDepositBalanceForDelegate",
      "outputs": [
        {
          "name": "_balance",
          "type": "uint256"
        }
      ],
      "payable": false,
      "stateMutability": "view",
      "type": "function"
    },
    {
      "constant": true,
      "inputs": [],
      "name": "getPrimaryMiner",
      "outputs": [
        {
          "name": "",
          "type": "address"
        }
      ],
      "payable": false,
      "stateMutability": "view",
      "type": "function"
    },
    {
      "constant": false,
      "inputs": [
        {
          "name": "_miner",
          "type": "address"
        }
      ],
      "name": "setPrimaryMiner",
      "outputs": [
        {
          "name": "",
          "type": "uint256"
        }
      ],
      "payable": false,
      "stateMutability": "nonpayable",
      "type": "function"
    },
    {
      "constant": true,
      "inputs": [
        {
          "name": "_token",
          "type": "address"
        }
      ],
      "name": "getMiningDepositLimits",
      "outputs": [
        {
          "name": "",
          "type": "uint256"
        }
      ],
      "payable": false,
      "stateMutability": "view",
      "type": "function"
    },
    {
      "constant": false,
      "inputs": [
        {
          "name": "_token",
          "type": "address"
        },
        {
          "name": "_limit",
          "type": "uint256"
        }
      ],
      "name": "setMiningDepositLimits",
      "outputs": [
        {
          "name": "",
          "type": "uint256"
        }
      ],
      "payable": false,
      "stateMutability": "nonpayable",
      "type": "function"
    },
    {
      "constant": false,
      "inputs": [
        {
          "name": "_whitelist",
          "type": "address[]"
        },
        {
          "name": "_limits",
          "type": "uint256[]"
        }
      ],
      "name": "allowShares",
      "outputs": [],
      "payable": false,
      "stateMutability": "nonpayable",
      "type": "function"
    },
    {
      "constant": false,
      "inputs": [
        {
          "name": "_blacklist",
          "type": "address[]"
        }
      ],
      "name": "denyShares",
      "outputs": [],
      "payable": false,
      "stateMutability": "nonpayable",
      "type": "function"
    },
    {
      "constant": false,
      "inputs": [
        {
          "name": "_token",
          "type": "address"
        },
        {
          "name": "_amount",
          "type": "uint256"
        }
      ],
      "name": "deposit",
      "outputs": [
        {
          "name": "",
          "type": "uint256"
        }
      ],
      "payable": false,
      "stateMutability": "nonpayable",
      "type": "function"
    },
    {
      "constant": false,
      "inputs": [
        {
          "name": "_token",
          "type": "address"
        },
        {
          "name": "_target",
          "type": "address"
        },
        {
          "name": "_amount",
          "type": "uint256"
        }
      ],
      "name": "depositFor",
      "outputs": [
        {
          "name": "",
          "type": "uint256"
        }
      ],
      "payable": false,
      "stateMutability": "nonpayable",
      "type": "function"
    },
    {
      "constant": false,
      "inputs": [
        {
          "name": "_token",
          "type": "address"
        },
        {
          "name": "_amount",
          "type": "uint256"
        },
        {
          "name": "_delegate",
          "type": "address"
        }
      ],
      "name": "lockDepositAndBecomeMiner",
      "outputs": [
        {
          "name": "",
          "type": "uint256"
        }
      ],
      "payable": false,
      "stateMutability": "nonpayable",
      "type": "function"
    },
    {
      "constant": false,
      "inputs": [
        {
          "name": "_token",
          "type": "address"
        }
      ],
      "name": "unlockDepositAndResignMiner",
      "outputs": [
        {
          "name": "",
          "type": "uint256"
        }
      ],
      "payable": false,
      "stateMutability": "nonpayable",
      "type": "function"
    },
    {
      "constant": false,
      "inputs": [
        {
          "name": "_token",
          "type": "address"
        },
        {
          "name": "_amount",
          "type": "uint256"
        }
      ],
      "name": "withdrawShares",
      "outputs": [
        {
          "name": "resultCode",
          "type": "uint256"
        }
      ],
      "payable": false,
      "stateMutability": "nonpayable",
      "type": "function"
    },
    {
      "constant": false,
      "inputs": [
        {
          "name": "_from",
          "type": "address"
        },
        {
          "name": "_token",
          "type": "address"
        },
        {
          "name": "_amount",
          "type": "uint256"
        }
      ],
      "name": "forceWithdrawShares",
      "outputs": [
        {
          "name": "resultCode",
          "type": "uint256"
        }
      ],
      "payable": false,
      "stateMutability": "nonpayable",
      "type": "function"
    },
    {
      "constant": true,
      "inputs": [],
      "name": "wallet",
      "outputs": [
        {
          "name": "",
          "type": "address"
        }
      ],
      "payable": false,
      "stateMutability": "view",
      "type": "function"
    },
    {
      "constant": true,
      "inputs": [
        {
          "name": "_token",
          "type": "address"
        }
      ],
      "name": "totalShares",
      "outputs": [
        {
          "name": "",
          "type": "uint256"
        }
      ],
      "payable": false,
      "stateMutability": "view",
      "type": "function"
    },
    {
      "constant": true,
      "inputs": [],
      "name": "defaultShareholdersCount",
      "outputs": [
        {
          "name": "",
          "type": "uint256"
        }
      ],
      "payable": false,
      "stateMutability": "view",
      "type": "function"
    },
    {
      "constant": true,
      "inputs": [
        {
          "name": "_token",
          "type": "address"
        }
      ],
      "name": "shareholdersCount",
      "outputs": [
        {
          "name": "",
          "type": "uint256"
        }
      ],
      "payable": false,
      "stateMutability": "view",
      "type": "function"
    },
    {
      "constant": true,
      "inputs": [
        {
          "name": "_token",
          "type": "address"
        }
      ],
      "name": "getLimitForToken",
      "outputs": [
        {
          "name": "",
          "type": "uint256"
        }
      ],
      "payable": false,
      "stateMutability": "view",
      "type": "function"
    },
    {
      "constant": true,
      "inputs": [],
      "name": "getDefaultShares",
      "outputs": [
        {
          "name": "",
          "type": "address"
        }
      ],
      "payable": false,
      "stateMutability": "view",
      "type": "function"
    }
  ],
  "bytecode": "0x60806040523480156200001157600080fd5b50604051604080620044a083398101604052805160209091015160008054600160a060020a03191633179055818181816200005d60028383640100000000620038676200028f82021704565b505060048054600160a060020a0319163017905550620000af905060067f736861726573436f6e74726163747353746f726167655f7632000000000000006401000000006200389a620002b582021704565b620000ea60097f6c696d6974416d6f756e747353746f726167655f763200000000000000000000640100000000620038a4620002ce82021704565b62000125600a7f6c697374656e6572735f76320000000000000000000000000000000000000000640100000000620038ae620002e382021704565b62000160600f7f74696d65486f6c64657257616c6c657453746f72616765000000000000000000640100000000620038b8620002f882021704565b6200019b60107f65726332304465706f73697453746f7261676500000000000000000000000000640100000000620038b8620002f882021704565b620001d660127f76616c696461746f724d616e6167657200000000000000000000000000000000640100000000620038b8620002f882021704565b6200021160137f64656c6567617465730000000000000000000000000000000000000000000000640100000000620038a4620002ce82021704565b6200024c60147f6d696e6572730000000000000000000000000000000000000000000000000000640100000000620038a4620002ce82021704565b6200028760117f7072696d6172794d696e65720000000000000000000000000000000000000000640100000000620038b8620002f882021704565b50506200075d565b8254600160a060020a031916600160a060020a0392909216919091178255600190910155565b620002ca828264010000000062000313810204565b5050565b620002ca8282640100000000620002f8810204565b620002ca8282640100000000620004c7810204565b81546200030f9082640100000000620004dc810204565b9055565b6040805160208082018490527f636f756e7400000000000000000000000000000000000000000000000000000082840152825160258184030181526045909201928390528151620003cf93869392909182918401908083835b602083106200038d5780518252601f1990920191602091820191016200036c565b6001836020036101000a0380198251168184511680821785525050505050509050019150506040518091039020620002f8640100000000026401000000009004565b6040805160208082018490527f696e646578657300000000000000000000000000000000000000000000000000828401528251602781840301815260479092019283905281516200044b9360018701939290918291840190808383602083106200038d5780518252601f1990920191602091820191016200036c565b6040805160208082018490527f76616c756573000000000000000000000000000000000000000000000000000082840152825160268184030181526046909201928390528151620002ca9360028701939290918291840190808383602083106200038d5780518252601f1990920191602091820191016200036c565b620002ca8282640100000000620004f4810204565b81151580620004e9575080155b15620002ca57600080fd5b6040805160208082018490527f75696e742f636f756e7400000000000000000000000000000000000000000000828401528251602a818403018152604a9092019283905281516200056d9386939290918291840190808383602083106200038d5780518252601f1990920191602091820191016200036c565b6040805160208082018490527f75696e742f666972737400000000000000000000000000000000000000000000828401528251602a818403018152604a909201928390528151620005e99360018701939290918291840190808383602083106200038d5780518252601f1990920191602091820191016200036c565b6040805160208082018490527f75696e742f6c617374000000000000000000000000000000000000000000000082840152825160298184030181526049909201928390528151620006659360028701939290918291840190808383602083106200038d5780518252601f1990920191602091820191016200036c565b6040805160208082018490527f75696e742f6e657874000000000000000000000000000000000000000000000082840152825160298184030181526049909201928390528151620006e19360038701939290918291840190808383602083106200038d5780518252601f1990920191602091820191016200036c565b6040805160208082018490527f75696e742f70726576000000000000000000000000000000000000000000000082840152825160298184030181526049909201928390528151620002ca9360048701939290918291840190808383602083106200038d5780518252601f1990920191602091820191016200036c565b613d33806200076d6000396000f3006080604052600436106102635763ffffffff60e060020a60003504166302927d208114610268578063044501181461029b57806306552ff3146102b05780630ae112a4146102e3578063143f85431461030a5780631ea08720146103365780633253fcc81461034b57806343bffe1c146103605780634592cd1d1461039157806345a9ff34146103ba57806347e7ef24146103cf578063521eb273146103f3578063557f4bc914610408578063562eb08d146104295780635882a5481461043e5780635aa77d3c1461046a5780635d1be4ac1461047f5780635ecb16cd1461049f57806364f56d50146104f45780636521afd7146105095780636680d8c11461052a57806366a3418e1461054b578063686166db1461056f5780636ab3c70014610596578063728994e7146105b75780637362377b146105e857806377cffc70146105fd578063792f6e23146106285780637fec2cf11461063d5780638834277e1461066857806388d43b91146106805780638b7711b4146106a7578063927a1ac7146106d15780639299834514610702578063956501bb1461072c5780639fb7b37a1461074d578063a4d4f0d21461076e578063a5ca552214610783578063a92ec968146107aa578063b05896b2146107ce578063b3d95c9c146107ef578063b3db428b14610804578063b59d9f161461082e578063bc37002c14610858578063bf6b874e1461086d578063c0ee0b8a1461088e578063c2df5af4146108bf578063ce606ee0146108d4578063e2ba4f78146108e9578063e9112e9a14610910578063f2fde38b14610939578063f5b6d9121461095a578063fff10aba1461097b575b600080fd5b34801561027457600080fd5b50610289600160a060020a0360043516610990565b60408051918252519081900360200190f35b3480156102a757600080fd5b506102896109cd565b3480156102bc57600080fd5b50610289600160a060020a03600435811690602435811690604435811690606435166109d3565b3480156102ef57600080fd5b50610289600160a060020a0360043581169060243516610c07565b34801561031657600080fd5b50610334600160a060020a0360043581169060243516604435610cb4565b005b34801561034257600080fd5b50610289610d03565b34801561035757600080fd5b50610289610d09565b34801561036c57600080fd5b50610375610da6565b60408051600160a060020a039092168252519081900360200190f35b34801561039d57600080fd5b506103a6610dbf565b604080519115158252519081900360200190f35b3480156103c657600080fd5b50610289610e4f565b3480156103db57600080fd5b50610289600160a060020a0360043516602435610e55565b3480156103ff57600080fd5b50610375610e69565b34801561041457600080fd5b506103a6600160a060020a0360043516610e7d565b34801561043557600080fd5b50610289610ed9565b34801561044a57600080fd5b506103346024600480358281019290820135918135918201910135610edf565b34801561047657600080fd5b5061037561103e565b34801561048b57600080fd5b50610334600480356024810191013561104d565b3480156104ab57600080fd5b5060408051602060048035808201358381028086018501909652808552610334953695939460249493850192918291850190849080828437509497506111049650505050505050565b34801561050057600080fd5b50610289611283565b34801561051557600080fd5b50610334600160a060020a0360043516611289565b34801561053657600080fd5b50610289600160a060020a03600435166112c8565b34801561055757600080fd5b50610289600160a060020a03600435166024356112dd565b34801561057b57600080fd5b50610289600160a060020a0360043581169060243516611321565b3480156105a257600080fd5b50610289600160a060020a03600435166113e8565b3480156105c357600080fd5b50610334600160a060020a03600435811690602435811690604435906064351661147e565b3480156105f457600080fd5b506103346114d6565b34801561060957600080fd5b50610334600160a060020a036004358116906024359060443516611533565b34801561063457600080fd5b50610289611582565b34801561064957600080fd5b50610289600160a060020a036004358116906024359060443516611588565b34801561067457600080fd5b50610334600435611997565b34801561068c57600080fd5b50610289600160a060020a03600435811690602435166119e2565b3480156106b357600080fd5b50610334600160a060020a0360043581169060243516604435611b24565b3480156106dd57600080fd5b50610334600160a060020a036004358116906024359060443581169060643516611b73565b34801561070e57600080fd5b50610334600160a060020a0360043581169060243516604435611bcb565b34801561073857600080fd5b50610289600160a060020a0360043516611c1a565b34801561075957600080fd5b50610289600160a060020a0360043516611c2d565b34801561077a57600080fd5b50610375611faa565b34801561078f57600080fd5b50610334600160a060020a0360043516602435604435611ff1565b3480156107b657600080fd5b50610289600160a060020a036004351660243561203f565b3480156107da57600080fd5b50610289600160a060020a0360043516612073565b3480156107fb57600080fd5b50610289612088565b34801561081057600080fd5b50610289600160a060020a036004358116906024351660443561208e565b34801561083a57600080fd5b50610289600160a060020a03600435811690602435166044356120c1565b34801561086457600080fd5b50610289612124565b34801561087957600080fd5b50610289600160a060020a036004351661212a565b34801561089a57600080fd5b5061033460048035600160a060020a031690602480359160443591820191013561218e565b3480156108cb57600080fd5b5061028961230c565b3480156108e057600080fd5b50610375612312565b3480156108f557600080fd5b50610334600160a060020a0360043581169060243516612321565b34801561091c57600080fd5b50610334600160a060020a0360043516602435604435151561236a565b34801561094557600080fd5b506103a6600160a060020a03600435166123b4565b34801561096657600080fd5b50610289600160a060020a0360043516612453565b34801561098757600080fd5b5061037561249b565b60008054600160a060020a03163314156109c857600160a060020a03821615156109b957600080fd5b6109c2826124bf565b50600190505b919050565b612eeb81565b60008054600160a060020a0316331415610bff57600160a060020a0385161515610a47576040805160e560020a62461bcd02815260206004820152601a60248201527f4e6f2064656661756c7420746f6b656e20737065636966696564000000000000604482015290519081900360640190fd5b600160a060020a0384161515610aa7576040805160e560020a62461bcd02815260206004820152601360248201527f4e6f2077616c6c65742073706563696669656400000000000000000000000000604482015290519081900360640190fd5b600160a060020a0383161515610b07576040805160e560020a62461bcd02815260206004820152601c60248201527f4e6f206465706f7369742073746f726167652073706563696669656400000000604482015290519081900360640190fd5b610b1a6002600f8663ffffffff6124f016565b610b2d600260108563ffffffff6124f016565b610b40600260068763ffffffff61258916565b610b7460026009877f800000000000000000000000000000000000000000000000000000000000000063ffffffff61259d16565b610b87600260128463ffffffff6124f016565b82600160a060020a0316630a57ce3b866040518263ffffffff1660e060020a0281526004018082600160a060020a0316600160a060020a03168152602001915050600060405180830381600087803b158015610be257600080fd5b505af1158015610bf6573d6000803e3d6000fd5b50505050600190505b949350505050565b6000610c116125b8565b604080517f0e7ae6a2000000000000000000000000000000000000000000000000000000008152600160a060020a038681166004830152858116602483015291519290911691630e7ae6a2916044808201926020929091908290030181600087803b158015610c7f57600080fd5b505af1158015610c93573d6000803e3d6000fd5b505050506040513d6020811015610ca957600080fd5b505190505b92915050565b60408051600160a060020a0380861682528416602082015280820183905290517ff8b9d08f6ef1f77e3ca6db264378f6e1587202fb5b3a97281808502d29f6aac69181900360600190a1505050565b612ee781565b6000610d136125b8565b600160a060020a0316636ab3c700610d29611faa565b6040518263ffffffff1660e060020a0281526004018082600160a060020a0316600160a060020a03168152602001915050602060405180830381600087803b158015610d7457600080fd5b505af1158015610d88573d6000803e3d6000fd5b505050506040513d6020811015610d9e57600080fd5b505190505b90565b6000610dba6002601163ffffffff6125cc16565b905090565b600154600090600160a060020a03163314610ddc57506000610da3565b60015460008054604051600160a060020a0393841693909116917f8be0079c531659141344cd1fd0a4f28419497f9722a3daafe3b4186f6b6457e091a350600180546000805473ffffffffffffffffffffffffffffffffffffffff19908116600160a060020a0384161790915516815590565b612ee681565b6000610e6283338461208e565b9392505050565b6000610dba6002600f63ffffffff6125cc16565b60008054600160a060020a03163314156109c857600160a060020a0382161515610ea9575060006109c8565b5060018054600160a060020a03831673ffffffffffffffffffffffffffffffffffffffff19909116178155919050565b612eea81565b60008054600160a060020a031633141561103757838214610f70576040805160e560020a62461bcd02815260206004820152602160248201527f4c656e67746873206f66206172726179732073686f756c64206265206571756160448201527f6c00000000000000000000000000000000000000000000000000000000000000606482015290519081900360840190fd5b5060005b8381101561103757610fae6006868684818110610f8d57fe5b90506020020135600160a060020a031660026125899092919063ffffffff16565b610ff66009868684818110610fbf57fe5b90506020020135600160a060020a03168585858181101515610fdd57fe5b90506020020135600261259d909392919063ffffffff16565b61102f85858381811061100557fe5b90506020020135600160a060020a0316848484818110151561102357fe5b90506020020135612640565b600101610f74565b5050505050565b600154600160a060020a031681565b60008054600160a060020a03163314156110ff575060005b818110156110ff5761109f600684848481811061107e57fe5b90506020020135600160a060020a031660026126cf9092919063ffffffff16565b6110d360098484848181106110b057fe5b60029392600160a060020a0360209092020135169050600063ffffffff61259d16565b6110f78383838181106110e257fe5b90506020020135600160a060020a03166126e3565b600101611065565b505050565b60008054819081908190600160a060020a03163314156110375760008054600160a060020a0316945092505b845183101561103757848381518110151561114757fe5b6020908102909101810151604080517f70a082310000000000000000000000000000000000000000000000000000000081523060048201529051919450600160a060020a038516926370a08231926024808401938290030181600087803b1580156111b157600080fd5b505af11580156111c5573d6000803e3d6000fd5b505050506040513d60208110156111db57600080fd5b5051905060008111156112785781600160a060020a031663a9059cbb85836040518363ffffffff1660e060020a0281526004018083600160a060020a0316600160a060020a0316815260200182815260200192505050602060405180830381600087803b15801561124b57600080fd5b505af115801561125f573d6000803e3d6000fd5b505050506040513d602081101561127557600080fd5b50505b600190920191611130565b612ee381565b600054600160a060020a03163314156112c5576004805473ffffffffffffffffffffffffffffffffffffffff1916600160a060020a0383161790555b50565b6000610cae600260098463ffffffff61276f16565b60008054600160a060020a0316331415610cae57611304836112fe85612073565b84612785565b61131860026015858563ffffffff61259d16565b50600192915050565b600080611337600260148563ffffffff61276f16565b9050600160a060020a038116151561135257600091506113e1565b61135a6125b8565b6040805160e160020a6302b19df1028152600160a060020a0387811660048301528481166024830152915192909116916305633be2916044808201926020929091908290030181600087803b1580156113b257600080fd5b505af11580156113c6573d6000803e3d6000fd5b505050506040513d60208110156113dc57600080fd5b505191505b5092915050565b60006113f26125b8565b600160a060020a0316636ab3c700836040518263ffffffff1660e060020a0281526004018082600160a060020a0316600160a060020a03168152602001915050602060405180830381600087803b15801561144c57600080fd5b505af1158015611460573d6000803e3d6000fd5b505050506040513d602081101561147657600080fd5b505192915050565b60408051600160a060020a03808716825280861660208301528183018590528316606082015290517f144845eeb484e3f074766eb65a15afd2889f6c747d90354396914e8365c6985a9181900360800190a150505050565b60008054600160a060020a03163314156112c55750303160008111156112c55760008054604051600160a060020a039091169183156108fc02918491818181858888f1935050505015801561152f573d6000803e3d6000fd5b5050565b60408051600160a060020a0380861682526020820185905283168183015290517ff8da3f67900ecbbcbf464ddc3aac8cfb6f8f4d389e8f4daf39245b474bb9d0069181900360600190a1505050565b612ee981565b600080600080600061159a8833610c07565b9350838711156115b6576115af612ee66127f7565b945061198c565b60006115cb600260148963ffffffff61276f16565b600160a060020a03161415806115fd575060006115f1600260133363ffffffff61276f16565b600160a060020a031614155b8061162a57506116156002601163ffffffff6125cc16565b600160a060020a031686600160a060020a0316145b1561163a576115af612eec6127f7565b61164d600260158a63ffffffff61276f16565b9250821515611661576115af612eea6127f7565b6116696125b8565b6040805160e160020a6302b19df1028152600160a060020a038b81166004830152336024830152915192909116916305633be2916044808201926020929091908290030181600087803b1580156116bf57600080fd5b505af11580156116d3573d6000803e3d6000fd5b505050506040513d60208110156116e957600080fd5b50519150868201831115611702576115af612ee96127f7565b61170a6125b8565b604080517fad5c590b000000000000000000000000000000000000000000000000000000008152600160a060020a038b81166004830152600080516020613ce88339815191526024830152604482018b90529151929091169163ad5c590b9160648082019260009290919082900301818387803b15801561178a57600080fd5b505af115801561179e573d6000803e3d6000fd5b505050506117aa6125b8565b604080517f7750c9f0000000000000000000000000000000000000000000000000000000008152600160a060020a038b81166004830152336024830152604482018b905291519290911691637750c9f09160648082019260009290919082900301818387803b15801561181c57600080fd5b505af1158015611830573d6000803e3d6000fd5b5050505061183f888833612867565b61185360026013338963ffffffff6128e316565b61186760026014883363ffffffff6128e316565b6118796002601263ffffffff6125cc16565b905080600160a060020a031663a00745b6876040518263ffffffff1660e060020a0281526004018082600160a060020a0316600160a060020a03168152602001915050602060405180830381600087803b1580156118d657600080fd5b505af11580156118ea573d6000803e3d6000fd5b505050506040513d602081101561190057600080fd5b50511561190957fe5b80600160a060020a0316634d238c8e876040518263ffffffff1660e060020a0281526004018082600160a060020a0316600160a060020a03168152602001915050600060405180830381600087803b15801561196457600080fd5b505af1158015611978573d6000803e3d6000fd5b505050506119878887896128fb565b600194505b505050509392505050565b61199f612977565b600160a060020a03167f09e0713b45664e161c202b19bb4574ee83dfa056f9bfdee56847b3971d968221826040518082815260200191505060405180910390a250565b60006119f66002601163ffffffff6125cc16565b600160a060020a031682600160a060020a03161415611ac457611a176125b8565b604080517fb07ca360000000000000000000000000000000000000000000000000000000008152600160a060020a038681166004830152600080516020613ce883398151915260248301529151929091169163b07ca360916044808201926020929091908290030181600087803b158015611a9157600080fd5b505af1158015611aa5573d6000803e3d6000fd5b505050506040513d6020811015611abb57600080fd5b50519050610cae565b611acc6125b8565b6040805160e160020a6302b19df1028152600160a060020a0386811660048301528581166024830152915192909116916305633be2916044808201926020929091908290030181600087803b158015610c7f57600080fd5b60408051600160a060020a0380861682528416602082015280820183905290517f5548c837ab068cf56a2c2479df0882a4922fd203edb7517321831d95078c5f629181900360600190a1505050565b60408051600160a060020a03808716825260208201869052808516828401528316606082015290517f480950d381dfb63ded3038889b0a72c5cb27d4edc534ded2b67c4eb755048fe59181900360800190a150505050565b60408051600160a060020a0380861682528416602082015280820183905290517f4591eed276a861c7644e317650244c397ceaffeaaf396af8afb08c09002afbee9181900360600190a1505050565b6000610cae611c27611faa565b83610c07565b6000808080611c446002601163ffffffff6125cc16565b600160a060020a03163314611fa257611c5b6125b8565b6040805160e160020a6302b19df1028152600160a060020a038881166004830152336024830152915192909116916305633be2916044808201926020929091908290030181600087803b158015611cb157600080fd5b505af1158015611cc5573d6000803e3d6000fd5b505050506040513d6020811015611cdb57600080fd5b50519250821515611cf857611cf1612eeb6127f7565b9350611fa2565b611d006125b8565b604080517f59508f8f000000000000000000000000000000000000000000000000000000008152600160a060020a03888116600483015233602483015260448201879052915192909116916359508f8f9160648082019260009290919082900301818387803b158015611d7257600080fd5b505af1158015611d86573d6000803e3d6000fd5b50505050611d926125b8565b604080517f8f5a15b6000000000000000000000000000000000000000000000000000000008152600160a060020a038881166004830152600080516020613ce883398151915260248301526044820187905291519290911691638f5a15b69160648082019260009290919082900301818387803b158015611e1257600080fd5b505af1158015611e26573d6000803e3d6000fd5b50611e40925060029150601390503363ffffffff61276f16565b9150600160a060020a0382161515611e5457fe5b611e666002601263ffffffff6125cc16565b905080600160a060020a031663a00745b6836040518263ffffffff1660e060020a0281526004018082600160a060020a0316600160a060020a03168152602001915050602060405180830381600087803b158015611ec357600080fd5b505af1158015611ed7573d6000803e3d6000fd5b505050506040513d6020811015611eed57600080fd5b505115611f685780600160a060020a03166340a141ff836040518263ffffffff1660e060020a0281526004018082600160a060020a0316600160a060020a03168152602001915050600060405180830381600087803b158015611f4f57600080fd5b505af1158015611f63573d6000803e3d6000fd5b505050505b611f7d6002601333600063ffffffff6128e316565b611f926002601484600063ffffffff6128e316565b611f9d85338561297b565b600193505b505050919050565b6000611fb46125b8565b600160a060020a031663c61f44b86040518163ffffffff1660e060020a028152600401602060405180830381600087803b158015610d7457600080fd5b60408051600160a060020a03851681526020810184905280820183905290517f7be24371a03224387976fc7610f0539a1243ee7af1c962f698c36e26505c0a299181900360600190a1505050565b600061204d833333856129f7565b90506001811461206757612060816127f7565b9050610cae565b610cae83338433612caa565b6000610cae600260158463ffffffff61276f16565b612eec81565b6000836120a4600260068363ffffffff612d4c16565b156120b9576120b68585856000612d62565b91505b509392505050565b60008054600160a060020a0316331415610e62576000546120ef9084908690600160a060020a0316856129f7565b90506001811461210957612102816127f7565b9050610e62565b600054610e6290849086908590600160a060020a0316612caa565b612ee081565b60006121346125b8565b600160a060020a031663bf6b874e836040518263ffffffff1660e060020a0281526004018082600160a060020a0316600160a060020a03168152602001915050602060405180830381600087803b15801561144c57600080fd5b6000806121a4600260063363ffffffff612d4c16565b151561223c5733600160a060020a031663ec5568896040518163ffffffff1660e060020a028152600401602060405180830381600087803b1580156121e857600080fd5b505af11580156121fc573d6000803e3d6000fd5b505050506040513d602081101561221257600080fd5b50519050612229600260068363ffffffff612d4c16565b151561223457600080fd5b809150612240565b3391505b600160a060020a03821615156122a0576040805160e560020a62461bcd02815260206004820152601e60248201527f43616c6c65722073686f756c64206265206120455243323020746f6b656e0000604482015290519081900360640190fd5b6122ad8287876001612d62565b600114612304576040805160e560020a62461bcd02815260206004820152601e60248201527f43616e6e6f74206465706f7369742070726f766964656420746f6b656e730000604482015290519081900360640190fd5b505050505050565b612ee881565b600054600160a060020a031681565b60408051600160a060020a0380851682528316602082015281517f057ac668be4c6eb3ed0b546e37fd869270a2c6c953f5e6720a6a22bf661497f0929181900390910190a15050565b60408051600160a060020a0385168152602081018490528151831515927f360225f74eacd06eefedf821b89c21c7c975b645503e5198c6a60a62f84e302b928290030190a2505050565b60008054600160a060020a03163314156109c857600160a060020a03821615156123e0575060006109c8565b60008054604051600160a060020a03808616939216917f8be0079c531659141344cd1fd0a4f28419497f9722a3daafe3b4186f6b6457e091a35060008054600160a060020a03831673ffffffffffffffffffffffffffffffffffffffff1991821617909155600180549091168155919050565b600080548190600160a060020a031633141561249557612471610da6565b9050612486600260118563ffffffff6124f016565b612490818461314e565b600191505b50919050565b600554600090600160a060020a03168015156124b757306124b9565b805b91505090565b60058054600160a060020a03831673ffffffffffffffffffffffffffffffffffffffff199091161790556001919050565b825460018401548354604080517f79a7cfee00000000000000000000000000000000000000000000000000000000815260048101939093526024830191909152600160a060020a03848116604484015290519216916379a7cfee9160648082019260009290919082900301818387803b15801561256c57600080fd5b505af1158015612580573d6000803e3d6000fd5b50505050505050565b6110ff8383600160a060020a0384166131c3565b6125b28484600160a060020a038516846131ef565b50505050565b6000610dba6002601063ffffffff6125cc16565b815460018301548254604080517fd3a396860000000000000000000000000000000000000000000000000000000081526004810193909352602483019190915251600092600160a060020a03169163d3a3968691604480830192602092919082900301818787803b158015610c7f57600080fd5b6126486132d4565b604080517fe9112e9a000000000000000000000000000000000000000000000000000000008152600160a060020a03858116600483015260248201859052600160448301529151929091169163e9112e9a9160648082019260009290919082900301818387803b1580156126bb57600080fd5b505af1158015612304573d6000803e3d6000fd5b6110ff8383600160a060020a0384166132de565b6126eb6132d4565b604080517fe9112e9a000000000000000000000000000000000000000000000000000000008152600160a060020a03848116600483015260006024830181905260448301819052925193169263e9112e9a9260648084019391929182900301818387803b15801561275b57600080fd5b505af1158015611037573d6000803e3d6000fd5b6000610bff8484600160a060020a03851661330a565b61278d6132d4565b600160a060020a031663a5ca55228484846040518463ffffffff1660e060020a0281526004018084600160a060020a0316600160a060020a031681526020018381526020018281526020019350505050600060405180830381600087803b15801561256c57600080fd5b600061280161249b565b600160a060020a0316638834277e836040518263ffffffff1660e060020a02815260040180828152602001915050600060405180830381600087803b15801561284957600080fd5b505af115801561285d573d6000803e3d6000fd5b5093949350505050565b61286f6132d4565b604080517f77cffc70000000000000000000000000000000000000000000000000000000008152600160a060020a038681166004830152602482018690528481166044830152915192909116916377cffc709160648082019260009290919082900301818387803b15801561256c57600080fd5b6125b28484600160a060020a038086169085166131ef565b6129036132d4565b604080517f143f8543000000000000000000000000000000000000000000000000000000008152600160a060020a0386811660048301528581166024830152604482018590529151929091169163143f85439160648082019260009290919082900301818387803b15801561256c57600080fd5b3390565b6129836132d4565b604080517f92998345000000000000000000000000000000000000000000000000000000008152600160a060020a0386811660048301528581166024830152604482018590529151929091169163929983459160648082019260009290919082900301818387803b15801561256c57600080fd5b600080612a0c6002601163ffffffff6125cc16565b600160a060020a03161515612a2757612ee860005260206000f35b600160a060020a0386161515612a87576040805160e560020a62461bcd02815260206004820152601560248201527f4e6f20746f6b656e206973207370656369666965640000000000000000000000604482015290519081900360640190fd5b612a918686610c07565b905080831115612aad57612aa6612ee66127f7565b9150612ca1565b612ab56125b8565b604080517fad5c590b000000000000000000000000000000000000000000000000000000008152600160a060020a038981166004830152600080516020613ce88339815191526024830152604482018790529151929091169163ad5c590b9160648082019260009290919082900301818387803b158015612b3557600080fd5b505af1158015612b49573d6000803e3d6000fd5b50505050612b55610e69565b604080517fd9caed12000000000000000000000000000000000000000000000000000000008152600160a060020a0389811660048301528781166024830152604482018790529151929091169163d9caed12916064808201926020929091908290030181600087803b158015612bca57600080fd5b505af1158015612bde573d6000803e3d6000fd5b505050506040513d6020811015612bf457600080fd5b50511515612c0157600080fd5b612c096125b8565b604080517f64496475000000000000000000000000000000000000000000000000000000008152600160a060020a038981166004830152888116602483015260448201879052606482018590529151929091169163644964759160848082019260009290919082900301818387803b158015612c8457600080fd5b505af1158015612c98573d6000803e3d6000fd5b50505050600191505b50949350505050565b612cb26132d4565b604080517f728994e7000000000000000000000000000000000000000000000000000000008152600160a060020a03878116600483015286811660248301526044820186905284811660648301529151929091169163728994e79160848082019260009290919082900301818387803b158015612d2e57600080fd5b505af1158015612d42573d6000803e3d6000fd5b5050505050505050565b6000610bff8484600160a060020a03851661341a565b600080612d776002601163ffffffff6125cc16565b600160a060020a03161515612d9257612ee860005260206000f35b600160a060020a0386161515612df2576040805160e560020a62461bcd02815260206004820152601560248201527f4e6f20746f6b656e206973207370656369666965640000000000000000000000604482015290519081900360640190fd5b612e046002601163ffffffff6125cc16565b9050600160a060020a038581169082161415612e6a576040805160e560020a62461bcd02815260206004820152601c60248201527f4d696e657220636f756e646e27742068617665206465706f7369747300000000604482015290519081900360640190fd5b612e73866112c8565b841115612e8557612aa6612ee76127f7565b828015612f25575085600160a060020a031663a9059cbb612ea4610e69565b866040518363ffffffff1660e060020a0281526004018083600160a060020a0316600160a060020a0316815260200182815260200192505050602060405180830381600087803b158015612ef757600080fd5b505af1158015612f0b573d6000803e3d6000fd5b505050506040513d6020811015612f2157600080fd5b5051155b15612f3557612aa6612ee36127f7565b82158015612fe75750612f46610e69565b604080517f8340f549000000000000000000000000000000000000000000000000000000008152600160a060020a0389811660048301523360248301526044820188905291519290911691638340f549916064808201926020929091908290030181600087803b158015612fb957600080fd5b505af1158015612fcd573d6000803e3d6000fd5b505050506040513d6020811015612fe357600080fd5b5051155b15612ff757612aa6612ee36127f7565b612fff6125b8565b604080517fb3db428b000000000000000000000000000000000000000000000000000000008152600160a060020a0389811660048301528881166024830152604482018890529151929091169163b3db428b9160648082019260009290919082900301818387803b15801561307357600080fd5b505af1158015613087573d6000803e3d6000fd5b50505050613096868686613448565b61309e6125b8565b604080517f8f5a15b6000000000000000000000000000000000000000000000000000000008152600160a060020a038981166004830152600080516020613ce883398151915260248301526044820188905291519290911691638f5a15b69160648082019260009290919082900301818387803b15801561311e57600080fd5b505af1158015613132573d6000803e3d6000fd5b50505050613142868583886134c4565b50600195945050505050565b6131566132d4565b604080517fe2ba4f78000000000000000000000000000000000000000000000000000000008152600160a060020a03858116600483015284811660248301529151929091169163e2ba4f789160448082019260009290919082900301818387803b1580156126bb57600080fd5b6110ff83837f736574000000000000000000000000000000000000000000000000000000000084613548565b835460018501548454604080516020808201939093528082018790528151808203830181526060909101918290528051600160a060020a039095169463a14ff85794939192918291908401908083835b6020831061325e5780518252601f19909201916020918201910161323f565b5181516020939093036101000a60001901801990911692169190911790526040805191909301819003812063ffffffff881660e060020a02825260048201969096526024810195909552506044840187905251606480850194600094509192509082900301818387803b158015612d2e57600080fd5b6000610dba61249b565b6110ff83837f73657400000000000000000000000000000000000000000000000000000000008461359c565b825460018401548354604080516020808201939093528082018690528151808203830181526060909101918290528051600095600160a060020a0316946337d9d7fc9490939182918401908083835b602083106133785780518252601f199092019160209182019101613359565b51815160209384036101000a60001901801990921691161790526040805192909401829003822063ffffffff891660e060020a028352600483019790975260248201969096529151604480840196955090935091839003909101905081600087803b1580156133e657600080fd5b505af11580156133fa573d6000803e3d6000fd5b505050506040513d602081101561341057600080fd5b5051949350505050565b6000610bff84847f736574000000000000000000000000000000000000000000000000000000000085613641565b6134506132d4565b604080517f8b7711b4000000000000000000000000000000000000000000000000000000008152600160a060020a03868116600483015285811660248301526044820185905291519290911691638b7711b49160648082019260009290919082900301818387803b15801561256c57600080fd5b6134cc6132d4565b604080517f927a1ac7000000000000000000000000000000000000000000000000000000008152600160a060020a03878116600483015260248201879052858116604483015284811660648301529151929091169163927a1ac79160848082019260009290919082900301818387803b158015612d2e57600080fd5b600061355685858585613641565b1561356057611037565b61356b85858561365d565b6001019050613580856002860185848661366a565b613590856001860185858561366a565b611037858585846136f5565b60008060006135ad87878787613641565b15156135b857612580565b6135c387878761365d565b92506135d487600288018786613763565b91506135e587876001018787613763565b90508281101561360f576135ff876001880187858561366a565b61360f876002880187848661366a565b61362087600188018787600061366a565b61363187600288018786600061366a565b61258087878760001987016136f5565b600061365285856001018585613763565b151595945050505050565b6000610bff8484846137fa565b60408051602080820186905281830185905282518083038401815260609092019283905281516110379389938993909282918401908083835b602083106136c25780518252601f1990920191602091820191016136a3565b6001836020036101000a0380198251168184511680821785525050505050509050019150506040518091039020846131ef565b835460018501548454604080516020808201939093528082018790528151808203830181526060909101918290528051600160a060020a03909516946353e7168b94939192918291908401908083836020831061325e5780518252601f19909201916020918201910161323f565b60408051602080820185905281830184905282518083038401815260609092019283905281516000936137f1938993899391929182918401908083835b602083106137bf5780518252601f1990920191602091820191016137a0565b6001836020036101000a038019825116818451168082178552505050505050905001915050604051809103902061330a565b95945050505050565b825460018401548354604080516020808201939093528082018690528151808203830181526060909101918290528051600095600160a060020a0316946353aa3f5e949093918291840190808383602083106133785780518252601f199092019160209182019101613359565b825473ffffffffffffffffffffffffffffffffffffffff1916600160a060020a0392909216919091178255600190910155565b61152f82826138d2565b61152f82826138b8565b61152f8282613a6d565b81546138c49082613a77565b9055565b61152f82826138b8565b6040805160208082018490527f636f756e740000000000000000000000000000000000000000000000000000008284015282516025818403018152604590920192839052815161397b93869392909182918401908083835b602083106139495780518252601f19909201916020918201910161392a565b6001836020036101000a03801982511681845116808217855250505050505090500191505060405180910390206138b8565b6040805160208082018490527f696e646578657300000000000000000000000000000000000000000000000000828401528251602781840301815260479092019283905281516139f49360018701939290918291840190808383602083106139495780518252601f19909201916020918201910161392a565b6040805160208082018490527f76616c75657300000000000000000000000000000000000000000000000000008284015282516026818403018152604690920192839052815161152f9360028701939290918291840190808383602083106139495780518252601f19909201916020918201910161392a565b61152f8282613a8d565b81151580613a83575080155b1561152f57600080fd5b6040805160208082018490527f75696e742f636f756e7400000000000000000000000000000000000000000000828401528251602a818403018152604a909201928390528151613b039386939290918291840190808383602083106139495780518252601f19909201916020918201910161392a565b6040805160208082018490527f75696e742f666972737400000000000000000000000000000000000000000000828401528251602a818403018152604a909201928390528151613b7c9360018701939290918291840190808383602083106139495780518252601f19909201916020918201910161392a565b6040805160208082018490527f75696e742f6c617374000000000000000000000000000000000000000000000082840152825160298184030181526049909201928390528151613bf59360028701939290918291840190808383602083106139495780518252601f19909201916020918201910161392a565b6040805160208082018490527f75696e742f6e657874000000000000000000000000000000000000000000000082840152825160298184030181526049909201928390528151613c6e9360038701939290918291840190808383602083106139495780518252601f19909201916020918201910161392a565b6040805160208082018490527f75696e742f7072657600000000000000000000000000000000000000000000008284015282516029818403018152604990920192839052815161152f9360048701939290918291840190808383602083106139495780518252601f19909201916020918201910161392a56007072696d6172795f6d696e65725f6b6579000000000000000000000000000000a165627a7a7230582032e5b030fdc3e67dc92f3d462068e034b195f3f02543736b85c04a550b46995d0029",
  "source": "/**\n * Copyright 20172018, LaborX PTY\n * Licensed under the AGPL Version 3 license.\n */\n\npragma solidity ^0.4.23;\n\n\nimport \"../common/BaseManager.sol\";\nimport \"../common/ERC223ReceivingContract.sol\";\nimport \"../platform/ChronoBankAsset.sol\";\nimport { ERC20Interface as ERC20 } from \"solidity-shared-lib/contracts/ERC20Interface.sol\";\nimport \"../lib/SafeMath.sol\";\nimport \"./TimeHolderWallet.sol\";\nimport \"./ERC20DepositStorage.sol\";\nimport \"./TimeHolderEmitter.sol\";\nimport \"../validators/LXValidatorManager.sol\";\n\n\n/// @title TimeHolder\n/// @notice Contract allows to block some amount of shares\" balance to unlock\n/// functionality inside a system.\ncontract TimeHolder is BaseManager, TimeHolderEmitter, ERC223ReceivingContract {\n\n    using SafeMath for uint;\n\n    /** Error codes */\n\n    uint public constant ERROR_TIMEHOLDER_ALREADY_ADDED = 12000;\n    uint public constant ERROR_TIMEHOLDER_TRANSFER_FAILED = 12003;\n    uint public constant ERROR_TIMEHOLDER_INSUFFICIENT_BALANCE = 12006;\n    uint public constant ERROR_TIMEHOLDER_LIMIT_EXCEEDED = 12007;\n    uint public constant ERROR_TIMEHOLDER_MINER_REQUIRED = 12008;\n    uint public constant ERROR_TIMEHOLDER_MINING_LIMIT_NOT_REACHED = 12009;\n    uint public constant ERROR_TIMEHOLDER_INVALID_MINING_LIMIT = 12010;\n    uint public constant ERROR_TIMEHOLDER_NOTHING_TO_UNLOCK = 12011;\n    uint public constant ERROR_TIMEHOLDER_ALREADY_MINER = 12012;\n\n    bytes32 constant TIMEHOLDER_MINER_KEY = \"primary_miner_key\";\n\n    /** Storage keys */\n\n    /// @dev Contains addresses of tokens that are used as shares\n    StorageInterface.AddressesSet private sharesTokenStorage;\n    /// @dev Mapping of (token address => limit value) for storing deposit limits\n    StorageInterface.AddressUIntMapping private limitsStorage;\n    /// @dev Mapping of (token address => list of listeners) for holding list of listeners for each share token\n    StorageInterface.AddressOrderedSetMapping private listeners;\n    /// @dev Address of TimeHolder wallet\n    StorageInterface.Address private walletStorage;\n    /// @dev Address of ERC20DepositStorage contract\n    StorageInterface.Address private erc20DepositStorage;\n\n    StorageInterface.Address private primaryMinerStorage;\n\n    StorageInterface.Address private validatorManager;\n\n    /// depositor -> mining delegate\n    StorageInterface.AddressAddressMapping private delegates;\n\n    /// mining delegate -> delegate\n    StorageInterface.AddressAddressMapping private miners;\n\n    /// @dev Mapping of (token address => mining deposits limit amount) for storing lower border of deposits that a user should have to be a miner\n    StorageInterface.AddressUIntMapping private miningDepositLimitsStorage;\n\n    /// @dev only token registered in whitelist\n    modifier onlyAllowedToken(address _token) {\n        if (store.includes(sharesTokenStorage, _token)) {\n            _;\n        }\n    }\n\n    /// @dev TODO\n    modifier onlyWithMiner {\n        if (store.get(primaryMinerStorage) == 0x0) {\n            assembly {\n                mstore(0, 12008) // ERROR_TIMEHOLDER_MINER_REQUIRED\n                return(0, 32)\n            }\n        }\n        _;\n    }\n\n    modifier onlyNotMiner {\n        if (msg.sender != store.get(primaryMinerStorage)) {\n            _;\n        }\n    }\n\n    /// @notice Constructor\n    constructor(Storage _store, bytes32 _crate)\n    public\n    BaseManager(_store, _crate)\n    {\n        sharesTokenStorage.init(\"sharesContractsStorage_v2\");\n        limitsStorage.init(\"limitAmountsStorage_v2\");\n        listeners.init(\"listeners_v2\");\n        walletStorage.init(\"timeHolderWalletStorage\");\n        erc20DepositStorage.init(\"erc20DepositStorage\");\n        validatorManager.init(\"validatorManager\");\n        delegates.init(\"delegates\");\n        miners.init(\"miners\");\n\n        primaryMinerStorage.init(\"primaryMiner\");\n    }\n\n    /// @notice Init TimeHolder contract.\n    /// @return result code of an operation\n    function init(\n        address _defaultToken,\n        address _wallet,\n        address _erc20DepositStorage,\n        address _validatorManager\n    )\n    public\n    onlyContractOwner\n    returns (uint)\n    {\n        require(_defaultToken != 0x0, \"No default token specified\");\n        require(_wallet != 0x0, \"No wallet specified\");\n        require(_erc20DepositStorage != 0x0, \"No deposit storage specified\");\n\n        store.set(walletStorage, _wallet);\n        store.set(erc20DepositStorage, _erc20DepositStorage);\n\n        store.add(sharesTokenStorage, _defaultToken);\n        store.set(limitsStorage, _defaultToken, 2**255);\n\n        store.set(validatorManager, _validatorManager);\n\n        ERC20DepositStorage(_erc20DepositStorage).setSharesContract(_defaultToken);\n\n        return OK;\n    }\n\n    /// @notice Sets EventsHistory contract address.\n    /// @dev Can be set only by owner.\n    /// @param _eventsHistory MultiEventsHistory contract address.\n    /// @return success.\n    function setupEventsHistory(address _eventsHistory) \n    external \n    onlyContractOwner \n    returns (uint errorCode) \n    {\n        require(_eventsHistory != 0x0);\n\n        _setEventsHistory(_eventsHistory);\n        return OK;\n    }\n\n    /* ERC223 Receiving */\n    function tokenFallback(\n        address _from, \n        uint _value, \n        bytes\n    ) \n    external \n    {\n        // try to check for non-platform based tokens\n        address _token;\n        if (!store.includes(sharesTokenStorage, msg.sender)) {\n            // try to check for platform-based asset\n            address _assetProxy = ChronoBankAsset(msg.sender).proxy();\n            if (!store.includes(sharesTokenStorage, _assetProxy)) {\n                revert();\n            }\n            \n            _token = _assetProxy;\n        }\n        else {\n            _token = msg.sender;\n        }\n\n        require(_token != 0x0, \"Caller should be a ERC20 token\");\n        require(OK == _depositShares(_token, _from, _value, true), \"Cannot deposit provided tokens\");\n    }\n\n    /// @notice Gets shares amount deposited by a particular shareholder.\n    /// @param _depositor shareholder address.\n    /// @return shares amount.\n    function depositBalance(address _depositor)\n    public\n    view\n    returns (uint)\n    {\n        return getDepositBalance(getDefaultShares(), _depositor);\n    }\n\n    /// @notice Gets balance of tokens deposited to TimeHolder\n    /// @param _token token to check\n    /// @param _depositor shareholder address\n    /// @return _balance shares amount.\n    function getDepositBalance(address _token, address _depositor)\n    public\n    view\n    returns (uint _balance)\n    {\n        return getDepositStorage().depositBalance(_token, _depositor);\n    }\n\n    /// @notice Gets locked amount of tokens for the depositor\n    /// @param _token token address that is used for mining\n    /// @param _depositor user address\n    /// @return _balance total locked balance on a miner's account\n    function getLockedDepositBalance(address _token, address _depositor)\n    public\n    view\n    returns (uint _balance)\n    {\n        if (_depositor == store.get(primaryMinerStorage)) {\n            return getDepositStorage().lockedDepositBalanceWithKey(_token, TIMEHOLDER_MINER_KEY);\n        }\n\n        return getDepositStorage().lockedDepositBalance(_token, _depositor);\n    }\n\n    /// @notice Gets locked amount of tokens for delegated account\n    /// @param _token token address that is used for mining\n    /// @param _delegate delegate address\n    /// @return _balance total locked balance on a miner's account\n    function getLockedDepositBalanceForDelegate(address _token, address _delegate)\n    public\n    view\n    returns (uint _balance)\n    {\n        address depositor = store.get(miners, _delegate);\n        if (depositor == address(0)) {\n            return 0;\n        }\n\n        return getDepositStorage().lockedDepositBalance(_token, depositor);\n    }\n\n    /// @notice Gets primary miner address\n    function getPrimaryMiner()\n    public\n    view\n    returns (address)\n    {\n        return store.get(primaryMinerStorage);\n    }\n\n    /// @notice Sets an address as a primary miner\n    /// @param _miner an address of the future miner\n    /// @return result of an operation\n    function setPrimaryMiner(address _miner)\n    external\n    onlyContractOwner\n    returns (uint)\n    {\n        address _oldMiner = getPrimaryMiner();\n        store.set(primaryMinerStorage, _miner);\n\n        _emitPrimaryMinerChanged(_oldMiner, _miner);\n        return OK;\n    }\n\n    /// @notice Gets mining deposit limit for a token\n    /// @return minimum amount for tokens that a user will be able to lock to be a miner\n    function getMiningDepositLimits(address _token)\n    public\n    view\n    returns (uint) {\n        return store.get(miningDepositLimitsStorage, _token);\n    }\n\n    /// @notice Sets mining deposit limit for a token\n    /// @param _token token address\n    /// @param _limit minimum amount for tokens that a user will be able to lock to be a miner\n    /// @return result of an operation\n    function setMiningDepositLimits(address _token, uint _limit)\n    onlyContractOwner\n    external\n    returns (uint) {\n        _emitMiningDepositLimitsChanged(_token, getMiningDepositLimits(_token), _limit);\n\n        store.set(miningDepositLimitsStorage, _token, _limit);\n\n        return OK;\n    }\n\n    /// @notice Adds ERC20-compatible token symbols and put them in the whitelist to be used then as\n    /// shares for other contracts and allow users to deposit for this share.\n    ///\n    /// @dev Allowed only for CBEs\n    ///\n    /// @param _whitelist list of token addresses that will be allowed to be deposited in TimeHolder\n    /// @param _limits list of limits\n    function allowShares(address[] _whitelist, uint[] _limits)\n    external\n    onlyContractOwner\n    {\n        require(_whitelist.length == _limits.length, \"Lengths of arrays should be equal\");\n\n        for (uint _idx = 0; _idx < _whitelist.length; ++_idx) {\n            store.add(sharesTokenStorage, _whitelist[_idx]);\n            store.set(limitsStorage, _whitelist[_idx], _limits[_idx]);\n\n            _emitSharesWhiteListAdded(_whitelist[_idx], _limits[_idx]);\n        }\n    }\n\n    /// @notice Removes ERC20-compatible token symbols from TimeHolder so they will be removed\n    /// from the whitelist and will not be accessible to be used as shares.\n    /// All deposited amounts still will be available to withdraw.\n    /// @dev Allowed only for CBEs\n    ///\n    /// @param _blacklist list of token addresses that will be removed from TimeHolder\n    function denyShares(address[] _blacklist)\n    external\n    onlyContractOwner\n    {\n        for (uint _idx = 0; _idx < _blacklist.length; ++_idx) {\n            store.remove(sharesTokenStorage, _blacklist[_idx]);\n            store.set(limitsStorage, _blacklist[_idx], 0);\n\n            _emitSharesWhiteListRemoved(_blacklist[_idx]);\n        }\n    }\n\n    /// @notice Deposits shares with provided symbol and prove possesion.\n    /// Amount should be less than or equal to current allowance value.\n    ///\n    /// Proof should be repeated for each active period. To prove possesion without\n    /// depositing more shares, specify 0 amount.\n    ///\n    /// @param _token token address for shares\n    /// @param _amount amount of shares to deposit, or 0 to just prove.\n    ///\n    /// @return result code of an operation.\n    function deposit(address _token, uint _amount)\n    public\n    returns (uint)\n    {\n        return depositFor(_token, msg.sender, _amount);\n    }\n\n    /// @notice Deposit own shares and prove possession for arbitrary shareholder.\n    /// Amount should be less than or equal to caller current allowance value.\n    ///\n    /// Proof should be repeated for each active period. To prove possesion without\n    /// depositing more shares, specify 0 amount.\n    ///\n    /// This function meant to be used by some backend application to prove shares possesion\n    /// of arbitrary shareholders.\n    ///\n    /// @param _token token address for shares\n    /// @param _target to deposit and prove for.\n    /// @param _amount amount of shares to deposit, or 0 to just prove.\n    ///\n    /// @return result code of an operation.\n    function depositFor(address _token, address _target, uint _amount)\n    public\n    onlyAllowedToken(_token)\n    returns (uint)\n    {\n        return _depositShares(_token, _target, _amount, false);\n    }\n\n    /// @notice Locks provided amount of tokens from user's TimeHolder deposit\n    /// and use them to allow a user to be a miner. Could be called more than once\n    /// for a single user, but the first call should provide _amount according to\n    /// miningDepositLimits value.\n    /// Emits two events: BecomeMiner event - when first lock is performed,\n    /// and DepositLock - for every lock invocation.\n    /// @param _token token address that is used for mining\n    /// @param _amount amount of tokens to lock. Should be greater or equal to miningDepositLimits value\n    /// @return result of an operation\n    function lockDepositAndBecomeMiner(address _token, uint _amount, address _delegate)\n    external\n    returns (uint) {\n        uint _balance = getDepositBalance(_token, msg.sender);\n        if (_amount > _balance) {\n            return _emitErrorCode(ERROR_TIMEHOLDER_INSUFFICIENT_BALANCE);\n        }\n\n        if (store.get(miners, _delegate) != address(0x0) ||\n            store.get(delegates, msg.sender) != address(0x0) ||\n            _delegate == store.get(primaryMinerStorage)\n        ) {\n            return _emitErrorCode(ERROR_TIMEHOLDER_ALREADY_MINER);\n        }\n\n        uint _miningDepositLimits = store.get(miningDepositLimitsStorage, _token);\n        if (_miningDepositLimits == 0) {\n            return _emitErrorCode(ERROR_TIMEHOLDER_INVALID_MINING_LIMIT);\n        }\n\n        uint _lockedAmount = getDepositStorage().lockedDepositBalance(_token, msg.sender);\n        if (_lockedAmount + _amount < _miningDepositLimits) {\n            return _emitErrorCode(ERROR_TIMEHOLDER_MINING_LIMIT_NOT_REACHED);\n        }\n\n        getDepositStorage().unsafeUnlock(_token, TIMEHOLDER_MINER_KEY, _amount);\n        getDepositStorage().lock(_token, msg.sender, _amount);\n\n        _emitDepositLocked(_token, _amount, msg.sender);\n\n        store.set(delegates, msg.sender, _delegate);\n        store.set(miners, _delegate, msg.sender);\n\n        LXValidatorManager manager = LXValidatorManager(store.get(validatorManager));\n        assert(!manager.isPending(_delegate));\n\n        manager.addValidator(_delegate);\n        _emitBecomeMiner(_token, _delegate, _amount);\n\n        return OK;\n    }\n\n    /// @notice Unlocks deposit and open it for other use cases. Transfers all locked amount to user's TimeHolder record\n    /// Emits ResignMiner event.\n    /// @param _token target token address that is used for mining\n    /// @return result of an operation\n    function unlockDepositAndResignMiner(address _token)\n    external\n    onlyNotMiner\n    returns (uint) {\n        uint _lockedAmount = getDepositStorage().lockedDepositBalance(_token, msg.sender);\n        if (_lockedAmount == 0) {\n            return _emitErrorCode(ERROR_TIMEHOLDER_NOTHING_TO_UNLOCK);\n        }\n\n        getDepositStorage().unlock(_token, msg.sender, _lockedAmount);\n        getDepositStorage().unsafeLock(_token, TIMEHOLDER_MINER_KEY, _lockedAmount);\n\n        address delegate = store.get(delegates, msg.sender);\n        assert(delegate != address(0x0));\n\n        LXValidatorManager manager = LXValidatorManager(store.get(validatorManager));\n        if (manager.isPending(delegate)) {\n            manager.removeValidator(delegate);\n        }\n\n        store.set(delegates, msg.sender, address(0x0));\n        store.set(miners, delegate, address(0x0));\n\n        _emitResignMiner(_token, msg.sender, _lockedAmount);\n        return OK;\n    }\n\n    /// @notice Withdraw shares from the contract, updating the possesion proof in active period.\n    /// @param _token token symbol to withdraw from.\n    /// @param _amount amount of shares to withdraw.\n    /// @return resultCode result code of an operation.\n    function withdrawShares(address _token, uint _amount)\n    public\n    returns (uint resultCode)\n    {\n        resultCode = _withdrawShares(_token, msg.sender, msg.sender, _amount);\n        if (resultCode != OK) {\n            return _emitErrorCode(resultCode);\n        }\n\n        _emitWithdrawShares(_token, msg.sender, _amount, msg.sender);\n    }\n\n    /// @notice Force Withdraw Shares\n    /// Only contract owner is permited to call this function.\n    function forceWithdrawShares(address _from, address _token, uint _amount)\n    onlyContractOwner\n    public\n    returns (uint resultCode) {\n        resultCode = _withdrawShares(_token, _from, contractOwner, _amount);\n        if (resultCode != OK) {\n            return _emitErrorCode(resultCode);\n        }\n\n        _emitWithdrawShares(_token, _from, _amount, contractOwner);\n    }\n\n    /// @notice Gets an associated wallet for the time holder\n    function wallet()\n    public\n    view\n    returns (TimeHolderWallet)\n    {\n        return TimeHolderWallet(store.get(walletStorage));\n    }\n\n    /// @notice Total amount of shares for provided symbol\n    /// @param _token token address to check total shares amout\n    /// @return total amount of shares\n    function totalShares(address _token)\n    public\n    view\n    returns (uint)\n    {\n        return getDepositStorage().totalShares(_token);\n    }\n\n    /// @notice Number of shareholders\n    /// @return number of shareholders\n    function defaultShareholdersCount()\n    public\n    view\n    returns (uint)\n    {\n        return getDepositStorage().shareholdersCount(getDefaultShares());\n    }\n\n    /// @notice Number of shareholders\n    /// @return number of shareholders\n    function shareholdersCount(address _token)\n    public\n    view\n    returns (uint)\n    {\n        return getDepositStorage().shareholdersCount(_token);\n    }\n\n    /// @notice Returns deposit/withdraw limit for shares with provided symbol\n    /// @param _token token address to get limit\n    /// @return limit number for specified shares\n    function getLimitForToken(address _token)\n    public\n    view\n    returns (uint)\n    {\n        return store.get(limitsStorage, _token);\n    }\n\n    /// @notice Gets shares contract that is set up as default (usually TIMEs)\n    function getDefaultShares()\n    public\n    view\n    returns (address)\n    {\n        return getDepositStorage().getSharesContract();\n    }\n\n    function _depositShares(address _token, address _target, uint _amount, bool _direct)\n    internal\n    onlyWithMiner\n    returns (uint)\n    {\n        require(_token != 0x0, \"No token is specified\");\n        address _primaryMiner = store.get(primaryMinerStorage);\n        require(_target != _primaryMiner, \"Miner coundn't have deposits\");\n\n        if (_amount > getLimitForToken(_token)) {\n            return _emitErrorCode(ERROR_TIMEHOLDER_LIMIT_EXCEEDED);\n        }\n\n        if (_direct && \n            !ERC20(_token).transfer(wallet(), _amount)\n        ) {\n            return _emitErrorCode(ERROR_TIMEHOLDER_TRANSFER_FAILED);\n        } \n        else if (!_direct && \n                 !wallet().deposit(_token, msg.sender, _amount)\n        ) {\n            return _emitErrorCode(ERROR_TIMEHOLDER_TRANSFER_FAILED);\n        }\n\n        getDepositStorage().depositFor(_token, _target, _amount);\n        _emitDeposit(_token, _target, _amount);\n\n        getDepositStorage().unsafeLock(_token, TIMEHOLDER_MINER_KEY, _amount);\n        _emitMinerDeposited(_token, _amount, _primaryMiner, _target);\n\n        return OK;\n    }\n\n    /// @notice Withdraws deposited amount of tokens from account to a receiver address.\n    /// Emits its own errorCodes if some will be encountered.\n    ///\n    /// @param _account an address that have deposited tokens\n    /// @param _receiver an address that will receive tokens from _account\n    /// @param _amount amount of tokens to withdraw to the _receiver\n    ///\n    /// @return result code of the operation\n    function _withdrawShares(\n        address _token,\n        address _account,\n        address _receiver,\n        uint _amount\n    )\n    onlyWithMiner\n    internal\n    returns (uint)\n    {\n        require(_token != 0x0, \"No token is specified\");\n\n        uint _depositBalance = getDepositBalance(_token, _account);\n        if (_amount > _depositBalance) {\n            return _emitErrorCode(ERROR_TIMEHOLDER_INSUFFICIENT_BALANCE);\n        }\n\n        getDepositStorage().unsafeUnlock(_token, TIMEHOLDER_MINER_KEY, _amount);\n\n        require(wallet().withdraw(_token, _receiver, _amount));\n\n        getDepositStorage().withdrawShares(_token, _account, _amount, _depositBalance);\n\n        return OK;\n    }\n\n    /// @dev Gets pair of depositStorage and default token set up for a deposits\n    ///\n    /// @return {\n    ///     \"_depositStorage\": \"deposit storage contract\",\n    ///     \"_token\": \"default shares contract\",\n    /// }\n    function getDepositStorage()\n    private\n    view\n    returns (ERC20DepositStorage _depositStorage)\n    {\n        _depositStorage = ERC20DepositStorage(store.get(erc20DepositStorage));\n    }\n\n    /** Event emitting */\n\n    function _emitPrimaryMinerChanged(address from, address to)\n    private\n    {\n        emitter().emitPrimaryMinerChanged(from, to);\n    }\n\n    function _emitMiningDepositLimitsChanged(address _token, uint _from, uint _to)\n    private\n    {\n        emitter().emitMiningDepositLimitsChanged(_token, _from, _to);\n    }\n\n    function _emitDepositLocked(address _token, uint _amount, address _user)\n    private\n    {\n        emitter().emitDepositLocked(_token, _amount, _user);\n    }\n\n    function _emitBecomeMiner(address _token, address _miner, uint _totalDepositLocked)\n    private\n    {\n        emitter().emitBecomeMiner(_token, _miner, _totalDepositLocked);\n    }\n\n    function _emitResignMiner(address _token, address _miner, uint _depositUnlocked)\n    private\n    {\n        emitter().emitResignMiner(_token, _miner, _depositUnlocked);\n    }\n\n    function _emitMinerDeposited(address token, uint amount, address miner, address sender)\n    private\n    {\n        emitter().emitMinerDeposited(token, amount, miner, sender);\n    }\n\n    function _emitDeposit(address _token, address _who, uint _amount)\n    private\n    {\n        emitter().emitDeposit(_token, _who, _amount);\n    }\n\n    function _emitWithdrawShares(address _token, address _who, uint _amount, address _receiver)\n    private\n    {\n        emitter().emitWithdrawShares(_token, _who, _amount, _receiver);\n    }\n\n    function _emitSharesWhiteListAdded(address _token, uint _limit)\n    private\n    {\n        emitter().emitSharesWhiteListChanged(_token, _limit, true);\n    }\n\n    function _emitSharesWhiteListRemoved(address _token)\n    private\n    {\n        emitter().emitSharesWhiteListChanged(_token, 0, false);\n    }\n\n    function emitter()\n    private\n    view\n    returns(TimeHolderEmitter)\n    {\n        return TimeHolderEmitter(getEventsHistory());\n    }\n}\n",
  "sourcePath": "/Users/alesanro/Documents/Projects/ChronoBank/LXsidechain-sc/contracts/timeholder/TimeHolder.sol",
  "compiler": {
    "name": "solc",
    "version": "0.4.24+commit.e67f0147.Emscripten.clang"
  },
  "schemaVersion": "2.0.1",
  "updatedAt": "2018-07-27T20:29:51.046Z"
}